{
  "address": "0xb1DA2a176AFf0AD58f925154aCb2AefB8005AfD0",
  "abi": [
    {
      "anonymous": false,
      "inputs": [
        {
          "indexed": false,
          "internalType": "address",
          "name": "previousAdmin",
          "type": "address"
        },
        {
          "indexed": false,
          "internalType": "address",
          "name": "newAdmin",
          "type": "address"
        }
      ],
      "name": "AdminChanged",
      "type": "event"
    },
    {
      "anonymous": false,
      "inputs": [
        {
          "indexed": true,
          "internalType": "address",
          "name": "beacon",
          "type": "address"
        }
      ],
      "name": "BeaconUpgraded",
      "type": "event"
    },
    {
      "anonymous": false,
      "inputs": [
        {
          "indexed": false,
          "internalType": "address",
          "name": "lootToken",
          "type": "address"
        },
        {
          "indexed": false,
          "internalType": "address",
          "name": "sharesToken",
          "type": "address"
        }
      ],
      "name": "DeployBaalTokens",
      "type": "event"
    },
    {
      "anonymous": false,
      "inputs": [
        {
          "indexed": false,
          "internalType": "uint8",
          "name": "version",
          "type": "uint8"
        }
      ],
      "name": "Initialized",
      "type": "event"
    },
    {
      "anonymous": false,
      "inputs": [
        {
          "indexed": true,
          "internalType": "address",
          "name": "previousOwner",
          "type": "address"
        },
        {
          "indexed": true,
          "internalType": "address",
          "name": "newOwner",
          "type": "address"
        }
      ],
      "name": "OwnershipTransferred",
      "type": "event"
    },
    {
      "anonymous": false,
      "inputs": [
        {
          "indexed": false,
          "internalType": "address",
          "name": "summoner",
          "type": "address"
        }
      ],
      "name": "SetSummoner",
      "type": "event"
    },
    {
      "anonymous": false,
      "inputs": [
        {
          "indexed": true,
          "internalType": "address",
          "name": "implementation",
          "type": "address"
        }
      ],
      "name": "Upgraded",
      "type": "event"
    },
    {
      "inputs": [],
      "name": "_baalSummoner",
      "outputs": [
        {
          "internalType": "contract IBaalSummoner",
          "name": "",
          "type": "address"
        }
      ],
      "stateMutability": "view",
      "type": "function"
    },
    {
      "inputs": [],
      "name": "initialize",
      "outputs": [],
      "stateMutability": "nonpayable",
      "type": "function"
    },
    {
      "inputs": [],
      "name": "owner",
      "outputs": [
        {
          "internalType": "address",
          "name": "",
          "type": "address"
        }
      ],
      "stateMutability": "view",
      "type": "function"
    },
    {
      "inputs": [],
      "name": "proxiableUUID",
      "outputs": [
        {
          "internalType": "bytes32",
          "name": "",
          "type": "bytes32"
        }
      ],
      "stateMutability": "view",
      "type": "function"
    },
    {
      "inputs": [],
      "name": "renounceOwnership",
      "outputs": [],
      "stateMutability": "nonpayable",
      "type": "function"
    },
    {
      "inputs": [
        {
          "internalType": "address",
          "name": "baalSummoner",
          "type": "address"
        }
      ],
      "name": "setSummonerAddr",
      "outputs": [],
      "stateMutability": "nonpayable",
      "type": "function"
    },
    {
      "inputs": [
        {
          "internalType": "uint256",
          "name": "_saltNonce",
          "type": "uint256"
        },
        {
          "internalType": "bytes",
          "name": "_initializationMintParams",
          "type": "bytes"
        },
        {
          "internalType": "bytes",
          "name": "_initializationTokenParams",
          "type": "bytes"
        },
        {
          "internalType": "bytes[]",
          "name": "_postInitializationActions",
          "type": "bytes[]"
        }
      ],
      "name": "summonBaalFromReferrer",
      "outputs": [
        {
          "internalType": "address",
          "name": "_baal",
          "type": "address"
        }
      ],
      "stateMutability": "payable",
      "type": "function"
    },
    {
      "inputs": [
        {
          "internalType": "address",
          "name": "newOwner",
          "type": "address"
        }
      ],
      "name": "transferOwnership",
      "outputs": [],
      "stateMutability": "nonpayable",
      "type": "function"
    },
    {
      "inputs": [
        {
          "internalType": "address",
          "name": "newImplementation",
          "type": "address"
        }
      ],
      "name": "upgradeTo",
      "outputs": [],
      "stateMutability": "nonpayable",
      "type": "function"
    },
    {
      "inputs": [
        {
          "internalType": "address",
          "name": "newImplementation",
          "type": "address"
        },
        {
          "internalType": "bytes",
          "name": "data",
          "type": "bytes"
        }
      ],
      "name": "upgradeToAndCall",
      "outputs": [],
      "stateMutability": "payable",
      "type": "function"
    }
  ],
  "numDeployments": 2,
  "solcInputHash": "a722f036a06895fe5bf5ae5ceae3865a",
  "bytecode": "0x60a06040523060805234801561001457600080fd5b5060805161254b61004c600039600081816101fd01528181610249015281816102db0152818161031e01526103a3015261254b6000f3fe6080604052600436106200009d5760003560e01c80638129fc1c11620000605780638129fc1c14620001595780638da5cb5b1462000171578063bb6decc81462000191578063eb7a86c314620001b6578063f2fde38b14620001cd57600080fd5b806314b630f914620000a25780633659cfe614620000dc5780634f1ef286146200010357806352d1902d146200011a578063715018a61462000141575b600080fd5b348015620000af57600080fd5b5060c954620000c4906001600160a01b031681565b604051620000d391906200143f565b60405180910390f35b348015620000e957600080fd5b5062000101620000fb36600462001469565b620001f2565b005b62000101620001143660046200153f565b620002d0565b3480156200012757600080fd5b506200013262000396565b604051908152602001620000d3565b3480156200014e57600080fd5b506200010162000447565b3480156200016657600080fd5b50620001016200045f565b3480156200017e57600080fd5b506033546001600160a01b0316620000c4565b3480156200019e57600080fd5b5062000101620001b036600462001469565b62000583565b620000c4620001c7366004620015f4565b62000621565b348015620001da57600080fd5b5062000101620001ec36600462001469565b620008e1565b306001600160a01b037f0000000000000000000000000000000000000000000000000000000000000000161415620002475760405162461bcd60e51b81526004016200023e90620016d2565b60405180910390fd5b7f00000000000000000000000000000000000000000000000000000000000000006001600160a01b03166200027b6200095d565b6001600160a01b031614620002a45760405162461bcd60e51b81526004016200023e906200171e565b620002af816200097a565b60408051600080825260208201909252620002cd9183919062000984565b50565b306001600160a01b037f00000000000000000000000000000000000000000000000000000000000000001614156200031c5760405162461bcd60e51b81526004016200023e90620016d2565b7f00000000000000000000000000000000000000000000000000000000000000006001600160a01b0316620003506200095d565b6001600160a01b031614620003795760405162461bcd60e51b81526004016200023e906200171e565b62000384826200097a565b620003928282600162000984565b5050565b6000306001600160a01b037f00000000000000000000000000000000000000000000000000000000000000001614620004335760405162461bcd60e51b815260206004820152603860248201527f555550535570677261646561626c653a206d757374206e6f742062652063616c6044820152771b1959081d1a1c9bdd59da0819195b1959d85d1958d85b1b60421b60648201526084016200023e565b50600080516020620024cf83398151915290565b6200045162000b01565b6200045d600062000b5d565b565b600054610100900460ff1615808015620004805750600054600160ff909116105b806200049c5750303b1580156200049c575060005460ff166001145b620005015760405162461bcd60e51b815260206004820152602e60248201527f496e697469616c697a61626c653a20636f6e747261637420697320616c72656160448201526d191e481a5b9a5d1a585b1a5e995960921b60648201526084016200023e565b6000805460ff19166001179055801562000525576000805461ff0019166101001790555b6200052f62000baf565b6200053962000be3565b8015620002cd576000805461ff0019169055604051600181527f7f26b83ff96e1f2b6a682f133852f6798a09c465da95921460cefb3847402498906020015b60405180910390a150565b6200058d62000b01565b6001600160a01b038116620005d45760405162461bcd60e51b815260206004820152600c60248201526b7a65726f206164647265737360a01b60448201526064016200023e565b60c980546001600160a01b0319166001600160a01b0383161790556040517f6a1a56ce1e458951bd377a7576e93281224c4ad66871da59b6f4589bed57327a90620005789083906200143f565b600080600062000632878762000c0d565b91509150620006448989848462000f4a565b60c960009054906101000a90046001600160a01b03166001600160a01b031663209f3695826001600160a01b03166306fdde036040518163ffffffff1660e01b8152600401600060405180830381865afa158015620006a7573d6000803e3d6000fd5b505050506040513d6000823e601f3d908101601f19168201604052620006d1919081019062001799565b836001600160a01b03166395d89b416040518163ffffffff1660e01b8152600401600060405180830381865afa15801562000710573d6000803e3d6000fd5b505050506040513d6000823e601f3d908101601f191682016040526200073a919081019062001799565b6000808787604051602001620007569695949392919062001846565b60408051601f19818403018152828201909152601b82527f4465566f784261616c416476546f6b656e53756d6d6f6e657256310000000000602083015290889088908f90620007a590620018a3565b6040518663ffffffff1660e01b8152600401620007c7959493929190620018f4565b6020604051808303816000875af1158015620007e7573d6000803e3d6000fd5b505050506040513d601f19601f820116820180604052508101906200080d9190620019b5565b60405163f2fde38b60e01b81529093506001600160a01b0383169063f2fde38b906200083e9086906004016200143f565b600060405180830381600087803b1580156200085957600080fd5b505af11580156200086e573d6000803e3d6000fd5b505060405163f2fde38b60e01b81526001600160a01b038416925063f2fde38b9150620008a09086906004016200143f565b600060405180830381600087803b158015620008bb57600080fd5b505af1158015620008d0573d6000803e3d6000fd5b505050505050979650505050505050565b620008eb62000b01565b6001600160a01b038116620009525760405162461bcd60e51b815260206004820152602660248201527f4f776e61626c653a206e6577206f776e657220697320746865207a65726f206160448201526564647265737360d01b60648201526084016200023e565b620002cd8162000b5d565b600080516020620024cf833981519152546001600160a01b031690565b620002cd62000b01565b7f4910fdfa16fed3260ed0e7147f7cc6da11a60208b5b9406d12a635614ffd91435460ff1615620009bf57620009ba836200118b565b505050565b826001600160a01b03166352d1902d6040518163ffffffff1660e01b8152600401602060405180830381865afa92505050801562000a1c575060408051601f3d908101601f1916820190925262000a1991810190620019d5565b60015b62000a815760405162461bcd60e51b815260206004820152602e60248201527f45524331393637557067726164653a206e657720696d706c656d656e7461746960448201526d6f6e206973206e6f74205555505360901b60648201526084016200023e565b600080516020620024cf833981519152811462000af35760405162461bcd60e51b815260206004820152602960248201527f45524331393637557067726164653a20756e737570706f727465642070726f786044820152681a58589b195555525160ba1b60648201526084016200023e565b50620009ba8383836200122a565b6033546001600160a01b031633146200045d5760405162461bcd60e51b815260206004820181905260248201527f4f776e61626c653a2063616c6c6572206973206e6f7420746865206f776e657260448201526064016200023e565b603380546001600160a01b038381166001600160a01b0319831681179093556040519116919082907f8be0079c531659141344cd1fd0a4f28419497f9722a3daafe3b4186f6b6457e090600090a35050565b600054610100900460ff1662000bd95760405162461bcd60e51b81526004016200023e90620019ef565b6200045d6200125b565b600054610100900460ff166200045d5760405162461bcd60e51b81526004016200023e90620019ef565b60008080808080808062000c24898b018b62001a73565b955095509550955095509550600060c960009054906101000a90046001600160a01b03166001600160a01b031663d9118ce76040518163ffffffff1660e01b8152600401602060405180830381865afa15801562000c86573d6000803e3d6000fd5b505050506040513d601f19601f8201168201806040525081019062000cac9190620019b5565b9050600060c960009054906101000a90046001600160a01b03166001600160a01b031663a23466186040518163ffffffff1660e01b8152600401602060405180830381865afa15801562000d04573d6000803e3d6000fd5b505050506040513d601f19601f8201168201806040525081019062000d2a9190620019b5565b90508163562d190d60e01b878760405160240162000d4a92919062001b50565b60408051601f198184030181529181526020820180516001600160e01b03166001600160e01b031990941693909317909252905162000d899062001431565b62000d9692919062001b79565b604051809103906000f08015801562000db3573d6000803e3d6000fd5b5099508063562d190d60e01b898960405160240162000dd492919062001b50565b60408051601f198184030181529181526020820180516001600160e01b03166001600160e01b031990941693909317909252905162000e139062001431565b62000e2092919062001b79565b604051809103906000f08015801562000e3d573d6000803e3d6000fd5b5098508362000e9c57886001600160a01b0316638456cb596040518163ffffffff1660e01b8152600401600060405180830381600087803b15801562000e8257600080fd5b505af115801562000e97573d6000803e3d6000fd5b505050505b8262000ef857896001600160a01b0316638456cb596040518163ffffffff1660e01b8152600401600060405180830381600087803b15801562000ede57600080fd5b505af115801562000ef3573d6000803e3d6000fd5b505050505b604080516001600160a01b03808d1682528b1660208201527ffb5849d45e916a3192059973d782e08b2b3888fa796f536d99af0c7bd01ca16c910160405180910390a150505050505050509250929050565b6000808062000f5c8688018862001c32565b9250925092508151835114801562000f75575080518351145b62000fb35760405162461bcd60e51b815260206004820152600d60248201526c2161727261792070617269747960981b60448201526064016200023e565b60005b83518110156200118157600082828151811062000fd75762000fd762001d28565b602002602001015111156200109657856001600160a01b03166340c10f198583815181106200100a576200100a62001d28565b602002602001015185848151811062001027576200102762001d28565b60200260200101516040518363ffffffff1660e01b8152600401620010619291906001600160a01b03929092168252602082015260400190565b600060405180830381600087803b1580156200107c57600080fd5b505af115801562001091573d6000803e3d6000fd5b505050505b6000838281518110620010ad57620010ad62001d28565b602002602001015111156200116c57846001600160a01b03166340c10f19858381518110620010e057620010e062001d28565b6020026020010151858481518110620010fd57620010fd62001d28565b60200260200101516040518363ffffffff1660e01b8152600401620011379291906001600160a01b03929092168252602082015260400190565b600060405180830381600087803b1580156200115257600080fd5b505af115801562001167573d6000803e3d6000fd5b505050505b80620011788162001d3e565b91505062000fb6565b5050505050505050565b6001600160a01b0381163b620011fa5760405162461bcd60e51b815260206004820152602d60248201527f455243313936373a206e657720696d706c656d656e746174696f6e206973206e60448201526c1bdd08184818dbdb9d1c9858dd609a1b60648201526084016200023e565b600080516020620024cf83398151915280546001600160a01b0319166001600160a01b0392909216919091179055565b620012358362001290565b600082511180620012435750805b15620009ba57620012558383620012d2565b50505050565b600054610100900460ff16620012855760405162461bcd60e51b81526004016200023e90620019ef565b6200045d3362000b5d565b6200129b816200118b565b6040516001600160a01b038216907fbc7cd75a20ee27fd9adebab32041f755214dbc6bffa90cc0225b39da2e5c2d3b90600090a250565b6060620012fa8383604051806060016040528060278152602001620024ef6027913962001301565b9392505050565b6060600080856001600160a01b03168560405162001320919062001d68565b600060405180830381855af49150503d80600081146200135d576040519150601f19603f3d011682016040523d82523d6000602084013e62001362565b606091505b509150915062001375868383876200137f565b9695505050505050565b60608315620013f0578251620013e8576001600160a01b0385163b620013e85760405162461bcd60e51b815260206004820152601d60248201527f416464726573733a2063616c6c20746f206e6f6e2d636f6e747261637400000060448201526064016200023e565b5081620013fc565b620013fc838362001404565b949350505050565b815115620014155781518083602001fd5b8060405162461bcd60e51b81526004016200023e919062001d86565b6107338062001d9c83390190565b6001600160a01b0391909116815260200190565b6001600160a01b0381168114620002cd57600080fd5b6000602082840312156200147c57600080fd5b8135620012fa8162001453565b634e487b7160e01b600052604160045260246000fd5b604051601f8201601f191681016001600160401b0381118282101715620014ca57620014ca62001489565b604052919050565b60006001600160401b03821115620014ee57620014ee62001489565b50601f01601f191660200190565b6000620015136200150d84620014d2565b6200149f565b90508281528383830111156200152857600080fd5b828260208301376000602084830101529392505050565b600080604083850312156200155357600080fd5b8235620015608162001453565b915060208301356001600160401b038111156200157c57600080fd5b8301601f810185136200158e57600080fd5b6200159f85823560208401620014fc565b9150509250929050565b60008083601f840112620015bc57600080fd5b5081356001600160401b03811115620015d457600080fd5b602083019150836020828501011115620015ed57600080fd5b9250929050565b60008060008060008060006080888a0312156200161057600080fd5b8735965060208801356001600160401b03808211156200162f57600080fd5b6200163d8b838c01620015a9565b909850965060408a01359150808211156200165757600080fd5b620016658b838c01620015a9565b909650945060608a01359150808211156200167f57600080fd5b818a0191508a601f8301126200169457600080fd5b813581811115620016a457600080fd5b8b60208260051b8501011115620016ba57600080fd5b60208301945080935050505092959891949750929550565b6020808252602c908201527f46756e6374696f6e206d7573742062652063616c6c6564207468726f7567682060408201526b19195b1959d85d1958d85b1b60a21b606082015260800190565b6020808252602c908201527f46756e6374696f6e206d7573742062652063616c6c6564207468726f7567682060408201526b6163746976652070726f787960a01b606082015260800190565b60005b83811015620017875781810151838201526020016200176d565b83811115620012555750506000910152565b600060208284031215620017ac57600080fd5b81516001600160401b03811115620017c357600080fd5b8201601f81018413620017d557600080fd5b8051620017e66200150d82620014d2565b818152856020838501011115620017fc57600080fd5b6200180f8260208301602086016200176a565b95945050505050565b60008151808452620018328160208601602086016200176a565b601f01601f19169290920160200192915050565b60c0815260006200185b60c083018962001818565b82810360208401526200186f818962001818565b6001600160a01b03978816604085015295871660608401525050918416608083015290921660a09092019190915292915050565b80516020808301519190811015620018c5576000198160200360031b1b821691505b50919050565b81835281816020850137506000828201602090810191909152601f909101601f19169091010190565b60808152600062001909608083018862001818565b602083820381850152818783528183019050818860051b8401018960005b8a8110156200199c57858303601f190184528135368d9003601e190181126200194f57600080fd5b8c0180356001600160401b038111156200196857600080fd5b8036038e13156200197857600080fd5b620019878582898501620018cb565b95870195945050509084019060010162001927565b5050604086019790975250505050606001529392505050565b600060208284031215620019c857600080fd5b8151620012fa8162001453565b600060208284031215620019e857600080fd5b5051919050565b6020808252602b908201527f496e697469616c697a61626c653a20636f6e7472616374206973206e6f74206960408201526a6e697469616c697a696e6760a81b606082015260800190565b600082601f83011262001a4c57600080fd5b620012fa83833560208501620014fc565b8035801515811462001a6e57600080fd5b919050565b60008060008060008060c0878903121562001a8d57600080fd5b86356001600160401b038082111562001aa557600080fd5b62001ab38a838b0162001a3a565b9750602089013591508082111562001aca57600080fd5b62001ad88a838b0162001a3a565b9650604089013591508082111562001aef57600080fd5b62001afd8a838b0162001a3a565b9550606089013591508082111562001b1457600080fd5b5062001b2389828a0162001a3a565b93505062001b346080880162001a5d565b915062001b4460a0880162001a5d565b90509295509295509295565b60408152600062001b65604083018562001818565b82810360208401526200180f818562001818565b6001600160a01b0383168152604060208201819052600090620013fc9083018462001818565b60006001600160401b0382111562001bbb5762001bbb62001489565b5060051b60200190565b600082601f83011262001bd757600080fd5b8135602062001bea6200150d8362001b9f565b82815260059290921b8401810191818101908684111562001c0a57600080fd5b8286015b8481101562001c27578035835291830191830162001c0e565b509695505050505050565b60008060006060848603121562001c4857600080fd5b83356001600160401b038082111562001c6057600080fd5b818601915086601f83011262001c7557600080fd5b8135602062001c886200150d8362001b9f565b82815260059290921b8401810191818101908a84111562001ca857600080fd5b948201945b8386101562001cd357853562001cc38162001453565b8252948201949082019062001cad565b9750508701359250508082111562001cea57600080fd5b62001cf88783880162001bc5565b9350604086013591508082111562001d0f57600080fd5b5062001d1e8682870162001bc5565b9150509250925092565b634e487b7160e01b600052603260045260246000fd5b600060001982141562001d6157634e487b7160e01b600052601160045260246000fd5b5060010190565b6000825162001d7c8184602087016200176a565b9190910192915050565b602081526000620012fa60208301846200181856fe60806040526040516107333803806107338339810160408190526100229161031e565b61002e82826000610035565b505061043b565b61003e8361006b565b60008251118061004b5750805b156100665761006483836100ab60201b6100291760201c565b505b505050565b610074816100d7565b6040516001600160a01b038216907fbc7cd75a20ee27fd9adebab32041f755214dbc6bffa90cc0225b39da2e5c2d3b90600090a250565b60606100d0838360405180606001604052806027815260200161070c602791396101a9565b9392505050565b6100ea8161022260201b6100551760201c565b6101515760405162461bcd60e51b815260206004820152602d60248201527f455243313936373a206e657720696d706c656d656e746174696f6e206973206e60448201526c1bdd08184818dbdb9d1c9858dd609a1b60648201526084015b60405180910390fd5b806101887f360894a13ba1a3210667c828492db98dca3e2076cc3735a920a3ca505d382bbc60001b61023160201b6100641760201c565b80546001600160a01b0319166001600160a01b039290921691909117905550565b6060600080856001600160a01b0316856040516101c691906103ec565b600060405180830381855af49150503d8060008114610201576040519150601f19603f3d011682016040523d82523d6000602084013e610206565b606091505b50909250905061021886838387610234565b9695505050505050565b6001600160a01b03163b151590565b90565b606083156102a0578251610299576001600160a01b0385163b6102995760405162461bcd60e51b815260206004820152601d60248201527f416464726573733a2063616c6c20746f206e6f6e2d636f6e74726163740000006044820152606401610148565b50816102aa565b6102aa83836102b2565b949350505050565b8151156102c25781518083602001fd5b8060405162461bcd60e51b81526004016101489190610408565b634e487b7160e01b600052604160045260246000fd5b60005b8381101561030d5781810151838201526020016102f5565b838111156100645750506000910152565b6000806040838503121561033157600080fd5b82516001600160a01b038116811461034857600080fd5b60208401519092506001600160401b038082111561036557600080fd5b818501915085601f83011261037957600080fd5b81518181111561038b5761038b6102dc565b604051601f8201601f19908116603f011681019083821181831017156103b3576103b36102dc565b816040528281528860208487010111156103cc57600080fd5b6103dd8360208301602088016102f2565b80955050505050509250929050565b600082516103fe8184602087016102f2565b9190910192915050565b60208152600082518060208401526104278160408501602087016102f2565b601f01601f19169190910160400192915050565b6102c28061044a6000396000f3fe60806040523661001357610011610017565b005b6100115b610027610022610067565b61009f565b565b606061004e8383604051806060016040528060278152602001610266602791396100c3565b9392505050565b6001600160a01b03163b151590565b90565b600061009a7f360894a13ba1a3210667c828492db98dca3e2076cc3735a920a3ca505d382bbc546001600160a01b031690565b905090565b3660008037600080366000845af43d6000803e8080156100be573d6000f35b3d6000fd5b6060600080856001600160a01b0316856040516100e09190610216565b600060405180830381855af49150503d806000811461011b576040519150601f19603f3d011682016040523d82523d6000602084013e610120565b606091505b50915091506101318683838761013b565b9695505050505050565b606083156101aa5782516101a35761015285610055565b6101a35760405162461bcd60e51b815260206004820152601d60248201527f416464726573733a2063616c6c20746f206e6f6e2d636f6e747261637400000060448201526064015b60405180910390fd5b50816101b4565b6101b483836101bc565b949350505050565b8151156101cc5781518083602001fd5b8060405162461bcd60e51b815260040161019a9190610232565b60005b838110156102015781810151838201526020016101e9565b83811115610210576000848401525b50505050565b600082516102288184602087016101e6565b9190910192915050565b60208152600082518060208401526102518160408501602087016101e6565b601f01601f1916919091016040019291505056fe416464726573733a206c6f772d6c6576656c2064656c65676174652063616c6c206661696c6564a2646970667358221220b0e68f1a4a8b2a87647f69ae480fc6171b2734a850d60040e35bfd0bd0c1569564736f6c634300080c0033416464726573733a206c6f772d6c6576656c2064656c65676174652063616c6c206661696c6564360894a13ba1a3210667c828492db98dca3e2076cc3735a920a3ca505d382bbc416464726573733a206c6f772d6c6576656c2064656c65676174652063616c6c206661696c6564a264697066735822122014e9f0dabdabeb2c47d32099e3e152916c7bd820c5d5822af34eb66a027ef4e464736f6c634300080c0033",
  "devdoc": {
    "kind": "dev",
    "methods": {
      "owner()": {
        "details": "Returns the address of the current owner."
      },
      "proxiableUUID()": {
        "details": "Implementation of the ERC1822 {proxiableUUID} function. This returns the storage slot used by the implementation. It is used to validate the implementation's compatibility when performing an upgrade. IMPORTANT: A proxy pointing at a proxiable contract should not be considered proxiable itself, because this risks bricking a proxy that upgrades to it, by delegating to itself until out of gas. Thus it is critical that this function revert if invoked through a proxy. This is guaranteed by the `notDelegated` modifier."
      },
      "renounceOwnership()": {
        "details": "Leaves the contract without owner. It will not be possible to call `onlyOwner` functions. Can only be called by the current owner. NOTE: Renouncing ownership will leave the contract without an owner, thereby disabling any functionality that is only available to the owner."
      },
      "setSummonerAddr(address)": {
        "details": "Sets the address of the BaalSummoner contract",
        "params": {
          "baalSummoner": "The address of the BaalSummoner contract"
        }
      },
      "summonBaalFromReferrer(uint256,bytes,bytes,bytes[])": {
        "details": "Summon a new Baal contract with a new set of tokens",
        "params": {
          "_initializationMintParams": "The parameters for minting the tokens",
          "_initializationTokenParams": "The parameters for deploying the tokens",
          "_postInitializationActions": "The actions to be performed after the initialization",
          "_saltNonce": "The salt nonce to be used for the Safe contract"
        },
        "returns": {
          "_baal": "The address of the new Baal contract"
        }
      },
      "transferOwnership(address)": {
        "details": "Transfers ownership of the contract to a new account (`newOwner`). Can only be called by the current owner."
      },
      "upgradeTo(address)": {
        "custom:oz-upgrades-unsafe-allow-reachable": "delegatecall",
        "details": "Upgrade the implementation of the proxy to `newImplementation`. Calls {_authorizeUpgrade}. Emits an {Upgraded} event."
      },
      "upgradeToAndCall(address,bytes)": {
        "custom:oz-upgrades-unsafe-allow-reachable": "delegatecall",
        "details": "Upgrade the implementation of the proxy to `newImplementation`, and subsequently execute the function call encoded in `data`. Calls {_authorizeUpgrade}. Emits an {Upgraded} event."
      }
    },
    "version": 1
  },
  "userdoc": {
    "kind": "user",
    "methods": {},
    "version": 1
  },
  "storageLayout": {
    "storage": [
      {
        "astId": 4913,
        "contract": "contracts/baal/higherOrderFactories/DeVoxBaalAdvTokenSummonerV1.sol:DeVoxBaalAdvTokenSummonerV1",
        "label": "_initialized",
        "offset": 0,
        "slot": "0",
        "type": "t_uint8"
      },
      {
        "astId": 4916,
        "contract": "contracts/baal/higherOrderFactories/DeVoxBaalAdvTokenSummonerV1.sol:DeVoxBaalAdvTokenSummonerV1",
        "label": "_initializing",
        "offset": 1,
        "slot": "0",
        "type": "t_bool"
      },
      {
        "astId": 7242,
        "contract": "contracts/baal/higherOrderFactories/DeVoxBaalAdvTokenSummonerV1.sol:DeVoxBaalAdvTokenSummonerV1",
        "label": "__gap",
        "offset": 0,
        "slot": "1",
        "type": "t_array(t_uint256)50_storage"
      },
      {
        "astId": 4395,
        "contract": "contracts/baal/higherOrderFactories/DeVoxBaalAdvTokenSummonerV1.sol:DeVoxBaalAdvTokenSummonerV1",
        "label": "_owner",
        "offset": 0,
        "slot": "51",
        "type": "t_address"
      },
      {
        "astId": 4515,
        "contract": "contracts/baal/higherOrderFactories/DeVoxBaalAdvTokenSummonerV1.sol:DeVoxBaalAdvTokenSummonerV1",
        "label": "__gap",
        "offset": 0,
        "slot": "52",
        "type": "t_array(t_uint256)49_storage"
      },
      {
        "astId": 4895,
        "contract": "contracts/baal/higherOrderFactories/DeVoxBaalAdvTokenSummonerV1.sol:DeVoxBaalAdvTokenSummonerV1",
        "label": "__gap",
        "offset": 0,
        "slot": "101",
        "type": "t_array(t_uint256)50_storage"
      },
      {
        "astId": 5210,
        "contract": "contracts/baal/higherOrderFactories/DeVoxBaalAdvTokenSummonerV1.sol:DeVoxBaalAdvTokenSummonerV1",
        "label": "__gap",
        "offset": 0,
        "slot": "151",
        "type": "t_array(t_uint256)50_storage"
      },
      {
        "astId": 12840,
        "contract": "contracts/baal/higherOrderFactories/DeVoxBaalAdvTokenSummonerV1.sol:DeVoxBaalAdvTokenSummonerV1",
        "label": "_baalSummoner",
        "offset": 0,
        "slot": "201",
        "type": "t_contract(IBaalSummoner)13364"
      }
    ],
    "types": {
      "t_address": {
        "encoding": "inplace",
        "label": "address",
        "numberOfBytes": "20"
      },
      "t_array(t_uint256)49_storage": {
        "base": "t_uint256",
        "encoding": "inplace",
        "label": "uint256[49]",
        "numberOfBytes": "1568"
      },
      "t_array(t_uint256)50_storage": {
        "base": "t_uint256",
        "encoding": "inplace",
        "label": "uint256[50]",
        "numberOfBytes": "1600"
      },
      "t_bool": {
        "encoding": "inplace",
        "label": "bool",
        "numberOfBytes": "1"
      },
      "t_contract(IBaalSummoner)13364": {
        "encoding": "inplace",
        "label": "contract IBaalSummoner",
        "numberOfBytes": "20"
      },
      "t_uint256": {
        "encoding": "inplace",
        "label": "uint256",
        "numberOfBytes": "32"
      },
      "t_uint8": {
        "encoding": "inplace",
        "label": "uint8",
        "numberOfBytes": "1"
      }
    }
  }
}