{
  "_format": "hh-sol-artifact-1",
  "contractName": "DeVoxShamanV1",
  "sourceName": "contracts/shaman/DeVoxShamanV1.sol",
  "abi": [
    {
      "inputs": [],
      "stateMutability": "nonpayable",
      "type": "constructor"
    },
    {
      "anonymous": false,
      "inputs": [
        {
          "indexed": false,
          "internalType": "address",
          "name": "previousAdmin",
          "type": "address"
        },
        {
          "indexed": false,
          "internalType": "address",
          "name": "newAdmin",
          "type": "address"
        }
      ],
      "name": "AdminChanged",
      "type": "event"
    },
    {
      "anonymous": false,
      "inputs": [
        {
          "indexed": true,
          "internalType": "address",
          "name": "beacon",
          "type": "address"
        }
      ],
      "name": "BeaconUpgraded",
      "type": "event"
    },
    {
      "anonymous": false,
      "inputs": [
        {
          "indexed": true,
          "internalType": "address",
          "name": "contributorAddress",
          "type": "address"
        },
        {
          "indexed": true,
          "internalType": "address",
          "name": "baal",
          "type": "address"
        },
        {
          "indexed": true,
          "internalType": "uint256",
          "name": "id",
          "type": "uint256"
        },
        {
          "indexed": false,
          "internalType": "uint256",
          "name": "amount",
          "type": "uint256"
        },
        {
          "indexed": false,
          "internalType": "uint256",
          "name": "total",
          "type": "uint256"
        },
        {
          "indexed": false,
          "internalType": "uint256",
          "name": "lootIssued",
          "type": "uint256"
        },
        {
          "indexed": false,
          "internalType": "uint256",
          "name": "sharesIssued",
          "type": "uint256"
        },
        {
          "indexed": false,
          "internalType": "bool",
          "name": "signedCampaign",
          "type": "bool"
        },
        {
          "indexed": false,
          "internalType": "string",
          "name": "message",
          "type": "string"
        }
      ],
      "name": "DonationReceived",
      "type": "event"
    },
    {
      "anonymous": false,
      "inputs": [
        {
          "indexed": false,
          "internalType": "uint8",
          "name": "version",
          "type": "uint8"
        }
      ],
      "name": "Initialized",
      "type": "event"
    },
    {
      "anonymous": false,
      "inputs": [
        {
          "indexed": true,
          "internalType": "address",
          "name": "previousOwner",
          "type": "address"
        },
        {
          "indexed": true,
          "internalType": "address",
          "name": "newOwner",
          "type": "address"
        }
      ],
      "name": "OwnershipTransferred",
      "type": "event"
    },
    {
      "anonymous": false,
      "inputs": [
        {
          "indexed": true,
          "internalType": "bytes32",
          "name": "role",
          "type": "bytes32"
        },
        {
          "indexed": true,
          "internalType": "bytes32",
          "name": "previousAdminRole",
          "type": "bytes32"
        },
        {
          "indexed": true,
          "internalType": "bytes32",
          "name": "newAdminRole",
          "type": "bytes32"
        }
      ],
      "name": "RoleAdminChanged",
      "type": "event"
    },
    {
      "anonymous": false,
      "inputs": [
        {
          "indexed": true,
          "internalType": "bytes32",
          "name": "role",
          "type": "bytes32"
        },
        {
          "indexed": true,
          "internalType": "address",
          "name": "account",
          "type": "address"
        },
        {
          "indexed": true,
          "internalType": "address",
          "name": "sender",
          "type": "address"
        }
      ],
      "name": "RoleGranted",
      "type": "event"
    },
    {
      "anonymous": false,
      "inputs": [
        {
          "indexed": true,
          "internalType": "bytes32",
          "name": "role",
          "type": "bytes32"
        },
        {
          "indexed": true,
          "internalType": "address",
          "name": "account",
          "type": "address"
        },
        {
          "indexed": true,
          "internalType": "address",
          "name": "sender",
          "type": "address"
        }
      ],
      "name": "RoleRevoked",
      "type": "event"
    },
    {
      "anonymous": false,
      "inputs": [
        {
          "indexed": true,
          "internalType": "address",
          "name": "baal",
          "type": "address"
        },
        {
          "indexed": true,
          "internalType": "uint256",
          "name": "id",
          "type": "uint256"
        },
        {
          "indexed": false,
          "internalType": "uint256",
          "name": "target",
          "type": "uint256"
        },
        {
          "indexed": false,
          "internalType": "uint256",
          "name": "balance",
          "type": "uint256"
        }
      ],
      "name": "TargetUpdated",
      "type": "event"
    },
    {
      "anonymous": false,
      "inputs": [
        {
          "indexed": true,
          "internalType": "address",
          "name": "implementation",
          "type": "address"
        }
      ],
      "name": "Upgraded",
      "type": "event"
    },
    {
      "anonymous": false,
      "inputs": [
        {
          "indexed": true,
          "internalType": "address",
          "name": "user",
          "type": "address"
        },
        {
          "indexed": true,
          "internalType": "address",
          "name": "baal",
          "type": "address"
        },
        {
          "indexed": true,
          "internalType": "uint256",
          "name": "id",
          "type": "uint256"
        }
      ],
      "name": "UserSigned",
      "type": "event"
    },
    {
      "inputs": [],
      "name": "DEFAULT_ADMIN_ROLE",
      "outputs": [
        {
          "internalType": "bytes32",
          "name": "",
          "type": "bytes32"
        }
      ],
      "stateMutability": "view",
      "type": "function"
    },
    {
      "inputs": [],
      "name": "baal",
      "outputs": [
        {
          "internalType": "contract IBaal",
          "name": "",
          "type": "address"
        }
      ],
      "stateMutability": "view",
      "type": "function"
    },
    {
      "inputs": [
        {
          "internalType": "uint32",
          "name": "proposalId",
          "type": "uint32"
        }
      ],
      "name": "cancelProposal",
      "outputs": [],
      "stateMutability": "nonpayable",
      "type": "function"
    },
    {
      "inputs": [
        {
          "internalType": "uint256",
          "name": "_value",
          "type": "uint256"
        },
        {
          "internalType": "bool",
          "name": "_signCampaign",
          "type": "bool"
        },
        {
          "internalType": "string",
          "name": "_message",
          "type": "string"
        }
      ],
      "name": "donate",
      "outputs": [],
      "stateMutability": "nonpayable",
      "type": "function"
    },
    {
      "inputs": [
        {
          "internalType": "address",
          "name": "",
          "type": "address"
        }
      ],
      "name": "donations",
      "outputs": [
        {
          "internalType": "uint256",
          "name": "",
          "type": "uint256"
        }
      ],
      "stateMutability": "view",
      "type": "function"
    },
    {
      "inputs": [
        {
          "internalType": "bytes32",
          "name": "role",
          "type": "bytes32"
        }
      ],
      "name": "getRoleAdmin",
      "outputs": [
        {
          "internalType": "bytes32",
          "name": "",
          "type": "bytes32"
        }
      ],
      "stateMutability": "view",
      "type": "function"
    },
    {
      "inputs": [],
      "name": "getTokenBalance",
      "outputs": [
        {
          "internalType": "uint256",
          "name": "",
          "type": "uint256"
        }
      ],
      "stateMutability": "nonpayable",
      "type": "function"
    },
    {
      "inputs": [
        {
          "internalType": "bytes32",
          "name": "role",
          "type": "bytes32"
        },
        {
          "internalType": "address",
          "name": "account",
          "type": "address"
        }
      ],
      "name": "grantRole",
      "outputs": [],
      "stateMutability": "nonpayable",
      "type": "function"
    },
    {
      "inputs": [
        {
          "internalType": "bytes32",
          "name": "role",
          "type": "bytes32"
        },
        {
          "internalType": "address",
          "name": "account",
          "type": "address"
        }
      ],
      "name": "hasRole",
      "outputs": [
        {
          "internalType": "bool",
          "name": "",
          "type": "bool"
        }
      ],
      "stateMutability": "view",
      "type": "function"
    },
    {
      "inputs": [],
      "name": "id",
      "outputs": [
        {
          "internalType": "uint256",
          "name": "",
          "type": "uint256"
        }
      ],
      "stateMutability": "view",
      "type": "function"
    },
    {
      "inputs": [
        {
          "internalType": "address",
          "name": "_moloch",
          "type": "address"
        },
        {
          "internalType": "address",
          "name": "_token",
          "type": "address"
        },
        {
          "internalType": "address",
          "name": "_userRegistry",
          "type": "address"
        },
        {
          "internalType": "uint256",
          "name": "_id",
          "type": "uint256"
        },
        {
          "internalType": "uint256",
          "name": "_pricePerUnit",
          "type": "uint256"
        },
        {
          "internalType": "uint256",
          "name": "_tokensPerUnit",
          "type": "uint256"
        },
        {
          "internalType": "uint256",
          "name": "_target",
          "type": "uint256"
        },
        {
          "internalType": "address[]",
          "name": "_admins",
          "type": "address[]"
        }
      ],
      "name": "initialize",
      "outputs": [],
      "stateMutability": "nonpayable",
      "type": "function"
    },
    {
      "inputs": [],
      "name": "owner",
      "outputs": [
        {
          "internalType": "address",
          "name": "",
          "type": "address"
        }
      ],
      "stateMutability": "view",
      "type": "function"
    },
    {
      "inputs": [],
      "name": "pricePerUnit",
      "outputs": [
        {
          "internalType": "uint256",
          "name": "",
          "type": "uint256"
        }
      ],
      "stateMutability": "view",
      "type": "function"
    },
    {
      "inputs": [],
      "name": "proxiableUUID",
      "outputs": [
        {
          "internalType": "bytes32",
          "name": "",
          "type": "bytes32"
        }
      ],
      "stateMutability": "view",
      "type": "function"
    },
    {
      "inputs": [],
      "name": "renounceOwnership",
      "outputs": [],
      "stateMutability": "nonpayable",
      "type": "function"
    },
    {
      "inputs": [
        {
          "internalType": "bytes32",
          "name": "role",
          "type": "bytes32"
        },
        {
          "internalType": "address",
          "name": "account",
          "type": "address"
        }
      ],
      "name": "renounceRole",
      "outputs": [],
      "stateMutability": "nonpayable",
      "type": "function"
    },
    {
      "inputs": [
        {
          "internalType": "bytes32",
          "name": "role",
          "type": "bytes32"
        },
        {
          "internalType": "address",
          "name": "account",
          "type": "address"
        }
      ],
      "name": "revokeRole",
      "outputs": [],
      "stateMutability": "nonpayable",
      "type": "function"
    },
    {
      "inputs": [
        {
          "internalType": "address",
          "name": "user",
          "type": "address"
        }
      ],
      "name": "setAdmin",
      "outputs": [],
      "stateMutability": "nonpayable",
      "type": "function"
    },
    {
      "inputs": [
        {
          "internalType": "uint256",
          "name": "_target",
          "type": "uint256"
        }
      ],
      "name": "setTarget",
      "outputs": [],
      "stateMutability": "nonpayable",
      "type": "function"
    },
    {
      "inputs": [],
      "name": "sign",
      "outputs": [],
      "stateMutability": "nonpayable",
      "type": "function"
    },
    {
      "inputs": [
        {
          "internalType": "address",
          "name": "",
          "type": "address"
        }
      ],
      "name": "signatures",
      "outputs": [
        {
          "internalType": "bool",
          "name": "",
          "type": "bool"
        }
      ],
      "stateMutability": "view",
      "type": "function"
    },
    {
      "inputs": [
        {
          "internalType": "bytes4",
          "name": "interfaceId",
          "type": "bytes4"
        }
      ],
      "name": "supportsInterface",
      "outputs": [
        {
          "internalType": "bool",
          "name": "",
          "type": "bool"
        }
      ],
      "stateMutability": "view",
      "type": "function"
    },
    {
      "inputs": [],
      "name": "target",
      "outputs": [
        {
          "internalType": "uint256",
          "name": "",
          "type": "uint256"
        }
      ],
      "stateMutability": "view",
      "type": "function"
    },
    {
      "inputs": [],
      "name": "token",
      "outputs": [
        {
          "internalType": "contract IERC20",
          "name": "",
          "type": "address"
        }
      ],
      "stateMutability": "view",
      "type": "function"
    },
    {
      "inputs": [],
      "name": "tokensPerUnit",
      "outputs": [
        {
          "internalType": "uint256",
          "name": "",
          "type": "uint256"
        }
      ],
      "stateMutability": "view",
      "type": "function"
    },
    {
      "inputs": [
        {
          "internalType": "address",
          "name": "newOwner",
          "type": "address"
        }
      ],
      "name": "transferOwnership",
      "outputs": [],
      "stateMutability": "nonpayable",
      "type": "function"
    },
    {
      "inputs": [],
      "name": "updateVersion",
      "outputs": [],
      "stateMutability": "nonpayable",
      "type": "function"
    },
    {
      "inputs": [
        {
          "internalType": "address",
          "name": "newImplementation",
          "type": "address"
        }
      ],
      "name": "upgradeTo",
      "outputs": [],
      "stateMutability": "nonpayable",
      "type": "function"
    },
    {
      "inputs": [
        {
          "internalType": "address",
          "name": "newImplementation",
          "type": "address"
        },
        {
          "internalType": "bytes",
          "name": "data",
          "type": "bytes"
        }
      ],
      "name": "upgradeToAndCall",
      "outputs": [],
      "stateMutability": "payable",
      "type": "function"
    },
    {
      "inputs": [],
      "name": "userRegistry",
      "outputs": [
        {
          "internalType": "contract IUserRegistry",
          "name": "",
          "type": "address"
        }
      ],
      "stateMutability": "view",
      "type": "function"
    },
    {
      "inputs": [],
      "name": "version",
      "outputs": [
        {
          "internalType": "uint256",
          "name": "",
          "type": "uint256"
        }
      ],
      "stateMutability": "view",
      "type": "function"
    }
  ],
  "bytecode": "0x60a0604052306080523480156200001557600080fd5b506200002062000026565b620000e7565b600054610100900460ff1615620000935760405162461bcd60e51b815260206004820152602760248201527f496e697469616c697a61626c653a20636f6e747261637420697320696e697469604482015266616c697a696e6760c81b606482015260840160405180910390fd5b60005460ff90811614620000e5576000805460ff191660ff9081179091556040519081527f7f26b83ff96e1f2b6a682f133852f6798a09c465da95921460cefb38474024989060200160405180910390a15b565b60805161268e6200011f600039600081816109140152818161095401528181610a1c01528181610a5c0152610ad4015261268e6000f3fe6080604052600436106101985760003560e01c80638aecc2e3116100e2578063d4b8399211610085578063d4b839921461047f578063d547741f14610496578063e5a2a2a5146104b6578063e66825c3146104dd578063f2fde38b146104f4578063f8d2876814610514578063fab514c01461052b578063fc0c546a1461054b57600080fd5b80638aecc2e3146103765780638da5cb5b1461039657806391d14854146103b4578063a217fddf146103d4578063af640d0f146103e9578063b480eac014610400578063c792f36d14610420578063cc6cb19a1461045157600080fd5b806348c02dc11161014a57806348c02dc1146102a75780634f1ef286146102bc57806352d1902d146102cf57806354fd4d50146102e45780635c7460d6146102fe578063704b6c021461032c578063715018a61461034c57806382b2e2571461036157600080fd5b806301ffc9a71461019d5780630fdb86e9146101d2578063248a9ca3146101f45780632ca15122146102325780632f2ff15d1461024757806336568abe146102675780633659cfe614610287575b600080fd5b3480156101a957600080fd5b506101bd6101b8366004611eaf565b61056c565b60405190151581526020015b60405180910390f35b3480156101de57600080fd5b506101f26101ed366004611eee565b6105a3565b005b34801561020057600080fd5b5061022461020f366004611fc2565b60009081526065602052604090206001015490565b6040519081526020016101c9565b34801561023e57600080fd5b506101f2610798565b34801561025357600080fd5b506101f2610262366004611fdb565b610861565b34801561027357600080fd5b506101f2610282366004611fdb565b61088b565b34801561029357600080fd5b506101f26102a236600461200b565b610909565b3480156102b357600080fd5b506101f26109d2565b6101f26102ca36600461203e565b610a11565b3480156102db57600080fd5b50610224610ac7565b3480156102f057600080fd5b5061015f5461ffff16610224565b34801561030a57600080fd5b506101615461031f906001600160a01b031681565b6040516101c99190612102565b34801561033857600080fd5b506101f261034736600461200b565b610b75565b34801561035857600080fd5b506101f2610b8b565b34801561036d57600080fd5b50610224610b9d565b34801561038257600080fd5b506101f2610391366004612124565b610c87565b3480156103a257600080fd5b506097546001600160a01b031661031f565b3480156103c057600080fd5b506101bd6103cf366004611fdb565b6110ef565b3480156103e057600080fd5b50610224600081565b3480156103f557600080fd5b506102246101625481565b34801561040c57600080fd5b506101f261041b366004611fc2565b61111a565b34801561042c57600080fd5b506101bd61043b36600461200b565b6101676020526000908152604090205460ff1681565b34801561045d57600080fd5b5061022461046c36600461200b565b6101666020526000908152604090205481565b34801561048b57600080fd5b506102246101655481565b3480156104a257600080fd5b506101f26104b1366004611fdb565b611188565b3480156104c257600080fd5b5061015f5461031f906201000090046001600160a01b031681565b3480156104e957600080fd5b506102246101635481565b34801561050057600080fd5b506101f261050f36600461200b565b6111ad565b34801561052057600080fd5b506102246101645481565b34801561053757600080fd5b506101f26105463660046121ad565b611223565b34801561055757600080fd5b506101605461031f906001600160a01b031681565b60006001600160e01b03198216637965db0b60e01b148061059d57506301ffc9a760e01b6001600160e01b03198316145b92915050565b600054610100900460ff16158080156105c35750600054600160ff909116105b806105dd5750303b1580156105dd575060005460ff166001145b6106455760405162461bcd60e51b815260206004820152602e60248201527f496e697469616c697a61626c653a20636f6e747261637420697320616c72656160448201526d191e481a5b9a5d1a585b1a5e995960921b60648201526084015b60405180910390fd5b6000805460ff191660011790558015610668576000805461ff0019166101001790555b610670611330565b610678611357565b610680611330565b61015f80546001600160a01b03808d16620100000262010000600160b01b03199092169190911790915561016080548b83166001600160a01b0319918216179091556101618054928b169290911691909117905561016287905561016386905561016485905561016584905560005b8281101561073a57610728600085858481811061070e5761070e6121d3565b9050602002016020810190610723919061200b565b611386565b80610732816121ff565b9150506106ef565b50610746600033611386565b801561078c576000805461ff0019169055604051600181527f7f26b83ff96e1f2b6a682f133852f6798a09c465da95921460cefb38474024989060200160405180910390a15b50505050505050505050565b61016154604051636f77926b60e01b81526001600160a01b0390911690636f77926b906107c9903390600401612102565b602060405180830381865afa1580156107e6573d6000803e3d6000fd5b505050506040513d601f19601f8201168201806040525081019061080a919061221a565b6108565760405162461bcd60e51b815260206004820152601b60248201527f7369676e3a2073656e646572206e6f7420726567697374657265640000000000604482015260640161063c565b61085f3361140c565b565b60008281526065602052604090206001015461087c816114d1565b6108868383611386565b505050565b6001600160a01b03811633146108fb5760405162461bcd60e51b815260206004820152602f60248201527f416363657373436f6e74726f6c3a2063616e206f6e6c792072656e6f756e636560448201526e103937b632b9903337b91039b2b63360891b606482015260840161063c565b61090582826114db565b5050565b306001600160a01b037f00000000000000000000000000000000000000000000000000000000000000001614156109525760405162461bcd60e51b815260040161063c90612237565b7f00000000000000000000000000000000000000000000000000000000000000006001600160a01b0316610984611542565b6001600160a01b0316146109aa5760405162461bcd60e51b815260040161063c90612283565b6109b38161155e565b604080516000808252602082019092526109cf91839190611566565b50565b6109da6116d1565b61015f8054600191906000906109f590849061ffff166122cf565b92506101000a81548161ffff021916908361ffff160217905550565b306001600160a01b037f0000000000000000000000000000000000000000000000000000000000000000161415610a5a5760405162461bcd60e51b815260040161063c90612237565b7f00000000000000000000000000000000000000000000000000000000000000006001600160a01b0316610a8c611542565b6001600160a01b031614610ab25760405162461bcd60e51b815260040161063c90612283565b610abb8261155e565b61090582826001611566565b6000306001600160a01b037f00000000000000000000000000000000000000000000000000000000000000001614610b625760405162461bcd60e51b815260206004820152603860248201527f555550535570677261646561626c653a206d757374206e6f742062652063616c6044820152771b1959081d1a1c9bdd59da0819195b1959d85d1958d85b1b60421b606482015260840161063c565b5060008051602061261283398151915290565b6000610b80816114d1565b610905600083611386565b610b936116d1565b61085f600061172b565b6101605461015f5460408051636a5c1cc960e11b815290516000936001600160a01b03908116936370a0823193620100009091049091169163d4b8399291600480820192602092909190829003018189875af1158015610c01573d6000803e3d6000fd5b505050506040513d601f19601f82011682018060405250810190610c2591906122f5565b6040518263ffffffff1660e01b8152600401610c419190612102565b602060405180830381865afa158015610c5e573d6000803e3d6000fd5b505050506040513d601f19601f82011682018060405250810190610c829190612312565b905090565b610c8f61177d565b61015f546201000090046001600160a01b0316610cde5760405162461bcd60e51b815260206004820152600d60248201526c191bdb985d194e88085898585b609a1b604482015260640161063c565b610160546001600160a01b0316610d285760405162461bcd60e51b815260206004820152600e60248201526d3237b730ba329d1010ba37b5b2b760911b604482015260640161063c565b61015f5460405163f3ae241560e01b8152620100009091046001600160a01b03169063f3ae241590610d5e903090600401612102565b6020604051808303816000875af1158015610d7d573d6000803e3d6000fd5b505050506040513d601f19601f82011682018060405250810190610da1919061221a565b610dbd5760405162461bcd60e51b815260040161063c9061232b565b61016154604051636f77926b60e01b81526001600160a01b0390911690636f77926b90610dee903390600401612102565b602060405180830381865afa158015610e0b573d6000803e3d6000fd5b505050506040513d601f19601f82011682018060405250810190610e2f919061221a565b610e7b5760405162461bcd60e51b815260206004820152601d60248201527f646f6e6174653a2073656e646572206e6f742072656769737465726564000000604482015260640161063c565b61016354610e899085612378565b15610ecf5760405162461bcd60e51b8152602060048201526016602482015275191bdb985d194e881a5b9d985b1a5908185b5bdd5b9d60521b604482015260640161063c565b8215610ede57610ede3361140c565b6101605461015f5460408051636a5c1cc960e11b815290516001600160a01b03938416936323b872dd933393620100009091049091169163d4b839929160048082019260209290919082900301816000875af1158015610f42573d6000803e3d6000fd5b505050506040513d601f19601f82011682018060405250810190610f6691906122f5565b6040516001600160e01b031960e085901b1681526001600160a01b03928316600482015291166024820152604481018790526064016020604051808303816000875af1158015610fba573d6000803e3d6000fd5b505050506040513d601f19601f82011682018060405250810190610fde919061221a565b6110245760405162461bcd60e51b8152602060048201526017602482015276191bdb985d194e881d1c985b9cd9995c8819985a5b1959604a1b604482015260640161063c565b6000611032338260006117d7565b600061103d86611964565b905061104b338260016117d7565b3360009081526101666020526040902054611066878261238c565b3360008181526101666020526040908190208390556101625461015f54915193945092620100009091046001600160a01b031691907fe76ab13566c78ece90a318cc8db0816bb04f9c8b87b60d29f6ae48cef1118c24906110d4908c9087908a908a908f908f908f906123a4565b60405180910390a45050506110e9600160c955565b50505050565b60009182526065602090815260408084206001600160a01b0393909316845291905290205460ff1690565b6000611125816114d1565b6101658290556101625461015f546201000090046001600160a01b03167ff580529ed53b5d8ddc681893476404e9974b7fa34a4bfde6405c754109184c4b8461116c610b9d565b6040805192835260208301919091520160405180910390a35050565b6000828152606560205260409020600101546111a3816114d1565b61088683836114db565b6111b56116d1565b6001600160a01b03811661121a5760405162461bcd60e51b815260206004820152602660248201527f4f776e61626c653a206e6577206f776e657220697320746865207a65726f206160448201526564647265737360d01b606482015260840161063c565b6109cf8161172b565b600061122e816114d1565b61015f5460405163f3ae241560e01b8152620100009091046001600160a01b03169063f3ae241590611264903090600401612102565b6020604051808303816000875af1158015611283573d6000803e3d6000fd5b505050506040513d601f19601f820116820180604052508101906112a7919061221a565b6112c35760405162461bcd60e51b815260040161063c9061232b565b61015f546040516303ead45360e61b815263ffffffff84166004820152620100009091046001600160a01b03169063fab514c090602401600060405180830381600087803b15801561131457600080fd5b505af1158015611328573d6000803e3d6000fd5b505050505050565b600054610100900460ff1661085f5760405162461bcd60e51b815260040161063c906123f8565b600054610100900460ff1661137e5760405162461bcd60e51b815260040161063c906123f8565b61085f61198b565b61139082826110ef565b6109055760008281526065602090815260408083206001600160a01b03851684529091529020805460ff191660011790556113c83390565b6001600160a01b0316816001600160a01b0316837f2f8788117e7eff1d82e926ec794901d17c78024a50270940304540a733656f0d60405160405180910390a45050565b6001600160a01b0381166000908152610167602052604090205460ff161561146d5760405162461bcd60e51b81526020600482015260146024820152731cda59db8e88185b1c9958591e481cda59db995960621b604482015260640161063c565b6001600160a01b0380821660008181526101676020526040808220805460ff191660011790556101625461015f54915190946201000090920490911692917f02e36dc1175c29b0df765b8217563f816b97c25be495cbbfe24de70d63e3759091a450565b6109cf81336119bb565b6114e582826110ef565b156109055760008281526065602090815260408083206001600160a01b0385168085529252808320805460ff1916905551339285917ff6391f5c32d9c69d2a47ea670b442974b53935d1edc7fd64eb21e047a839171b9190a45050565b600080516020612612833981519152546001600160a01b031690565b6109cf6116d1565b7f4910fdfa16fed3260ed0e7147f7cc6da11a60208b5b9406d12a635614ffd91435460ff16156115995761088683611a14565b826001600160a01b03166352d1902d6040518163ffffffff1660e01b8152600401602060405180830381865afa9250505080156115f3575060408051601f3d908101601f191682019092526115f091810190612312565b60015b6116565760405162461bcd60e51b815260206004820152602e60248201527f45524331393637557067726164653a206e657720696d706c656d656e7461746960448201526d6f6e206973206e6f74205555505360901b606482015260840161063c565b60008051602061261283398151915281146116c55760405162461bcd60e51b815260206004820152602960248201527f45524331393637557067726164653a20756e737570706f727465642070726f786044820152681a58589b195555525160ba1b606482015260840161063c565b50610886838383611ab0565b6097546001600160a01b0316331461085f5760405162461bcd60e51b815260206004820181905260248201527f4f776e61626c653a2063616c6c6572206973206e6f7420746865206f776e6572604482015260640161063c565b609780546001600160a01b038381166001600160a01b0319831681179093556040519116919082907f8be0079c531659141344cd1fd0a4f28419497f9722a3daafe3b4186f6b6457e090600090a35050565b600260c95414156117d05760405162461bcd60e51b815260206004820152601f60248201527f5265656e7472616e637947756172643a207265656e7472616e742063616c6c00604482015260640161063c565b600260c955565b60408051600180825281830190925260009160208083019080368337019050509050838160008151811061180d5761180d6121d3565b6001600160a01b039290921660209283029190910190910152604080516001808252818301909252600091816020016020820280368337019050509050838160008151811061185e5761185e6121d3565b6020908102919091010152600183600181111561187d5761187d612443565b14156118f25761015f54604051632c78fd0360e21b8152620100009091046001600160a01b03169063b1e3f40c906118bb9085908590600401612459565b600060405180830381600087803b1580156118d557600080fd5b505af11580156118e9573d6000803e3d6000fd5b5050505061195d565b61015f546040516322936c2360e11b8152620100009091046001600160a01b031690634526d8469061192a9085908590600401612459565b600060405180830381600087803b15801561194457600080fd5b505af1158015611958573d6000803e3d6000fd5b505050505b5050505050565b600061016454611981610163548461197c91906124dd565b611ad5565b61059d91906124f1565b600054610100900460ff166119b25760405162461bcd60e51b815260040161063c906123f8565b61085f3361172b565b6119c582826110ef565b610905576119d281611b7a565b6119dd836020611b8c565b6040516020016119ee92919061253c565b60408051601f198184030181529082905262461bcd60e51b825261063c916004016125ab565b6001600160a01b0381163b611a815760405162461bcd60e51b815260206004820152602d60248201527f455243313936373a206e657720696d706c656d656e746174696f6e206973206e60448201526c1bdd08184818dbdb9d1c9858dd609a1b606482015260840161063c565b60008051602061261283398151915280546001600160a01b0319166001600160a01b0392909216919091179055565b611ab983611d2f565b600082511180611ac65750805b15610886576110e98383611d6f565b60b581600160881b8110611aee5760409190911b9060801c5b600160481b8110611b045760209190911b9060401c5b650100000000008110611b1c5760109190911b9060201c5b63010000008110611b325760089190911b9060101c5b62010000010260121c80820401600190811c80830401811c80830401811c80830401811c80830401811c80830401811c80830401901c808204811115611b755781045b919050565b606061059d6001600160a01b03831660145b60606000611b9b8360026124f1565b611ba690600261238c565b67ffffffffffffffff811115611bbe57611bbe612028565b6040519080825280601f01601f191660200182016040528015611be8576020820181803683370190505b509050600360fc1b81600081518110611c0357611c036121d3565b60200101906001600160f81b031916908160001a905350600f60fb1b81600181518110611c3257611c326121d3565b60200101906001600160f81b031916908160001a9053506000611c568460026124f1565b611c6190600161238c565b90505b6001811115611cd9576f181899199a1a9b1b9c1cb0b131b232b360811b85600f1660108110611c9557611c956121d3565b1a60f81b828281518110611cab57611cab6121d3565b60200101906001600160f81b031916908160001a90535060049490941c93611cd2816125de565b9050611c64565b508315611d285760405162461bcd60e51b815260206004820181905260248201527f537472696e67733a20686578206c656e67746820696e73756666696369656e74604482015260640161063c565b9392505050565b611d3881611a14565b6040516001600160a01b038216907fbc7cd75a20ee27fd9adebab32041f755214dbc6bffa90cc0225b39da2e5c2d3b90600090a250565b6060611d288383604051806060016040528060278152602001612632602791396060600080856001600160a01b031685604051611dac91906125f5565b600060405180830381855af49150503d8060008114611de7576040519150601f19603f3d011682016040523d82523d6000602084013e611dec565b606091505b5091509150611dfd86838387611e07565b9695505050505050565b60608315611e73578251611e6c576001600160a01b0385163b611e6c5760405162461bcd60e51b815260206004820152601d60248201527f416464726573733a2063616c6c20746f206e6f6e2d636f6e7472616374000000604482015260640161063c565b5081611e7d565b611e7d8383611e85565b949350505050565b815115611e955781518083602001fd5b8060405162461bcd60e51b815260040161063c91906125ab565b600060208284031215611ec157600080fd5b81356001600160e01b031981168114611d2857600080fd5b6001600160a01b03811681146109cf57600080fd5b60008060008060008060008060006101008a8c031215611f0d57600080fd5b8935611f1881611ed9565b985060208a0135611f2881611ed9565b975060408a0135611f3881611ed9565b965060608a0135955060808a0135945060a08a0135935060c08a0135925060e08a013567ffffffffffffffff80821115611f7157600080fd5b818c0191508c601f830112611f8557600080fd5b813581811115611f9457600080fd5b8d60208260051b8501011115611fa957600080fd5b6020830194508093505050509295985092959850929598565b600060208284031215611fd457600080fd5b5035919050565b60008060408385031215611fee57600080fd5b82359150602083013561200081611ed9565b809150509250929050565b60006020828403121561201d57600080fd5b8135611d2881611ed9565b634e487b7160e01b600052604160045260246000fd5b6000806040838503121561205157600080fd5b823561205c81611ed9565b9150602083013567ffffffffffffffff8082111561207957600080fd5b818501915085601f83011261208d57600080fd5b81358181111561209f5761209f612028565b604051601f8201601f19908116603f011681019083821181831017156120c7576120c7612028565b816040528281528860208487010111156120e057600080fd5b8260208601602083013760006020848301015280955050505050509250929050565b6001600160a01b0391909116815260200190565b80151581146109cf57600080fd5b6000806000806060858703121561213a57600080fd5b84359350602085013561214c81612116565b9250604085013567ffffffffffffffff8082111561216957600080fd5b818701915087601f83011261217d57600080fd5b81358181111561218c57600080fd5b88602082850101111561219e57600080fd5b95989497505060200194505050565b6000602082840312156121bf57600080fd5b813563ffffffff81168114611d2857600080fd5b634e487b7160e01b600052603260045260246000fd5b634e487b7160e01b600052601160045260246000fd5b6000600019821415612213576122136121e9565b5060010190565b60006020828403121561222c57600080fd5b8151611d2881612116565b6020808252602c908201527f46756e6374696f6e206d7573742062652063616c6c6564207468726f7567682060408201526b19195b1959d85d1958d85b1b60a21b606082015260800190565b6020808252602c908201527f46756e6374696f6e206d7573742062652063616c6c6564207468726f7567682060408201526b6163746976652070726f787960a01b606082015260800190565b600061ffff8083168185168083038211156122ec576122ec6121e9565b01949350505050565b60006020828403121561230757600080fd5b8151611d2881611ed9565b60006020828403121561232457600080fd5b5051919050565b6020808252601a908201527f646f6e6174653a207368616d616e206e6f74206d616e61676572000000000000604082015260600190565b634e487b7160e01b600052601260045260246000fd5b60008261238757612387612362565b500690565b6000821982111561239f5761239f6121e9565b500190565b878152866020820152856040820152846060820152831515608082015260c060a08201528160c0820152818360e0830137600081830160e090810191909152601f909201601f191601019695505050505050565b6020808252602b908201527f496e697469616c697a61626c653a20636f6e7472616374206973206e6f74206960408201526a6e697469616c697a696e6760a81b606082015260800190565b634e487b7160e01b600052602160045260246000fd5b604080825283519082018190526000906020906060840190828701845b8281101561249b5781516001600160a01b031684529284019290840190600101612476565b5050508381038285015284518082528583019183019060005b818110156124d0578351835292840192918401916001016124b4565b5090979650505050505050565b6000826124ec576124ec612362565b500490565b600081600019048311821515161561250b5761250b6121e9565b500290565b60005b8381101561252b578181015183820152602001612513565b838111156110e95750506000910152565b76020b1b1b2b9b9a1b7b73a3937b61d1030b1b1b7bab73a1604d1b81526000835161256e816017850160208801612510565b7001034b99036b4b9b9b4b733903937b6329607d1b601791840191820152835161259f816028840160208801612510565b01602801949350505050565b60208152600082518060208401526125ca816040850160208701612510565b601f01601f19169190910160400192915050565b6000816125ed576125ed6121e9565b506000190190565b60008251612607818460208701612510565b919091019291505056fe360894a13ba1a3210667c828492db98dca3e2076cc3735a920a3ca505d382bbc416464726573733a206c6f772d6c6576656c2064656c65676174652063616c6c206661696c6564a2646970667358221220fe47a37084c1015df0ce4788460945ea383b5987e488495ad6117847cb331ad064736f6c634300080c0033",
  "linkReferences": {},
  "deployedLinkReferences": {}
}