{
  "address": "0xa513E6E4b8f2a923D98304ec87F64353C4D5C853",
  "abi": [
    {
      "inputs": [],
      "stateMutability": "nonpayable",
      "type": "constructor"
    },
    {
      "inputs": [
        {
          "internalType": "address",
          "name": "guard_",
          "type": "address"
        }
      ],
      "name": "NotIERC165Compliant",
      "type": "error"
    },
    {
      "anonymous": false,
      "inputs": [
        {
          "indexed": true,
          "internalType": "address",
          "name": "owner",
          "type": "address"
        },
        {
          "indexed": true,
          "internalType": "address",
          "name": "spender",
          "type": "address"
        },
        {
          "indexed": false,
          "internalType": "uint256",
          "name": "amount",
          "type": "uint256"
        }
      ],
      "name": "Approval",
      "type": "event"
    },
    {
      "anonymous": false,
      "inputs": [
        {
          "indexed": true,
          "internalType": "address",
          "name": "previousAvatar",
          "type": "address"
        },
        {
          "indexed": true,
          "internalType": "address",
          "name": "newAvatar",
          "type": "address"
        }
      ],
      "name": "AvatarSet",
      "type": "event"
    },
    {
      "anonymous": false,
      "inputs": [
        {
          "indexed": true,
          "internalType": "uint256",
          "name": "proposal",
          "type": "uint256"
        }
      ],
      "name": "CancelProposal",
      "type": "event"
    },
    {
      "anonymous": false,
      "inputs": [
        {
          "indexed": false,
          "internalType": "address",
          "name": "guard",
          "type": "address"
        }
      ],
      "name": "ChangedGuard",
      "type": "event"
    },
    {
      "anonymous": false,
      "inputs": [],
      "name": "EIP712DomainChanged",
      "type": "event"
    },
    {
      "anonymous": false,
      "inputs": [
        {
          "indexed": false,
          "internalType": "uint32",
          "name": "voting",
          "type": "uint32"
        },
        {
          "indexed": false,
          "internalType": "uint32",
          "name": "grace",
          "type": "uint32"
        },
        {
          "indexed": false,
          "internalType": "uint256",
          "name": "newOffering",
          "type": "uint256"
        },
        {
          "indexed": false,
          "internalType": "uint256",
          "name": "quorum",
          "type": "uint256"
        },
        {
          "indexed": false,
          "internalType": "uint256",
          "name": "sponsor",
          "type": "uint256"
        },
        {
          "indexed": false,
          "internalType": "uint256",
          "name": "minRetention",
          "type": "uint256"
        }
      ],
      "name": "GovernanceConfigSet",
      "type": "event"
    },
    {
      "anonymous": false,
      "inputs": [
        {
          "indexed": false,
          "internalType": "uint8",
          "name": "version",
          "type": "uint8"
        }
      ],
      "name": "Initialized",
      "type": "event"
    },
    {
      "anonymous": false,
      "inputs": [
        {
          "indexed": false,
          "internalType": "bool",
          "name": "adminLock",
          "type": "bool"
        }
      ],
      "name": "LockAdmin",
      "type": "event"
    },
    {
      "anonymous": false,
      "inputs": [
        {
          "indexed": false,
          "internalType": "bool",
          "name": "governorLock",
          "type": "bool"
        }
      ],
      "name": "LockGovernor",
      "type": "event"
    },
    {
      "anonymous": false,
      "inputs": [
        {
          "indexed": false,
          "internalType": "bool",
          "name": "managerLock",
          "type": "bool"
        }
      ],
      "name": "LockManager",
      "type": "event"
    },
    {
      "anonymous": false,
      "inputs": [
        {
          "indexed": false,
          "internalType": "bool",
          "name": "paused",
          "type": "bool"
        }
      ],
      "name": "LootPaused",
      "type": "event"
    },
    {
      "anonymous": false,
      "inputs": [
        {
          "indexed": true,
          "internalType": "address",
          "name": "previousOwner",
          "type": "address"
        },
        {
          "indexed": true,
          "internalType": "address",
          "name": "newOwner",
          "type": "address"
        }
      ],
      "name": "OwnershipTransferred",
      "type": "event"
    },
    {
      "anonymous": false,
      "inputs": [
        {
          "indexed": true,
          "internalType": "uint256",
          "name": "proposal",
          "type": "uint256"
        },
        {
          "indexed": false,
          "internalType": "bool",
          "name": "passed",
          "type": "bool"
        },
        {
          "indexed": false,
          "internalType": "bool",
          "name": "actionFailed",
          "type": "bool"
        }
      ],
      "name": "ProcessProposal",
      "type": "event"
    },
    {
      "anonymous": false,
      "inputs": [
        {
          "indexed": true,
          "internalType": "address",
          "name": "member",
          "type": "address"
        },
        {
          "indexed": false,
          "internalType": "address",
          "name": "to",
          "type": "address"
        },
        {
          "indexed": true,
          "internalType": "uint256",
          "name": "lootToBurn",
          "type": "uint256"
        },
        {
          "indexed": true,
          "internalType": "uint256",
          "name": "sharesToBurn",
          "type": "uint256"
        },
        {
          "indexed": false,
          "internalType": "address[]",
          "name": "tokens",
          "type": "address[]"
        }
      ],
      "name": "Ragequit",
      "type": "event"
    },
    {
      "anonymous": false,
      "inputs": [
        {
          "indexed": false,
          "internalType": "bool",
          "name": "lootPaused",
          "type": "bool"
        },
        {
          "indexed": false,
          "internalType": "bool",
          "name": "sharesPaused",
          "type": "bool"
        },
        {
          "indexed": false,
          "internalType": "uint32",
          "name": "gracePeriod",
          "type": "uint32"
        },
        {
          "indexed": false,
          "internalType": "uint32",
          "name": "votingPeriod",
          "type": "uint32"
        },
        {
          "indexed": false,
          "internalType": "uint256",
          "name": "proposalOffering",
          "type": "uint256"
        },
        {
          "indexed": false,
          "internalType": "uint256",
          "name": "quorumPercent",
          "type": "uint256"
        },
        {
          "indexed": false,
          "internalType": "uint256",
          "name": "sponsorThreshold",
          "type": "uint256"
        },
        {
          "indexed": false,
          "internalType": "uint256",
          "name": "minRetentionPercent",
          "type": "uint256"
        },
        {
          "indexed": false,
          "internalType": "string",
          "name": "name",
          "type": "string"
        },
        {
          "indexed": false,
          "internalType": "string",
          "name": "symbol",
          "type": "string"
        },
        {
          "indexed": false,
          "internalType": "uint256",
          "name": "totalShares",
          "type": "uint256"
        },
        {
          "indexed": false,
          "internalType": "uint256",
          "name": "totalLoot",
          "type": "uint256"
        }
      ],
      "name": "SetupComplete",
      "type": "event"
    },
    {
      "anonymous": false,
      "inputs": [
        {
          "indexed": true,
          "internalType": "address",
          "name": "shaman",
          "type": "address"
        },
        {
          "indexed": false,
          "internalType": "uint256",
          "name": "permission",
          "type": "uint256"
        }
      ],
      "name": "ShamanSet",
      "type": "event"
    },
    {
      "anonymous": false,
      "inputs": [
        {
          "indexed": false,
          "internalType": "bool",
          "name": "paused",
          "type": "bool"
        }
      ],
      "name": "SharesPaused",
      "type": "event"
    },
    {
      "anonymous": false,
      "inputs": [
        {
          "indexed": true,
          "internalType": "address",
          "name": "member",
          "type": "address"
        },
        {
          "indexed": true,
          "internalType": "uint256",
          "name": "proposal",
          "type": "uint256"
        },
        {
          "indexed": true,
          "internalType": "uint256",
          "name": "votingStarts",
          "type": "uint256"
        }
      ],
      "name": "SponsorProposal",
      "type": "event"
    },
    {
      "anonymous": false,
      "inputs": [
        {
          "indexed": true,
          "internalType": "uint256",
          "name": "proposal",
          "type": "uint256"
        },
        {
          "indexed": true,
          "internalType": "bytes32",
          "name": "proposalDataHash",
          "type": "bytes32"
        },
        {
          "indexed": false,
          "internalType": "uint256",
          "name": "votingPeriod",
          "type": "uint256"
        },
        {
          "indexed": false,
          "internalType": "bytes",
          "name": "proposalData",
          "type": "bytes"
        },
        {
          "indexed": false,
          "internalType": "uint256",
          "name": "expiration",
          "type": "uint256"
        },
        {
          "indexed": false,
          "internalType": "uint256",
          "name": "baalGas",
          "type": "uint256"
        },
        {
          "indexed": false,
          "internalType": "bool",
          "name": "selfSponsor",
          "type": "bool"
        },
        {
          "indexed": false,
          "internalType": "uint256",
          "name": "timestamp",
          "type": "uint256"
        },
        {
          "indexed": false,
          "internalType": "string",
          "name": "details",
          "type": "string"
        }
      ],
      "name": "SubmitProposal",
      "type": "event"
    },
    {
      "anonymous": false,
      "inputs": [
        {
          "indexed": true,
          "internalType": "address",
          "name": "member",
          "type": "address"
        },
        {
          "indexed": false,
          "internalType": "uint256",
          "name": "balance",
          "type": "uint256"
        },
        {
          "indexed": true,
          "internalType": "uint256",
          "name": "proposal",
          "type": "uint256"
        },
        {
          "indexed": true,
          "internalType": "bool",
          "name": "approved",
          "type": "bool"
        }
      ],
      "name": "SubmitVote",
      "type": "event"
    },
    {
      "anonymous": false,
      "inputs": [
        {
          "indexed": true,
          "internalType": "address",
          "name": "previousTarget",
          "type": "address"
        },
        {
          "indexed": true,
          "internalType": "address",
          "name": "newTarget",
          "type": "address"
        }
      ],
      "name": "TargetSet",
      "type": "event"
    },
    {
      "inputs": [],
      "name": "adminLock",
      "outputs": [
        {
          "internalType": "bool",
          "name": "",
          "type": "bool"
        }
      ],
      "stateMutability": "view",
      "type": "function"
    },
    {
      "inputs": [],
      "name": "avatar",
      "outputs": [
        {
          "internalType": "address",
          "name": "",
          "type": "address"
        }
      ],
      "stateMutability": "view",
      "type": "function"
    },
    {
      "inputs": [
        {
          "internalType": "address[]",
          "name": "from",
          "type": "address[]"
        },
        {
          "internalType": "uint256[]",
          "name": "amount",
          "type": "uint256[]"
        }
      ],
      "name": "burnLoot",
      "outputs": [],
      "stateMutability": "nonpayable",
      "type": "function"
    },
    {
      "inputs": [
        {
          "internalType": "address[]",
          "name": "from",
          "type": "address[]"
        },
        {
          "internalType": "uint256[]",
          "name": "amount",
          "type": "uint256[]"
        }
      ],
      "name": "burnShares",
      "outputs": [],
      "stateMutability": "nonpayable",
      "type": "function"
    },
    {
      "inputs": [
        {
          "internalType": "uint32",
          "name": "id",
          "type": "uint32"
        }
      ],
      "name": "cancelProposal",
      "outputs": [],
      "stateMutability": "nonpayable",
      "type": "function"
    },
    {
      "inputs": [],
      "name": "eip712Domain",
      "outputs": [
        {
          "internalType": "bytes1",
          "name": "fields",
          "type": "bytes1"
        },
        {
          "internalType": "string",
          "name": "name",
          "type": "string"
        },
        {
          "internalType": "string",
          "name": "version",
          "type": "string"
        },
        {
          "internalType": "uint256",
          "name": "chainId",
          "type": "uint256"
        },
        {
          "internalType": "address",
          "name": "verifyingContract",
          "type": "address"
        },
        {
          "internalType": "bytes32",
          "name": "salt",
          "type": "bytes32"
        },
        {
          "internalType": "uint256[]",
          "name": "extensions",
          "type": "uint256[]"
        }
      ],
      "stateMutability": "view",
      "type": "function"
    },
    {
      "inputs": [
        {
          "internalType": "bytes[]",
          "name": "_calls",
          "type": "bytes[]"
        },
        {
          "internalType": "address",
          "name": "_target",
          "type": "address"
        }
      ],
      "name": "encodeMultisend",
      "outputs": [
        {
          "internalType": "bytes",
          "name": "encodedMultisend",
          "type": "bytes"
        }
      ],
      "stateMutability": "pure",
      "type": "function"
    },
    {
      "inputs": [
        {
          "internalType": "address",
          "name": "_to",
          "type": "address"
        },
        {
          "internalType": "uint256",
          "name": "_value",
          "type": "uint256"
        },
        {
          "internalType": "bytes",
          "name": "_data",
          "type": "bytes"
        }
      ],
      "name": "executeAsBaal",
      "outputs": [],
      "stateMutability": "nonpayable",
      "type": "function"
    },
    {
      "inputs": [],
      "name": "getGuard",
      "outputs": [
        {
          "internalType": "address",
          "name": "_guard",
          "type": "address"
        }
      ],
      "stateMutability": "view",
      "type": "function"
    },
    {
      "inputs": [
        {
          "internalType": "uint32",
          "name": "id",
          "type": "uint32"
        }
      ],
      "name": "getProposalStatus",
      "outputs": [
        {
          "internalType": "bool[4]",
          "name": "",
          "type": "bool[4]"
        }
      ],
      "stateMutability": "view",
      "type": "function"
    },
    {
      "inputs": [],
      "name": "governorLock",
      "outputs": [
        {
          "internalType": "bool",
          "name": "",
          "type": "bool"
        }
      ],
      "stateMutability": "view",
      "type": "function"
    },
    {
      "inputs": [],
      "name": "gracePeriod",
      "outputs": [
        {
          "internalType": "uint32",
          "name": "",
          "type": "uint32"
        }
      ],
      "stateMutability": "view",
      "type": "function"
    },
    {
      "inputs": [],
      "name": "guard",
      "outputs": [
        {
          "internalType": "address",
          "name": "",
          "type": "address"
        }
      ],
      "stateMutability": "view",
      "type": "function"
    },
    {
      "inputs": [
        {
          "internalType": "bytes",
          "name": "_transactions",
          "type": "bytes"
        }
      ],
      "name": "hashOperation",
      "outputs": [
        {
          "internalType": "bytes32",
          "name": "hash",
          "type": "bytes32"
        }
      ],
      "stateMutability": "pure",
      "type": "function"
    },
    {
      "inputs": [
        {
          "internalType": "address",
          "name": "shaman",
          "type": "address"
        }
      ],
      "name": "isAdmin",
      "outputs": [
        {
          "internalType": "bool",
          "name": "",
          "type": "bool"
        }
      ],
      "stateMutability": "view",
      "type": "function"
    },
    {
      "inputs": [
        {
          "internalType": "address",
          "name": "shaman",
          "type": "address"
        }
      ],
      "name": "isGovernor",
      "outputs": [
        {
          "internalType": "bool",
          "name": "",
          "type": "bool"
        }
      ],
      "stateMutability": "view",
      "type": "function"
    },
    {
      "inputs": [
        {
          "internalType": "address",
          "name": "shaman",
          "type": "address"
        }
      ],
      "name": "isManager",
      "outputs": [
        {
          "internalType": "bool",
          "name": "",
          "type": "bool"
        }
      ],
      "stateMutability": "view",
      "type": "function"
    },
    {
      "inputs": [
        {
          "internalType": "address",
          "name": "forwarder",
          "type": "address"
        }
      ],
      "name": "isTrustedForwarder",
      "outputs": [
        {
          "internalType": "bool",
          "name": "",
          "type": "bool"
        }
      ],
      "stateMutability": "view",
      "type": "function"
    },
    {
      "inputs": [],
      "name": "latestSponsoredProposalId",
      "outputs": [
        {
          "internalType": "uint32",
          "name": "",
          "type": "uint32"
        }
      ],
      "stateMutability": "view",
      "type": "function"
    },
    {
      "inputs": [],
      "name": "lockAdmin",
      "outputs": [],
      "stateMutability": "nonpayable",
      "type": "function"
    },
    {
      "inputs": [],
      "name": "lockGovernor",
      "outputs": [],
      "stateMutability": "nonpayable",
      "type": "function"
    },
    {
      "inputs": [],
      "name": "lockManager",
      "outputs": [],
      "stateMutability": "nonpayable",
      "type": "function"
    },
    {
      "inputs": [],
      "name": "lootToken",
      "outputs": [
        {
          "internalType": "contract IBaalToken",
          "name": "",
          "type": "address"
        }
      ],
      "stateMutability": "view",
      "type": "function"
    },
    {
      "inputs": [],
      "name": "managerLock",
      "outputs": [
        {
          "internalType": "bool",
          "name": "",
          "type": "bool"
        }
      ],
      "stateMutability": "view",
      "type": "function"
    },
    {
      "inputs": [
        {
          "internalType": "address",
          "name": "",
          "type": "address"
        },
        {
          "internalType": "uint32",
          "name": "",
          "type": "uint32"
        }
      ],
      "name": "memberVoted",
      "outputs": [
        {
          "internalType": "bool",
          "name": "",
          "type": "bool"
        }
      ],
      "stateMutability": "view",
      "type": "function"
    },
    {
      "inputs": [],
      "name": "minRetentionPercent",
      "outputs": [
        {
          "internalType": "uint256",
          "name": "",
          "type": "uint256"
        }
      ],
      "stateMutability": "view",
      "type": "function"
    },
    {
      "inputs": [
        {
          "internalType": "address[]",
          "name": "to",
          "type": "address[]"
        },
        {
          "internalType": "uint256[]",
          "name": "amount",
          "type": "uint256[]"
        }
      ],
      "name": "mintLoot",
      "outputs": [],
      "stateMutability": "nonpayable",
      "type": "function"
    },
    {
      "inputs": [
        {
          "internalType": "address[]",
          "name": "to",
          "type": "address[]"
        },
        {
          "internalType": "uint256[]",
          "name": "amount",
          "type": "uint256[]"
        }
      ],
      "name": "mintShares",
      "outputs": [],
      "stateMutability": "nonpayable",
      "type": "function"
    },
    {
      "inputs": [],
      "name": "multisendLibrary",
      "outputs": [
        {
          "internalType": "address",
          "name": "",
          "type": "address"
        }
      ],
      "stateMutability": "view",
      "type": "function"
    },
    {
      "inputs": [],
      "name": "owner",
      "outputs": [
        {
          "internalType": "address",
          "name": "",
          "type": "address"
        }
      ],
      "stateMutability": "view",
      "type": "function"
    },
    {
      "inputs": [
        {
          "internalType": "uint32",
          "name": "id",
          "type": "uint32"
        },
        {
          "internalType": "bytes",
          "name": "proposalData",
          "type": "bytes"
        }
      ],
      "name": "processProposal",
      "outputs": [],
      "stateMutability": "nonpayable",
      "type": "function"
    },
    {
      "inputs": [],
      "name": "proposalCount",
      "outputs": [
        {
          "internalType": "uint32",
          "name": "",
          "type": "uint32"
        }
      ],
      "stateMutability": "view",
      "type": "function"
    },
    {
      "inputs": [],
      "name": "proposalOffering",
      "outputs": [
        {
          "internalType": "uint256",
          "name": "",
          "type": "uint256"
        }
      ],
      "stateMutability": "view",
      "type": "function"
    },
    {
      "inputs": [
        {
          "internalType": "uint256",
          "name": "",
          "type": "uint256"
        }
      ],
      "name": "proposals",
      "outputs": [
        {
          "internalType": "uint32",
          "name": "id",
          "type": "uint32"
        },
        {
          "internalType": "uint32",
          "name": "prevProposalId",
          "type": "uint32"
        },
        {
          "internalType": "uint32",
          "name": "votingStarts",
          "type": "uint32"
        },
        {
          "internalType": "uint32",
          "name": "votingEnds",
          "type": "uint32"
        },
        {
          "internalType": "uint32",
          "name": "graceEnds",
          "type": "uint32"
        },
        {
          "internalType": "uint32",
          "name": "expiration",
          "type": "uint32"
        },
        {
          "internalType": "uint256",
          "name": "baalGas",
          "type": "uint256"
        },
        {
          "internalType": "uint256",
          "name": "yesVotes",
          "type": "uint256"
        },
        {
          "internalType": "uint256",
          "name": "noVotes",
          "type": "uint256"
        },
        {
          "internalType": "uint256",
          "name": "maxTotalSharesAndLootAtYesVote",
          "type": "uint256"
        },
        {
          "internalType": "address",
          "name": "sponsor",
          "type": "address"
        },
        {
          "internalType": "bytes32",
          "name": "proposalDataHash",
          "type": "bytes32"
        }
      ],
      "stateMutability": "view",
      "type": "function"
    },
    {
      "inputs": [],
      "name": "quorumPercent",
      "outputs": [
        {
          "internalType": "uint256",
          "name": "",
          "type": "uint256"
        }
      ],
      "stateMutability": "view",
      "type": "function"
    },
    {
      "inputs": [
        {
          "internalType": "address",
          "name": "to",
          "type": "address"
        },
        {
          "internalType": "uint256",
          "name": "sharesToBurn",
          "type": "uint256"
        },
        {
          "internalType": "uint256",
          "name": "lootToBurn",
          "type": "uint256"
        },
        {
          "internalType": "address[]",
          "name": "tokens",
          "type": "address[]"
        }
      ],
      "name": "ragequit",
      "outputs": [],
      "stateMutability": "nonpayable",
      "type": "function"
    },
    {
      "inputs": [],
      "name": "renounceOwnership",
      "outputs": [],
      "stateMutability": "nonpayable",
      "type": "function"
    },
    {
      "inputs": [
        {
          "internalType": "bool",
          "name": "pauseShares",
          "type": "bool"
        },
        {
          "internalType": "bool",
          "name": "pauseLoot",
          "type": "bool"
        }
      ],
      "name": "setAdminConfig",
      "outputs": [],
      "stateMutability": "nonpayable",
      "type": "function"
    },
    {
      "inputs": [
        {
          "internalType": "address",
          "name": "_avatar",
          "type": "address"
        }
      ],
      "name": "setAvatar",
      "outputs": [],
      "stateMutability": "nonpayable",
      "type": "function"
    },
    {
      "inputs": [
        {
          "internalType": "bytes",
          "name": "_governanceConfig",
          "type": "bytes"
        }
      ],
      "name": "setGovernanceConfig",
      "outputs": [],
      "stateMutability": "nonpayable",
      "type": "function"
    },
    {
      "inputs": [
        {
          "internalType": "address",
          "name": "_guard",
          "type": "address"
        }
      ],
      "name": "setGuard",
      "outputs": [],
      "stateMutability": "nonpayable",
      "type": "function"
    },
    {
      "inputs": [
        {
          "internalType": "address[]",
          "name": "_shamans",
          "type": "address[]"
        },
        {
          "internalType": "uint256[]",
          "name": "_permissions",
          "type": "uint256[]"
        }
      ],
      "name": "setShamans",
      "outputs": [],
      "stateMutability": "nonpayable",
      "type": "function"
    },
    {
      "inputs": [
        {
          "internalType": "address",
          "name": "_target",
          "type": "address"
        }
      ],
      "name": "setTarget",
      "outputs": [],
      "stateMutability": "nonpayable",
      "type": "function"
    },
    {
      "inputs": [
        {
          "internalType": "address",
          "name": "_trustedForwarderAddress",
          "type": "address"
        }
      ],
      "name": "setTrustedForwarder",
      "outputs": [],
      "stateMutability": "nonpayable",
      "type": "function"
    },
    {
      "inputs": [
        {
          "internalType": "bytes",
          "name": "_initializationParams",
          "type": "bytes"
        }
      ],
      "name": "setUp",
      "outputs": [],
      "stateMutability": "nonpayable",
      "type": "function"
    },
    {
      "inputs": [
        {
          "internalType": "address",
          "name": "",
          "type": "address"
        }
      ],
      "name": "shamans",
      "outputs": [
        {
          "internalType": "uint256",
          "name": "",
          "type": "uint256"
        }
      ],
      "stateMutability": "view",
      "type": "function"
    },
    {
      "inputs": [],
      "name": "sharesToken",
      "outputs": [
        {
          "internalType": "contract IBaalToken",
          "name": "",
          "type": "address"
        }
      ],
      "stateMutability": "view",
      "type": "function"
    },
    {
      "inputs": [
        {
          "internalType": "uint32",
          "name": "id",
          "type": "uint32"
        }
      ],
      "name": "sponsorProposal",
      "outputs": [],
      "stateMutability": "nonpayable",
      "type": "function"
    },
    {
      "inputs": [],
      "name": "sponsorThreshold",
      "outputs": [
        {
          "internalType": "uint256",
          "name": "",
          "type": "uint256"
        }
      ],
      "stateMutability": "view",
      "type": "function"
    },
    {
      "inputs": [
        {
          "internalType": "uint32",
          "name": "id",
          "type": "uint32"
        }
      ],
      "name": "state",
      "outputs": [
        {
          "internalType": "enum Baal.ProposalState",
          "name": "",
          "type": "uint8"
        }
      ],
      "stateMutability": "view",
      "type": "function"
    },
    {
      "inputs": [
        {
          "internalType": "bytes",
          "name": "proposalData",
          "type": "bytes"
        },
        {
          "internalType": "uint32",
          "name": "expiration",
          "type": "uint32"
        },
        {
          "internalType": "uint256",
          "name": "baalGas",
          "type": "uint256"
        },
        {
          "internalType": "string",
          "name": "details",
          "type": "string"
        }
      ],
      "name": "submitProposal",
      "outputs": [
        {
          "internalType": "uint256",
          "name": "",
          "type": "uint256"
        }
      ],
      "stateMutability": "payable",
      "type": "function"
    },
    {
      "inputs": [
        {
          "internalType": "uint32",
          "name": "id",
          "type": "uint32"
        },
        {
          "internalType": "bool",
          "name": "approved",
          "type": "bool"
        }
      ],
      "name": "submitVote",
      "outputs": [],
      "stateMutability": "nonpayable",
      "type": "function"
    },
    {
      "inputs": [
        {
          "internalType": "address",
          "name": "voter",
          "type": "address"
        },
        {
          "internalType": "uint256",
          "name": "expiry",
          "type": "uint256"
        },
        {
          "internalType": "uint256",
          "name": "nonce",
          "type": "uint256"
        },
        {
          "internalType": "uint32",
          "name": "id",
          "type": "uint32"
        },
        {
          "internalType": "bool",
          "name": "approved",
          "type": "bool"
        },
        {
          "internalType": "uint8",
          "name": "v",
          "type": "uint8"
        },
        {
          "internalType": "bytes32",
          "name": "r",
          "type": "bytes32"
        },
        {
          "internalType": "bytes32",
          "name": "s",
          "type": "bytes32"
        }
      ],
      "name": "submitVoteWithSig",
      "outputs": [],
      "stateMutability": "nonpayable",
      "type": "function"
    },
    {
      "inputs": [],
      "name": "target",
      "outputs": [
        {
          "internalType": "address",
          "name": "",
          "type": "address"
        }
      ],
      "stateMutability": "view",
      "type": "function"
    },
    {
      "inputs": [],
      "name": "totalLoot",
      "outputs": [
        {
          "internalType": "uint256",
          "name": "",
          "type": "uint256"
        }
      ],
      "stateMutability": "view",
      "type": "function"
    },
    {
      "inputs": [],
      "name": "totalShares",
      "outputs": [
        {
          "internalType": "uint256",
          "name": "",
          "type": "uint256"
        }
      ],
      "stateMutability": "view",
      "type": "function"
    },
    {
      "inputs": [],
      "name": "totalSupply",
      "outputs": [
        {
          "internalType": "uint256",
          "name": "",
          "type": "uint256"
        }
      ],
      "stateMutability": "view",
      "type": "function"
    },
    {
      "inputs": [
        {
          "internalType": "address",
          "name": "newOwner",
          "type": "address"
        }
      ],
      "name": "transferOwnership",
      "outputs": [],
      "stateMutability": "nonpayable",
      "type": "function"
    },
    {
      "inputs": [],
      "name": "trustedForwarder",
      "outputs": [
        {
          "internalType": "address",
          "name": "",
          "type": "address"
        }
      ],
      "stateMutability": "view",
      "type": "function"
    },
    {
      "inputs": [],
      "name": "versionRecipient",
      "outputs": [
        {
          "internalType": "string",
          "name": "",
          "type": "string"
        }
      ],
      "stateMutability": "view",
      "type": "function"
    },
    {
      "inputs": [
        {
          "internalType": "address",
          "name": "",
          "type": "address"
        }
      ],
      "name": "votingNonces",
      "outputs": [
        {
          "internalType": "uint256",
          "name": "",
          "type": "uint256"
        }
      ],
      "stateMutability": "view",
      "type": "function"
    },
    {
      "inputs": [],
      "name": "votingPeriod",
      "outputs": [
        {
          "internalType": "uint32",
          "name": "",
          "type": "uint32"
        }
      ],
      "stateMutability": "view",
      "type": "function"
    }
  ],
  "transactionHash": "0xb08848d6b3d42e584b7a0e8522e9c6cc82262e41835082ea6c6eb4434e5a0110",
  "args": [],
  "numDeployments": 1,
  "solcInputHash": "a722f036a06895fe5bf5ae5ceae3865a",
  "bytecode": "0x60806040523480156200001157600080fd5b506200001c62000022565b620000e3565b600054610100900460ff16156200008f5760405162461bcd60e51b815260206004820152602760248201527f496e697469616c697a61626c653a20636f6e747261637420697320696e697469604482015266616c697a696e6760c81b606482015260840160405180910390fd5b60005460ff90811614620000e1576000805460ff191660ff9081179091556040519081527f7f26b83ff96e1f2b6a682f133852f6798a09c465da95921460cefb38474024989060200160405180910390a15b565b615eeb80620000f36000396000f3fe60806040526004361061032d5760003560e01c806383bf8459116101a7578063cf043df3116100ed578063ed0cdf1511610090578063ed0cdf1514610b13578063ee4d88ed14610b33578063f2fde38b14610b53578063f3ae241514610b73578063f460124d14610b93578063f81cbd2614610bb3578063fab514c014610bc9578063fe47668614610be957600080fd5b8063cf043df3146109f4578063d33defc714610a14578063d4b8399214610a4f578063d61f27ae14610a6f578063da35c66414610a8f578063da74222814610ab3578063e19a9dd914610ad3578063e43581b814610af357600080fd5b8063a4f9edbf11610155578063a4f9edbf146108fe578063acca30a21461091e578063b1e3f40c14610933578063b3c98bbb14610953578063b634e4e014610973578063c00d077514610990578063c4e931f6146109b7578063c9106389146109d657600080fd5b806383bf84591461082857806384b0196e1461083e5780638da5cb5b1461086657806398a527cc146108845780639a2f747f146108a4578063a06db7dc146108ba578063a26ec96e146108de57600080fd5b80634526d84611610277578063635e99aa1161021a578063635e99aa1461074057806367f61f0714610755578063706a6e9314610775578063715018a614610795578063776d1a01146107aa5780637ceab3b1146107ca5780637da0a877146107ea5780638009ba1f1461080857600080fd5b80634526d846146106125780634630affc14610632578063486ff0cd1461065f57806352ba1da714610681578063572b6c05146106ae5780635aef7de6146106dd5780635cfd6f7e1461070a5780635ec286961461072057600080fd5b8063136d731a116102df578063136d731a1461053057806316fd265d1461054557806318160ddd1461055a57806324d7806c1461057d578063258bfe2f1461059d5780633232444c146105bd5780633a82ffc8146105ea5780633a98ef39146105fd57600080fd5b8063013cf08b14610332578063027cdf451461044b57806302a251a314610475578063056b0dcd146104ae578063086cfca8146104d05780630a796e19146104f05780630f656a2114610510575b600080fd5b34801561033e57600080fd5b506103ce61034d366004614f6b565b60d960205260009081526040902080546001820154600283015460038401546004850154600686015460079096015463ffffffff80871697600160201b8804821697600160401b8104831697600160601b8204841697600160801b8304851697600160a01b909304909416959094919290916001600160a01b03909116908c565b6040805163ffffffff9d8e1681529b8d1660208d0152998c16998b0199909952968a1660608a015294891660808901529790921660a087015260c086015260e08501526101008401949094526101208301939093526001600160a01b03909216610140820152610160810191909152610180015b60405180910390f35b34801561045757600080fd5b5060d5546104659060ff1681565b6040519015158152602001610442565b34801561048157600080fd5b5060d05461049990600160a01b900463ffffffff1681565b60405163ffffffff9091168152602001610442565b3480156104ba57600080fd5b506104ce6104c9366004614f92565b610c16565b005b3480156104dc57600080fd5b506104ce6104eb366004614ff0565b611121565b3480156104fc57600080fd5b506104ce61050b36600461501f565b61117b565b34801561051c57600080fd5b506104ce61052b366004615087565b611450565b34801561053c57600080fd5b506104ce6116fe565b34801561055157600080fd5b506104ce61178f565b34801561056657600080fd5b5061056f611809565b604051908152602001610442565b34801561058957600080fd5b50610465610598366004614ff0565b61182a565b3480156105a957600080fd5b5061056f6105b83660046151b5565b61186f565b3480156105c957600080fd5b5061056f6105d8366004614ff0565b60d66020526000908152604090205481565b61056f6105f8366004615232565b61189f565b34801561060957600080fd5b5061056f611eca565b34801561061e57600080fd5b506104ce61062d366004615087565b611f38565b34801561063e57600080fd5b5061065261064d36600461501f565b612007565b60405161044291906152bf565b34801561066b57600080fd5b50610674612078565b604051610442919061534e565b34801561068d57600080fd5b5061056f61069c366004614ff0565b60d86020526000908152604090205481565b3480156106ba57600080fd5b506104656106c9366004614ff0565b60ce546001600160a01b0391821691161490565b3480156106e957600080fd5b506066546106fd906001600160a01b031681565b6040516104429190615361565b34801561071657600080fd5b5061056f60d35481565b34801561072c57600080fd5b506104ce61073b366004615087565b612106565b34801561074c57600080fd5b5061056f6121d5565b34801561076157600080fd5b506104ce610770366004615375565b61221f565b34801561078157600080fd5b506104ce610790366004615393565b612243565b3480156107a157600080fd5b506104ce61262a565b3480156107b657600080fd5b506104ce6107c5366004614ff0565b61263e565b3480156107d657600080fd5b506065546106fd906001600160a01b031681565b3480156107f657600080fd5b5060ce546001600160a01b03166106fd565b34801561081457600080fd5b5060d0546106fd906001600160a01b031681565b34801561083457600080fd5b5061056f60d45481565b34801561084a57600080fd5b50610853612698565b60405161044297969594939291906153e7565b34801561087257600080fd5b506033546001600160a01b03166106fd565b34801561089057600080fd5b506104ce61089f366004615087565b612736565b3480156108b057600080fd5b5061056f60d15481565b3480156108c657600080fd5b5060d05461049990600160c01b900463ffffffff1681565b3480156108ea57600080fd5b5060d5546104659062010000900460ff1681565b34801561090a57600080fd5b506104ce6109193660046151b5565b612805565b34801561092a57600080fd5b506104ce612d7f565b34801561093f57600080fd5b506104ce61094e366004615087565b612e04565b34801561095f57600080fd5b506104ce61096e36600461547d565b612ed3565b34801561097f57600080fd5b5060da546104999063ffffffff1681565b34801561099c57600080fd5b5060da546106fd90600160201b90046001600160a01b031681565b3480156109c357600080fd5b5060d55461046590610100900460ff1681565b3480156109e257600080fd5b506065546001600160a01b03166106fd565b348015610a0057600080fd5b506104ce610a0f3660046154cc565b612fb4565b348015610a2057600080fd5b50610465610a2f366004615555565b60d760209081526000928352604080842090915290825290205460ff1681565b348015610a5b57600080fd5b506067546106fd906001600160a01b031681565b348015610a7b57600080fd5b50610674610a8a366004615583565b61327f565b348015610a9b57600080fd5b5060d05461049990600160e01b900463ffffffff1681565b348015610abf57600080fd5b506104ce610ace366004614ff0565b613346565b348015610adf57600080fd5b506104ce610aee366004614ff0565b61339a565b348015610aff57600080fd5b50610465610b0e366004614ff0565b613496565b348015610b1f57600080fd5b506104ce610b2e366004615657565b6134d7565b348015610b3f57600080fd5b506104ce610b4e3660046151b5565b6135ec565b348015610b5f57600080fd5b506104ce610b6e366004614ff0565b613826565b348015610b7f57600080fd5b50610465610b8e366004614ff0565b61389c565b348015610b9f57600080fd5b5060cf546106fd906001600160a01b031681565b348015610bbf57600080fd5b5061056f60d25481565b348015610bd557600080fd5b506104ce610be436600461501f565b6138dc565b348015610bf557600080fd5b50610c09610c0436600461501f565b613a78565b60405161044291906156d6565b6066546001600160a01b0316610c2a613c49565b6001600160a01b03161480610c455750610c45610598613c49565b610c875760405162461bcd60e51b815260206004820152600e60248201526d10b130b0b610131010b0b236b4b760911b60448201526064015b60405180910390fd5b818015610d08575060d060009054906101000a90046001600160a01b03166001600160a01b0316635c975abb6040518163ffffffff1660e01b8152600401602060405180830381865afa158015610ce2573d6000803e3d6000fd5b505050506040513d601f19601f82011682018060405250810190610d0691906156f0565b155b15610daf5760d060009054906101000a90046001600160a01b03166001600160a01b0316638456cb596040518163ffffffff1660e01b8152600401600060405180830381600087803b158015610d5d57600080fd5b505af1158015610d71573d6000803e3d6000fd5b5050604051600181527f5544d0c1539dae939ba6e81485fb6352e3081f5a74f9bf445038bdcc358e34159250602001905060405180910390a1610ed2565b81158015610e2f575060d060009054906101000a90046001600160a01b03166001600160a01b0316635c975abb6040518163ffffffff1660e01b8152600401602060405180830381865afa158015610e0b573d6000803e3d6000fd5b505050506040513d601f19601f82011682018060405250810190610e2f91906156f0565b15610ed25760d060009054906101000a90046001600160a01b03166001600160a01b0316633f4ba83a6040518163ffffffff1660e01b8152600401600060405180830381600087803b158015610e8457600080fd5b505af1158015610e98573d6000803e3d6000fd5b5050604051600081527f5544d0c1539dae939ba6e81485fb6352e3081f5a74f9bf445038bdcc358e34159250602001905060405180910390a15b808015610f53575060cf60009054906101000a90046001600160a01b03166001600160a01b0316635c975abb6040518163ffffffff1660e01b8152600401602060405180830381865afa158015610f2d573d6000803e3d6000fd5b505050506040513d601f19601f82011682018060405250810190610f5191906156f0565b155b15610ffa5760cf60009054906101000a90046001600160a01b03166001600160a01b0316638456cb596040518163ffffffff1660e01b8152600401600060405180830381600087803b158015610fa857600080fd5b505af1158015610fbc573d6000803e3d6000fd5b5050604051600181527f21b897e32ff7464f696022c4d6dfbf2d4eb300d162ad28e0d90f1136f5fea9cb925060200190505b60405180910390a15050565b8015801561107a575060cf60009054906101000a90046001600160a01b03166001600160a01b0316635c975abb6040518163ffffffff1660e01b8152600401602060405180830381865afa158015611056573d6000803e3d6000fd5b505050506040513d601f19601f8201168201806040525081019061107a91906156f0565b1561111d5760cf60009054906101000a90046001600160a01b03166001600160a01b0316633f4ba83a6040518163ffffffff1660e01b8152600401600060405180830381600087803b1580156110cf57600080fd5b505af11580156110e3573d6000803e3d6000fd5b5050604051600081527f21b897e32ff7464f696022c4d6dfbf2d4eb300d162ad28e0d90f1136f5fea9cb9250602001905060405180910390a15b5050565b611129613c53565b606680546001600160a01b038381166001600160a01b0319831681179093556040519116919082907f52ae88b092de36f87fb43fe794eb1381023b9c1bce563a871154022c63dce34290600090a35050565b611183613ccc565b63ffffffff8116600090815260d96020526040902060d35460d0546001600160a01b031663b4b5ea576111b4613c49565b6040518263ffffffff1660e01b81526004016111d09190615361565b602060405180830381865afa1580156111ed573d6000803e3d6000fd5b505050506040513d601f19601f82011682018060405250810190611211919061570d565b101561122f5760405162461bcd60e51b8152600401610c7e90615726565b600161123a83613a78565b600781111561124b5761124b6156c0565b146112855760405162461bcd60e51b815260206004820152600a602482015269085cdd589b5a5d1d195960b21b6044820152606401610c7e565b8054600160a01b900463ffffffff1615806112db575060d05463ffffffff600160c01b82048116916112c091600160a01b909104164261575e565b6112ca919061575e565b8154600160a01b900463ffffffff16115b6112f75760405162461bcd60e51b8152600401610c7e90615776565b805463ffffffff42818116600160401b0263ffffffff60401b1984168117855560d08054600160a01b90819004851684018516600160601b0263ffffffff60601b1990931667ffffffffffffffff60401b19909616959095179190911780865590549384048316909101600160c01b9093048216929092018116600160801b0263ffffffff60801b1983168117845560da54600160201b92169190910267ffffffff000000001990911673ffffffff0000000000000000ffffffff0000000019909216919091171781556113c9613c49565b6006820180546001600160a01b0319166001600160a01b039290921691909117905560da805463ffffffff191663ffffffff8416908117909155429061140d613c49565b6001600160a01b03167fd45ad122361f16d6f50d7c4a73638f20ee48eff6186af15224e2a4a1f6d5017160405160405180910390a45061144d6001609c55565b50565b6066546001600160a01b0316611464613c49565b6001600160a01b03161461148a5760405162461bcd60e51b8152600401610c7e90615797565b8281146114a95760405162461bcd60e51b8152600401610c7e906157b6565b60005b838110156116f75760008383838181106114c8576114c86157dd565b60d5546020909102929092013592505060ff161561154557806001141580156114f2575080600314155b80156114ff575080600514155b801561150c575080600714155b6115455760405162461bcd60e51b815260206004820152600a60248201526961646d696e206c6f636b60b01b6044820152606401610c7e565b60d554610100900460ff16156115bc5780600214158015611567575080600314155b8015611574575080600614155b8015611581575080600714155b6115bc5760405162461bcd60e51b815260206004820152600c60248201526b6d616e61676572206c6f636b60a01b6044820152606401610c7e565b60d55462010000900460ff161561163557806004141580156115df575080600514155b80156115ec575080600614155b80156115f9575080600714155b6116355760405162461bcd60e51b815260206004820152600d60248201526c676f7665726e6f72206c6f636b60981b6044820152606401610c7e565b8060d6600088888681811061164c5761164c6157dd565b90506020020160208101906116619190614ff0565b6001600160a01b0316815260208101919091526040016000205585858381811061168d5761168d6157dd565b90506020020160208101906116a29190614ff0565b6001600160a01b03167fc456d076c1245c6b9759b3cdcb169e14e00a7739897e501844c8fe5fca6cb260826040516116dc91815260200190565b60405180910390a250806116ef816157f3565b9150506114ac565b5050505050565b6066546001600160a01b0316611712613c49565b6001600160a01b0316146117385760405162461bcd60e51b8152600401610c7e90615797565b60d5805462ff0000191662010000908117918290556040517fd9574ee4ccdf21db87aa2c1d1fee3248522d79c07c54bde4a9edeb0620bef71f9261178592900460ff161515815260200190565b60405180910390a1565b6066546001600160a01b03166117a3613c49565b6001600160a01b0316146117c95760405162461bcd60e51b8152600401610c7e90615797565b60d5805460ff191660019081179091556040519081527f5e1c9f68365556a24387c25fd0922af31039bcfc65d36caac57401d310948e5990602001611785565b6000611813611eca565b61181b6121d5565b611825919061575e565b905090565b6001600160a01b038116600090815260d6602052604081205460018114806118525750806003145b8061185d5750806005145b806118685750806007145b9392505050565b600081604051602001611882919061534e565b604051602081830303815290604052805190602001209050919050565b60006118a9613ccc565b63ffffffff851615806118ef575060d05463ffffffff600160c01b82048116916118dc91600160a01b909104164261575e565b6118e6919061575e565b8563ffffffff16115b61190b5760405162461bcd60e51b8152600401610c7e90615776565b60d35460d054600091906001600160a01b031663b4b5ea5761192b613c49565b6040518263ffffffff1660e01b81526004016119479190615361565b602060405180830381865afa158015611964573d6000803e3d6000fd5b505050506040513d601f19601f82011682018060405250810190611988919061570d565b101580611a07575060d35460d05460405163b4b5ea5760e01b81526001600160a01b039091169063b4b5ea57906119c3903290600401615361565b602060405180830381865afa1580156119e0573d6000803e3d6000fd5b505050506040513d601f19601f82011682018060405250810190611a04919061570d565b10155b15611a1457506001611af7565b60d1543414611a615760405162461bcd60e51b81526020600482015260196024820152784261616c20726571756972657320616e206f66666572696e6760381b6044820152606401610c7e565b6067546040516000916001600160a01b03169034908381818185875af1925050503d8060008114611aae576040519150601f19603f3d011682016040523d82523d6000602084013e611ab3565b606091505b5050905080611af55760405162461bcd60e51b815260206004820152600e60248201526d18dbdd5b19081b9bdd081cd95b9960921b6044820152606401610c7e565b505b6000611b3889898080601f01602080910402602001604051908101604052809392919081815260200183838082843760009201919091525061186f92505050565b60d08054919250600160e01b90910463ffffffff1690601c611b598361580e565b91906101000a81548163ffffffff021916908363ffffffff16021790555050604051806101a0016040528060d0601c9054906101000a900463ffffffff1663ffffffff16815260200183611bae576000611bb8565b60da5463ffffffff165b63ffffffff16815260200183611bcf576000611bd1565b425b63ffffffff16815260200183611be8576000611c02565b60d054611c0290600160a01b900463ffffffff1642615832565b63ffffffff16815260200183611c19576000611c48565b60d05463ffffffff600160c01b8204811691611c3e91600160a01b9091041642615832565b611c489190615832565b63ffffffff9081168252891660208083019190915260408083018a905260006060808501829052608080860183905260a08601839052835190810184528281529384018290529183018190529082015260c082015260e00183611cac576000611cb4565b611cb4613c49565b6001600160a01b03168152602090810183905260d054600160e01b900463ffffffff908116600090815260d983526040908190208451815494860151928601516060870151608088015160a089015193871667ffffffffffffffff1990981697909717600160201b958716959095029490941767ffffffffffffffff60401b1916600160401b9186169190910263ffffffff60601b191617600160601b938516939093029290921767ffffffffffffffff60801b1916600160801b9484169490940263ffffffff60a01b191693909317600160a01b919092160217815560c0820151600182015560e082015160028201556101008201516003820155610120820151600480830191909155610140830151611dd491600584019190614e36565b506101608201516006820180546001600160a01b0319166001600160a01b03909216919091179055610180909101516007909101558115611e345760d05460da8054600160e01b90920463ffffffff1663ffffffff199092169190911790555b8060d0601c9054906101000a900463ffffffff1663ffffffff167fb9956173924f9c1204bae41dd3737d7ed1161846d13183879cdc03c4b9f8d01960d060149054906101000a900463ffffffff168c8c8c8c89428e8e604051611e9f99989796959493929190615883565b60405180910390a3505060d0546001609c55600160e01b900463ffffffff1690509695505050505050565b60d054604080516318160ddd60e01b815290516000926001600160a01b0316916318160ddd9160048083019260209291908290030181865afa158015611f14573d6000803e3d6000fd5b505050506040513d601f19601f82011682018060405250810190611825919061570d565b6066546001600160a01b0316611f4c613c49565b6001600160a01b03161480611f675750611f67610b8e613c49565b611f835760405162461bcd60e51b8152600401610c7e906158e4565b828114611fa25760405162461bcd60e51b8152600401610c7e906157b6565b60005b838110156116f757611ff5858583818110611fc257611fc26157dd565b9050602002016020810190611fd79190614ff0565b848484818110611fe957611fe96157dd565b90506020020135613d2d565b80611fff816157f3565b915050611fa5565b61200f614ec4565b63ffffffff8216600090815260d9602052604080822081516080810192839052926005909101916004918390855b825461010083900a900460ff16151581526020600192830181810494850194909303909202910180841161203d575094979650505050505050565b60db80546120859061590e565b80601f01602080910402602001604051908101604052809291908181526020018280546120b19061590e565b80156120fe5780601f106120d3576101008083540402835291602001916120fe565b820191906000526020600020905b8154815290600101906020018083116120e157829003601f168201915b505050505081565b6066546001600160a01b031661211a613c49565b6001600160a01b031614806121355750612135610b8e613c49565b6121515760405162461bcd60e51b8152600401610c7e906158e4565b8281146121705760405162461bcd60e51b8152600401610c7e906157b6565b60005b838110156116f7576121c3858583818110612190576121906157dd565b90506020020160208101906121a59190614ff0565b8484848181106121b7576121b76157dd565b90506020020135613d95565b806121cd816157f3565b915050612173565b60cf54604080516318160ddd60e01b815290516000926001600160a01b0316916318160ddd9160048083019260209291908290030181865afa158015611f14573d6000803e3d6000fd5b612227613ccc565b612239612232613c49565b8383613dc7565b61111d6001609c55565b61224b613ccc565b63ffffffff8316600090815260d96020526040902060068101546001600160a01b031661228a5760405162461bcd60e51b8152600401610c7e90615726565b600561229585613a78565b60078111156122a6576122a66156c0565b146122dc5760405162461bcd60e51b815260206004820152600660248201526521726561647960d01b6044820152606401610c7e565b80546000906122f790600160201b900463ffffffff16613a78565b9050600681600781111561230d5761230d6156c0565b148061232a57506003816007811115612328576123286156c0565b145b8061234657506007816007811115612344576123446156c0565b145b8061236257506000816007811115612360576123606156c0565b145b61239f5760405162461bcd60e51b815260206004820152600e60248201526d1c1c995d885c1c9bd8d95cdcd95960921b6044820152606401610c7e565b81600701546123e385858080601f01602080910402602001604051908101604052809392919081815260200183838082843760009201919091525061186f92505050565b146124255760405162461bcd60e51b8152602060048201526012602482015271696e636f72726563742063616c6c6461746160701b6044820152606401610c7e565b6001820154158061243a575081600101545a10155b6124775760405162461bcd60e51b815260206004820152600e60248201526d6e6f7420656e6f7567682067617360901b6044820152606401610c7e565b60058201805461ff0019166101001790558154600190600160a01b900463ffffffff16158015906124b65750825442600160a01b90910463ffffffff16105b156124bf575060005b8080156124ee57506124cf611eca565b60d2546124dc9190615943565b60028401546124ec906064615943565b105b156124f7575060005b8080156125275750606460d45484600401546125139190615943565b61251d9190615962565b612525611809565b105b15612530575060005b826003015483600201541180156125445750805b156125bc5760058301805462ff0000191662010000179055604080516020601f870181900481028201810190925285815260009161259d91908890889081908401838280828437600092019190915250613fee92505050565b9050806125ba5760058401805463ff000000191663010000001790555b505b60058301546040805160ff62010000840481161515825263010000009093049092161515602083015263ffffffff8816917fb4571f7e4e2c2b6e6185e47ab5caa5fe34087299bd49fbae945a4583101ee3f0910160405180910390a25050506126256001609c55565b505050565b612632613c53565b61263c6000614017565b565b612646613c53565b606780546001600160a01b038381166001600160a01b0319831681179093556040519116919082907f90cc2f570a6eb594b1580ea3e41247d2d73a55281889e86bd4ec2fc29c7e62d690600090a35050565b6000606080600080600060606068546000801b1480156126b85750606954155b6126fc5760405162461bcd60e51b81526020600482015260156024820152741152540dcc4c8e88155b9a5b9a5d1a585b1a5e9959605a1b6044820152606401610c7e565b612704614069565b61270c6140fb565b60408051600080825260208201909252600f60f81b9b939a50919850469750309650945092509050565b6066546001600160a01b031661274a613c49565b6001600160a01b031614806127655750612765610b8e613c49565b6127815760405162461bcd60e51b8152600401610c7e906158e4565b8281146127a05760405162461bcd60e51b8152600401610c7e906157b6565b60005b838110156116f7576127f38585838181106127c0576127c06157dd565b90506020020160208101906127d59190614ff0565b8484848181106127e7576127e76157dd565b9050602002013561410a565b806127fd816157f3565b9150506127a3565b600054610100900460ff16158080156128255750600054600160ff909116105b8061283f5750303b15801561283f575060005460ff166001145b6128a25760405162461bcd60e51b815260206004820152602e60248201527f496e697469616c697a61626c653a20636f6e747261637420697320616c72656160448201526d191e481a5b9a5d1a585b1a5e995960921b6064820152608401610c7e565b6000805460ff1916600117905580156128c5576000805461ff0019166101001790555b6128cd613ccc565b600080600080600080878060200190518101906128ea91906159d4565b95509550955095509550955060006001600160a01b0316866001600160a01b03161415801561292157506001600160a01b03851615155b801561293557506001600160a01b03841615155b801561294957506001600160a01b03831615155b6129835760405162461bcd60e51b815260206004820152600b60248201526a0c081859191c881d5cd95960aa1b6044820152606401610c7e565b6040518060600160405280602d8152602001615e89602d913980516129b09160db91602090910190614ee2565b506129b961413c565b6129c161416b565b612a0060405180604001604052806004815260200163566f746560e01b815250604051806040016040528060018152602001600d60fa1b81525061419a565b612a0983613826565b606680546001600160a01b0385166001600160a01b03199182168117909255606780549091169091179055612a3d826141cb565b60cf80546001600160a01b03199081166001600160a01b038981169190911790925560d0805490911687831617905560da8054640100000000600160c01b031916600160201b87841681029190911791829055612aa19291041660008360016141ed565b612ae25760405162461bcd60e51b8152602060048201526012602482015271063616c6c206661696c7572652073657475760741b6044820152606401610c7e565b60cf5460408051635c975abb60e01b815290517f916f812584e0b001e8c6ab604fa549cc16c9d0b2f60b17aa0b4ff5eefe3e7725926001600160a01b031691635c975abb9160048083019260209291908290030181865afa158015612b4b573d6000803e3d6000fd5b505050506040513d601f19601f82011682018060405250810190612b6f91906156f0565b60d060009054906101000a90046001600160a01b03166001600160a01b0316635c975abb6040518163ffffffff1660e01b8152600401602060405180830381865afa158015612bc2573d6000803e3d6000fd5b505050506040513d601f19601f82011682018060405250810190612be691906156f0565b60d05460d15460d25460d35460d454604080516306fdde0360e01b8152905163ffffffff600160c01b8804811697600160a01b810490911696959493926001600160a01b03909116916306fdde03916004808201926000929091908290030181865afa158015612c5a573d6000803e3d6000fd5b505050506040513d6000823e601f3d908101601f19168201604052612c829190810190615a71565b60d060009054906101000a90046001600160a01b03166001600160a01b03166395d89b416040518163ffffffff1660e01b8152600401600060405180830381865afa158015612cd5573d6000803e3d6000fd5b505050506040513d6000823e601f3d908101601f19168201604052612cfd9190810190615a71565b612d05611eca565b612d0d6121d5565b604051612d259c9b9a99989796959493929190615ab9565b60405180910390a1505050505050612d3d6001609c55565b801561111d576000805461ff0019169055604051600181527f7f26b83ff96e1f2b6a682f133852f6798a09c465da95921460cefb384740249890602001610fee565b6066546001600160a01b0316612d93613c49565b6001600160a01b031614612db95760405162461bcd60e51b8152600401610c7e90615797565b60d5805461ff001916610100908117918290556040517fb496b9628e839102454d8b483ba451c4be96675009b637273a00e4ab6a59db729261178592900460ff161515815260200190565b6066546001600160a01b0316612e18613c49565b6001600160a01b03161480612e335750612e33610b8e613c49565b612e4f5760405162461bcd60e51b8152600401610c7e906158e4565b828114612e6e5760405162461bcd60e51b8152600401610c7e906157b6565b60005b838110156116f757612ec1858583818110612e8e57612e8e6157dd565b9050602002016020810190612ea39190614ff0565b848484818110612eb557612eb56157dd565b905060200201356143f6565b80612ecb816157f3565b915050612e71565b6066546001600160a01b0316612ee7613c49565b6001600160a01b031614612f0d5760405162461bcd60e51b8152600401610c7e90615797565b6000846001600160a01b0316848484604051612f2a929190615b3f565b60006040518083038185875af1925050503d8060008114612f67576040519150601f19603f3d011682016040523d82523d6000602084013e612f6c565b606091505b50509050806116f75760405162461bcd60e51b815260206004820152601460248201527363616c6c206661696c757265206578656375746560601b6044820152606401610c7e565b612fbc613ccc565b8642111561300c5760405162461bcd60e51b815260206004820152601d60248201527f4552433230566f7465733a207369676e617475726520657870697265640000006044820152606401610c7e565b6001600160a01b038816600090815260d86020526040902054861461305c5760405162461bcd60e51b8152602060048201526006602482015265216e6f6e636560d01b6044820152606401610c7e565b60007f8698fbcc7273f96a670eb203cb707d8ec171123f24eaf075b1e754b71119e59e60d060009054906101000a90046001600160a01b03166001600160a01b03166306fdde036040518163ffffffff1660e01b8152600401600060405180830381865afa1580156130d2573d6000803e3d6000fd5b505050506040513d6000823e601f3d908101601f191682016040526130fa9190810190615a71565b60405160200161310a9190615b4f565b60408051601f198184030181528282528051602091820120908301939093528101919091526001600160a01b038a1660608201526080810189905260a0810188905263ffffffff871660c082015285151560e082015261010001604051602081830303815290604052805190602001209050600061318782614428565b9050600061319782878787614455565b90508a6001600160a01b0316816001600160a01b0316146131ee5760405162461bcd60e51b8152602060048201526011602482015270696e76616c6964207369676e617475726560781b6044820152606401610c7e565b6001600160a01b03811661322e5760405162461bcd60e51b815260206004820152600760248201526610b9b4b3b732b960c91b6044820152606401610c7e565b6001600160a01b038b16600090815260d86020526040812080546001929061325790849061575e565b909155506132689050818989613dc7565b5050506132756001609c55565b5050505050505050565b60608060005b8451811015613302578160008560008885815181106132a6576132a66157dd565b6020026020010151518986815181106132c1576132c16157dd565b60200260200101516040516020016132de96959493929190615b6b565b604051602081830303815290604052915080806132fa906157f3565b915050613285565b5080604051602401613314919061534e565b60408051601f198184030181529190526020810180516001600160e01b03166346c07f8560e11b179052949350505050565b6066546001600160a01b031661335a613c49565b6001600160a01b031614806133755750613375610b0e613c49565b6133915760405162461bcd60e51b8152600401610c7e90615bd5565b61144d816141cb565b6133a2613c53565b6001600160a01b0381161561343f576040516301ffc9a760e01b815263736bd41d60e11b60048201526001600160a01b038216906301ffc9a790602401602060405180830381865afa1580156133fc573d6000803e3d6000fd5b505050506040513d601f19601f8201168201806040525081019061342091906156f0565b61343f57806040516358b7533f60e11b8152600401610c7e9190615361565b606580546001600160a01b0319166001600160a01b0383169081179091556040517f1151116914515bc0891ff9047a6cb32cf902546f83066499bcf8ba33d2353fa29161348b91615361565b60405180910390a150565b6001600160a01b038116600090815260d6602052604081205460048114806134be5750806005145b8061185d57508060061480611868575060071492915050565b6134df613ccc565b60005b818110156135a25780156135905782826134fd600184615c00565b81811061350c5761350c6157dd565b90506020020160208101906135219190614ff0565b6001600160a01b031683838381811061353c5761353c6157dd565b90506020020160208101906135519190614ff0565b6001600160a01b0316116135905760405162461bcd60e51b815260206004820152600660248201526510b7b93232b960d11b6044820152606401610c7e565b8061359a816157f3565b9150506134e2565b506135e285858585858080602002602001604051908101604052809392919081815260200183836020028082843760009201919091525061447d92505050565b6116f76001609c55565b6066546001600160a01b0316613600613c49565b6001600160a01b0316148061361b575061361b610b0e613c49565b6136375760405162461bcd60e51b8152600401610c7e90615bd5565b600080600080600080868060200190518101906136549190615c17565b949a5092985090965094509250905060648111156136a15760405162461bcd60e51b815260206004820152600a6024820152696261642071756f72756d60b01b6044820152606401610c7e565b60648111156136e55760405162461bcd60e51b815260206004820152601060248201526f3130b21036b4b72932ba32b73a34b7b760811b6044820152606401610c7e565b600060d354118015613701575060d0546001600160a01b031615155b156137565761370e611eca565b8211156137565760405162461bcd60e51b815260206004820152601660248201527573706f6e736f72203e20736861726573537570706c7960501b6044820152606401610c7e565b63ffffffff8616156137815760d0805463ffffffff60a01b1916600160a01b63ffffffff8916021790555b63ffffffff8516156137ac5760d0805463ffffffff60c01b1916600160c01b63ffffffff8816021790555b60d184905560d283905560d382905560d48190556040805163ffffffff808916825287166020820152908101859052606081018490526080810183905260a081018290527fc10758ccd7d1dd3330e7bbe13a1a1d6bbb414967932376ee24989bad95edcdc19060c00160405180910390a150505050505050565b61382e613c53565b6001600160a01b0381166138935760405162461bcd60e51b815260206004820152602660248201527f4f776e61626c653a206e6577206f776e657220697320746865207a65726f206160448201526564647265737360d01b6064820152608401610c7e565b61144d81614017565b6001600160a01b038116600090815260d6602052604081205460028114806134be5750806003148061185d57508060061480611868575060071492915050565b6138e4613ccc565b63ffffffff8116600090815260d960205260409020600261390483613a78565b6007811115613915576139156156c0565b146139325760405162461bcd60e51b8152600401610c7e90615c75565b60068101546001600160a01b0316613948613c49565b6001600160a01b031614806139e1575060d35460d05460068301546001600160a01b039182169163782d6fe19116613981600142615c00565b6040518363ffffffff1660e01b815260040161399e929190615c96565b602060405180830381865afa1580156139bb573d6000803e3d6000fd5b505050506040513d601f19601f820116820180604052508101906139df919061570d565b105b806139f257506139f2610b0e613c49565b613a2d5760405162461bcd60e51b815260206004820152600c60248201526b2163616e63656c6c61626c6560a01b6044820152606401610c7e565b60058101805460ff1916600117905560405163ffffffff8316907f8896f24cff41b54acf76c2560861f33cd20fd76c4df0b68a3515c354e4b6c81a90600090a25061144d6001609c55565b63ffffffff818116600090815260d96020908152604080832081516101a08101835281548087168252600160201b8104871694820194909452600160401b8404861681840152600160601b840486166060820152600160801b84048616608080830191909152600160a01b90940490951660a0860152600181015460c0860152600281015460e0860152600381015461010086015260048082015461012087015282519384019283905293948594909391926101408501929160058501918288855b825461010083900a900460ff161515815260206001928301818104948501949093039092029101808411613b3a5750505092845250505060068201546001600160a01b03166020820152600790910154604090910152805190915063ffffffff16613ba85750600092915050565b6101408101515115613bbd5750600392915050565b604081015163ffffffff16613bd55750600192915050565b806060015163ffffffff164211613bef5750600292915050565b806080015163ffffffff164211613c095750600492915050565b8060e0015181610100015110613c225750600792915050565b6101408101516020015115613c3a5750600692915050565b50600592915050565b50919050565b60006118256146ff565b613c5b613c49565b6001600160a01b0316613c766033546001600160a01b031690565b6001600160a01b03161461263c5760405162461bcd60e51b815260206004820181905260248201527f4f776e61626c653a2063616c6c6572206973206e6f7420746865206f776e65726044820152606401610c7e565b6002609c541415613d1f5760405162461bcd60e51b815260206004820152601f60248201527f5265656e7472616e637947756172643a207265656e7472616e742063616c6c006044820152606401610c7e565b6002609c55565b6001609c55565b60cf546040516340c10f1960e01b81526001600160a01b03909116906340c10f1990613d5f9085908590600401615c96565b600060405180830381600087803b158015613d7957600080fd5b505af1158015613d8d573d6000803e3d6000fd5b505050505050565b60cf54604051632770a7eb60e21b81526001600160a01b0390911690639dc29fac90613d5f9085908590600401615c96565b63ffffffff8216600090815260d9602052604090206002613de784613a78565b6007811115613df857613df86156c0565b14613e155760405162461bcd60e51b8152600401610c7e90615c75565b60d054815460405163782d6fe160e01b81526001600160a01b038781166004830152600160401b90920463ffffffff166024820152600092919091169063782d6fe190604401602060405180830381865afa158015613e78573d6000803e3d6000fd5b505050506040513d601f19601f82011682018060405250810190613e9c919061570d565b905060008111613ed85760405162461bcd60e51b815260206004820152600760248201526610b6b2b6b132b960c91b6044820152606401610c7e565b6001600160a01b038516600090815260d76020908152604080832063ffffffff8816845290915290205460ff1615613f3a5760405162461bcd60e51b81526020600482015260056024820152641d9bdd195960da1b6044820152606401610c7e565b8215613f7057600282018054820190556004820154613f57611809565b1115613f6b57613f65611809565b60048301555b613f7b565b600382018054820190555b6001600160a01b038516600081815260d76020908152604080832063ffffffff891680855290835292819020805460ff191660011790555184815286151593917f786755545a7e27c12c90cc7f0934514d03fdacfe3684a340b8c4100531e7ecd591015b60405180910390a45050505050565b60da5460009061401190600160201b90046001600160a01b0316828460016141ed565b92915050565b603380546001600160a01b038381166001600160a01b0319831681179093556040519116919082907f8be0079c531659141344cd1fd0a4f28419497f9722a3daafe3b4186f6b6457e090600090a35050565b6060606a80546140789061590e565b80601f01602080910402602001604051908101604052809291908181526020018280546140a49061590e565b80156140f15780601f106140c6576101008083540402835291602001916140f1565b820191906000526020600020905b8154815290600101906020018083116140d457829003601f168201915b5050505050905090565b6060606b80546140789061590e565b60d054604051632770a7eb60e21b81526001600160a01b0390911690639dc29fac90613d5f9085908590600401615c96565b600054610100900460ff166141635760405162461bcd60e51b8152600401610c7e90615caf565b61263c614733565b600054610100900460ff166141925760405162461bcd60e51b8152600401610c7e90615caf565b61263c61476a565b600054610100900460ff166141c15760405162461bcd60e51b8152600401610c7e90615caf565b61111d8282614791565b60ce80546001600160a01b0319166001600160a01b0392909216919091179055565b6065546000906001600160a01b03168015614371576040805180820182526002815261060f60f31b60208201529051633af85da960e11b81526001600160a01b038316916375f0bb5291614258918a918a918a918a9160009182918291829182913390600401615d0e565b600060405180830381600087803b15801561427257600080fd5b505af1158015614286573d6000803e3d6000fd5b505060675460405163468721a760e01b81526001600160a01b03909116925063468721a791506142c0908990899089908990600401615d9d565b6020604051808303816000875af11580156142df573d6000803e3d6000fd5b505050506040513d601f19601f8201168201806040525081019061430391906156f0565b604051631264e26d60e31b815261060f60f31b600482015281151560248201529092506001600160a01b03821690639327136890604401600060405180830381600087803b15801561435457600080fd5b505af1158015614368573d6000803e3d6000fd5b505050506143ed565b60675460405163468721a760e01b81526001600160a01b039091169063468721a7906143a7908990899089908990600401615d9d565b6020604051808303816000875af11580156143c6573d6000803e3d6000fd5b505050506040513d601f19601f820116820180604052508101906143ea91906156f0565b91505b50949350505050565b60d0546040516340c10f1960e01b81526001600160a01b03909116906340c10f1990613d5f9085908590600401615c96565b60006140116144356147ee565b8360405161190160f01b8152600281019290925260228201526042902090565b6000806000614466878787876147f8565b91509150614473816148b2565b5095945050505050565b6000614487611809565b905082156144a0576144a061449a613c49565b84613d95565b83156144b7576144b76144b1613c49565b8561410a565b60005b82518110156146ba5760008382815181106144d7576144d76157dd565b60200260200101516001600160a01b03166370a08231606760009054906101000a90046001600160a01b03166040516024016145139190615361565b6040516020818303038152906040529060e01b6020820180516001600160e01b03838183161783525050505060405161454c9190615b4f565b600060405180830381855afa9150503d8060008114614587576040519150601f19603f3d011682016040523d82523d6000602084013e61458c565b606091505b50915050600073eeeeeeeeeeeeeeeeeeeeeeeeeeeeeeeeeeeeeeee6001600160a01b03168584815181106145c2576145c26157dd565b60200260200101516001600160a01b0316146145f157818060200190518101906145ec919061570d565b6145ff565b6067546001600160a01b0316315b90506000848261460f8a8a61575e565b6146199190615943565b6146239190615962565b905080156146a45773eeeeeeeeeeeeeeeeeeeeeeeeeeeeeeeeeeeeeeee6001600160a01b031686858151811061465b5761465b6157dd565b60200260200101516001600160a01b03161461469a57614695868581518110614686576146866157dd565b60200260200101518a836149fb565b6146a4565b6146a48982614ab6565b50505080806146b2906157f3565b9150506144ba565b5083836146c5613c49565b6001600160a01b03167fa21c268847f2b8adac3751ed0683330abe9fdd6cc4a7a8fc6787633d4126e0d48886604051613fdf929190615ddc565b60006014361080159061471c575060ce546001600160a01b031633145b1561472e575060131936013560601c90565b503390565b600054610100900460ff1661475a5760405162461bcd60e51b8152600401610c7e90615caf565b61263c614765613c49565b614017565b600054610100900460ff16613d265760405162461bcd60e51b8152600401610c7e90615caf565b600054610100900460ff166147b85760405162461bcd60e51b8152600401610c7e90615caf565b81516147cb90606a906020850190614ee2565b5080516147df90606b906020840190614ee2565b50506000606881905560695550565b6000611825614b1a565b6000806fa2a8918ca85bafe22016d0b997e4df60600160ff1b0383111561482557506000905060036148a9565b6040805160008082526020820180845289905260ff881692820192909252606081018690526080810185905260019060a0016020604051602081039080840390855afa158015614879573d6000803e3d6000fd5b5050604051601f1901519150506001600160a01b0381166148a2576000600192509250506148a9565b9150600090505b94509492505050565b60008160048111156148c6576148c66156c0565b14156148cf5750565b60018160048111156148e3576148e36156c0565b141561492c5760405162461bcd60e51b815260206004820152601860248201527745434453413a20696e76616c6964207369676e617475726560401b6044820152606401610c7e565b6002816004811115614940576149406156c0565b141561498e5760405162461bcd60e51b815260206004820152601f60248201527f45434453413a20696e76616c6964207369676e6174757265206c656e677468006044820152606401610c7e565b60038160048111156149a2576149a26156c0565b141561144d5760405162461bcd60e51b815260206004820152602260248201527f45434453413a20696e76616c6964207369676e6174757265202773272076616c604482015261756560f01b6064820152608401610c7e565b600080614a4f85600063a9059cbb8787604051602401614a1c929190615c96565b6040516020818303038152906040529060e01b6020820180516001600160e01b0383818316178352505050506000614b8e565b91509150818015614a78575080511580614a78575080806020019051810190614a7891906156f0565b6116f75760405162461bcd60e51b815260206004820152600f60248201526e1d1c985b9cd9995c8819985a5b1959608a1b6044820152606401610c7e565b6000614ad48383604051806020016040528060008152506000614b8e565b509050806126255760405162461bcd60e51b815260206004820152601360248201527211551217d514905394d1915497d19052531151606a1b6044820152606401610c7e565b60007f8b73c3c69bb8fe3d512ecc4cf759cc79239f7b179b0ffacaa9a75d522b39400f614b45614da8565b614b4d614e05565b60408051602081019490945283019190915260608201524660808201523060a082015260c00160405160208183030381529060405280519060200120905090565b6065546000906060906001600160a01b03168015614d1b576040805180820182526002815261060f60f31b60208201529051633af85da960e11b81526001600160a01b038316916375f0bb5291614bfc918b918b918b918b9160009182918291829182913390600401615d0e565b600060405180830381600087803b158015614c1657600080fd5b505af1158015614c2a573d6000803e3d6000fd5b5050606754604051635229073f60e01b81526001600160a01b039091169250635229073f9150614c64908a908a908a908a90600401615d9d565b6000604051808303816000875af1158015614c83573d6000803e3d6000fd5b505050506040513d6000823e601f3d908101601f19168201604052614cab9190810190615e38565b604051631264e26d60e31b815261060f60f31b6004820152821515602482015291945092506001600160a01b03821690639327136890604401600060405180830381600087803b158015614cfe57600080fd5b505af1158015614d12573d6000803e3d6000fd5b50505050614d9e565b606754604051635229073f60e01b81526001600160a01b0390911690635229073f90614d51908a908a908a908a90600401615d9d565b6000604051808303816000875af1158015614d70573d6000803e3d6000fd5b505050506040513d6000823e601f3d908101601f19168201604052614d989190810190615e38565b90935091505b5094509492505050565b600080614db3614069565b805190915015614dca578051602090910120919050565b6068548015614dd95792915050565b7fc5d2460186f7233c927e7db2dcc703c0e500b653ca82273b7bfad8045d85a4709250505090565b5090565b600080614e106140fb565b805190915015614e27578051602090910120919050565b6069548015614dd95792915050565b600183019183908215614eb85791602002820160005b83821115614e8957835183826101000a81548160ff0219169083151502179055509260200192600101602081600001049283019260010302614e4c565b8015614eb65782816101000a81549060ff0219169055600101602081600001049283019260010302614e89565b505b50614e01929150614f56565b60405180608001604052806004906020820280368337509192915050565b828054614eee9061590e565b90600052602060002090601f016020900481019282614f105760008555614eb8565b82601f10614f2957805160ff1916838001178555614eb8565b82800160010185558215614eb8579182015b82811115614eb8578251825591602001919060010190614f3b565b5b80821115614e015760008155600101614f57565b600060208284031215614f7d57600080fd5b5035919050565b801515811461144d57600080fd5b60008060408385031215614fa557600080fd5b8235614fb081614f84565b91506020830135614fc081614f84565b809150509250929050565b6001600160a01b038116811461144d57600080fd5b8035614feb81614fcb565b919050565b60006020828403121561500257600080fd5b813561186881614fcb565b63ffffffff8116811461144d57600080fd5b60006020828403121561503157600080fd5b81356118688161500d565b60008083601f84011261504e57600080fd5b5081356001600160401b0381111561506557600080fd5b6020830191508360208260051b850101111561508057600080fd5b9250929050565b6000806000806040858703121561509d57600080fd5b84356001600160401b03808211156150b457600080fd5b6150c08883890161503c565b909650945060208701359150808211156150d957600080fd5b506150e68782880161503c565b95989497509550505050565b634e487b7160e01b600052604160045260246000fd5b604051601f8201601f191681016001600160401b0381118282101715615130576151306150f2565b604052919050565b60006001600160401b03821115615151576151516150f2565b50601f01601f191660200190565b600082601f83011261517057600080fd5b813561518361517e82615138565b615108565b81815284602083860101111561519857600080fd5b816020850160208301376000918101602001919091529392505050565b6000602082840312156151c757600080fd5b81356001600160401b038111156151dd57600080fd5b6151e98482850161515f565b949350505050565b60008083601f84011261520357600080fd5b5081356001600160401b0381111561521a57600080fd5b60208301915083602082850101111561508057600080fd5b6000806000806000806080878903121561524b57600080fd5b86356001600160401b038082111561526257600080fd5b61526e8a838b016151f1565b9098509650602089013591506152838261500d565b90945060408801359350606088013590808211156152a057600080fd5b506152ad89828a016151f1565b979a9699509497509295939492505050565b60808101818360005b60048110156152e957815115158352602092830192909101906001016152c8565b50505092915050565b60005b8381101561530d5781810151838201526020016152f5565b8381111561531c576000848401525b50505050565b6000815180845261533a8160208601602086016152f2565b601f01601f19169290920160200192915050565b6020815260006118686020830184615322565b6001600160a01b0391909116815260200190565b6000806040838503121561538857600080fd5b8235614fb08161500d565b6000806000604084860312156153a857600080fd5b83356153b38161500d565b925060208401356001600160401b038111156153ce57600080fd5b6153da868287016151f1565b9497909650939450505050565b60ff60f81b881681526000602060e08184015261540760e084018a615322565b8381036040850152615419818a615322565b606085018990526001600160a01b038816608086015260a0850187905284810360c0860152855180825283870192509083019060005b8181101561546b5783518352928401929184019160010161544f565b50909c9b505050505050505050505050565b6000806000806060858703121561549357600080fd5b843561549e81614fcb565b93506020850135925060408501356001600160401b038111156154c057600080fd5b6150e6878288016151f1565b600080600080600080600080610100898b0312156154e957600080fd5b88356154f481614fcb565b9750602089013596506040890135955060608901356155128161500d565b9450608089013561552281614f84565b935060a089013560ff8116811461553857600080fd5b979a969950949793969295929450505060c08201359160e0013590565b6000806040838503121561556857600080fd5b823561557381614fcb565b91506020830135614fc08161500d565b6000806040838503121561559657600080fd5b82356001600160401b03808211156155ad57600080fd5b818501915085601f8301126155c157600080fd5b81356020828211156155d5576155d56150f2565b8160051b6155e4828201615108565b928352848101820192828101908a8511156155fe57600080fd5b83870192505b8483101561563a5782358681111561561c5760008081fd5b61562a8c86838b010161515f565b8352509183019190830190615604565b975061564a915050878201614fe0565b9450505050509250929050565b60008060008060006080868803121561566f57600080fd5b853561567a81614fcb565b9450602086013593506040860135925060608601356001600160401b038111156156a357600080fd5b6156af8882890161503c565b969995985093965092949392505050565b634e487b7160e01b600052602160045260246000fd5b60208101600883106156ea576156ea6156c0565b91905290565b60006020828403121561570257600080fd5b815161186881614f84565b60006020828403121561571f57600080fd5b5051919050565b60208082526008908201526710b9b837b739b7b960c11b604082015260600190565b634e487b7160e01b600052601160045260246000fd5b6000821982111561577157615771615748565b500190565b602080825260079082015266195e1c1a5c995960ca1b604082015260600190565b602080825260059082015264085898585b60da1b604082015260600190565b6020808252600d908201526c2161727261792070617269747960981b604082015260600190565b634e487b7160e01b600052603260045260246000fd5b600060001982141561580757615807615748565b5060010190565b600063ffffffff8083168181141561582857615828615748565b6001019392505050565b600063ffffffff80831681851680830382111561585157615851615748565b01949350505050565b81835281816020850137506000828201602090810191909152601f909101601f19169091010190565b600063ffffffff808c16835260e060208401526158a460e084018b8d61585a565b818a16604085015288606085015287151560808501528660a085015283810360c08501526158d381868861585a565b9d9c50505050505050505050505050565b60208082526010908201526f10b130b0b610131010b6b0b730b3b2b960811b604082015260600190565b600181811c9082168061592257607f821691505b60208210811415613c4357634e487b7160e01b600052602260045260246000fd5b600081600019048311821515161561595d5761595d615748565b500290565b60008261597f57634e487b7160e01b600052601260045260246000fd5b500490565b600061599261517e84615138565b90508281528383830111156159a657600080fd5b6118688360208301846152f2565b600082601f8301126159c557600080fd5b61186883835160208501615984565b60008060008060008060c087890312156159ed57600080fd5b86516159f881614fcb565b6020880151909650615a0981614fcb565b6040880151909550615a1a81614fcb565b6060880151909450615a2b81614fcb565b6080880151909350615a3c81614fcb565b60a08801519092506001600160401b03811115615a5857600080fd5b615a6489828a016159b4565b9150509295509295509295565b600060208284031215615a8357600080fd5b81516001600160401b03811115615a9957600080fd5b8201601f81018413615aaa57600080fd5b6151e984825160208401615984565b60006101808e151583528d1515602084015263ffffffff808e166040850152808d166060850152508a60808401528960a08401528860c08401528760e084015280610100840152615b0c81840188615322565b9050828103610120840152615b218187615322565b610140840195909552505061016001529a9950505050505050505050565b8183823760009101908152919050565b60008251615b618184602087016152f2565b9190910192915050565b60008751615b7d818460208c016152f2565b808301905060ff60f81b8860f81b1681526bffffffffffffffffffffffff198760601b1660018201528560158201528460358201528351615bc58160558401602088016152f2565b0160550198975050505050505050565b60208082526011908201527010b130b0b610131010b3b7bb32b93737b960791b604082015260600190565b600082821015615c1257615c12615748565b500390565b60008060008060008060c08789031215615c3057600080fd5b8651615c3b8161500d565b6020880151909650615c4c8161500d565b6040880151606089015160808a015160a0909a0151989b929a5090989097909650945092505050565b60208082526007908201526621766f74696e6760c81b604082015260600190565b6001600160a01b03929092168252602082015260400190565b6020808252602b908201527f496e697469616c697a61626c653a20636f6e7472616374206973206e6f74206960408201526a6e697469616c697a696e6760a81b606082015260800190565b60028110615d0a57615d0a6156c0565b9052565b6001600160a01b038c81168252602082018c905261016060408301819052600091615d3b8483018e615322565b9150615d4a606085018d615cfa565b8a60808501528960a08501528860c085015280881660e0850152808716610100850152838203610120850152615d808287615322565b925080851661014085015250509c9b505050505050505050505050565b60018060a01b0385168152836020820152608060408201526000615dc46080830185615322565b9050615dd36060830184615cfa565b95945050505050565b6001600160a01b038381168252604060208084018290528451918401829052600092858201929091906060860190855b81811015615e2a578551851683529483019491830191600101615e0c565b509098975050505050505050565b60008060408385031215615e4b57600080fd5b8251615e5681614f84565b60208401519092506001600160401b03811115615e7257600080fd5b615e7e858286016159b4565b915050925092905056fe322e322e352b6f70656e67736e2e70617961626c65776974686261616c2e6972656c6179726563697069656e74a26469706673582212204799f7ce68600782dfd7187c73eed338f20b936271afa30b1a802a12d75996ad64736f6c634300080c0033",
  "devdoc": {
    "kind": "dev",
    "methods": {
      "burnLoot(address[],uint256[])": {
        "params": {
          "amount": "Array of amounts to burn",
          "from": "Array of addresses to lose loot"
        }
      },
      "burnShares(address[],uint256[])": {
        "params": {
          "amount": "Array of amounts to burn",
          "from": "Array of addresses to lose shares"
        }
      },
      "cancelProposal(uint32)": {
        "details": "Cancellable if proposal is during voting, sender is sponsor, governor, or if sponsor has fallen below threshold",
        "params": {
          "id": "Number of proposal in `proposals` mapping to process for execution."
        }
      },
      "eip712Domain()": {
        "details": "See {EIP-5267}. _Available since v4.9._"
      },
      "executeAsBaal(address,uint256,bytes)": {
        "details": "Function to Execute arbitrary code as baal - useful if funds are accidentally sent here",
        "params": {
          "_data": "arbitrary transaction data",
          "_to": "address to call",
          "_value": "value to include in wei"
        }
      },
      "getProposalStatus(uint32)": {
        "params": {
          "id": "Number of proposal in proposals"
        },
        "returns": {
          "_0": "[cancelled, processed, passed, actionFailed]"
        }
      },
      "isAdmin(address)": {
        "params": {
          "shaman": "Address attempting to execute admin permissioned functions"
        }
      },
      "isGovernor(address)": {
        "params": {
          "shaman": "Address attempting to execute governor permissioned functions"
        }
      },
      "isManager(address)": {
        "params": {
          "shaman": "Address attempting to execute manager permissioned functions"
        }
      },
      "mintLoot(address[],uint256[])": {
        "params": {
          "amount": "Array of amounts to mint",
          "to": "Array of addresses to mint loot"
        }
      },
      "mintShares(address[],uint256[])": {
        "params": {
          "amount": "Array of amounts to mint",
          "to": "Array of addresses to receive shares"
        }
      },
      "owner()": {
        "details": "Returns the address of the current owner."
      },
      "processProposal(uint32,bytes)": {
        "details": "Proposal must have succeeded, not been processed, not expired, retention threshold must be met",
        "params": {
          "id": "Number of proposal in `proposals` mapping to process for execution.",
          "proposalData": "Packed multisend data to execute via Gnosis multisend library"
        }
      },
      "ragequit(address,uint256,uint256,address[])": {
        "params": {
          "lootToBurn": "Baal pure economic weight to burn.",
          "sharesToBurn": "Baal voting weight to burn.",
          "to": "Account that receives 'fair share'.",
          "tokens": "Array of tokens to include in rage quit calculation"
        }
      },
      "renounceOwnership()": {
        "details": "Leaves the contract without owner. It will not be possible to call `onlyOwner` functions. Can only be called by the current owner. NOTE: Renouncing ownership will leave the contract without an owner, thereby disabling any functionality that is only available to the owner."
      },
      "setAdminConfig(bool,bool)": {
        "params": {
          "pauseLoot": "Turn loot transfers on or off",
          "pauseShares": "Turn share transfers on or off"
        }
      },
      "setAvatar(address)": {
        "details": "Sets the avatar to a new avatar (`newAvatar`)."
      },
      "setGovernanceConfig(bytes)": {
        "params": {
          "_governanceConfig": "Encoded configuration parameters voting, grace period, tribute, quorum, sponsor threshold, retention bound"
        }
      },
      "setGuard(address)": {
        "details": "Set a guard that checks transactions before execution.",
        "params": {
          "_guard": "The address of the guard to be used or the 0 address to disable the guard."
        }
      },
      "setShamans(address[],uint256[])": {
        "params": {
          "_permissions": "Permission level of each shaman in _shamans",
          "_shamans": "Addresses of shaman contracts"
        }
      },
      "setTarget(address)": {
        "details": "Sets the target to a new target (`newTarget`)."
      },
      "setTrustedForwarder(address)": {
        "params": {
          "_trustedForwarderAddress": "Trusted forwarder's address"
        }
      },
      "setUp(bytes)": {
        "params": {
          "_initializationParams": "Encoded setup information."
        }
      },
      "sponsorProposal(uint32)": {
        "params": {
          "id": "Number of proposal in `proposals` mapping to sponsor."
        }
      },
      "state(uint32)": {
        "params": {
          "id": "Number of proposal in proposals"
        },
        "returns": {
          "_0": "Unborn -> Submitted -> Voting -> Grace -> Ready -> Processed         \\-> Cancelled  \\-> Defeated"
        }
      },
      "submitProposal(bytes,uint32,uint256,string)": {
        "params": {
          "details": "Context for proposal.",
          "proposalData": "Multisend encoded transactions or proposal data"
        },
        "returns": {
          "_0": "proposal Count for submitted proposal."
        }
      },
      "submitVote(uint32,bool)": {
        "params": {
          "approved": "If 'true', member will cast `yesVotes` onto proposal - if 'false', `noVotes` will be counted.",
          "id": "Number of proposal in `proposals` mapping to cast vote on."
        }
      },
      "submitVoteWithSig(address,uint256,uint256,uint32,bool,uint8,bytes32,bytes32)": {
        "params": {
          "approved": "If 'true', member will cast `yesVotes` onto proposal - if 'false', `noVotes` will be counted.",
          "expiry": "Expiration of signature.",
          "id": "Number of proposal in `proposals` mapping to cast vote on.",
          "r": "r in signature",
          "s": "s in signature",
          "v": "v in signature",
          "voter": "Address of member who submitted vote."
        }
      },
      "transferOwnership(address)": {
        "details": "Transfers ownership of the contract to a new account (`newOwner`). Can only be called by the current owner."
      }
    },
    "title": "Baal ';_;'.",
    "version": 1
  },
  "userdoc": {
    "errors": {
      "NotIERC165Compliant(address)": [
        {
          "notice": "`guard_` does not implement IERC165."
        }
      ]
    },
    "kind": "user",
    "methods": {
      "burnLoot(address[],uint256[])": {
        "notice": "Baal-or-manager-only function to burn loot."
      },
      "burnShares(address[],uint256[])": {
        "notice": "Baal-or-manager-only function to burn shares."
      },
      "cancelProposal(uint32)": {
        "notice": "Cancel proposal prior to execution"
      },
      "executeAsBaal(address,uint256,bytes)": {
        "notice": "Can only be called by the avatar which means this can only be called if passed by another     proposal or by a delegated signer on the Safe"
      },
      "getProposalStatus(uint32)": {
        "notice": "Helper to get recorded proposal flags"
      },
      "hashOperation(bytes)": {
        "notice": "Returns the keccak256 hash of calldata"
      },
      "isAdmin(address)": {
        "notice": "Helper to check if shaman permission contains admin capabilities"
      },
      "isGovernor(address)": {
        "notice": "Helper to check if shaman permission contains governor capabilities"
      },
      "isManager(address)": {
        "notice": "Helper to check if shaman permission contains manager capabilities"
      },
      "isTrustedForwarder(address)": {
        "notice": "return if the forwarder is trusted to forward relayed transactions to us. the forwarder is required to verify the sender's signature, and verify the call is not a replay."
      },
      "lockAdmin()": {
        "notice": "Lock admin so setShamans cannot be called with admin changes"
      },
      "lockGovernor()": {
        "notice": "Lock governor so setShamans cannot be called with governor changes"
      },
      "lockManager()": {
        "notice": "Lock manager so setShamans cannot be called with manager changes"
      },
      "mintLoot(address[],uint256[])": {
        "notice": "Baal-or-manager-only function to mint loot."
      },
      "mintShares(address[],uint256[])": {
        "notice": "Baal-or-manager-only function to mint shares."
      },
      "processProposal(uint32,bytes)": {
        "notice": "Process `proposal` & execute internal functions."
      },
      "ragequit(address,uint256,uint256,address[])": {
        "notice": "Process member burn of `shares` and/or `loot` to claim 'fair share' of specified `tokens`"
      },
      "setAdminConfig(bool,bool)": {
        "notice": "Baal-or-admin-only function to set admin config (pause/unpause shares/loot) and call function on token"
      },
      "setAvatar(address)": {
        "notice": "Can only be called by the current owner."
      },
      "setGovernanceConfig(bytes)": {
        "notice": "Baal-or-governance-only function to change periods."
      },
      "setShamans(address[],uint256[])": {
        "notice": "Baal-only function to set shaman status."
      },
      "setTarget(address)": {
        "notice": "Can only be called by the current owner."
      },
      "setTrustedForwarder(address)": {
        "notice": "Baal-or-governance only function to set trusted forwarder for meta-transactions."
      },
      "setUp(bytes)": {
        "notice": "Summon Baal with voting configuration & initial array of `members` accounts with `shares` & `loot` weights."
      },
      "sponsorProposal(uint32)": {
        "notice": "Sponsor proposal to Baal `members` for approval within voting period."
      },
      "state(uint32)": {
        "notice": "State helper to determine proposal state"
      },
      "submitProposal(bytes,uint32,uint256,string)": {
        "notice": "Submit proposal to Baal `members` for approval within given voting period."
      },
      "submitVote(uint32,bool)": {
        "notice": "Submit vote - proposal must exist & voting period must not have ended."
      },
      "submitVoteWithSig(address,uint256,uint256,uint32,bool,uint8,bytes32,bytes32)": {
        "notice": "Submit vote with EIP-712 signature - proposal must exist & voting period must not have ended."
      },
      "totalLoot()": {
        "notice": "Helper to check total supply of child loot contract"
      },
      "totalShares()": {
        "notice": "Helper to check total supply of child shares contract"
      },
      "totalSupply()": {
        "notice": "Helper to check total supply of loot and shares"
      }
    },
    "notice": "Flexible guild contract inspired by Moloch DAO framework.",
    "version": 1
  },
  "storageLayout": {
    "storage": [
      {
        "astId": 4913,
        "contract": "contracts/fixtures/Baal/Baal.sol:Baal",
        "label": "_initialized",
        "offset": 0,
        "slot": "0",
        "type": "t_uint8"
      },
      {
        "astId": 4916,
        "contract": "contracts/fixtures/Baal/Baal.sol:Baal",
        "label": "_initializing",
        "offset": 1,
        "slot": "0",
        "type": "t_bool"
      },
      {
        "astId": 7242,
        "contract": "contracts/fixtures/Baal/Baal.sol:Baal",
        "label": "__gap",
        "offset": 0,
        "slot": "1",
        "type": "t_array(t_uint256)50_storage"
      },
      {
        "astId": 4395,
        "contract": "contracts/fixtures/Baal/Baal.sol:Baal",
        "label": "_owner",
        "offset": 0,
        "slot": "51",
        "type": "t_address"
      },
      {
        "astId": 4515,
        "contract": "contracts/fixtures/Baal/Baal.sol:Baal",
        "label": "__gap",
        "offset": 0,
        "slot": "52",
        "type": "t_array(t_uint256)49_storage"
      },
      {
        "astId": 3663,
        "contract": "contracts/fixtures/Baal/Baal.sol:Baal",
        "label": "guard",
        "offset": 0,
        "slot": "101",
        "type": "t_address"
      },
      {
        "astId": 3191,
        "contract": "contracts/fixtures/Baal/Baal.sol:Baal",
        "label": "avatar",
        "offset": 0,
        "slot": "102",
        "type": "t_address"
      },
      {
        "astId": 3194,
        "contract": "contracts/fixtures/Baal/Baal.sol:Baal",
        "label": "target",
        "offset": 0,
        "slot": "103",
        "type": "t_address"
      },
      {
        "astId": 8040,
        "contract": "contracts/fixtures/Baal/Baal.sol:Baal",
        "label": "_hashedName",
        "offset": 0,
        "slot": "104",
        "type": "t_bytes32"
      },
      {
        "astId": 8043,
        "contract": "contracts/fixtures/Baal/Baal.sol:Baal",
        "label": "_hashedVersion",
        "offset": 0,
        "slot": "105",
        "type": "t_bytes32"
      },
      {
        "astId": 8045,
        "contract": "contracts/fixtures/Baal/Baal.sol:Baal",
        "label": "_name",
        "offset": 0,
        "slot": "106",
        "type": "t_string_storage"
      },
      {
        "astId": 8047,
        "contract": "contracts/fixtures/Baal/Baal.sol:Baal",
        "label": "_version",
        "offset": 0,
        "slot": "107",
        "type": "t_string_storage"
      },
      {
        "astId": 8305,
        "contract": "contracts/fixtures/Baal/Baal.sol:Baal",
        "label": "__gap",
        "offset": 0,
        "slot": "108",
        "type": "t_array(t_uint256)48_storage"
      },
      {
        "astId": 5352,
        "contract": "contracts/fixtures/Baal/Baal.sol:Baal",
        "label": "_status",
        "offset": 0,
        "slot": "156",
        "type": "t_uint256"
      },
      {
        "astId": 5421,
        "contract": "contracts/fixtures/Baal/Baal.sol:Baal",
        "label": "__gap",
        "offset": 0,
        "slot": "157",
        "type": "t_array(t_uint256)49_storage"
      },
      {
        "astId": 3853,
        "contract": "contracts/fixtures/Baal/Baal.sol:Baal",
        "label": "_trustedForwarder",
        "offset": 0,
        "slot": "206",
        "type": "t_address"
      },
      {
        "astId": 13389,
        "contract": "contracts/fixtures/Baal/Baal.sol:Baal",
        "label": "lootToken",
        "offset": 0,
        "slot": "207",
        "type": "t_contract(IBaalToken)18163"
      },
      {
        "astId": 13392,
        "contract": "contracts/fixtures/Baal/Baal.sol:Baal",
        "label": "sharesToken",
        "offset": 0,
        "slot": "208",
        "type": "t_contract(IBaalToken)18163"
      },
      {
        "astId": 13397,
        "contract": "contracts/fixtures/Baal/Baal.sol:Baal",
        "label": "votingPeriod",
        "offset": 20,
        "slot": "208",
        "type": "t_uint32"
      },
      {
        "astId": 13399,
        "contract": "contracts/fixtures/Baal/Baal.sol:Baal",
        "label": "gracePeriod",
        "offset": 24,
        "slot": "208",
        "type": "t_uint32"
      },
      {
        "astId": 13401,
        "contract": "contracts/fixtures/Baal/Baal.sol:Baal",
        "label": "proposalCount",
        "offset": 28,
        "slot": "208",
        "type": "t_uint32"
      },
      {
        "astId": 13403,
        "contract": "contracts/fixtures/Baal/Baal.sol:Baal",
        "label": "proposalOffering",
        "offset": 0,
        "slot": "209",
        "type": "t_uint256"
      },
      {
        "astId": 13405,
        "contract": "contracts/fixtures/Baal/Baal.sol:Baal",
        "label": "quorumPercent",
        "offset": 0,
        "slot": "210",
        "type": "t_uint256"
      },
      {
        "astId": 13407,
        "contract": "contracts/fixtures/Baal/Baal.sol:Baal",
        "label": "sponsorThreshold",
        "offset": 0,
        "slot": "211",
        "type": "t_uint256"
      },
      {
        "astId": 13409,
        "contract": "contracts/fixtures/Baal/Baal.sol:Baal",
        "label": "minRetentionPercent",
        "offset": 0,
        "slot": "212",
        "type": "t_uint256"
      },
      {
        "astId": 13411,
        "contract": "contracts/fixtures/Baal/Baal.sol:Baal",
        "label": "adminLock",
        "offset": 0,
        "slot": "213",
        "type": "t_bool"
      },
      {
        "astId": 13413,
        "contract": "contracts/fixtures/Baal/Baal.sol:Baal",
        "label": "managerLock",
        "offset": 1,
        "slot": "213",
        "type": "t_bool"
      },
      {
        "astId": 13415,
        "contract": "contracts/fixtures/Baal/Baal.sol:Baal",
        "label": "governorLock",
        "offset": 2,
        "slot": "213",
        "type": "t_bool"
      },
      {
        "astId": 13419,
        "contract": "contracts/fixtures/Baal/Baal.sol:Baal",
        "label": "shamans",
        "offset": 0,
        "slot": "214",
        "type": "t_mapping(t_address,t_uint256)"
      },
      {
        "astId": 13425,
        "contract": "contracts/fixtures/Baal/Baal.sol:Baal",
        "label": "memberVoted",
        "offset": 0,
        "slot": "215",
        "type": "t_mapping(t_address,t_mapping(t_uint32,t_bool))"
      },
      {
        "astId": 13429,
        "contract": "contracts/fixtures/Baal/Baal.sol:Baal",
        "label": "votingNonces",
        "offset": 0,
        "slot": "216",
        "type": "t_mapping(t_address,t_uint256)"
      },
      {
        "astId": 13434,
        "contract": "contracts/fixtures/Baal/Baal.sol:Baal",
        "label": "proposals",
        "offset": 0,
        "slot": "217",
        "type": "t_mapping(t_uint256,t_struct(Proposal)13475_storage)"
      },
      {
        "astId": 13436,
        "contract": "contracts/fixtures/Baal/Baal.sol:Baal",
        "label": "latestSponsoredProposalId",
        "offset": 0,
        "slot": "218",
        "type": "t_uint32"
      },
      {
        "astId": 13438,
        "contract": "contracts/fixtures/Baal/Baal.sol:Baal",
        "label": "multisendLibrary",
        "offset": 4,
        "slot": "218",
        "type": "t_address"
      },
      {
        "astId": 13441,
        "contract": "contracts/fixtures/Baal/Baal.sol:Baal",
        "label": "versionRecipient",
        "offset": 0,
        "slot": "219",
        "type": "t_string_storage"
      }
    ],
    "types": {
      "t_address": {
        "encoding": "inplace",
        "label": "address",
        "numberOfBytes": "20"
      },
      "t_array(t_bool)4_storage": {
        "base": "t_bool",
        "encoding": "inplace",
        "label": "bool[4]",
        "numberOfBytes": "32"
      },
      "t_array(t_uint256)48_storage": {
        "base": "t_uint256",
        "encoding": "inplace",
        "label": "uint256[48]",
        "numberOfBytes": "1536"
      },
      "t_array(t_uint256)49_storage": {
        "base": "t_uint256",
        "encoding": "inplace",
        "label": "uint256[49]",
        "numberOfBytes": "1568"
      },
      "t_array(t_uint256)50_storage": {
        "base": "t_uint256",
        "encoding": "inplace",
        "label": "uint256[50]",
        "numberOfBytes": "1600"
      },
      "t_bool": {
        "encoding": "inplace",
        "label": "bool",
        "numberOfBytes": "1"
      },
      "t_bytes32": {
        "encoding": "inplace",
        "label": "bytes32",
        "numberOfBytes": "32"
      },
      "t_contract(IBaalToken)18163": {
        "encoding": "inplace",
        "label": "contract IBaalToken",
        "numberOfBytes": "20"
      },
      "t_mapping(t_address,t_mapping(t_uint32,t_bool))": {
        "encoding": "mapping",
        "key": "t_address",
        "label": "mapping(address => mapping(uint32 => bool))",
        "numberOfBytes": "32",
        "value": "t_mapping(t_uint32,t_bool)"
      },
      "t_mapping(t_address,t_uint256)": {
        "encoding": "mapping",
        "key": "t_address",
        "label": "mapping(address => uint256)",
        "numberOfBytes": "32",
        "value": "t_uint256"
      },
      "t_mapping(t_uint256,t_struct(Proposal)13475_storage)": {
        "encoding": "mapping",
        "key": "t_uint256",
        "label": "mapping(uint256 => struct Baal.Proposal)",
        "numberOfBytes": "32",
        "value": "t_struct(Proposal)13475_storage"
      },
      "t_mapping(t_uint32,t_bool)": {
        "encoding": "mapping",
        "key": "t_uint32",
        "label": "mapping(uint32 => bool)",
        "numberOfBytes": "32",
        "value": "t_bool"
      },
      "t_string_storage": {
        "encoding": "bytes",
        "label": "string",
        "numberOfBytes": "32"
      },
      "t_struct(Proposal)13475_storage": {
        "encoding": "inplace",
        "label": "struct Baal.Proposal",
        "members": [
          {
            "astId": 13448,
            "contract": "contracts/fixtures/Baal/Baal.sol:Baal",
            "label": "id",
            "offset": 0,
            "slot": "0",
            "type": "t_uint32"
          },
          {
            "astId": 13450,
            "contract": "contracts/fixtures/Baal/Baal.sol:Baal",
            "label": "prevProposalId",
            "offset": 4,
            "slot": "0",
            "type": "t_uint32"
          },
          {
            "astId": 13452,
            "contract": "contracts/fixtures/Baal/Baal.sol:Baal",
            "label": "votingStarts",
            "offset": 8,
            "slot": "0",
            "type": "t_uint32"
          },
          {
            "astId": 13454,
            "contract": "contracts/fixtures/Baal/Baal.sol:Baal",
            "label": "votingEnds",
            "offset": 12,
            "slot": "0",
            "type": "t_uint32"
          },
          {
            "astId": 13456,
            "contract": "contracts/fixtures/Baal/Baal.sol:Baal",
            "label": "graceEnds",
            "offset": 16,
            "slot": "0",
            "type": "t_uint32"
          },
          {
            "astId": 13458,
            "contract": "contracts/fixtures/Baal/Baal.sol:Baal",
            "label": "expiration",
            "offset": 20,
            "slot": "0",
            "type": "t_uint32"
          },
          {
            "astId": 13460,
            "contract": "contracts/fixtures/Baal/Baal.sol:Baal",
            "label": "baalGas",
            "offset": 0,
            "slot": "1",
            "type": "t_uint256"
          },
          {
            "astId": 13462,
            "contract": "contracts/fixtures/Baal/Baal.sol:Baal",
            "label": "yesVotes",
            "offset": 0,
            "slot": "2",
            "type": "t_uint256"
          },
          {
            "astId": 13464,
            "contract": "contracts/fixtures/Baal/Baal.sol:Baal",
            "label": "noVotes",
            "offset": 0,
            "slot": "3",
            "type": "t_uint256"
          },
          {
            "astId": 13466,
            "contract": "contracts/fixtures/Baal/Baal.sol:Baal",
            "label": "maxTotalSharesAndLootAtYesVote",
            "offset": 0,
            "slot": "4",
            "type": "t_uint256"
          },
          {
            "astId": 13470,
            "contract": "contracts/fixtures/Baal/Baal.sol:Baal",
            "label": "status",
            "offset": 0,
            "slot": "5",
            "type": "t_array(t_bool)4_storage"
          },
          {
            "astId": 13472,
            "contract": "contracts/fixtures/Baal/Baal.sol:Baal",
            "label": "sponsor",
            "offset": 0,
            "slot": "6",
            "type": "t_address"
          },
          {
            "astId": 13474,
            "contract": "contracts/fixtures/Baal/Baal.sol:Baal",
            "label": "proposalDataHash",
            "offset": 0,
            "slot": "7",
            "type": "t_bytes32"
          }
        ],
        "numberOfBytes": "256"
      },
      "t_uint256": {
        "encoding": "inplace",
        "label": "uint256",
        "numberOfBytes": "32"
      },
      "t_uint32": {
        "encoding": "inplace",
        "label": "uint32",
        "numberOfBytes": "4"
      },
      "t_uint8": {
        "encoding": "inplace",
        "label": "uint8",
        "numberOfBytes": "1"
      }
    }
  }
}