{
  "address": "0x3Aa5ebB10DC797CAC828524e59A333d0A371443c",
  "abi": [
    {
      "anonymous": false,
      "inputs": [
        {
          "indexed": false,
          "internalType": "address",
          "name": "previousAdmin",
          "type": "address"
        },
        {
          "indexed": false,
          "internalType": "address",
          "name": "newAdmin",
          "type": "address"
        }
      ],
      "name": "AdminChanged",
      "type": "event"
    },
    {
      "anonymous": false,
      "inputs": [
        {
          "indexed": true,
          "internalType": "address",
          "name": "beacon",
          "type": "address"
        }
      ],
      "name": "BeaconUpgraded",
      "type": "event"
    },
    {
      "anonymous": false,
      "inputs": [
        {
          "indexed": false,
          "internalType": "uint8",
          "name": "version",
          "type": "uint8"
        }
      ],
      "name": "Initialized",
      "type": "event"
    },
    {
      "anonymous": false,
      "inputs": [
        {
          "indexed": true,
          "internalType": "address",
          "name": "previousOwner",
          "type": "address"
        },
        {
          "indexed": true,
          "internalType": "address",
          "name": "newOwner",
          "type": "address"
        }
      ],
      "name": "OwnershipTransferred",
      "type": "event"
    },
    {
      "anonymous": false,
      "inputs": [
        {
          "indexed": true,
          "internalType": "address",
          "name": "implementation",
          "type": "address"
        }
      ],
      "name": "Upgraded",
      "type": "event"
    },
    {
      "inputs": [],
      "name": "_baalSummoner",
      "outputs": [
        {
          "internalType": "contract IBaalAdvTokenSummoner",
          "name": "",
          "type": "address"
        }
      ],
      "stateMutability": "view",
      "type": "function"
    },
    {
      "inputs": [],
      "name": "_shamanSummoner",
      "outputs": [
        {
          "internalType": "contract IShamanSummoner",
          "name": "",
          "type": "address"
        }
      ],
      "stateMutability": "view",
      "type": "function"
    },
    {
      "inputs": [
        {
          "internalType": "address",
          "name": "baalSummoner",
          "type": "address"
        },
        {
          "internalType": "address",
          "name": "shamanSummoner",
          "type": "address"
        }
      ],
      "name": "initialize",
      "outputs": [],
      "stateMutability": "nonpayable",
      "type": "function"
    },
    {
      "inputs": [],
      "name": "owner",
      "outputs": [
        {
          "internalType": "address",
          "name": "",
          "type": "address"
        }
      ],
      "stateMutability": "view",
      "type": "function"
    },
    {
      "inputs": [],
      "name": "proxiableUUID",
      "outputs": [
        {
          "internalType": "bytes32",
          "name": "",
          "type": "bytes32"
        }
      ],
      "stateMutability": "view",
      "type": "function"
    },
    {
      "inputs": [],
      "name": "renounceOwnership",
      "outputs": [],
      "stateMutability": "nonpayable",
      "type": "function"
    },
    {
      "inputs": [
        {
          "internalType": "uint256",
          "name": "_saltNonce",
          "type": "uint256"
        },
        {
          "internalType": "bytes",
          "name": "_initializationMintParams",
          "type": "bytes"
        },
        {
          "internalType": "bytes",
          "name": "_initializationTokenParams",
          "type": "bytes"
        },
        {
          "internalType": "bytes[]",
          "name": "_baalInitializationActions",
          "type": "bytes[]"
        },
        {
          "internalType": "bytes",
          "name": "_shamanInitializationParams",
          "type": "bytes"
        }
      ],
      "name": "summonBaalAndShaman",
      "outputs": [
        {
          "internalType": "address",
          "name": "_baalAddress",
          "type": "address"
        },
        {
          "internalType": "address",
          "name": "_shamanAddress",
          "type": "address"
        }
      ],
      "stateMutability": "nonpayable",
      "type": "function"
    },
    {
      "inputs": [
        {
          "internalType": "address",
          "name": "newOwner",
          "type": "address"
        }
      ],
      "name": "transferOwnership",
      "outputs": [],
      "stateMutability": "nonpayable",
      "type": "function"
    },
    {
      "inputs": [
        {
          "internalType": "address",
          "name": "newImplementation",
          "type": "address"
        }
      ],
      "name": "upgradeTo",
      "outputs": [],
      "stateMutability": "nonpayable",
      "type": "function"
    },
    {
      "inputs": [
        {
          "internalType": "address",
          "name": "newImplementation",
          "type": "address"
        },
        {
          "internalType": "bytes",
          "name": "data",
          "type": "bytes"
        }
      ],
      "name": "upgradeToAndCall",
      "outputs": [],
      "stateMutability": "payable",
      "type": "function"
    }
  ],
  "numDeployments": 2,
  "solcInputHash": "e90b83bba49fe8f649026859640c2dd0",
  "bytecode": "0x60a06040523060805234801561001457600080fd5b506080516116df61004c600039600081816102020152818161024b015281816104cb0152818161050b015261058701526116df6000f3fe6080604052600436106100915760003560e01c8063715018a611610059578063715018a6146101445780638da5cb5b14610159578063cf9e5fb214610177578063f19d99f414610197578063f2fde38b146101d757600080fd5b806314b630f9146100965780633659cfe6146100cc578063485cc955146100ee5780634f1ef2861461010e57806352d1902d14610121575b600080fd5b3480156100a257600080fd5b5060c9546100b6906001600160a01b031681565b6040516100c39190610ff5565b60405180910390f35b3480156100d857600080fd5b506100ec6100e736600461101e565b6101f7565b005b3480156100fa57600080fd5b506100ec61010936600461103b565b6102c9565b6100ec61011c36600461108a565b6104c0565b34801561012d57600080fd5b5061013661057a565b6040519081526020016100c3565b34801561015057600080fd5b506100ec610628565b34801561016557600080fd5b506033546001600160a01b03166100b6565b34801561018357600080fd5b5060ca546100b6906001600160a01b031681565b3480156101a357600080fd5b506101b76101b2366004611197565b61063c565b604080516001600160a01b039384168152929091166020830152016100c3565b3480156101e357600080fd5b506100ec6101f236600461101e565b610a6b565b306001600160a01b037f00000000000000000000000000000000000000000000000000000000000000001614156102495760405162461bcd60e51b815260040161024090611298565b60405180910390fd5b7f00000000000000000000000000000000000000000000000000000000000000006001600160a01b031661027b610ae1565b6001600160a01b0316146102a15760405162461bcd60e51b8152600401610240906112e4565b6102aa81610afd565b604080516000808252602082019092526102c691839190610b05565b50565b600054610100900460ff16158080156102e95750600054600160ff909116105b806103035750303b158015610303575060005460ff166001145b6103665760405162461bcd60e51b815260206004820152602e60248201527f496e697469616c697a61626c653a20636f6e747261637420697320616c72656160448201526d191e481a5b9a5d1a585b1a5e995960921b6064820152608401610240565b6000805460ff191660011790558015610389576000805461ff0019166101001790555b6001600160a01b0383166103df5760405162461bcd60e51b815260206004820152601a60248201527f6261616c53756d6d6f6e65723a207a65726f20616464726573730000000000006044820152606401610240565b6001600160a01b0382166104355760405162461bcd60e51b815260206004820152601c60248201527f7368616d616e53756d6d6f6e65723a207a65726f2061646472657373000000006044820152606401610240565b61043d610c70565b610445610c9f565b60c980546001600160a01b038086166001600160a01b03199283161790925560ca80549285169290911691909117905580156104bb576000805461ff0019169055604051600181527f7f26b83ff96e1f2b6a682f133852f6798a09c465da95921460cefb38474024989060200160405180910390a15b505050565b306001600160a01b037f00000000000000000000000000000000000000000000000000000000000000001614156105095760405162461bcd60e51b815260040161024090611298565b7f00000000000000000000000000000000000000000000000000000000000000006001600160a01b031661053b610ae1565b6001600160a01b0316146105615760405162461bcd60e51b8152600401610240906112e4565b61056a82610afd565b61057682826001610b05565b5050565b6000306001600160a01b037f000000000000000000000000000000000000000000000000000000000000000016146106155760405162461bcd60e51b815260206004820152603860248201527f555550535570677261646561626c653a206d757374206e6f742062652063616c6044820152771b1959081d1a1c9bdd59da0819195b1959d85d1958d85b1b60421b6064820152608401610240565b5060008051602061166383398151915290565b610630610cc6565b61063a6000610d20565b565b6000808061064b866001611346565b67ffffffffffffffff81111561066357610663611074565b60405190808252806020026020018201604052801561069657816020015b60608152602001906001900390816106815790505b50905060005b8681101561072e578787828181106106b6576106b661135e565b90506020028101906106c89190611374565b8080601f01602080910402602001604051908101604052809392919081815260200183838082843760009201919091525050845185925084915081106107105761071061135e565b60200260200101819052508080610726906113bb565b91505061069c565b5060405163f2fde38b60e01b90610749903090602401610ff5565b60408051601f198184030181529190526020810180516001600160e01b03166001600160e01b0319909316929092179091528151829061078b906001906113d6565b8151811061079b5761079b61135e565b602090810291909101015260c95460405163eb7a86c360e01b81526001600160a01b039091169063eb7a86c3906107e0908f908f908f908f908f90899060040161146e565b6020604051808303816000875af11580156107ff573d6000803e3d6000fd5b505050506040513d601f19601f820116820180604052508101906108239190611500565b60ca54604051637e919b0960e01b81529194506001600160a01b031690637e919b09906108589086908990899060040161151d565b6020604051808303816000875af1158015610877573d6000803e3d6000fd5b505050506040513d601f19601f8201168201806040525081019061089b9190611500565b91506001600160a01b0382166108f35760405162461bcd60e51b815260206004820152601b60248201527f7368616d616e416464726573733a207a65726f206164647265737300000000006044820152606401610240565b60405163010d9f9560e31b81526001600160a01b0384169063086cfca89061091f903090600401610ff5565b600060405180830381600087803b15801561093957600080fd5b505af115801561094d573d6000803e3d6000fd5b50600092506001915061095d9050565b604051908082528060200260200182016040528015610986578160200160208202803683370190505b509050828160008151811061099d5761099d61135e565b6001600160a01b0392909216602092830291909101909101526040805160018082528183019092526000918160200160208202803683370190505090506007816000815181106109ef576109ef61135e565b6020908102919091010152604051630f656a2160e01b81526001600160a01b03861690630f656a2190610a28908590859060040161154b565b600060405180830381600087803b158015610a4257600080fd5b505af1158015610a56573d6000803e3d6000fd5b50505050505050995099975050505050505050565b610a73610cc6565b6001600160a01b038116610ad85760405162461bcd60e51b815260206004820152602660248201527f4f776e61626c653a206e6577206f776e657220697320746865207a65726f206160448201526564647265737360d01b6064820152608401610240565b6102c681610d20565b600080516020611663833981519152546001600160a01b031690565b6102c6610cc6565b7f4910fdfa16fed3260ed0e7147f7cc6da11a60208b5b9406d12a635614ffd91435460ff1615610b38576104bb83610d72565b826001600160a01b03166352d1902d6040518163ffffffff1660e01b8152600401602060405180830381865afa925050508015610b92575060408051601f3d908101601f19168201909252610b8f918101906115cf565b60015b610bf55760405162461bcd60e51b815260206004820152602e60248201527f45524331393637557067726164653a206e657720696d706c656d656e7461746960448201526d6f6e206973206e6f74205555505360901b6064820152608401610240565b6000805160206116638339815191528114610c645760405162461bcd60e51b815260206004820152602960248201527f45524331393637557067726164653a20756e737570706f727465642070726f786044820152681a58589b195555525160ba1b6064820152608401610240565b506104bb838383610e0e565b600054610100900460ff16610c975760405162461bcd60e51b8152600401610240906115e8565b61063a610e39565b600054610100900460ff1661063a5760405162461bcd60e51b8152600401610240906115e8565b6033546001600160a01b0316331461063a5760405162461bcd60e51b815260206004820181905260248201527f4f776e61626c653a2063616c6c6572206973206e6f7420746865206f776e65726044820152606401610240565b603380546001600160a01b038381166001600160a01b0319831681179093556040519116919082907f8be0079c531659141344cd1fd0a4f28419497f9722a3daafe3b4186f6b6457e090600090a35050565b6001600160a01b0381163b610ddf5760405162461bcd60e51b815260206004820152602d60248201527f455243313936373a206e657720696d706c656d656e746174696f6e206973206e60448201526c1bdd08184818dbdb9d1c9858dd609a1b6064820152608401610240565b60008051602061166383398151915280546001600160a01b0319166001600160a01b0392909216919091179055565b610e1783610e69565b600082511180610e245750805b156104bb57610e338383610ea9565b50505050565b600054610100900460ff16610e605760405162461bcd60e51b8152600401610240906115e8565b61063a33610d20565b610e7281610d72565b6040516001600160a01b038216907fbc7cd75a20ee27fd9adebab32041f755214dbc6bffa90cc0225b39da2e5c2d3b90600090a250565b6060610ece838360405180606001604052806027815260200161168360279139610ed5565b9392505050565b6060600080856001600160a01b031685604051610ef29190611633565b600060405180830381855af49150503d8060008114610f2d576040519150601f19603f3d011682016040523d82523d6000602084013e610f32565b606091505b5091509150610f4386838387610f4d565b9695505050505050565b60608315610fb9578251610fb2576001600160a01b0385163b610fb25760405162461bcd60e51b815260206004820152601d60248201527f416464726573733a2063616c6c20746f206e6f6e2d636f6e74726163740000006044820152606401610240565b5081610fc3565b610fc38383610fcb565b949350505050565b815115610fdb5781518083602001fd5b8060405162461bcd60e51b8152600401610240919061164f565b6001600160a01b0391909116815260200190565b6001600160a01b03811681146102c657600080fd5b60006020828403121561103057600080fd5b8135610ece81611009565b6000806040838503121561104e57600080fd5b823561105981611009565b9150602083013561106981611009565b809150509250929050565b634e487b7160e01b600052604160045260246000fd5b6000806040838503121561109d57600080fd5b82356110a881611009565b9150602083013567ffffffffffffffff808211156110c557600080fd5b818501915085601f8301126110d957600080fd5b8135818111156110eb576110eb611074565b604051601f8201601f19908116603f0116810190838211818310171561111357611113611074565b8160405282815288602084870101111561112c57600080fd5b8260208601602083013760006020848301015280955050505050509250929050565b60008083601f84011261116057600080fd5b50813567ffffffffffffffff81111561117857600080fd5b60208301915083602082850101111561119057600080fd5b9250929050565b600080600080600080600080600060a08a8c0312156111b557600080fd5b8935985060208a013567ffffffffffffffff808211156111d457600080fd5b6111e08d838e0161114e565b909a50985060408c01359150808211156111f957600080fd5b6112058d838e0161114e565b909850965060608c013591508082111561121e57600080fd5b818c0191508c601f83011261123257600080fd5b81358181111561124157600080fd5b8d60208260051b850101111561125657600080fd5b6020830196508095505060808c013591508082111561127457600080fd5b506112818c828d0161114e565b915080935050809150509295985092959850929598565b6020808252602c908201527f46756e6374696f6e206d7573742062652063616c6c6564207468726f7567682060408201526b19195b1959d85d1958d85b1b60a21b606082015260800190565b6020808252602c908201527f46756e6374696f6e206d7573742062652063616c6c6564207468726f7567682060408201526b6163746976652070726f787960a01b606082015260800190565b634e487b7160e01b600052601160045260246000fd5b6000821982111561135957611359611330565b500190565b634e487b7160e01b600052603260045260246000fd5b6000808335601e1984360301811261138b57600080fd5b83018035915067ffffffffffffffff8211156113a657600080fd5b60200191503681900382131561119057600080fd5b60006000198214156113cf576113cf611330565b5060010190565b6000828210156113e8576113e8611330565b500390565b81835281816020850137506000828201602090810191909152601f909101601f19169091010190565b60005b83811015611431578181015183820152602001611419565b83811115610e335750506000910152565b6000815180845261145a816020860160208601611416565b601f01601f19169290920160200192915050565b8681526000602060808184015261148960808401888a6113ed565b838103604085015261149c8187896113ed565b905083810360608501528085518083528383019150838160051b84010184880160005b838110156114ed57601f198684030185526114db838351611442565b948701949250908601906001016114bf565b50909d9c50505050505050505050505050565b60006020828403121561151257600080fd5b8151610ece81611009565b6001600160a01b038416815260406020820181905260009061154290830184866113ed565b95945050505050565b604080825283519082018190526000906020906060840190828701845b8281101561158d5781516001600160a01b031684529284019290840190600101611568565b5050508381038285015284518082528583019183019060005b818110156115c2578351835292840192918401916001016115a6565b5090979650505050505050565b6000602082840312156115e157600080fd5b5051919050565b6020808252602b908201527f496e697469616c697a61626c653a20636f6e7472616374206973206e6f74206960408201526a6e697469616c697a696e6760a81b606082015260800190565b60008251611645818460208701611416565b9190910192915050565b602081526000610ece602083018461144256fe360894a13ba1a3210667c828492db98dca3e2076cc3735a920a3ca505d382bbc416464726573733a206c6f772d6c6576656c2064656c65676174652063616c6c206661696c6564a2646970667358221220bb975ef8b06646582112b68b61c0d7e08e9fa7d59cbc2614b76a439452a62a5164736f6c634300080c0033",
  "devdoc": {
    "kind": "dev",
    "methods": {
      "owner()": {
        "details": "Returns the address of the current owner."
      },
      "proxiableUUID()": {
        "details": "Implementation of the ERC1822 {proxiableUUID} function. This returns the storage slot used by the implementation. It is used to validate the implementation's compatibility when performing an upgrade. IMPORTANT: A proxy pointing at a proxiable contract should not be considered proxiable itself, because this risks bricking a proxy that upgrades to it, by delegating to itself until out of gas. Thus it is critical that this function revert if invoked through a proxy. This is guaranteed by the `notDelegated` modifier."
      },
      "renounceOwnership()": {
        "details": "Leaves the contract without owner. It will not be possible to call `onlyOwner` functions. Can only be called by the current owner. NOTE: Renouncing ownership will leave the contract without an owner, thereby disabling any functionality that is only available to the owner."
      },
      "summonBaalAndShaman(uint256,bytes,bytes,bytes[],bytes)": {
        "params": {
          "_baalInitializationActions": "Baal initialization actions",
          "_initializationMintParams": "The parameters for minting the tokens",
          "_initializationTokenParams": "The parameters for deploying the tokens",
          "_saltNonce": "Salt nonce for baal summoning",
          "_shamanInitializationParams": "Shaman initialization params"
        },
        "returns": {
          "_baalAddress": "The address of the new Baal contract",
          "_shamanAddress": "The address of the new Shaman contract"
        }
      },
      "transferOwnership(address)": {
        "details": "Transfers ownership of the contract to a new account (`newOwner`). Can only be called by the current owner."
      },
      "upgradeTo(address)": {
        "custom:oz-upgrades-unsafe-allow-reachable": "delegatecall",
        "details": "Upgrade the implementation of the proxy to `newImplementation`. Calls {_authorizeUpgrade}. Emits an {Upgraded} event."
      },
      "upgradeToAndCall(address,bytes)": {
        "custom:oz-upgrades-unsafe-allow-reachable": "delegatecall",
        "details": "Upgrade the implementation of the proxy to `newImplementation`, and subsequently execute the function call encoded in `data`. Calls {_authorizeUpgrade}. Emits an {Upgraded} event."
      }
    },
    "title": "Higher-order summoner contract for Baal and Shaman in a single transaction",
    "version": 1
  },
  "userdoc": {
    "kind": "user",
    "methods": {
      "summonBaalAndShaman(uint256,bytes,bytes,bytes[],bytes)": {
        "notice": "Summon a new Baal and DeVoxShaman"
      }
    },
    "version": 1
  },
  "storageLayout": {
    "storage": [
      {
        "astId": 4504,
        "contract": "contracts/shaman/DeVoxBaalAndShamanSummonerV1.sol:DeVoxBaalAndShamanSummonerV1",
        "label": "_initialized",
        "offset": 0,
        "slot": "0",
        "type": "t_uint8"
      },
      {
        "astId": 4507,
        "contract": "contracts/shaman/DeVoxBaalAndShamanSummonerV1.sol:DeVoxBaalAndShamanSummonerV1",
        "label": "_initializing",
        "offset": 1,
        "slot": "0",
        "type": "t_bool"
      },
      {
        "astId": 6833,
        "contract": "contracts/shaman/DeVoxBaalAndShamanSummonerV1.sol:DeVoxBaalAndShamanSummonerV1",
        "label": "__gap",
        "offset": 0,
        "slot": "1",
        "type": "t_array(t_uint256)50_storage"
      },
      {
        "astId": 3986,
        "contract": "contracts/shaman/DeVoxBaalAndShamanSummonerV1.sol:DeVoxBaalAndShamanSummonerV1",
        "label": "_owner",
        "offset": 0,
        "slot": "51",
        "type": "t_address"
      },
      {
        "astId": 4106,
        "contract": "contracts/shaman/DeVoxBaalAndShamanSummonerV1.sol:DeVoxBaalAndShamanSummonerV1",
        "label": "__gap",
        "offset": 0,
        "slot": "52",
        "type": "t_array(t_uint256)49_storage"
      },
      {
        "astId": 4486,
        "contract": "contracts/shaman/DeVoxBaalAndShamanSummonerV1.sol:DeVoxBaalAndShamanSummonerV1",
        "label": "__gap",
        "offset": 0,
        "slot": "101",
        "type": "t_array(t_uint256)50_storage"
      },
      {
        "astId": 4801,
        "contract": "contracts/shaman/DeVoxBaalAndShamanSummonerV1.sol:DeVoxBaalAndShamanSummonerV1",
        "label": "__gap",
        "offset": 0,
        "slot": "151",
        "type": "t_array(t_uint256)50_storage"
      },
      {
        "astId": 17963,
        "contract": "contracts/shaman/DeVoxBaalAndShamanSummonerV1.sol:DeVoxBaalAndShamanSummonerV1",
        "label": "_baalSummoner",
        "offset": 0,
        "slot": "201",
        "type": "t_contract(IBaalAdvTokenSummoner)11200"
      },
      {
        "astId": 17966,
        "contract": "contracts/shaman/DeVoxBaalAndShamanSummonerV1.sol:DeVoxBaalAndShamanSummonerV1",
        "label": "_shamanSummoner",
        "offset": 0,
        "slot": "202",
        "type": "t_contract(IShamanSummoner)18945"
      }
    ],
    "types": {
      "t_address": {
        "encoding": "inplace",
        "label": "address",
        "numberOfBytes": "20"
      },
      "t_array(t_uint256)49_storage": {
        "base": "t_uint256",
        "encoding": "inplace",
        "label": "uint256[49]",
        "numberOfBytes": "1568"
      },
      "t_array(t_uint256)50_storage": {
        "base": "t_uint256",
        "encoding": "inplace",
        "label": "uint256[50]",
        "numberOfBytes": "1600"
      },
      "t_bool": {
        "encoding": "inplace",
        "label": "bool",
        "numberOfBytes": "1"
      },
      "t_contract(IBaalAdvTokenSummoner)11200": {
        "encoding": "inplace",
        "label": "contract IBaalAdvTokenSummoner",
        "numberOfBytes": "20"
      },
      "t_contract(IShamanSummoner)18945": {
        "encoding": "inplace",
        "label": "contract IShamanSummoner",
        "numberOfBytes": "20"
      },
      "t_uint256": {
        "encoding": "inplace",
        "label": "uint256",
        "numberOfBytes": "32"
      },
      "t_uint8": {
        "encoding": "inplace",
        "label": "uint8",
        "numberOfBytes": "1"
      }
    }
  }
}