{
  "address": "0x0DCd1Bf9A1b36cE34237eEaFef220932846BCD82",
  "abi": [
    {
      "inputs": [],
      "stateMutability": "nonpayable",
      "type": "constructor"
    },
    {
      "anonymous": false,
      "inputs": [
        {
          "indexed": false,
          "internalType": "address",
          "name": "previousAdmin",
          "type": "address"
        },
        {
          "indexed": false,
          "internalType": "address",
          "name": "newAdmin",
          "type": "address"
        }
      ],
      "name": "AdminChanged",
      "type": "event"
    },
    {
      "anonymous": false,
      "inputs": [
        {
          "indexed": true,
          "internalType": "address",
          "name": "beacon",
          "type": "address"
        }
      ],
      "name": "BeaconUpgraded",
      "type": "event"
    },
    {
      "anonymous": false,
      "inputs": [
        {
          "indexed": true,
          "internalType": "address",
          "name": "contributorAddress",
          "type": "address"
        },
        {
          "indexed": false,
          "internalType": "address",
          "name": "baal",
          "type": "address"
        },
        {
          "indexed": false,
          "internalType": "uint256",
          "name": "amount",
          "type": "uint256"
        },
        {
          "indexed": false,
          "internalType": "uint256",
          "name": "total",
          "type": "uint256"
        },
        {
          "indexed": false,
          "internalType": "uint256",
          "name": "target",
          "type": "uint256"
        },
        {
          "indexed": false,
          "internalType": "uint256",
          "name": "balance",
          "type": "uint256"
        },
        {
          "indexed": false,
          "internalType": "uint256",
          "name": "lootIssued",
          "type": "uint256"
        },
        {
          "indexed": false,
          "internalType": "uint256",
          "name": "sharesIssued",
          "type": "uint256"
        },
        {
          "indexed": false,
          "internalType": "string",
          "name": "message",
          "type": "string"
        }
      ],
      "name": "DonationReceived",
      "type": "event"
    },
    {
      "anonymous": false,
      "inputs": [
        {
          "indexed": false,
          "internalType": "uint8",
          "name": "version",
          "type": "uint8"
        }
      ],
      "name": "Initialized",
      "type": "event"
    },
    {
      "anonymous": false,
      "inputs": [
        {
          "indexed": true,
          "internalType": "bytes32",
          "name": "role",
          "type": "bytes32"
        },
        {
          "indexed": true,
          "internalType": "bytes32",
          "name": "previousAdminRole",
          "type": "bytes32"
        },
        {
          "indexed": true,
          "internalType": "bytes32",
          "name": "newAdminRole",
          "type": "bytes32"
        }
      ],
      "name": "RoleAdminChanged",
      "type": "event"
    },
    {
      "anonymous": false,
      "inputs": [
        {
          "indexed": true,
          "internalType": "bytes32",
          "name": "role",
          "type": "bytes32"
        },
        {
          "indexed": true,
          "internalType": "address",
          "name": "account",
          "type": "address"
        },
        {
          "indexed": true,
          "internalType": "address",
          "name": "sender",
          "type": "address"
        }
      ],
      "name": "RoleGranted",
      "type": "event"
    },
    {
      "anonymous": false,
      "inputs": [
        {
          "indexed": true,
          "internalType": "bytes32",
          "name": "role",
          "type": "bytes32"
        },
        {
          "indexed": true,
          "internalType": "address",
          "name": "account",
          "type": "address"
        },
        {
          "indexed": true,
          "internalType": "address",
          "name": "sender",
          "type": "address"
        }
      ],
      "name": "RoleRevoked",
      "type": "event"
    },
    {
      "anonymous": false,
      "inputs": [
        {
          "indexed": false,
          "internalType": "uint256",
          "name": "target",
          "type": "uint256"
        },
        {
          "indexed": false,
          "internalType": "uint256",
          "name": "balance",
          "type": "uint256"
        }
      ],
      "name": "TargetUpdated",
      "type": "event"
    },
    {
      "anonymous": false,
      "inputs": [
        {
          "indexed": true,
          "internalType": "address",
          "name": "implementation",
          "type": "address"
        }
      ],
      "name": "Upgraded",
      "type": "event"
    },
    {
      "inputs": [],
      "name": "DEFAULT_ADMIN_ROLE",
      "outputs": [
        {
          "internalType": "bytes32",
          "name": "",
          "type": "bytes32"
        }
      ],
      "stateMutability": "view",
      "type": "function"
    },
    {
      "inputs": [],
      "name": "UPGRADER_ROLE",
      "outputs": [
        {
          "internalType": "bytes32",
          "name": "",
          "type": "bytes32"
        }
      ],
      "stateMutability": "view",
      "type": "function"
    },
    {
      "inputs": [],
      "name": "baal",
      "outputs": [
        {
          "internalType": "contract IBaal",
          "name": "",
          "type": "address"
        }
      ],
      "stateMutability": "view",
      "type": "function"
    },
    {
      "inputs": [
        {
          "internalType": "uint256",
          "name": "_value",
          "type": "uint256"
        },
        {
          "internalType": "string",
          "name": "_message",
          "type": "string"
        }
      ],
      "name": "donate",
      "outputs": [],
      "stateMutability": "nonpayable",
      "type": "function"
    },
    {
      "inputs": [
        {
          "internalType": "address",
          "name": "",
          "type": "address"
        }
      ],
      "name": "donations",
      "outputs": [
        {
          "internalType": "uint256",
          "name": "",
          "type": "uint256"
        }
      ],
      "stateMutability": "view",
      "type": "function"
    },
    {
      "inputs": [
        {
          "internalType": "bytes32",
          "name": "role",
          "type": "bytes32"
        }
      ],
      "name": "getRoleAdmin",
      "outputs": [
        {
          "internalType": "bytes32",
          "name": "",
          "type": "bytes32"
        }
      ],
      "stateMutability": "view",
      "type": "function"
    },
    {
      "inputs": [],
      "name": "getTokenBalance",
      "outputs": [
        {
          "internalType": "uint256",
          "name": "",
          "type": "uint256"
        }
      ],
      "stateMutability": "nonpayable",
      "type": "function"
    },
    {
      "inputs": [
        {
          "internalType": "bytes32",
          "name": "role",
          "type": "bytes32"
        },
        {
          "internalType": "address",
          "name": "account",
          "type": "address"
        }
      ],
      "name": "grantRole",
      "outputs": [],
      "stateMutability": "nonpayable",
      "type": "function"
    },
    {
      "inputs": [
        {
          "internalType": "bytes32",
          "name": "role",
          "type": "bytes32"
        },
        {
          "internalType": "address",
          "name": "account",
          "type": "address"
        }
      ],
      "name": "hasRole",
      "outputs": [
        {
          "internalType": "bool",
          "name": "",
          "type": "bool"
        }
      ],
      "stateMutability": "view",
      "type": "function"
    },
    {
      "inputs": [
        {
          "internalType": "address",
          "name": "_moloch",
          "type": "address"
        },
        {
          "internalType": "address payable",
          "name": "_token",
          "type": "address"
        },
        {
          "internalType": "uint256",
          "name": "_pricePerUnit",
          "type": "uint256"
        },
        {
          "internalType": "uint256",
          "name": "_lootPerUnit",
          "type": "uint256"
        },
        {
          "internalType": "uint256",
          "name": "_sharesPerMember",
          "type": "uint256"
        },
        {
          "internalType": "uint256",
          "name": "_target",
          "type": "uint256"
        }
      ],
      "name": "initialize",
      "outputs": [],
      "stateMutability": "nonpayable",
      "type": "function"
    },
    {
      "inputs": [],
      "name": "lootPerUnit",
      "outputs": [
        {
          "internalType": "uint256",
          "name": "",
          "type": "uint256"
        }
      ],
      "stateMutability": "view",
      "type": "function"
    },
    {
      "inputs": [],
      "name": "pricePerUnit",
      "outputs": [
        {
          "internalType": "uint256",
          "name": "",
          "type": "uint256"
        }
      ],
      "stateMutability": "view",
      "type": "function"
    },
    {
      "inputs": [],
      "name": "proxiableUUID",
      "outputs": [
        {
          "internalType": "bytes32",
          "name": "",
          "type": "bytes32"
        }
      ],
      "stateMutability": "view",
      "type": "function"
    },
    {
      "inputs": [
        {
          "internalType": "bytes32",
          "name": "role",
          "type": "bytes32"
        },
        {
          "internalType": "address",
          "name": "account",
          "type": "address"
        }
      ],
      "name": "renounceRole",
      "outputs": [],
      "stateMutability": "nonpayable",
      "type": "function"
    },
    {
      "inputs": [
        {
          "internalType": "bytes32",
          "name": "role",
          "type": "bytes32"
        },
        {
          "internalType": "address",
          "name": "account",
          "type": "address"
        }
      ],
      "name": "revokeRole",
      "outputs": [],
      "stateMutability": "nonpayable",
      "type": "function"
    },
    {
      "inputs": [
        {
          "internalType": "uint256",
          "name": "_target",
          "type": "uint256"
        }
      ],
      "name": "setTarget",
      "outputs": [],
      "stateMutability": "nonpayable",
      "type": "function"
    },
    {
      "inputs": [],
      "name": "sharesPerMember",
      "outputs": [
        {
          "internalType": "uint256",
          "name": "",
          "type": "uint256"
        }
      ],
      "stateMutability": "view",
      "type": "function"
    },
    {
      "inputs": [
        {
          "internalType": "bytes4",
          "name": "interfaceId",
          "type": "bytes4"
        }
      ],
      "name": "supportsInterface",
      "outputs": [
        {
          "internalType": "bool",
          "name": "",
          "type": "bool"
        }
      ],
      "stateMutability": "view",
      "type": "function"
    },
    {
      "inputs": [],
      "name": "target",
      "outputs": [
        {
          "internalType": "uint256",
          "name": "",
          "type": "uint256"
        }
      ],
      "stateMutability": "view",
      "type": "function"
    },
    {
      "inputs": [],
      "name": "token",
      "outputs": [
        {
          "internalType": "contract IERC20",
          "name": "",
          "type": "address"
        }
      ],
      "stateMutability": "view",
      "type": "function"
    },
    {
      "inputs": [],
      "name": "updateVersion",
      "outputs": [],
      "stateMutability": "nonpayable",
      "type": "function"
    },
    {
      "inputs": [
        {
          "internalType": "address",
          "name": "newImplementation",
          "type": "address"
        }
      ],
      "name": "upgradeTo",
      "outputs": [],
      "stateMutability": "nonpayable",
      "type": "function"
    },
    {
      "inputs": [
        {
          "internalType": "address",
          "name": "newImplementation",
          "type": "address"
        },
        {
          "internalType": "bytes",
          "name": "data",
          "type": "bytes"
        }
      ],
      "name": "upgradeToAndCall",
      "outputs": [],
      "stateMutability": "payable",
      "type": "function"
    },
    {
      "inputs": [],
      "name": "version",
      "outputs": [
        {
          "internalType": "uint256",
          "name": "",
          "type": "uint256"
        }
      ],
      "stateMutability": "view",
      "type": "function"
    }
  ],
  "numDeployments": 1,
  "solcInputHash": "d8a6cd76115ba1d3a37c8309eb6261eb",
  "bytecode": "0x60a06040523060805234801561001457600080fd5b5061001d610022565b6100e2565b600054610100900460ff161561008e5760405162461bcd60e51b815260206004820152602760248201527f496e697469616c697a61626c653a20636f6e747261637420697320696e697469604482015266616c697a696e6760c81b606482015260840160405180910390fd5b60005460ff90811610156100e0576000805460ff191660ff9081179091556040519081527f7f26b83ff96e1f2b6a682f133852f6798a09c465da95921460cefb38474024989060200160405180910390a15b565b608051611df66101196000396000818161053701528181610577015281816106500152818161069001526107080152611df66000f3fe60806040526004361061014b5760003560e01c806391d14854116100b6578063d4b839921161006f578063d4b8399214610383578063d547741f1461039a578063e5a2a2a5146103ba578063e66825c3146103ee578063f72c0d8b14610405578063fc0c546a1461042757600080fd5b806391d14854146102d1578063a217fddf146102f1578063b480eac014610306578063b73fe9db14610327578063cc3853b91461033e578063cc6cb19a1461035557600080fd5b80634f1ef286116101085780634f1ef2861461023a57806352d1902d1461024d57806354fd4d501461026257806382b2e2571461027c57806386489ba9146102915780638d59d1f1146102b157600080fd5b806301ffc9a714610150578063248a9ca3146101855780632f2ff15d146101c357806336568abe146101e55780633659cfe61461020557806348c02dc114610225575b600080fd5b34801561015c57600080fd5b5061017061016b366004611732565b610448565b60405190151581526020015b60405180910390f35b34801561019157600080fd5b506101b56101a036600461175c565b60009081526065602052604090206001015490565b60405190815260200161017c565b3480156101cf57600080fd5b506101e36101de36600461178a565b61047f565b005b3480156101f157600080fd5b506101e361020036600461178a565b6104a9565b34801561021157600080fd5b506101e36102203660046117ba565b61052c565b34801561023157600080fd5b506101e36105f5565b6101e36102483660046117ed565b610645565b34801561025957600080fd5b506101b56106fb565b34801561026e57600080fd5b5061012d5461ffff166101b5565b34801561028857600080fd5b506101b56107a9565b34801561029d57600080fd5b506101e36102ac3660046118b1565b610893565b3480156102bd57600080fd5b506101e36102cc36600461190a565b610a30565b3480156102dd57600080fd5b506101706102ec36600461178a565b610db1565b3480156102fd57600080fd5b506101b5600081565b34801561031257600080fd5b506101e361032136600461175c565b61013255565b34801561033357600080fd5b506101b56101305481565b34801561034a57600080fd5b506101b56101315481565b34801561036157600080fd5b506101b56103703660046117ba565b6101336020526000908152604090205481565b34801561038f57600080fd5b506101b56101325481565b3480156103a657600080fd5b506101e36103b536600461178a565b610ddc565b3480156103c657600080fd5b5061012d546103e1906201000090046001600160a01b031681565b60405161017c9190611986565b3480156103fa57600080fd5b506101b561012f5481565b34801561041157600080fd5b506101b5600080516020611d5a83398151915281565b34801561043357600080fd5b5061012e546103e1906001600160a01b031681565b60006001600160e01b03198216637965db0b60e01b148061047957506301ffc9a760e01b6001600160e01b03198316145b92915050565b60008281526065602052604090206001015461049a81610e01565b6104a48383610e0b565b505050565b6001600160a01b038116331461051e5760405162461bcd60e51b815260206004820152602f60248201527f416363657373436f6e74726f6c3a2063616e206f6e6c792072656e6f756e636560448201526e103937b632b9903337b91039b2b63360891b60648201526084015b60405180910390fd5b6105288282610e91565b5050565b306001600160a01b037f00000000000000000000000000000000000000000000000000000000000000001614156105755760405162461bcd60e51b81526004016105159061199a565b7f00000000000000000000000000000000000000000000000000000000000000006001600160a01b03166105a7610ef8565b6001600160a01b0316146105cd5760405162461bcd60e51b8152600401610515906119e6565b6105d681610f14565b604080516000808252602082019092526105f291839190610f2c565b50565b600080516020611d5a83398151915261060d81610e01565b61012d80546001919060009061062890849061ffff16611a48565b92506101000a81548161ffff021916908361ffff16021790555050565b306001600160a01b037f000000000000000000000000000000000000000000000000000000000000000016141561068e5760405162461bcd60e51b81526004016105159061199a565b7f00000000000000000000000000000000000000000000000000000000000000006001600160a01b03166106c0610ef8565b6001600160a01b0316146106e65760405162461bcd60e51b8152600401610515906119e6565b6106ef82610f14565b61052882826001610f2c565b6000306001600160a01b037f000000000000000000000000000000000000000000000000000000000000000016146107965760405162461bcd60e51b815260206004820152603860248201527f555550535570677261646561626c653a206d757374206e6f742062652063616c6044820152771b1959081d1a1c9bdd59da0819195b1959d85d1958d85b1b60421b6064820152608401610515565b50600080516020611d7a83398151915290565b61012e5461012d5460408051636a5c1cc960e11b815290516000936001600160a01b03908116936370a0823193620100009091049091169163d4b8399291600480820192602092909190829003018189875af115801561080d573d6000803e3d6000fd5b505050506040513d601f19601f820116820180604052508101906108319190611a6e565b6040518263ffffffff1660e01b815260040161084d9190611986565b602060405180830381865afa15801561086a573d6000803e3d6000fd5b505050506040513d601f19601f8201168201806040525081019061088e9190611a8b565b905090565b600054610100900460ff16158080156108b35750600054600160ff909116105b806108cd5750303b1580156108cd575060005460ff166001145b6109305760405162461bcd60e51b815260206004820152602e60248201527f496e697469616c697a61626c653a20636f6e747261637420697320616c72656160448201526d191e481a5b9a5d1a585b1a5e995960921b6064820152608401610515565b6000805460ff191660011790558015610953576000805461ff0019166101001790555b61095b611097565b610963611097565b61012d805462010000600160b01b031916620100006001600160a01b038a8116919091029190911790915561012e80546001600160a01b03191691881691909117905561012f8590556101308490556101318390556101328290556109c9600033610e0b565b6109e1600080516020611d5a83398151915233610e0b565b8015610a27576000805461ff0019169055604051600181527f7f26b83ff96e1f2b6a682f133852f6798a09c465da95921460cefb38474024989060200160405180910390a15b50505050505050565b610a38611104565b61012d546201000090046001600160a01b0316610a7f5760405162461bcd60e51b8152602060048201526005602482015264085a5b9a5d60da1b6044820152606401610515565b61012d5460405163f3ae241560e01b8152620100009091046001600160a01b03169063f3ae241590610ab5903090600401611986565b6020604051808303816000875af1158015610ad4573d6000803e3d6000fd5b505050506040513d601f19601f82011682018060405250810190610af89190611aa4565b610b395760405162461bcd60e51b815260206004820152601260248201527129b430b6b0b7103737ba1036b0b730b3b2b960711b6044820152606401610515565b61012f54610b479084611adc565b15610b855760405162461bcd60e51b815260206004820152600e60248201526d1a5b9d985b1a5908185b5bdd5b9d60921b6044820152606401610515565b600061012f5484610b969190611af0565b61012e5461012d5460408051636a5c1cc960e11b815290519394506001600160a01b03928316936323b872dd933393620100009004169163d4b8399291600480830192602092919082900301816000875af1158015610bf9573d6000803e3d6000fd5b505050506040513d601f19601f82011682018060405250810190610c1d9190611a6e565b6040516001600160e01b031960e085901b1681526001600160a01b03928316600482015291166024820152604481018790526064016020604051808303816000875af1158015610c71573d6000803e3d6000fd5b505050506040513d601f19601f82011682018060405250810190610c959190611aa4565b610cd35760405162461bcd60e51b815260206004820152600f60248201526e151c985b9cd9995c8819985a5b1959608a1b6044820152606401610515565b60006101305482610ce49190611b04565b9050610cf23382600061115e565b33600090815261013360205260408120549081610d1a575061013154610d1a3382600161115e565b610d248783611b23565b3360008181526101336020526040902082905561012d546101325492945090917f2cb18d63ba841b413965e4778c3d039bad1b37c5a8c1201f7668d4d694610e07916201000090046001600160a01b0316908a908690610d826107a9565b89888e8e604051610d9b99989796959493929190611b3b565b60405180910390a2505050506104a46001609755565b60009182526065602090815260408084206001600160a01b0393909316845291905290205460ff1690565b600082815260656020526040902060010154610df781610e01565b6104a48383610e91565b6105f281336112eb565b610e158282610db1565b6105285760008281526065602090815260408083206001600160a01b03851684529091529020805460ff19166001179055610e4d3390565b6001600160a01b0316816001600160a01b0316837f2f8788117e7eff1d82e926ec794901d17c78024a50270940304540a733656f0d60405160405180910390a45050565b610e9b8282610db1565b156105285760008281526065602090815260408083206001600160a01b0385168085529252808320805460ff1916905551339285917ff6391f5c32d9c69d2a47ea670b442974b53935d1edc7fd64eb21e047a839171b9190a45050565b600080516020611d7a833981519152546001600160a01b031690565b600080516020611d5a83398151915261052881610e01565b7f4910fdfa16fed3260ed0e7147f7cc6da11a60208b5b9406d12a635614ffd91435460ff1615610f5f576104a483611344565b826001600160a01b03166352d1902d6040518163ffffffff1660e01b8152600401602060405180830381865afa925050508015610fb9575060408051601f3d908101601f19168201909252610fb691810190611a8b565b60015b61101c5760405162461bcd60e51b815260206004820152602e60248201527f45524331393637557067726164653a206e657720696d706c656d656e7461746960448201526d6f6e206973206e6f74205555505360901b6064820152608401610515565b600080516020611d7a833981519152811461108b5760405162461bcd60e51b815260206004820152602960248201527f45524331393637557067726164653a20756e737570706f727465642070726f786044820152681a58589b195555525160ba1b6064820152608401610515565b506104a48383836113e0565b600054610100900460ff166111025760405162461bcd60e51b815260206004820152602b60248201527f496e697469616c697a61626c653a20636f6e7472616374206973206e6f74206960448201526a6e697469616c697a696e6760a81b6064820152608401610515565b565b600260975414156111575760405162461bcd60e51b815260206004820152601f60248201527f5265656e7472616e637947756172643a207265656e7472616e742063616c6c006044820152606401610515565b6002609755565b60408051600180825281830190925260009160208083019080368337019050509050838160008151811061119457611194611ba8565b6001600160a01b03929092166020928302919091019091015260408051600180825281830190925260009181602001602082028036833701905050905083816000815181106111e5576111e5611ba8565b6020908102919091010152600183600181111561120457611204611bbe565b14156112795761012d54604051632c78fd0360e21b8152620100009091046001600160a01b03169063b1e3f40c906112429085908590600401611bd4565b600060405180830381600087803b15801561125c57600080fd5b505af1158015611270573d6000803e3d6000fd5b505050506112e4565b61012d546040516322936c2360e11b8152620100009091046001600160a01b031690634526d846906112b19085908590600401611bd4565b600060405180830381600087803b1580156112cb57600080fd5b505af11580156112df573d6000803e3d6000fd5b505050505b5050505050565b6112f58282610db1565b610528576113028161140b565b61130d83602061141d565b60405160200161131e929190611c84565b60408051601f198184030181529082905262461bcd60e51b825261051591600401611cf3565b6001600160a01b0381163b6113b15760405162461bcd60e51b815260206004820152602d60248201527f455243313936373a206e657720696d706c656d656e746174696f6e206973206e60448201526c1bdd08184818dbdb9d1c9858dd609a1b6064820152608401610515565b600080516020611d7a83398151915280546001600160a01b0319166001600160a01b0392909216919091179055565b6113e9836115c0565b6000825111806113f65750805b156104a4576114058383611600565b50505050565b60606104796001600160a01b03831660145b6060600061142c836002611b04565b611437906002611b23565b67ffffffffffffffff81111561144f5761144f6117d7565b6040519080825280601f01601f191660200182016040528015611479576020820181803683370190505b509050600360fc1b8160008151811061149457611494611ba8565b60200101906001600160f81b031916908160001a905350600f60fb1b816001815181106114c3576114c3611ba8565b60200101906001600160f81b031916908160001a90535060006114e7846002611b04565b6114f2906001611b23565b90505b600181111561156a576f181899199a1a9b1b9c1cb0b131b232b360811b85600f166010811061152657611526611ba8565b1a60f81b82828151811061153c5761153c611ba8565b60200101906001600160f81b031916908160001a90535060049490941c9361156381611d26565b90506114f5565b5083156115b95760405162461bcd60e51b815260206004820181905260248201527f537472696e67733a20686578206c656e67746820696e73756666696369656e746044820152606401610515565b9392505050565b6115c981611344565b6040516001600160a01b038216907fbc7cd75a20ee27fd9adebab32041f755214dbc6bffa90cc0225b39da2e5c2d3b90600090a250565b60606001600160a01b0383163b6116685760405162461bcd60e51b815260206004820152602660248201527f416464726573733a2064656c65676174652063616c6c20746f206e6f6e2d636f6044820152651b9d1c9858dd60d21b6064820152608401610515565b600080846001600160a01b0316846040516116839190611d3d565b600060405180830381855af49150503d80600081146116be576040519150601f19603f3d011682016040523d82523d6000602084013e6116c3565b606091505b50915091506116eb8282604051806060016040528060278152602001611d9a602791396116f4565b95945050505050565b606083156117035750816115b9565b6115b983838151156117185781518083602001fd5b8060405162461bcd60e51b81526004016105159190611cf3565b60006020828403121561174457600080fd5b81356001600160e01b0319811681146115b957600080fd5b60006020828403121561176e57600080fd5b5035919050565b6001600160a01b03811681146105f257600080fd5b6000806040838503121561179d57600080fd5b8235915060208301356117af81611775565b809150509250929050565b6000602082840312156117cc57600080fd5b81356115b981611775565b634e487b7160e01b600052604160045260246000fd5b6000806040838503121561180057600080fd5b823561180b81611775565b9150602083013567ffffffffffffffff8082111561182857600080fd5b818501915085601f83011261183c57600080fd5b81358181111561184e5761184e6117d7565b604051601f8201601f19908116603f01168101908382118183101715611876576118766117d7565b8160405282815288602084870101111561188f57600080fd5b8260208601602083013760006020848301015280955050505050509250929050565b60008060008060008060c087890312156118ca57600080fd5b86356118d581611775565b955060208701356118e581611775565b95989597505050506040840135936060810135936080820135935060a0909101359150565b60008060006040848603121561191f57600080fd5b83359250602084013567ffffffffffffffff8082111561193e57600080fd5b818601915086601f83011261195257600080fd5b81358181111561196157600080fd5b87602082850101111561197357600080fd5b6020830194508093505050509250925092565b6001600160a01b0391909116815260200190565b6020808252602c908201527f46756e6374696f6e206d7573742062652063616c6c6564207468726f7567682060408201526b19195b1959d85d1958d85b1b60a21b606082015260800190565b6020808252602c908201527f46756e6374696f6e206d7573742062652063616c6c6564207468726f7567682060408201526b6163746976652070726f787960a01b606082015260800190565b634e487b7160e01b600052601160045260246000fd5b600061ffff808316818516808303821115611a6557611a65611a32565b01949350505050565b600060208284031215611a8057600080fd5b81516115b981611775565b600060208284031215611a9d57600080fd5b5051919050565b600060208284031215611ab657600080fd5b815180151581146115b957600080fd5b634e487b7160e01b600052601260045260246000fd5b600082611aeb57611aeb611ac6565b500690565b600082611aff57611aff611ac6565b500490565b6000816000190483118215151615611b1e57611b1e611a32565b500290565b60008219821115611b3657611b36611a32565b500190565b600061010060018060a01b038c1683528a60208401528960408401528860608401528760808401528660a08401528560c08401528060e08401528381840152506101208385828501376000838501820152601f909301601f19169091019091019998505050505050505050565b634e487b7160e01b600052603260045260246000fd5b634e487b7160e01b600052602160045260246000fd5b604080825283519082018190526000906020906060840190828701845b82811015611c165781516001600160a01b031684529284019290840190600101611bf1565b5050508381038285015284518082528583019183019060005b81811015611c4b57835183529284019291840191600101611c2f565b5090979650505050505050565b60005b83811015611c73578181015183820152602001611c5b565b838111156114055750506000910152565b76020b1b1b2b9b9a1b7b73a3937b61d1030b1b1b7bab73a1604d1b815260008351611cb6816017850160208801611c58565b7001034b99036b4b9b9b4b733903937b6329607d1b6017918401918201528351611ce7816028840160208801611c58565b01602801949350505050565b6020815260008251806020840152611d12816040850160208701611c58565b601f01601f19169190910160400192915050565b600081611d3557611d35611a32565b506000190190565b60008251611d4f818460208701611c58565b919091019291505056fe189ab7a9244df0848122154315af71fe140f3db0fe014031783b0946b8c9d2e3360894a13ba1a3210667c828492db98dca3e2076cc3735a920a3ca505d382bbc416464726573733a206c6f772d6c6576656c2064656c65676174652063616c6c206661696c6564a2646970667358221220fc590a3cccf609d386c911e97f692e4f8b5b462d904865c7897cc0f9c24ceabe64736f6c634300080c0033",
  "devdoc": {
    "events": {
      "DonationReceived(address,address,uint256,uint256,uint256,uint256,uint256,uint256,string)": {
        "params": {
          "amount": "amount donated",
          "baal": "DAO contract address",
          "balance": "current campaign balance",
          "contributorAddress": "wallet sending the donation",
          "lootIssued": "loot issued for this donation",
          "message": "message accompanying the donation",
          "sharesIssued": "shares issued for this donation",
          "target": "campaign target amount",
          "total": "total donated from this wallet"
        }
      },
      "TargetUpdated(uint256,uint256)": {
        "params": {
          "balance": "current campaign balance",
          "target": "campaign target amount"
        }
      }
    },
    "kind": "dev",
    "methods": {
      "constructor": {
        "custom:oz-upgrades-unsafe-allow": "constructor"
      },
      "donate(uint256,string)": {
        "params": {
          "_message": "message accompanying donation",
          "_value": "amount donated"
        }
      },
      "getRoleAdmin(bytes32)": {
        "details": "Returns the admin role that controls `role`. See {grantRole} and {revokeRole}. To change a role's admin, use {_setRoleAdmin}."
      },
      "grantRole(bytes32,address)": {
        "details": "Grants `role` to `account`. If `account` had not been already granted `role`, emits a {RoleGranted} event. Requirements: - the caller must have ``role``'s admin role. May emit a {RoleGranted} event."
      },
      "hasRole(bytes32,address)": {
        "details": "Returns `true` if `account` has been granted `role`."
      },
      "proxiableUUID()": {
        "details": "Implementation of the ERC1822 {proxiableUUID} function. This returns the storage slot used by the implementation. It is used to validate the implementation's compatibility when performing an upgrade. IMPORTANT: A proxy pointing at a proxiable contract should not be considered proxiable itself, because this risks bricking a proxy that upgrades to it, by delegating to itself until out of gas. Thus it is critical that this function revert if invoked through a proxy. This is guaranteed by the `notDelegated` modifier."
      },
      "renounceRole(bytes32,address)": {
        "details": "Revokes `role` from the calling account. Roles are often managed via {grantRole} and {revokeRole}: this function's purpose is to provide a mechanism for accounts to lose their privileges if they are compromised (such as when a trusted device is misplaced). If the calling account had been revoked `role`, emits a {RoleRevoked} event. Requirements: - the caller must be `account`. May emit a {RoleRevoked} event."
      },
      "revokeRole(bytes32,address)": {
        "details": "Revokes `role` from `account`. If `account` had been granted `role`, emits a {RoleRevoked} event. Requirements: - the caller must have ``role``'s admin role. May emit a {RoleRevoked} event."
      },
      "supportsInterface(bytes4)": {
        "details": "See {IERC165-supportsInterface}."
      },
      "upgradeTo(address)": {
        "details": "Upgrade the implementation of the proxy to `newImplementation`. Calls {_authorizeUpgrade}. Emits an {Upgraded} event."
      },
      "upgradeToAndCall(address,bytes)": {
        "details": "Upgrade the implementation of the proxy to `newImplementation`, and subsequently execute the function call encoded in `data`. Calls {_authorizeUpgrade}. Emits an {Upgraded} event."
      }
    },
    "stateVariables": {
      "donations": {
        "details": "This is only a cache and claims older than period are deleted"
      }
    },
    "version": 1
  },
  "userdoc": {
    "events": {
      "DonationReceived(address,address,uint256,uint256,uint256,uint256,uint256,uint256,string)": {
        "notice": "emitted when a donation is received"
      },
      "TargetUpdated(uint256,uint256)": {
        "notice": "emitted when campaign target is updated"
      }
    },
    "kind": "user",
    "methods": {
      "UPGRADER_ROLE()": {
        "notice": "User role required in order to upgrade the contract"
      },
      "constructor": {
        "notice": "Contract constructor logic"
      },
      "donate(uint256,string)": {
        "notice": "Make a donation"
      },
      "donations(address)": {
        "notice": "Last cookie claims made by members"
      },
      "getTokenBalance()": {
        "notice": "Gets the total token balance of the contract"
      },
      "initialize(address,address,uint256,uint256,uint256,uint256)": {
        "notice": "Contract initialization logic"
      },
      "updateVersion()": {
        "notice": "Update the contract version numberOnly allowed for member of UPGRADER_ROLE"
      },
      "version()": {
        "notice": "gets the current version of the contract"
      }
    },
    "notice": "Shamom administers the cookie jar",
    "version": 1
  },
  "storageLayout": {
    "storage": [
      {
        "astId": 4919,
        "contract": "contracts/shaman/DeVoxShamanV1.sol:DeVoxShamanV1",
        "label": "_initialized",
        "offset": 0,
        "slot": "0",
        "type": "t_uint8"
      },
      {
        "astId": 4922,
        "contract": "contracts/shaman/DeVoxShamanV1.sol:DeVoxShamanV1",
        "label": "_initializing",
        "offset": 1,
        "slot": "0",
        "type": "t_bool"
      },
      {
        "astId": 7188,
        "contract": "contracts/shaman/DeVoxShamanV1.sol:DeVoxShamanV1",
        "label": "__gap",
        "offset": 0,
        "slot": "1",
        "type": "t_array(t_uint256)50_storage"
      },
      {
        "astId": 8055,
        "contract": "contracts/shaman/DeVoxShamanV1.sol:DeVoxShamanV1",
        "label": "__gap",
        "offset": 0,
        "slot": "51",
        "type": "t_array(t_uint256)50_storage"
      },
      {
        "astId": 4015,
        "contract": "contracts/shaman/DeVoxShamanV1.sol:DeVoxShamanV1",
        "label": "_roles",
        "offset": 0,
        "slot": "101",
        "type": "t_mapping(t_bytes32,t_struct(RoleData)4010_storage)"
      },
      {
        "astId": 4310,
        "contract": "contracts/shaman/DeVoxShamanV1.sol:DeVoxShamanV1",
        "label": "__gap",
        "offset": 0,
        "slot": "102",
        "type": "t_array(t_uint256)49_storage"
      },
      {
        "astId": 5358,
        "contract": "contracts/shaman/DeVoxShamanV1.sol:DeVoxShamanV1",
        "label": "_status",
        "offset": 0,
        "slot": "151",
        "type": "t_uint256"
      },
      {
        "astId": 5416,
        "contract": "contracts/shaman/DeVoxShamanV1.sol:DeVoxShamanV1",
        "label": "__gap",
        "offset": 0,
        "slot": "152",
        "type": "t_array(t_uint256)49_storage"
      },
      {
        "astId": 4901,
        "contract": "contracts/shaman/DeVoxShamanV1.sol:DeVoxShamanV1",
        "label": "__gap",
        "offset": 0,
        "slot": "201",
        "type": "t_array(t_uint256)50_storage"
      },
      {
        "astId": 5216,
        "contract": "contracts/shaman/DeVoxShamanV1.sol:DeVoxShamanV1",
        "label": "__gap",
        "offset": 0,
        "slot": "251",
        "type": "t_array(t_uint256)50_storage"
      },
      {
        "astId": 17567,
        "contract": "contracts/shaman/DeVoxShamanV1.sol:DeVoxShamanV1",
        "label": "_version",
        "offset": 0,
        "slot": "301",
        "type": "t_uint16"
      },
      {
        "astId": 17570,
        "contract": "contracts/shaman/DeVoxShamanV1.sol:DeVoxShamanV1",
        "label": "baal",
        "offset": 2,
        "slot": "301",
        "type": "t_contract(IBaal)15168"
      },
      {
        "astId": 17573,
        "contract": "contracts/shaman/DeVoxShamanV1.sol:DeVoxShamanV1",
        "label": "token",
        "offset": 0,
        "slot": "302",
        "type": "t_contract(IERC20)10225"
      },
      {
        "astId": 17575,
        "contract": "contracts/shaman/DeVoxShamanV1.sol:DeVoxShamanV1",
        "label": "pricePerUnit",
        "offset": 0,
        "slot": "303",
        "type": "t_uint256"
      },
      {
        "astId": 17577,
        "contract": "contracts/shaman/DeVoxShamanV1.sol:DeVoxShamanV1",
        "label": "lootPerUnit",
        "offset": 0,
        "slot": "304",
        "type": "t_uint256"
      },
      {
        "astId": 17579,
        "contract": "contracts/shaman/DeVoxShamanV1.sol:DeVoxShamanV1",
        "label": "sharesPerMember",
        "offset": 0,
        "slot": "305",
        "type": "t_uint256"
      },
      {
        "astId": 17581,
        "contract": "contracts/shaman/DeVoxShamanV1.sol:DeVoxShamanV1",
        "label": "target",
        "offset": 0,
        "slot": "306",
        "type": "t_uint256"
      },
      {
        "astId": 17586,
        "contract": "contracts/shaman/DeVoxShamanV1.sol:DeVoxShamanV1",
        "label": "donations",
        "offset": 0,
        "slot": "307",
        "type": "t_mapping(t_address,t_uint256)"
      }
    ],
    "types": {
      "t_address": {
        "encoding": "inplace",
        "label": "address",
        "numberOfBytes": "20"
      },
      "t_array(t_uint256)49_storage": {
        "base": "t_uint256",
        "encoding": "inplace",
        "label": "uint256[49]",
        "numberOfBytes": "1568"
      },
      "t_array(t_uint256)50_storage": {
        "base": "t_uint256",
        "encoding": "inplace",
        "label": "uint256[50]",
        "numberOfBytes": "1600"
      },
      "t_bool": {
        "encoding": "inplace",
        "label": "bool",
        "numberOfBytes": "1"
      },
      "t_bytes32": {
        "encoding": "inplace",
        "label": "bytes32",
        "numberOfBytes": "32"
      },
      "t_contract(IBaal)15168": {
        "encoding": "inplace",
        "label": "contract IBaal",
        "numberOfBytes": "20"
      },
      "t_contract(IERC20)10225": {
        "encoding": "inplace",
        "label": "contract IERC20",
        "numberOfBytes": "20"
      },
      "t_mapping(t_address,t_bool)": {
        "encoding": "mapping",
        "key": "t_address",
        "label": "mapping(address => bool)",
        "numberOfBytes": "32",
        "value": "t_bool"
      },
      "t_mapping(t_address,t_uint256)": {
        "encoding": "mapping",
        "key": "t_address",
        "label": "mapping(address => uint256)",
        "numberOfBytes": "32",
        "value": "t_uint256"
      },
      "t_mapping(t_bytes32,t_struct(RoleData)4010_storage)": {
        "encoding": "mapping",
        "key": "t_bytes32",
        "label": "mapping(bytes32 => struct AccessControlUpgradeable.RoleData)",
        "numberOfBytes": "32",
        "value": "t_struct(RoleData)4010_storage"
      },
      "t_struct(RoleData)4010_storage": {
        "encoding": "inplace",
        "label": "struct AccessControlUpgradeable.RoleData",
        "members": [
          {
            "astId": 4007,
            "contract": "contracts/shaman/DeVoxShamanV1.sol:DeVoxShamanV1",
            "label": "members",
            "offset": 0,
            "slot": "0",
            "type": "t_mapping(t_address,t_bool)"
          },
          {
            "astId": 4009,
            "contract": "contracts/shaman/DeVoxShamanV1.sol:DeVoxShamanV1",
            "label": "adminRole",
            "offset": 0,
            "slot": "1",
            "type": "t_bytes32"
          }
        ],
        "numberOfBytes": "64"
      },
      "t_uint16": {
        "encoding": "inplace",
        "label": "uint16",
        "numberOfBytes": "2"
      },
      "t_uint256": {
        "encoding": "inplace",
        "label": "uint256",
        "numberOfBytes": "32"
      },
      "t_uint8": {
        "encoding": "inplace",
        "label": "uint8",
        "numberOfBytes": "1"
      }
    }
  }
}