{
  "address": "0x68B1D87F95878fE05B998F19b66F4baba5De1aed",
  "abi": [
    {
      "inputs": [],
      "stateMutability": "nonpayable",
      "type": "constructor"
    },
    {
      "anonymous": false,
      "inputs": [
        {
          "indexed": false,
          "internalType": "address",
          "name": "previousAdmin",
          "type": "address"
        },
        {
          "indexed": false,
          "internalType": "address",
          "name": "newAdmin",
          "type": "address"
        }
      ],
      "name": "AdminChanged",
      "type": "event"
    },
    {
      "anonymous": false,
      "inputs": [
        {
          "indexed": true,
          "internalType": "address",
          "name": "beacon",
          "type": "address"
        }
      ],
      "name": "BeaconUpgraded",
      "type": "event"
    },
    {
      "anonymous": false,
      "inputs": [
        {
          "indexed": false,
          "internalType": "uint8",
          "name": "version",
          "type": "uint8"
        }
      ],
      "name": "Initialized",
      "type": "event"
    },
    {
      "anonymous": false,
      "inputs": [
        {
          "indexed": true,
          "internalType": "address",
          "name": "previousOwner",
          "type": "address"
        },
        {
          "indexed": true,
          "internalType": "address",
          "name": "newOwner",
          "type": "address"
        }
      ],
      "name": "OwnershipTransferred",
      "type": "event"
    },
    {
      "anonymous": false,
      "inputs": [
        {
          "indexed": true,
          "internalType": "address",
          "name": "baal",
          "type": "address"
        },
        {
          "indexed": true,
          "internalType": "address",
          "name": "shaman",
          "type": "address"
        },
        {
          "indexed": false,
          "internalType": "address",
          "name": "token",
          "type": "address"
        },
        {
          "indexed": false,
          "internalType": "address",
          "name": "userRegistry",
          "type": "address"
        },
        {
          "indexed": false,
          "internalType": "uint256",
          "name": "id",
          "type": "uint256"
        },
        {
          "indexed": false,
          "internalType": "uint256",
          "name": "pricePerUnit",
          "type": "uint256"
        },
        {
          "indexed": false,
          "internalType": "uint256",
          "name": "tokensPerUnit",
          "type": "uint256"
        },
        {
          "indexed": false,
          "internalType": "uint256",
          "name": "target",
          "type": "uint256"
        },
        {
          "indexed": false,
          "internalType": "string",
          "name": "name",
          "type": "string"
        }
      ],
      "name": "SummonComplete",
      "type": "event"
    },
    {
      "anonymous": false,
      "inputs": [
        {
          "indexed": true,
          "internalType": "address",
          "name": "implementation",
          "type": "address"
        }
      ],
      "name": "Upgraded",
      "type": "event"
    },
    {
      "inputs": [
        {
          "internalType": "address payable",
          "name": "_template",
          "type": "address"
        }
      ],
      "name": "initialize",
      "outputs": [],
      "stateMutability": "nonpayable",
      "type": "function"
    },
    {
      "inputs": [],
      "name": "owner",
      "outputs": [
        {
          "internalType": "address",
          "name": "",
          "type": "address"
        }
      ],
      "stateMutability": "view",
      "type": "function"
    },
    {
      "inputs": [],
      "name": "proxiableUUID",
      "outputs": [
        {
          "internalType": "bytes32",
          "name": "",
          "type": "bytes32"
        }
      ],
      "stateMutability": "view",
      "type": "function"
    },
    {
      "inputs": [],
      "name": "renounceOwnership",
      "outputs": [],
      "stateMutability": "nonpayable",
      "type": "function"
    },
    {
      "inputs": [
        {
          "internalType": "address",
          "name": "_baal",
          "type": "address"
        },
        {
          "internalType": "bytes",
          "name": "_initializationParams",
          "type": "bytes"
        }
      ],
      "name": "summonDeVoxShaman",
      "outputs": [
        {
          "internalType": "address",
          "name": "",
          "type": "address"
        }
      ],
      "stateMutability": "nonpayable",
      "type": "function"
    },
    {
      "inputs": [],
      "name": "template",
      "outputs": [
        {
          "internalType": "address payable",
          "name": "",
          "type": "address"
        }
      ],
      "stateMutability": "view",
      "type": "function"
    },
    {
      "inputs": [
        {
          "internalType": "address",
          "name": "newOwner",
          "type": "address"
        }
      ],
      "name": "transferOwnership",
      "outputs": [],
      "stateMutability": "nonpayable",
      "type": "function"
    },
    {
      "inputs": [],
      "name": "updateVersion",
      "outputs": [],
      "stateMutability": "nonpayable",
      "type": "function"
    },
    {
      "inputs": [
        {
          "internalType": "address",
          "name": "newImplementation",
          "type": "address"
        }
      ],
      "name": "upgradeTo",
      "outputs": [],
      "stateMutability": "nonpayable",
      "type": "function"
    },
    {
      "inputs": [
        {
          "internalType": "address",
          "name": "newImplementation",
          "type": "address"
        },
        {
          "internalType": "bytes",
          "name": "data",
          "type": "bytes"
        }
      ],
      "name": "upgradeToAndCall",
      "outputs": [],
      "stateMutability": "payable",
      "type": "function"
    },
    {
      "inputs": [],
      "name": "version",
      "outputs": [
        {
          "internalType": "uint256",
          "name": "",
          "type": "uint256"
        }
      ],
      "stateMutability": "view",
      "type": "function"
    }
  ],
  "transactionHash": "0x7617e12c3004c212a91344b9f821462c18cd9fda348ddee0f841d42f023e5087",
  "args": [],
  "numDeployments": 1,
  "solcInputHash": "3550317b130a90133e0856630c2f5917",
  "bytecode": "0x60a06040523060805234801561001457600080fd5b5061001d610022565b6100e1565b600054610100900460ff161561008e5760405162461bcd60e51b815260206004820152602760248201527f496e697469616c697a61626c653a20636f6e747261637420697320696e697469604482015266616c697a696e6760c81b606482015260840160405180910390fd5b60005460ff908116146100df576000805460ff191660ff9081179091556040519081527f7f26b83ff96e1f2b6a682f133852f6798a09c465da95921460cefb38474024989060200160405180910390a15b565b608051611cf56101186000396000818161023701528181610283015281816103570152818161039a015261041f0152611cf56000f3fe608060405260043610620000a95760003560e01c80636f2ddd93116200006c5780636f2ddd93146200014a578063715018a614620001855780637e919b09146200019d5780638da5cb5b14620001c2578063c4d66de814620001e2578063f2fde38b146200020757600080fd5b80633659cfe614620000ae57806348c02dc114620000d55780634f1ef28614620000ed57806352d1902d146200010457806354fd4d50146200012f575b600080fd5b348015620000bb57600080fd5b50620000d3620000cd36600462000f1c565b6200022c565b005b348015620000e257600080fd5b50620000d36200030a565b620000d3620000fe36600462000fe4565b6200034c565b3480156200011157600080fd5b506200011c62000412565b6040519081526020015b60405180910390f35b3480156200013c57600080fd5b5060c95461ffff166200011c565b3480156200015757600080fd5b5060cb546200016c906001600160a01b031681565b6040516001600160a01b03909116815260200162000126565b3480156200019257600080fd5b50620000d3620004c3565b348015620001aa57600080fd5b506200016c620001bc3660046200104f565b620004db565b348015620001cf57600080fd5b506033546001600160a01b03166200016c565b348015620001ef57600080fd5b50620000d36200020136600462000f1c565b620007e7565b3480156200021457600080fd5b50620000d36200022636600462000f1c565b62000926565b306001600160a01b037f0000000000000000000000000000000000000000000000000000000000000000161415620002815760405162461bcd60e51b81526004016200027890620010db565b60405180910390fd5b7f00000000000000000000000000000000000000000000000000000000000000006001600160a01b0316620002b5620009a2565b6001600160a01b031614620002de5760405162461bcd60e51b8152600401620002789062001127565b620002e981620009bf565b604080516000808252602082019092526200030791839190620009c9565b50565b6200031462000b46565b60c98054600191906000906200033090849061ffff1662001189565b92506101000a81548161ffff021916908361ffff160217905550565b306001600160a01b037f0000000000000000000000000000000000000000000000000000000000000000161415620003985760405162461bcd60e51b81526004016200027890620010db565b7f00000000000000000000000000000000000000000000000000000000000000006001600160a01b0316620003cc620009a2565b6001600160a01b031614620003f55760405162461bcd60e51b8152600401620002789062001127565b6200040082620009bf565b6200040e82826001620009c9565b5050565b6000306001600160a01b037f00000000000000000000000000000000000000000000000000000000000000001614620004af5760405162461bcd60e51b815260206004820152603860248201527f555550535570677261646561626c653a206d757374206e6f742062652063616c6044820152771b1959081d1a1c9bdd59da0819195b1959d85d1958d85b1b60421b606482015260840162000278565b5060008051602062001c7983398151915290565b620004cd62000b46565b620004d9600062000ba2565b565b600060ca546001620004ee9190620011b2565b60ca55600080808080808062000507898b018b62001261565b965096509650965096509650965060006001600160a01b03168b6001600160a01b031614156200058d5760405162461bcd60e51b815260206004820152602a60248201527f4465566f785368616d616e53756d6d6f6e657256313a205f6261616c2063616e60448201526906e6f74206265203078360b41b606482015260840162000278565b6001600160a01b038716620005f95760405162461bcd60e51b815260206004820152602b60248201527f4465566f785368616d616e53756d6d6f6e657256313a205f746f6b656e20636160448201526a06e6e6f74206265203078360ac1b606482015260840162000278565b600060cb60009054906101000a90046001600160a01b0316630fdb86e960e01b8d8a8a60ca548b8b8b8a6040516024016200063c9897969594939291906200132a565b60408051601f198184030181529181526020820180516001600160e01b03166001600160e01b03199094169390931790925290516200067b9062000ef8565b6200068892919062001415565b604051809103906000f080158015620006a5573d6000803e3d6000fd5b509050876001600160a01b0316816001600160a01b031663fc0c546a6040518163ffffffff1660e01b8152600401602060405180830381865afa158015620006f1573d6000803e3d6000fd5b505050506040513d601f19601f820116820180604052508101906200071791906200143b565b6001600160a01b0316146200077d5760405162461bcd60e51b815260206004820152602560248201527f4465566f785368616d616e53756d6d6f6e657256313a20746f6b656e206d69736044820152640dac2e8c6d60db1b606482015260840162000278565b806001600160a01b03168c6001600160a01b03167fac421cd4aefdc57815833dfea2738274687139237e3409d67fe57eaf0b5886868a8a60ca548b8b8b8b604051620007d097969594939291906200145b565b60405180910390a39b9a5050505050505050505050565b600054610100900460ff1615808015620008085750600054600160ff909116105b80620008245750303b15801562000824575060005460ff166001145b620008895760405162461bcd60e51b815260206004820152602e60248201527f496e697469616c697a61626c653a20636f6e747261637420697320616c72656160448201526d191e481a5b9a5d1a585b1a5e995960921b606482015260840162000278565b6000805460ff191660011790558015620008ad576000805461ff0019166101001790555b620008b762000bf4565b620008c162000c28565b60cb80546001600160a01b0319166001600160a01b03841617905580156200040e576000805461ff0019169055604051600181527f7f26b83ff96e1f2b6a682f133852f6798a09c465da95921460cefb38474024989060200160405180910390a15050565b6200093062000b46565b6001600160a01b038116620009975760405162461bcd60e51b815260206004820152602660248201527f4f776e61626c653a206e6577206f776e657220697320746865207a65726f206160448201526564647265737360d01b606482015260840162000278565b620003078162000ba2565b60008051602062001c79833981519152546001600160a01b031690565b6200030762000b46565b7f4910fdfa16fed3260ed0e7147f7cc6da11a60208b5b9406d12a635614ffd91435460ff161562000a0457620009ff8362000c52565b505050565b826001600160a01b03166352d1902d6040518163ffffffff1660e01b8152600401602060405180830381865afa92505050801562000a61575060408051601f3d908101601f1916820190925262000a5e91810190620014ad565b60015b62000ac65760405162461bcd60e51b815260206004820152602e60248201527f45524331393637557067726164653a206e657720696d706c656d656e7461746960448201526d6f6e206973206e6f74205555505360901b606482015260840162000278565b60008051602062001c79833981519152811462000b385760405162461bcd60e51b815260206004820152602960248201527f45524331393637557067726164653a20756e737570706f727465642070726f786044820152681a58589b195555525160ba1b606482015260840162000278565b50620009ff83838362000cf1565b6033546001600160a01b03163314620004d95760405162461bcd60e51b815260206004820181905260248201527f4f776e61626c653a2063616c6c6572206973206e6f7420746865206f776e6572604482015260640162000278565b603380546001600160a01b038381166001600160a01b0319831681179093556040519116919082907f8be0079c531659141344cd1fd0a4f28419497f9722a3daafe3b4186f6b6457e090600090a35050565b600054610100900460ff1662000c1e5760405162461bcd60e51b81526004016200027890620014c7565b620004d962000d22565b600054610100900460ff16620004d95760405162461bcd60e51b81526004016200027890620014c7565b6001600160a01b0381163b62000cc15760405162461bcd60e51b815260206004820152602d60248201527f455243313936373a206e657720696d706c656d656e746174696f6e206973206e60448201526c1bdd08184818dbdb9d1c9858dd609a1b606482015260840162000278565b60008051602062001c7983398151915280546001600160a01b0319166001600160a01b0392909216919091179055565b62000cfc8362000d57565b60008251118062000d0a5750805b15620009ff5762000d1c838362000d99565b50505050565b600054610100900460ff1662000d4c5760405162461bcd60e51b81526004016200027890620014c7565b620004d93362000ba2565b62000d628162000c52565b6040516001600160a01b038216907fbc7cd75a20ee27fd9adebab32041f755214dbc6bffa90cc0225b39da2e5c2d3b90600090a250565b606062000dc1838360405180606001604052806027815260200162001c996027913962000dc8565b9392505050565b6060600080856001600160a01b03168560405162000de7919062001512565b600060405180830381855af49150503d806000811462000e24576040519150601f19603f3d011682016040523d82523d6000602084013e62000e29565b606091505b509150915062000e3c8683838762000e46565b9695505050505050565b6060831562000eb757825162000eaf576001600160a01b0385163b62000eaf5760405162461bcd60e51b815260206004820152601d60248201527f416464726573733a2063616c6c20746f206e6f6e2d636f6e7472616374000000604482015260640162000278565b508162000ec3565b62000ec3838362000ecb565b949350505050565b81511562000edc5781518083602001fd5b8060405162461bcd60e51b815260040162000278919062001530565b610733806200154683390190565b6001600160a01b03811681146200030757600080fd5b60006020828403121562000f2f57600080fd5b813562000dc18162000f06565b634e487b7160e01b600052604160045260246000fd5b604051601f8201601f1916810167ffffffffffffffff8111828210171562000f7e5762000f7e62000f3c565b604052919050565b600067ffffffffffffffff83111562000fa35762000fa362000f3c565b62000fb8601f8401601f191660200162000f52565b905082815283838301111562000fcd57600080fd5b828260208301376000602084830101529392505050565b6000806040838503121562000ff857600080fd5b8235620010058162000f06565b9150602083013567ffffffffffffffff8111156200102257600080fd5b8301601f810185136200103457600080fd5b620010458582356020840162000f86565b9150509250929050565b6000806000604084860312156200106557600080fd5b8335620010728162000f06565b9250602084013567ffffffffffffffff808211156200109057600080fd5b818601915086601f830112620010a557600080fd5b813581811115620010b557600080fd5b876020828501011115620010c857600080fd5b6020830194508093505050509250925092565b6020808252602c908201527f46756e6374696f6e206d7573742062652063616c6c6564207468726f7567682060408201526b19195b1959d85d1958d85b1b60a21b606082015260800190565b6020808252602c908201527f46756e6374696f6e206d7573742062652063616c6c6564207468726f7567682060408201526b6163746976652070726f787960a01b606082015260800190565b634e487b7160e01b600052601160045260246000fd5b600061ffff808316818516808303821115620011a957620011a962001173565b01949350505050565b60008219821115620011c857620011c862001173565b500190565b600082601f830112620011df57600080fd5b8135602067ffffffffffffffff821115620011fe57620011fe62000f3c565b8160051b6200120f82820162000f52565b92835284810182019282810190878511156200122a57600080fd5b83870192505b8483101562001256578235620012468162000f06565b8252918301919083019062001230565b979650505050505050565b600080600080600080600060e0888a0312156200127d57600080fd5b87356200128a8162000f06565b965060208801356200129c8162000f06565b955060408801359450606088013593506080880135925060a088013567ffffffffffffffff80821115620012cf57600080fd5b818a0191508a601f830112620012e457600080fd5b620012f58b83356020850162000f86565b935060c08a01359150808211156200130c57600080fd5b506200131b8a828b01620011cd565b91505092959891949750929550565b600061010080830160018060a01b03808d1685526020818d1681870152818c1660408701528a60608701528960808701528860a08701528760c08701528360e0870152829350865180845261012087019450818801935060005b81811015620013a457845184168652948201949382019360010162001384565b50939e9d5050505050505050505050505050565b60005b83811015620013d5578181015183820152602001620013bb565b8381111562000d1c5750506000910152565b6000815180845262001401816020860160208601620013b8565b601f01601f19169290920160200192915050565b6001600160a01b038316815260406020820181905260009062000ec390830184620013e7565b6000602082840312156200144e57600080fd5b815162000dc18162000f06565b600060018060a01b03808a1683528089166020840152508660408301528560608301528460808301528360a083015260e060c0830152620014a060e0830184620013e7565b9998505050505050505050565b600060208284031215620014c057600080fd5b5051919050565b6020808252602b908201527f496e697469616c697a61626c653a20636f6e7472616374206973206e6f74206960408201526a6e697469616c697a696e6760a81b606082015260800190565b6000825162001526818460208701620013b8565b9190910192915050565b60208152600062000dc16020830184620013e756fe60806040526040516107333803806107338339810160408190526100229161031e565b61002e82826000610035565b505061043b565b61003e8361006b565b60008251118061004b5750805b156100665761006483836100ab60201b6100291760201c565b505b505050565b610074816100d7565b6040516001600160a01b038216907fbc7cd75a20ee27fd9adebab32041f755214dbc6bffa90cc0225b39da2e5c2d3b90600090a250565b60606100d0838360405180606001604052806027815260200161070c602791396101a9565b9392505050565b6100ea8161022260201b6100551760201c565b6101515760405162461bcd60e51b815260206004820152602d60248201527f455243313936373a206e657720696d706c656d656e746174696f6e206973206e60448201526c1bdd08184818dbdb9d1c9858dd609a1b60648201526084015b60405180910390fd5b806101887f360894a13ba1a3210667c828492db98dca3e2076cc3735a920a3ca505d382bbc60001b61023160201b6100641760201c565b80546001600160a01b0319166001600160a01b039290921691909117905550565b6060600080856001600160a01b0316856040516101c691906103ec565b600060405180830381855af49150503d8060008114610201576040519150601f19603f3d011682016040523d82523d6000602084013e610206565b606091505b50909250905061021886838387610234565b9695505050505050565b6001600160a01b03163b151590565b90565b606083156102a0578251610299576001600160a01b0385163b6102995760405162461bcd60e51b815260206004820152601d60248201527f416464726573733a2063616c6c20746f206e6f6e2d636f6e74726163740000006044820152606401610148565b50816102aa565b6102aa83836102b2565b949350505050565b8151156102c25781518083602001fd5b8060405162461bcd60e51b81526004016101489190610408565b634e487b7160e01b600052604160045260246000fd5b60005b8381101561030d5781810151838201526020016102f5565b838111156100645750506000910152565b6000806040838503121561033157600080fd5b82516001600160a01b038116811461034857600080fd5b60208401519092506001600160401b038082111561036557600080fd5b818501915085601f83011261037957600080fd5b81518181111561038b5761038b6102dc565b604051601f8201601f19908116603f011681019083821181831017156103b3576103b36102dc565b816040528281528860208487010111156103cc57600080fd5b6103dd8360208301602088016102f2565b80955050505050509250929050565b600082516103fe8184602087016102f2565b9190910192915050565b60208152600082518060208401526104278160408501602087016102f2565b601f01601f19169190910160400192915050565b6102c28061044a6000396000f3fe60806040523661001357610011610017565b005b6100115b610027610022610067565b61009f565b565b606061004e8383604051806060016040528060278152602001610266602791396100c3565b9392505050565b6001600160a01b03163b151590565b90565b600061009a7f360894a13ba1a3210667c828492db98dca3e2076cc3735a920a3ca505d382bbc546001600160a01b031690565b905090565b3660008037600080366000845af43d6000803e8080156100be573d6000f35b3d6000fd5b6060600080856001600160a01b0316856040516100e09190610216565b600060405180830381855af49150503d806000811461011b576040519150601f19603f3d011682016040523d82523d6000602084013e610120565b606091505b50915091506101318683838761013b565b9695505050505050565b606083156101aa5782516101a35761015285610055565b6101a35760405162461bcd60e51b815260206004820152601d60248201527f416464726573733a2063616c6c20746f206e6f6e2d636f6e747261637400000060448201526064015b60405180910390fd5b50816101b4565b6101b483836101bc565b949350505050565b8151156101cc5781518083602001fd5b8060405162461bcd60e51b815260040161019a9190610232565b60005b838110156102015781810151838201526020016101e9565b83811115610210576000848401525b50505050565b600082516102288184602087016101e6565b9190910192915050565b60208152600082518060208401526102518160408501602087016101e6565b601f01601f1916919091016040019291505056fe416464726573733a206c6f772d6c6576656c2064656c65676174652063616c6c206661696c6564a2646970667358221220b0e68f1a4a8b2a87647f69ae480fc6171b2734a850d60040e35bfd0bd0c1569564736f6c634300080c0033416464726573733a206c6f772d6c6576656c2064656c65676174652063616c6c206661696c6564360894a13ba1a3210667c828492db98dca3e2076cc3735a920a3ca505d382bbc416464726573733a206c6f772d6c6576656c2064656c65676174652063616c6c206661696c6564a2646970667358221220145d01306b1e10e1a4094e5e92572994b45db4484357076f50c86626cce3370064736f6c634300080c0033",
  "devdoc": {
    "events": {
      "SummonComplete(address,address,address,address,uint256,uint256,uint256,uint256,string)": {
        "params": {
          "baal": "Baal contract address",
          "id": "Id of the campaign",
          "name": "Name of the campaign",
          "pricePerUnit": "Raw amount of ERC20 required per accounting unit (USD)",
          "shaman": "Shaman contract address",
          "target": "Target amount of accounting unit to be raised",
          "token": "ERC20 token address",
          "tokensPerUnit": "Amount of tokens issued per accounting unit (USD)",
          "userRegistry": "UserRegistry contract address"
        }
      }
    },
    "kind": "dev",
    "methods": {
      "constructor": {
        "custom:oz-upgrades-unsafe-allow": "constructor"
      },
      "owner()": {
        "details": "Returns the address of the current owner."
      },
      "proxiableUUID()": {
        "details": "Implementation of the ERC1822 {proxiableUUID} function. This returns the storage slot used by the implementation. It is used to validate the implementation's compatibility when performing an upgrade. IMPORTANT: A proxy pointing at a proxiable contract should not be considered proxiable itself, because this risks bricking a proxy that upgrades to it, by delegating to itself until out of gas. Thus it is critical that this function revert if invoked through a proxy. This is guaranteed by the `notDelegated` modifier."
      },
      "renounceOwnership()": {
        "details": "Leaves the contract without owner. It will not be possible to call `onlyOwner` functions. Can only be called by the current owner. NOTE: Renouncing ownership will leave the contract without an owner, thereby disabling any functionality that is only available to the owner."
      },
      "summonDeVoxShaman(address,bytes)": {
        "details": "_initializationParams has the form:      (address _token, address _userRegistry, uint256 _pricePerUnit, uint256 _tokensPerUnit, uint256 _target, string _name)",
        "params": {
          "_baal": "BaaL contract address",
          "_initializationParams": "Shaman initialization parameters"
        }
      },
      "transferOwnership(address)": {
        "details": "Transfers ownership of the contract to a new account (`newOwner`). Can only be called by the current owner."
      },
      "updateVersion()": {
        "details": "onlyOwner"
      },
      "upgradeTo(address)": {
        "custom:oz-upgrades-unsafe-allow-reachable": "delegatecall",
        "details": "Upgrade the implementation of the proxy to `newImplementation`. Calls {_authorizeUpgrade}. Emits an {Upgraded} event."
      },
      "upgradeToAndCall(address,bytes)": {
        "custom:oz-upgrades-unsafe-allow-reachable": "delegatecall",
        "details": "Upgrade the implementation of the proxy to `newImplementation`, and subsequently execute the function call encoded in `data`. Calls {_authorizeUpgrade}. Emits an {Upgraded} event."
      }
    },
    "version": 1
  },
  "userdoc": {
    "events": {
      "SummonComplete(address,address,address,address,uint256,uint256,uint256,uint256,string)": {
        "notice": "emitted when a new shaman is summoned"
      }
    },
    "kind": "user",
    "methods": {
      "constructor": {
        "notice": "Contract constructor logic"
      },
      "initialize(address)": {
        "notice": "Contract initialization logic"
      },
      "summonDeVoxShaman(address,bytes)": {
        "notice": "Summon new DeVox Shaman"
      },
      "updateVersion()": {
        "notice": "Update the contract version number"
      },
      "version()": {
        "notice": "gets the current version of the contract"
      }
    },
    "version": 1
  },
  "storageLayout": {
    "storage": [
      {
        "astId": 912,
        "contract": "contracts/shaman/DeVoxShamanSummonerV1.sol:DeVoxShamanSummonerV1",
        "label": "_initialized",
        "offset": 0,
        "slot": "0",
        "type": "t_uint8"
      },
      {
        "astId": 915,
        "contract": "contracts/shaman/DeVoxShamanSummonerV1.sol:DeVoxShamanSummonerV1",
        "label": "_initializing",
        "offset": 1,
        "slot": "0",
        "type": "t_bool"
      },
      {
        "astId": 1665,
        "contract": "contracts/shaman/DeVoxShamanSummonerV1.sol:DeVoxShamanSummonerV1",
        "label": "__gap",
        "offset": 0,
        "slot": "1",
        "type": "t_array(t_uint256)50_storage"
      },
      {
        "astId": 419,
        "contract": "contracts/shaman/DeVoxShamanSummonerV1.sol:DeVoxShamanSummonerV1",
        "label": "_owner",
        "offset": 0,
        "slot": "51",
        "type": "t_address"
      },
      {
        "astId": 539,
        "contract": "contracts/shaman/DeVoxShamanSummonerV1.sol:DeVoxShamanSummonerV1",
        "label": "__gap",
        "offset": 0,
        "slot": "52",
        "type": "t_array(t_uint256)49_storage"
      },
      {
        "astId": 894,
        "contract": "contracts/shaman/DeVoxShamanSummonerV1.sol:DeVoxShamanSummonerV1",
        "label": "__gap",
        "offset": 0,
        "slot": "101",
        "type": "t_array(t_uint256)50_storage"
      },
      {
        "astId": 1209,
        "contract": "contracts/shaman/DeVoxShamanSummonerV1.sol:DeVoxShamanSummonerV1",
        "label": "__gap",
        "offset": 0,
        "slot": "151",
        "type": "t_array(t_uint256)50_storage"
      },
      {
        "astId": 4202,
        "contract": "contracts/shaman/DeVoxShamanSummonerV1.sol:DeVoxShamanSummonerV1",
        "label": "_version",
        "offset": 0,
        "slot": "201",
        "type": "t_uint16"
      },
      {
        "astId": 4205,
        "contract": "contracts/shaman/DeVoxShamanSummonerV1.sol:DeVoxShamanSummonerV1",
        "label": "_id",
        "offset": 0,
        "slot": "202",
        "type": "t_uint256"
      },
      {
        "astId": 4207,
        "contract": "contracts/shaman/DeVoxShamanSummonerV1.sol:DeVoxShamanSummonerV1",
        "label": "template",
        "offset": 0,
        "slot": "203",
        "type": "t_address_payable"
      }
    ],
    "types": {
      "t_address": {
        "encoding": "inplace",
        "label": "address",
        "numberOfBytes": "20"
      },
      "t_address_payable": {
        "encoding": "inplace",
        "label": "address payable",
        "numberOfBytes": "20"
      },
      "t_array(t_uint256)49_storage": {
        "base": "t_uint256",
        "encoding": "inplace",
        "label": "uint256[49]",
        "numberOfBytes": "1568"
      },
      "t_array(t_uint256)50_storage": {
        "base": "t_uint256",
        "encoding": "inplace",
        "label": "uint256[50]",
        "numberOfBytes": "1600"
      },
      "t_bool": {
        "encoding": "inplace",
        "label": "bool",
        "numberOfBytes": "1"
      },
      "t_uint16": {
        "encoding": "inplace",
        "label": "uint16",
        "numberOfBytes": "2"
      },
      "t_uint256": {
        "encoding": "inplace",
        "label": "uint256",
        "numberOfBytes": "32"
      },
      "t_uint8": {
        "encoding": "inplace",
        "label": "uint8",
        "numberOfBytes": "1"
      }
    }
  }
}