{
  "address": "0x0B306BF915C4d645ff596e518fAf3F9669b97016",
  "abi": [
    {
      "inputs": [],
      "stateMutability": "nonpayable",
      "type": "constructor"
    },
    {
      "anonymous": false,
      "inputs": [
        {
          "indexed": false,
          "internalType": "address",
          "name": "previousAdmin",
          "type": "address"
        },
        {
          "indexed": false,
          "internalType": "address",
          "name": "newAdmin",
          "type": "address"
        }
      ],
      "name": "AdminChanged",
      "type": "event"
    },
    {
      "anonymous": false,
      "inputs": [
        {
          "indexed": true,
          "internalType": "address",
          "name": "beacon",
          "type": "address"
        }
      ],
      "name": "BeaconUpgraded",
      "type": "event"
    },
    {
      "anonymous": false,
      "inputs": [
        {
          "indexed": false,
          "internalType": "uint8",
          "name": "version",
          "type": "uint8"
        }
      ],
      "name": "Initialized",
      "type": "event"
    },
    {
      "anonymous": false,
      "inputs": [
        {
          "indexed": true,
          "internalType": "address",
          "name": "previousOwner",
          "type": "address"
        },
        {
          "indexed": true,
          "internalType": "address",
          "name": "newOwner",
          "type": "address"
        }
      ],
      "name": "OwnershipTransferred",
      "type": "event"
    },
    {
      "anonymous": false,
      "inputs": [
        {
          "indexed": true,
          "internalType": "address",
          "name": "baal",
          "type": "address"
        },
        {
          "indexed": false,
          "internalType": "address",
          "name": "shaman",
          "type": "address"
        },
        {
          "indexed": false,
          "internalType": "address",
          "name": "token",
          "type": "address"
        },
        {
          "indexed": false,
          "internalType": "uint256",
          "name": "pricePerUnit",
          "type": "uint256"
        },
        {
          "indexed": false,
          "internalType": "uint256",
          "name": "lootPerUnit",
          "type": "uint256"
        },
        {
          "indexed": false,
          "internalType": "uint256",
          "name": "sharesPerMember",
          "type": "uint256"
        },
        {
          "indexed": false,
          "internalType": "uint256",
          "name": "target",
          "type": "uint256"
        }
      ],
      "name": "SummonComplete",
      "type": "event"
    },
    {
      "anonymous": false,
      "inputs": [
        {
          "indexed": true,
          "internalType": "address",
          "name": "implementation",
          "type": "address"
        }
      ],
      "name": "Upgraded",
      "type": "event"
    },
    {
      "inputs": [
        {
          "internalType": "address payable",
          "name": "_template",
          "type": "address"
        }
      ],
      "name": "initialize",
      "outputs": [],
      "stateMutability": "nonpayable",
      "type": "function"
    },
    {
      "inputs": [],
      "name": "owner",
      "outputs": [
        {
          "internalType": "address",
          "name": "",
          "type": "address"
        }
      ],
      "stateMutability": "view",
      "type": "function"
    },
    {
      "inputs": [],
      "name": "proxiableUUID",
      "outputs": [
        {
          "internalType": "bytes32",
          "name": "",
          "type": "bytes32"
        }
      ],
      "stateMutability": "view",
      "type": "function"
    },
    {
      "inputs": [],
      "name": "renounceOwnership",
      "outputs": [],
      "stateMutability": "nonpayable",
      "type": "function"
    },
    {
      "inputs": [
        {
          "internalType": "address",
          "name": "_moloch",
          "type": "address"
        },
        {
          "internalType": "address payable",
          "name": "_token",
          "type": "address"
        },
        {
          "internalType": "uint256",
          "name": "_pricePerUnit",
          "type": "uint256"
        },
        {
          "internalType": "uint256",
          "name": "_lootPerUnit",
          "type": "uint256"
        },
        {
          "internalType": "uint256",
          "name": "_sharesPerMember",
          "type": "uint256"
        },
        {
          "internalType": "uint256",
          "name": "_target",
          "type": "uint256"
        }
      ],
      "name": "summonDeVoxShaman",
      "outputs": [
        {
          "internalType": "address",
          "name": "",
          "type": "address"
        }
      ],
      "stateMutability": "nonpayable",
      "type": "function"
    },
    {
      "inputs": [],
      "name": "template",
      "outputs": [
        {
          "internalType": "address payable",
          "name": "",
          "type": "address"
        }
      ],
      "stateMutability": "view",
      "type": "function"
    },
    {
      "inputs": [
        {
          "internalType": "address",
          "name": "newOwner",
          "type": "address"
        }
      ],
      "name": "transferOwnership",
      "outputs": [],
      "stateMutability": "nonpayable",
      "type": "function"
    },
    {
      "inputs": [],
      "name": "updateVersion",
      "outputs": [],
      "stateMutability": "nonpayable",
      "type": "function"
    },
    {
      "inputs": [
        {
          "internalType": "address",
          "name": "newImplementation",
          "type": "address"
        }
      ],
      "name": "upgradeTo",
      "outputs": [],
      "stateMutability": "nonpayable",
      "type": "function"
    },
    {
      "inputs": [
        {
          "internalType": "address",
          "name": "newImplementation",
          "type": "address"
        },
        {
          "internalType": "bytes",
          "name": "data",
          "type": "bytes"
        }
      ],
      "name": "upgradeToAndCall",
      "outputs": [],
      "stateMutability": "payable",
      "type": "function"
    },
    {
      "inputs": [],
      "name": "version",
      "outputs": [
        {
          "internalType": "uint256",
          "name": "",
          "type": "uint256"
        }
      ],
      "stateMutability": "view",
      "type": "function"
    }
  ],
  "numDeployments": 1,
  "solcInputHash": "1d13235a91f824b1e88a57247a153e5c",
  "bytecode": "0x60a06040523060805234801561001457600080fd5b5061001d610022565b6100e2565b600054610100900460ff161561008e5760405162461bcd60e51b815260206004820152602760248201527f496e697469616c697a61626c653a20636f6e747261637420697320696e697469604482015266616c697a696e6760c81b606482015260840160405180910390fd5b60005460ff90811610156100e0576000805460ff191660ff9081179091556040519081527f7f26b83ff96e1f2b6a682f133852f6798a09c465da95921460cefb38474024989060200160405180910390a15b565b6080516110846101196000396000818161020801528181610251015281816103180152818161035801526103d401526110846000f3fe60806040526004361061009c5760003560e01c80636f2ddd93116100645780636f2ddd931461012c578063715018a61461016a578063869958681461017f5780638da5cb5b1461019f578063c4d66de8146101bd578063f2fde38b146101dd57600080fd5b80633659cfe6146100a157806348c02dc1146100c35780634f1ef286146100d857806352d1902d146100eb57806354fd4d5014610113575b600080fd5b3480156100ad57600080fd5b506100c16100bc366004610cd6565b6101fd565b005b3480156100cf57600080fd5b506100c16102cf565b6100c16100e6366004610d09565b61030d565b3480156100f757600080fd5b506101006103c7565b6040519081526020015b60405180910390f35b34801561011f57600080fd5b5060c95461ffff16610100565b34801561013857600080fd5b5060c954610152906201000090046001600160a01b031681565b6040516001600160a01b03909116815260200161010a565b34801561017657600080fd5b506100c1610475565b34801561018b57600080fd5b5061015261019a366004610dcd565b610489565b3480156101ab57600080fd5b506033546001600160a01b0316610152565b3480156101c957600080fd5b506100c16101d8366004610cd6565b61056b565b3480156101e957600080fd5b506100c16101f8366004610cd6565b6106a6565b306001600160a01b037f000000000000000000000000000000000000000000000000000000000000000016141561024f5760405162461bcd60e51b815260040161024690610e26565b60405180910390fd5b7f00000000000000000000000000000000000000000000000000000000000000006001600160a01b031661028161071c565b6001600160a01b0316146102a75760405162461bcd60e51b815260040161024690610e72565b6102b081610738565b604080516000808252602082019092526102cc91839190610740565b50565b6102d76108b0565b60c98054600191906000906102f190849061ffff16610ebe565b92506101000a81548161ffff021916908361ffff160217905550565b306001600160a01b037f00000000000000000000000000000000000000000000000000000000000000001614156103565760405162461bcd60e51b815260040161024690610e26565b7f00000000000000000000000000000000000000000000000000000000000000006001600160a01b031661038861071c565b6001600160a01b0316146103ae5760405162461bcd60e51b815260040161024690610e72565b6103b782610738565b6103c382826001610740565b5050565b6000306001600160a01b037f000000000000000000000000000000000000000000000000000000000000000016146104625760405162461bcd60e51b815260206004820152603860248201527f555550535570677261646561626c653a206d757374206e6f742062652063616c6044820152771b1959081d1a1c9bdd59da0819195b1959d85d1958d85b1b60421b6064820152608401610246565b5060008051602061100883398151915290565b61047d6108b0565b610487600061090a565b565b6000806104aa60c960029054906101000a90046001600160a01b031661095c565b6040516386489ba960e01b81529091506001600160a01b038216906386489ba9906104e3908b908b908b908b908b908b90600401610ef2565b600060405180830381600087803b1580156104fd57600080fd5b505af1158015610511573d6000803e3d6000fd5b50505050876001600160a01b03167f7d7f93c5540138a00b2c06b0fe37e26d70430c3686af6632233946d9b040b78682898989898960405161055896959493929190610ef2565b60405180910390a2979650505050505050565b600054610100900460ff161580801561058b5750600054600160ff909116105b806105a55750303b1580156105a5575060005460ff166001145b6106085760405162461bcd60e51b815260206004820152602e60248201527f496e697469616c697a61626c653a20636f6e747261637420697320616c72656160448201526d191e481a5b9a5d1a585b1a5e995960921b6064820152608401610246565b6000805460ff19166001179055801561062b576000805461ff0019166101001790555b6106336109f6565b61063b610a25565b60c9805462010000600160b01b031916620100006001600160a01b0385160217905580156103c3576000805461ff0019169055604051600181527f7f26b83ff96e1f2b6a682f133852f6798a09c465da95921460cefb38474024989060200160405180910390a15050565b6106ae6108b0565b6001600160a01b0381166107135760405162461bcd60e51b815260206004820152602660248201527f4f776e61626c653a206e6577206f776e657220697320746865207a65726f206160448201526564647265737360d01b6064820152608401610246565b6102cc8161090a565b600080516020611008833981519152546001600160a01b031690565b6102cc6108b0565b7f4910fdfa16fed3260ed0e7147f7cc6da11a60208b5b9406d12a635614ffd91435460ff16156107785761077383610a4c565b505050565b826001600160a01b03166352d1902d6040518163ffffffff1660e01b8152600401602060405180830381865afa9250505080156107d2575060408051601f3d908101601f191682019092526107cf91810190610f28565b60015b6108355760405162461bcd60e51b815260206004820152602e60248201527f45524331393637557067726164653a206e657720696d706c656d656e7461746960448201526d6f6e206973206e6f74205555505360901b6064820152608401610246565b60008051602061100883398151915281146108a45760405162461bcd60e51b815260206004820152602960248201527f45524331393637557067726164653a20756e737570706f727465642070726f786044820152681a58589b195555525160ba1b6064820152608401610246565b50610773838383610ae8565b6033546001600160a01b031633146104875760405162461bcd60e51b815260206004820181905260248201527f4f776e61626c653a2063616c6c6572206973206e6f7420746865206f776e65726044820152606401610246565b603380546001600160a01b038381166001600160a01b0319831681179093556040519116919082907f8be0079c531659141344cd1fd0a4f28419497f9722a3daafe3b4186f6b6457e090600090a35050565b6000763d602d80600a3d3981f3363d3d373d3d3d363d730000008260601b60e81c176000526e5af43d82803e903d91602b57fd5bf38260781b17602052603760096000f090506001600160a01b0381166109f15760405162461bcd60e51b8152602060048201526016602482015275115490cc4c4d8dce8818dc99585d194819985a5b195960521b6044820152606401610246565b919050565b600054610100900460ff16610a1d5760405162461bcd60e51b815260040161024690610f41565b610487610b13565b600054610100900460ff166104875760405162461bcd60e51b815260040161024690610f41565b6001600160a01b0381163b610ab95760405162461bcd60e51b815260206004820152602d60248201527f455243313936373a206e657720696d706c656d656e746174696f6e206973206e60448201526c1bdd08184818dbdb9d1c9858dd609a1b6064820152608401610246565b60008051602061100883398151915280546001600160a01b0319166001600160a01b0392909216919091179055565b610af183610b43565b600082511180610afe5750805b1561077357610b0d8383610b83565b50505050565b600054610100900460ff16610b3a5760405162461bcd60e51b815260040161024690610f41565b6104873361090a565b610b4c81610a4c565b6040516001600160a01b038216907fbc7cd75a20ee27fd9adebab32041f755214dbc6bffa90cc0225b39da2e5c2d3b90600090a250565b60606001600160a01b0383163b610beb5760405162461bcd60e51b815260206004820152602660248201527f416464726573733a2064656c65676174652063616c6c20746f206e6f6e2d636f6044820152651b9d1c9858dd60d21b6064820152608401610246565b600080846001600160a01b031684604051610c069190610fb8565b600060405180830381855af49150503d8060008114610c41576040519150601f19603f3d011682016040523d82523d6000602084013e610c46565b606091505b5091509150610c6e828260405180606001604052806027815260200161102860279139610c77565b95945050505050565b60608315610c86575081610c90565b610c908383610c97565b9392505050565b815115610ca75781518083602001fd5b8060405162461bcd60e51b81526004016102469190610fd4565b6001600160a01b03811681146102cc57600080fd5b600060208284031215610ce857600080fd5b8135610c9081610cc1565b634e487b7160e01b600052604160045260246000fd5b60008060408385031215610d1c57600080fd5b8235610d2781610cc1565b9150602083013567ffffffffffffffff80821115610d4457600080fd5b818501915085601f830112610d5857600080fd5b813581811115610d6a57610d6a610cf3565b604051601f8201601f19908116603f01168101908382118183101715610d9257610d92610cf3565b81604052828152886020848701011115610dab57600080fd5b8260208601602083013760006020848301015280955050505050509250929050565b60008060008060008060c08789031215610de657600080fd5b8635610df181610cc1565b95506020870135610e0181610cc1565b95989597505050506040840135936060810135936080820135935060a0909101359150565b6020808252602c908201527f46756e6374696f6e206d7573742062652063616c6c6564207468726f7567682060408201526b19195b1959d85d1958d85b1b60a21b606082015260800190565b6020808252602c908201527f46756e6374696f6e206d7573742062652063616c6c6564207468726f7567682060408201526b6163746976652070726f787960a01b606082015260800190565b600061ffff808316818516808303821115610ee957634e487b7160e01b600052601160045260246000fd5b01949350505050565b6001600160a01b03968716815294909516602085015260408401929092526060830152608082015260a081019190915260c00190565b600060208284031215610f3a57600080fd5b5051919050565b6020808252602b908201527f496e697469616c697a61626c653a20636f6e7472616374206973206e6f74206960408201526a6e697469616c697a696e6760a81b606082015260800190565b60005b83811015610fa7578181015183820152602001610f8f565b83811115610b0d5750506000910152565b60008251610fca818460208701610f8c565b9190910192915050565b6020815260008251806020840152610ff3816040850160208701610f8c565b601f01601f1916919091016040019291505056fe360894a13ba1a3210667c828492db98dca3e2076cc3735a920a3ca505d382bbc416464726573733a206c6f772d6c6576656c2064656c65676174652063616c6c206661696c6564a2646970667358221220477cf0921b819e23b61f1335a8e36c03c7e3e85320de89dc00906dd6d62188ce64736f6c634300080c0033",
  "devdoc": {
    "kind": "dev",
    "methods": {
      "constructor": {
        "custom:oz-upgrades-unsafe-allow": "constructor"
      },
      "owner()": {
        "details": "Returns the address of the current owner."
      },
      "proxiableUUID()": {
        "details": "Implementation of the ERC1822 {proxiableUUID} function. This returns the storage slot used by the implementation. It is used to validate the implementation's compatibility when performing an upgrade. IMPORTANT: A proxy pointing at a proxiable contract should not be considered proxiable itself, because this risks bricking a proxy that upgrades to it, by delegating to itself until out of gas. Thus it is critical that this function revert if invoked through a proxy. This is guaranteed by the `notDelegated` modifier."
      },
      "renounceOwnership()": {
        "details": "Leaves the contract without owner. It will not be possible to call `onlyOwner` functions anymore. Can only be called by the current owner. NOTE: Renouncing ownership will leave the contract without an owner, thereby removing any functionality that is only available to the owner."
      },
      "transferOwnership(address)": {
        "details": "Transfers ownership of the contract to a new account (`newOwner`). Can only be called by the current owner."
      },
      "updateVersion()": {
        "details": "onlyOwner"
      },
      "upgradeTo(address)": {
        "details": "Upgrade the implementation of the proxy to `newImplementation`. Calls {_authorizeUpgrade}. Emits an {Upgraded} event."
      },
      "upgradeToAndCall(address,bytes)": {
        "details": "Upgrade the implementation of the proxy to `newImplementation`, and subsequently execute the function call encoded in `data`. Calls {_authorizeUpgrade}. Emits an {Upgraded} event."
      }
    },
    "version": 1
  },
  "userdoc": {
    "kind": "user",
    "methods": {
      "constructor": {
        "notice": "Contract constructor logic"
      },
      "initialize(address)": {
        "notice": "Contract initialization logic"
      },
      "updateVersion()": {
        "notice": "Update the contract version number"
      },
      "version()": {
        "notice": "gets the current version of the contract"
      }
    },
    "version": 1
  },
  "storageLayout": {
    "storage": [
      {
        "astId": 4510,
        "contract": "contracts/shaman/DeVoxShamanSummonerV1.sol:DeVoxShamanSummonerV1",
        "label": "_initialized",
        "offset": 0,
        "slot": "0",
        "type": "t_uint8"
      },
      {
        "astId": 4513,
        "contract": "contracts/shaman/DeVoxShamanSummonerV1.sol:DeVoxShamanSummonerV1",
        "label": "_initializing",
        "offset": 1,
        "slot": "0",
        "type": "t_bool"
      },
      {
        "astId": 6779,
        "contract": "contracts/shaman/DeVoxShamanSummonerV1.sol:DeVoxShamanSummonerV1",
        "label": "__gap",
        "offset": 0,
        "slot": "1",
        "type": "t_array(t_uint256)50_storage"
      },
      {
        "astId": 3986,
        "contract": "contracts/shaman/DeVoxShamanSummonerV1.sol:DeVoxShamanSummonerV1",
        "label": "_owner",
        "offset": 0,
        "slot": "51",
        "type": "t_address"
      },
      {
        "astId": 4106,
        "contract": "contracts/shaman/DeVoxShamanSummonerV1.sol:DeVoxShamanSummonerV1",
        "label": "__gap",
        "offset": 0,
        "slot": "52",
        "type": "t_array(t_uint256)49_storage"
      },
      {
        "astId": 4492,
        "contract": "contracts/shaman/DeVoxShamanSummonerV1.sol:DeVoxShamanSummonerV1",
        "label": "__gap",
        "offset": 0,
        "slot": "101",
        "type": "t_array(t_uint256)50_storage"
      },
      {
        "astId": 4807,
        "contract": "contracts/shaman/DeVoxShamanSummonerV1.sol:DeVoxShamanSummonerV1",
        "label": "__gap",
        "offset": 0,
        "slot": "151",
        "type": "t_array(t_uint256)50_storage"
      },
      {
        "astId": 16868,
        "contract": "contracts/shaman/DeVoxShamanSummonerV1.sol:DeVoxShamanSummonerV1",
        "label": "_version",
        "offset": 0,
        "slot": "201",
        "type": "t_uint16"
      },
      {
        "astId": 16870,
        "contract": "contracts/shaman/DeVoxShamanSummonerV1.sol:DeVoxShamanSummonerV1",
        "label": "template",
        "offset": 2,
        "slot": "201",
        "type": "t_address_payable"
      }
    ],
    "types": {
      "t_address": {
        "encoding": "inplace",
        "label": "address",
        "numberOfBytes": "20"
      },
      "t_address_payable": {
        "encoding": "inplace",
        "label": "address payable",
        "numberOfBytes": "20"
      },
      "t_array(t_uint256)49_storage": {
        "base": "t_uint256",
        "encoding": "inplace",
        "label": "uint256[49]",
        "numberOfBytes": "1568"
      },
      "t_array(t_uint256)50_storage": {
        "base": "t_uint256",
        "encoding": "inplace",
        "label": "uint256[50]",
        "numberOfBytes": "1600"
      },
      "t_bool": {
        "encoding": "inplace",
        "label": "bool",
        "numberOfBytes": "1"
      },
      "t_uint16": {
        "encoding": "inplace",
        "label": "uint16",
        "numberOfBytes": "2"
      },
      "t_uint256": {
        "encoding": "inplace",
        "label": "uint256",
        "numberOfBytes": "32"
      },
      "t_uint8": {
        "encoding": "inplace",
        "label": "uint8",
        "numberOfBytes": "1"
      }
    }
  }
}