{
  "address": "0x0165878A594ca255338adfa4d48449f69242Eb8F",
  "abi": [
    {
      "anonymous": false,
      "inputs": [
        {
          "indexed": false,
          "internalType": "contract GnosisSafeProxy",
          "name": "proxy",
          "type": "address"
        },
        {
          "indexed": false,
          "internalType": "address",
          "name": "singleton",
          "type": "address"
        }
      ],
      "name": "ProxyCreation",
      "type": "event"
    },
    {
      "inputs": [
        {
          "internalType": "address",
          "name": "_singleton",
          "type": "address"
        },
        {
          "internalType": "bytes",
          "name": "initializer",
          "type": "bytes"
        },
        {
          "internalType": "uint256",
          "name": "saltNonce",
          "type": "uint256"
        }
      ],
      "name": "calculateCreateProxyWithNonceAddress",
      "outputs": [
        {
          "internalType": "contract GnosisSafeProxy",
          "name": "proxy",
          "type": "address"
        }
      ],
      "stateMutability": "nonpayable",
      "type": "function"
    },
    {
      "inputs": [
        {
          "internalType": "address",
          "name": "singleton",
          "type": "address"
        },
        {
          "internalType": "bytes",
          "name": "data",
          "type": "bytes"
        }
      ],
      "name": "createProxy",
      "outputs": [
        {
          "internalType": "contract GnosisSafeProxy",
          "name": "proxy",
          "type": "address"
        }
      ],
      "stateMutability": "nonpayable",
      "type": "function"
    },
    {
      "inputs": [
        {
          "internalType": "address",
          "name": "_singleton",
          "type": "address"
        },
        {
          "internalType": "bytes",
          "name": "initializer",
          "type": "bytes"
        },
        {
          "internalType": "uint256",
          "name": "saltNonce",
          "type": "uint256"
        },
        {
          "internalType": "contract IProxyCreationCallback",
          "name": "callback",
          "type": "address"
        }
      ],
      "name": "createProxyWithCallback",
      "outputs": [
        {
          "internalType": "contract GnosisSafeProxy",
          "name": "proxy",
          "type": "address"
        }
      ],
      "stateMutability": "nonpayable",
      "type": "function"
    },
    {
      "inputs": [
        {
          "internalType": "address",
          "name": "_singleton",
          "type": "address"
        },
        {
          "internalType": "bytes",
          "name": "initializer",
          "type": "bytes"
        },
        {
          "internalType": "uint256",
          "name": "saltNonce",
          "type": "uint256"
        }
      ],
      "name": "createProxyWithNonce",
      "outputs": [
        {
          "internalType": "contract GnosisSafeProxy",
          "name": "proxy",
          "type": "address"
        }
      ],
      "stateMutability": "nonpayable",
      "type": "function"
    },
    {
      "inputs": [],
      "name": "proxyCreationCode",
      "outputs": [
        {
          "internalType": "bytes",
          "name": "",
          "type": "bytes"
        }
      ],
      "stateMutability": "pure",
      "type": "function"
    },
    {
      "inputs": [],
      "name": "proxyRuntimeCode",
      "outputs": [
        {
          "internalType": "bytes",
          "name": "",
          "type": "bytes"
        }
      ],
      "stateMutability": "pure",
      "type": "function"
    }
  ],
  "transactionHash": "0xb4f16630e409a992325c80a6f60000ef9ce2c7350860194ae44edafd7d152567",
  "args": [],
  "numDeployments": 1,
  "solcInputHash": "a722f036a06895fe5bf5ae5ceae3865a",
  "bytecode": "0x608060405234801561001057600080fd5b50610a0d806100206000396000f3fe608060405234801561001057600080fd5b50600436106100625760003560e01c80631688f0b9146100675780632500510e1461009757806353e5d935146100aa57806361b69abd146100bf578063addacc0f146100d2578063d18af54d146100da575b600080fd5b61007a610075366004610573565b6100ed565b6040516001600160a01b0390911681526020015b60405180910390f35b61007a6100a53660046105cc565b610169565b6100b26101f9565b60405161008e91906106b3565b61007a6100cd3660046106cd565b610223565b6100b26102cd565b61007a6100e836600461071d565b6102df565b60006100fa8484846103b0565b83519091501561011f5760008060008551602087016000865af1141561011f57600080fd5b604080516001600160a01b038084168252861660208201527f4f51faf6c4561ff95f067657e43439f0f856d97c04d9ec9070a6199ad418e235910160405180910390a19392505050565b60006101ad8585858080601f0160208091040260200160405190810160405280939291908181526020018383808284376000920191909152508792506103b0915050565b6040516001600160601b0319606083901b16602082015290915060340160408051601f198184030181529082905262461bcd60e51b82526101f0916004016106b3565b60405180910390fd5b60606040518060200161020b9061049f565b601f1982820381018352601f90910116604052919050565b6000826040516102329061049f565b6001600160a01b039091168152602001604051809103906000f08015801561025e573d6000803e3d6000fd5b508251909150156102845760008060008451602086016000865af1141561028457600080fd5b604080516001600160a01b038084168252851660208201527f4f51faf6c4561ff95f067657e43439f0f856d97c04d9ec9070a6199ad418e235910160405180910390a192915050565b60606040518060200161020b906104ac565b600080838360405160200161030b92919091825260601b6001600160601b031916602082015260340190565b6040516020818303038152906040528051906020012060001c90506103318686836100ed565b91506001600160a01b038316156103a7576040516303ca56a360e31b81526001600160a01b03841690631e52b518906103749085908a908a908a90600401610789565b600060405180830381600087803b15801561038e57600080fd5b505af11580156103a2573d6000803e3d6000fd5b505050505b50949350505050565b6000808380519060200120836040516020016103d6929190918252602082015260400190565b6040516020818303038152906040528051906020012090506000604051806020016104009061049f565b601f1982820381018352601f90910116604081905261042d91906001600160a01b038916906020016107c6565b6040516020818303038152906040529050818151826020016000f592506001600160a01b0383166104965760405162461bcd60e51b815260206004820152601360248201527210dc99585d194c8818d85b1b0819985a5b1959606a1b60448201526064016101f0565b50509392505050565b610173806107e983390190565b607c8061095c83390190565b6001600160a01b03811681146104cd57600080fd5b50565b634e487b7160e01b600052604160045260246000fd5b600082601f8301126104f757600080fd5b813567ffffffffffffffff80821115610512576105126104d0565b604051601f8301601f19908116603f0116810190828211818310171561053a5761053a6104d0565b8160405283815286602085880101111561055357600080fd5b836020870160208301376000602085830101528094505050505092915050565b60008060006060848603121561058857600080fd5b8335610593816104b8565b9250602084013567ffffffffffffffff8111156105af57600080fd5b6105bb868287016104e6565b925050604084013590509250925092565b600080600080606085870312156105e257600080fd5b84356105ed816104b8565b9350602085013567ffffffffffffffff8082111561060a57600080fd5b818701915087601f83011261061e57600080fd5b81358181111561062d57600080fd5b88602082850101111561063f57600080fd5b95986020929092019750949560400135945092505050565b60005b8381101561067257818101518382015260200161065a565b83811115610681576000848401525b50505050565b6000815180845261069f816020860160208601610657565b601f01601f19169290920160200192915050565b6020815260006106c66020830184610687565b9392505050565b600080604083850312156106e057600080fd5b82356106eb816104b8565b9150602083013567ffffffffffffffff81111561070757600080fd5b610713858286016104e6565b9150509250929050565b6000806000806080858703121561073357600080fd5b843561073e816104b8565b9350602085013567ffffffffffffffff81111561075a57600080fd5b610766878288016104e6565b93505060408501359150606085013561077e816104b8565b939692955090935050565b6001600160a01b038581168252841660208201526080604082018190526000906107b590830185610687565b905082606083015295945050505050565b600083516107d8818460208801610657565b919091019182525060200191905056fe608060405234801561001057600080fd5b5060405161017338038061017383398101604081905261002f916100b9565b6001600160a01b0381166100945760405162461bcd60e51b815260206004820152602260248201527f496e76616c69642073696e676c65746f6e20616464726573732070726f766964604482015261195960f21b606482015260840160405180910390fd5b600080546001600160a01b0319166001600160a01b03929092169190911790556100e9565b6000602082840312156100cb57600080fd5b81516001600160a01b03811681146100e257600080fd5b9392505050565b607c806100f76000396000f3fe6080604052600080546001600160a01b0316813563530ca43760e11b1415602857808252602082f35b3682833781823684845af490503d82833e806041573d82fd5b503d81f3fea2646970667358221220f058567ca2b4f2ca030ee3d39aec5caabeb8fbe9379f588b19437c0008d242eb64736f6c634300080c00336080604052600080546001600160a01b0316813563530ca43760e11b1415602857808252602082f35b3682833781823684845af490503d82833e806041573d82fd5b503d81f3fea2646970667358221220f058567ca2b4f2ca030ee3d39aec5caabeb8fbe9379f588b19437c0008d242eb64736f6c634300080c0033a264697066735822122005b4f5890bf932c25d41c7f8297972b00f3a98a4400f041d79f831ac23545e7f64736f6c634300080c0033",
  "devdoc": {
    "author": "Stefan George - <stefan@gnosis.pm>",
    "kind": "dev",
    "methods": {
      "calculateCreateProxyWithNonceAddress(address,bytes,uint256)": {
        "details": "Allows to get the address for a new proxy contact created via `createProxyWithNonce`      This method is only meant for address calculation purpose when you use an initializer that would revert,      therefore the response is returned with a revert. When calling this method set `from` to the address of the proxy factory.",
        "params": {
          "_singleton": "Address of singleton contract.",
          "initializer": "Payload for message call sent to new proxy contract.",
          "saltNonce": "Nonce that will be used to generate the salt to calculate the address of the new proxy contract."
        }
      },
      "createProxy(address,bytes)": {
        "details": "Allows to create new proxy contact and execute a message call to the new proxy within one transaction.",
        "params": {
          "data": "Payload for message call sent to new proxy contract.",
          "singleton": "Address of singleton contract."
        }
      },
      "createProxyWithCallback(address,bytes,uint256,address)": {
        "details": "Allows to create new proxy contact, execute a message call to the new proxy and call a specified callback within one transaction",
        "params": {
          "_singleton": "Address of singleton contract.",
          "callback": "Callback that will be invoced after the new proxy contract has been successfully deployed and initialized.",
          "initializer": "Payload for message call sent to new proxy contract.",
          "saltNonce": "Nonce that will be used to generate the salt to calculate the address of the new proxy contract."
        }
      },
      "createProxyWithNonce(address,bytes,uint256)": {
        "details": "Allows to create new proxy contact and execute a message call to the new proxy within one transaction.",
        "params": {
          "_singleton": "Address of singleton contract.",
          "initializer": "Payload for message call sent to new proxy contract.",
          "saltNonce": "Nonce that will be used to generate the salt to calculate the address of the new proxy contract."
        }
      },
      "proxyCreationCode()": {
        "details": "Allows to retrieve the creation code used for the Proxy deployment. With this it is easily possible to calculate predicted address."
      },
      "proxyRuntimeCode()": {
        "details": "Allows to retrieve the runtime code of a deployed Proxy. This can be used to check that the expected Proxy was deployed."
      }
    },
    "title": "Proxy Factory - Allows to create new proxy contact and execute a message call to the new proxy within one transaction.",
    "version": 1
  },
  "userdoc": {
    "kind": "user",
    "methods": {},
    "version": 1
  },
  "storageLayout": {
    "storage": [],
    "types": null
  }
}