{
  "address": "0x5FbDB2315678afecb367f032d93F642f64180aa3",
  "abi": [
    {
      "inputs": [],
      "stateMutability": "nonpayable",
      "type": "constructor"
    },
    {
      "anonymous": false,
      "inputs": [
        {
          "indexed": false,
          "internalType": "address",
          "name": "previousAdmin",
          "type": "address"
        },
        {
          "indexed": false,
          "internalType": "address",
          "name": "newAdmin",
          "type": "address"
        }
      ],
      "name": "AdminChanged",
      "type": "event"
    },
    {
      "anonymous": false,
      "inputs": [
        {
          "indexed": true,
          "internalType": "address",
          "name": "owner",
          "type": "address"
        },
        {
          "indexed": true,
          "internalType": "address",
          "name": "spender",
          "type": "address"
        },
        {
          "indexed": false,
          "internalType": "uint256",
          "name": "value",
          "type": "uint256"
        }
      ],
      "name": "Approval",
      "type": "event"
    },
    {
      "anonymous": false,
      "inputs": [
        {
          "indexed": true,
          "internalType": "address",
          "name": "beacon",
          "type": "address"
        }
      ],
      "name": "BeaconUpgraded",
      "type": "event"
    },
    {
      "anonymous": false,
      "inputs": [],
      "name": "EIP712DomainChanged",
      "type": "event"
    },
    {
      "anonymous": false,
      "inputs": [
        {
          "indexed": false,
          "internalType": "uint8",
          "name": "version",
          "type": "uint8"
        }
      ],
      "name": "Initialized",
      "type": "event"
    },
    {
      "anonymous": false,
      "inputs": [
        {
          "indexed": true,
          "internalType": "address",
          "name": "previousOwner",
          "type": "address"
        },
        {
          "indexed": true,
          "internalType": "address",
          "name": "newOwner",
          "type": "address"
        }
      ],
      "name": "OwnershipTransferred",
      "type": "event"
    },
    {
      "anonymous": false,
      "inputs": [
        {
          "indexed": false,
          "internalType": "address",
          "name": "account",
          "type": "address"
        }
      ],
      "name": "Paused",
      "type": "event"
    },
    {
      "anonymous": false,
      "inputs": [
        {
          "indexed": false,
          "internalType": "uint256",
          "name": "id",
          "type": "uint256"
        }
      ],
      "name": "Snapshot",
      "type": "event"
    },
    {
      "anonymous": false,
      "inputs": [
        {
          "indexed": true,
          "internalType": "address",
          "name": "from",
          "type": "address"
        },
        {
          "indexed": true,
          "internalType": "address",
          "name": "to",
          "type": "address"
        },
        {
          "indexed": false,
          "internalType": "uint256",
          "name": "value",
          "type": "uint256"
        }
      ],
      "name": "Transfer",
      "type": "event"
    },
    {
      "anonymous": false,
      "inputs": [
        {
          "indexed": false,
          "internalType": "address",
          "name": "account",
          "type": "address"
        }
      ],
      "name": "Unpaused",
      "type": "event"
    },
    {
      "anonymous": false,
      "inputs": [
        {
          "indexed": true,
          "internalType": "address",
          "name": "implementation",
          "type": "address"
        }
      ],
      "name": "Upgraded",
      "type": "event"
    },
    {
      "inputs": [],
      "name": "DOMAIN_SEPARATOR",
      "outputs": [
        {
          "internalType": "bytes32",
          "name": "",
          "type": "bytes32"
        }
      ],
      "stateMutability": "view",
      "type": "function"
    },
    {
      "inputs": [
        {
          "internalType": "address",
          "name": "owner",
          "type": "address"
        },
        {
          "internalType": "address",
          "name": "spender",
          "type": "address"
        }
      ],
      "name": "allowance",
      "outputs": [
        {
          "internalType": "uint256",
          "name": "",
          "type": "uint256"
        }
      ],
      "stateMutability": "view",
      "type": "function"
    },
    {
      "inputs": [
        {
          "internalType": "address",
          "name": "spender",
          "type": "address"
        },
        {
          "internalType": "uint256",
          "name": "amount",
          "type": "uint256"
        }
      ],
      "name": "approve",
      "outputs": [
        {
          "internalType": "bool",
          "name": "",
          "type": "bool"
        }
      ],
      "stateMutability": "nonpayable",
      "type": "function"
    },
    {
      "inputs": [
        {
          "internalType": "address",
          "name": "account",
          "type": "address"
        }
      ],
      "name": "balanceOf",
      "outputs": [
        {
          "internalType": "uint256",
          "name": "",
          "type": "uint256"
        }
      ],
      "stateMutability": "view",
      "type": "function"
    },
    {
      "inputs": [
        {
          "internalType": "address",
          "name": "account",
          "type": "address"
        },
        {
          "internalType": "uint256",
          "name": "snapshotId",
          "type": "uint256"
        }
      ],
      "name": "balanceOfAt",
      "outputs": [
        {
          "internalType": "uint256",
          "name": "",
          "type": "uint256"
        }
      ],
      "stateMutability": "view",
      "type": "function"
    },
    {
      "inputs": [
        {
          "internalType": "address",
          "name": "account",
          "type": "address"
        },
        {
          "internalType": "uint256",
          "name": "amount",
          "type": "uint256"
        }
      ],
      "name": "burn",
      "outputs": [],
      "stateMutability": "nonpayable",
      "type": "function"
    },
    {
      "inputs": [],
      "name": "decimals",
      "outputs": [
        {
          "internalType": "uint8",
          "name": "",
          "type": "uint8"
        }
      ],
      "stateMutability": "view",
      "type": "function"
    },
    {
      "inputs": [
        {
          "internalType": "address",
          "name": "spender",
          "type": "address"
        },
        {
          "internalType": "uint256",
          "name": "subtractedValue",
          "type": "uint256"
        }
      ],
      "name": "decreaseAllowance",
      "outputs": [
        {
          "internalType": "bool",
          "name": "",
          "type": "bool"
        }
      ],
      "stateMutability": "nonpayable",
      "type": "function"
    },
    {
      "inputs": [],
      "name": "eip712Domain",
      "outputs": [
        {
          "internalType": "bytes1",
          "name": "fields",
          "type": "bytes1"
        },
        {
          "internalType": "string",
          "name": "name",
          "type": "string"
        },
        {
          "internalType": "string",
          "name": "version",
          "type": "string"
        },
        {
          "internalType": "uint256",
          "name": "chainId",
          "type": "uint256"
        },
        {
          "internalType": "address",
          "name": "verifyingContract",
          "type": "address"
        },
        {
          "internalType": "bytes32",
          "name": "salt",
          "type": "bytes32"
        },
        {
          "internalType": "uint256[]",
          "name": "extensions",
          "type": "uint256[]"
        }
      ],
      "stateMutability": "view",
      "type": "function"
    },
    {
      "inputs": [],
      "name": "getCurrentSnapshotId",
      "outputs": [
        {
          "internalType": "uint256",
          "name": "",
          "type": "uint256"
        }
      ],
      "stateMutability": "view",
      "type": "function"
    },
    {
      "inputs": [
        {
          "internalType": "address",
          "name": "spender",
          "type": "address"
        },
        {
          "internalType": "uint256",
          "name": "addedValue",
          "type": "uint256"
        }
      ],
      "name": "increaseAllowance",
      "outputs": [
        {
          "internalType": "bool",
          "name": "",
          "type": "bool"
        }
      ],
      "stateMutability": "nonpayable",
      "type": "function"
    },
    {
      "inputs": [
        {
          "internalType": "address",
          "name": "recipient",
          "type": "address"
        },
        {
          "internalType": "uint256",
          "name": "amount",
          "type": "uint256"
        }
      ],
      "name": "mint",
      "outputs": [],
      "stateMutability": "nonpayable",
      "type": "function"
    },
    {
      "inputs": [],
      "name": "name",
      "outputs": [
        {
          "internalType": "string",
          "name": "",
          "type": "string"
        }
      ],
      "stateMutability": "view",
      "type": "function"
    },
    {
      "inputs": [
        {
          "internalType": "address",
          "name": "owner",
          "type": "address"
        }
      ],
      "name": "nonces",
      "outputs": [
        {
          "internalType": "uint256",
          "name": "",
          "type": "uint256"
        }
      ],
      "stateMutability": "view",
      "type": "function"
    },
    {
      "inputs": [],
      "name": "owner",
      "outputs": [
        {
          "internalType": "address",
          "name": "",
          "type": "address"
        }
      ],
      "stateMutability": "view",
      "type": "function"
    },
    {
      "inputs": [],
      "name": "pause",
      "outputs": [],
      "stateMutability": "nonpayable",
      "type": "function"
    },
    {
      "inputs": [],
      "name": "paused",
      "outputs": [
        {
          "internalType": "bool",
          "name": "",
          "type": "bool"
        }
      ],
      "stateMutability": "view",
      "type": "function"
    },
    {
      "inputs": [
        {
          "internalType": "address",
          "name": "owner",
          "type": "address"
        },
        {
          "internalType": "address",
          "name": "spender",
          "type": "address"
        },
        {
          "internalType": "uint256",
          "name": "value",
          "type": "uint256"
        },
        {
          "internalType": "uint256",
          "name": "deadline",
          "type": "uint256"
        },
        {
          "internalType": "uint8",
          "name": "v",
          "type": "uint8"
        },
        {
          "internalType": "bytes32",
          "name": "r",
          "type": "bytes32"
        },
        {
          "internalType": "bytes32",
          "name": "s",
          "type": "bytes32"
        }
      ],
      "name": "permit",
      "outputs": [],
      "stateMutability": "nonpayable",
      "type": "function"
    },
    {
      "inputs": [],
      "name": "proxiableUUID",
      "outputs": [
        {
          "internalType": "bytes32",
          "name": "",
          "type": "bytes32"
        }
      ],
      "stateMutability": "view",
      "type": "function"
    },
    {
      "inputs": [],
      "name": "renounceOwnership",
      "outputs": [],
      "stateMutability": "nonpayable",
      "type": "function"
    },
    {
      "inputs": [
        {
          "internalType": "string",
          "name": "name_",
          "type": "string"
        },
        {
          "internalType": "string",
          "name": "symbol_",
          "type": "string"
        }
      ],
      "name": "setUp",
      "outputs": [],
      "stateMutability": "nonpayable",
      "type": "function"
    },
    {
      "inputs": [],
      "name": "snapshot",
      "outputs": [
        {
          "internalType": "uint256",
          "name": "",
          "type": "uint256"
        }
      ],
      "stateMutability": "nonpayable",
      "type": "function"
    },
    {
      "inputs": [],
      "name": "symbol",
      "outputs": [
        {
          "internalType": "string",
          "name": "",
          "type": "string"
        }
      ],
      "stateMutability": "view",
      "type": "function"
    },
    {
      "inputs": [],
      "name": "totalSupply",
      "outputs": [
        {
          "internalType": "uint256",
          "name": "",
          "type": "uint256"
        }
      ],
      "stateMutability": "view",
      "type": "function"
    },
    {
      "inputs": [
        {
          "internalType": "uint256",
          "name": "snapshotId",
          "type": "uint256"
        }
      ],
      "name": "totalSupplyAt",
      "outputs": [
        {
          "internalType": "uint256",
          "name": "",
          "type": "uint256"
        }
      ],
      "stateMutability": "view",
      "type": "function"
    },
    {
      "inputs": [
        {
          "internalType": "address",
          "name": "to",
          "type": "address"
        },
        {
          "internalType": "uint256",
          "name": "amount",
          "type": "uint256"
        }
      ],
      "name": "transfer",
      "outputs": [
        {
          "internalType": "bool",
          "name": "",
          "type": "bool"
        }
      ],
      "stateMutability": "nonpayable",
      "type": "function"
    },
    {
      "inputs": [
        {
          "internalType": "address",
          "name": "from",
          "type": "address"
        },
        {
          "internalType": "address",
          "name": "to",
          "type": "address"
        },
        {
          "internalType": "uint256",
          "name": "amount",
          "type": "uint256"
        }
      ],
      "name": "transferFrom",
      "outputs": [
        {
          "internalType": "bool",
          "name": "",
          "type": "bool"
        }
      ],
      "stateMutability": "nonpayable",
      "type": "function"
    },
    {
      "inputs": [
        {
          "internalType": "address",
          "name": "newOwner",
          "type": "address"
        }
      ],
      "name": "transferOwnership",
      "outputs": [],
      "stateMutability": "nonpayable",
      "type": "function"
    },
    {
      "inputs": [],
      "name": "unpause",
      "outputs": [],
      "stateMutability": "nonpayable",
      "type": "function"
    },
    {
      "inputs": [
        {
          "internalType": "address",
          "name": "newImplementation",
          "type": "address"
        }
      ],
      "name": "upgradeTo",
      "outputs": [],
      "stateMutability": "nonpayable",
      "type": "function"
    },
    {
      "inputs": [
        {
          "internalType": "address",
          "name": "newImplementation",
          "type": "address"
        },
        {
          "internalType": "bytes",
          "name": "data",
          "type": "bytes"
        }
      ],
      "name": "upgradeToAndCall",
      "outputs": [],
      "stateMutability": "payable",
      "type": "function"
    }
  ],
  "transactionHash": "0x0b32d94a48f9a8860a437915b9307bca8110e17971fff8a7868e14a585d94db7",
  "args": [],
  "numDeployments": 1,
  "solcInputHash": "2964c813bc496815d834a665b7d0cfd6",
  "bytecode": "0x60a0604052306080523480156200001557600080fd5b506200002062000026565b620000e7565b600054610100900460ff1615620000935760405162461bcd60e51b815260206004820152602760248201527f496e697469616c697a61626c653a20636f6e747261637420697320696e697469604482015266616c697a696e6760c81b606482015260840160405180910390fd5b60005460ff90811614620000e5576000805460ff191660ff9081179091556040519081527f7f26b83ff96e1f2b6a682f133852f6798a09c465da95921460cefb38474024989060200160405180910390a15b565b608051612a086200011f600039600081816106230152818161066c015281816107ec0152818161082c01526108a40152612a086000f3fe6080604052600436106101985760003560e01c80635c975abb116100e25780639711715a116100855780639711715a14610444578063981b24d0146104595780639dc29fac14610479578063a457c2d714610499578063a9059cbb146104b9578063d505accf146104d9578063dd62ed3e146104f9578063f2fde38b1461051957600080fd5b80635c975abb1461035c57806370a0823114610374578063715018a6146103945780637ecebe00146103a95780638456cb59146103c957806384b0196e146103de5780638da5cb5b1461040657806395d89b411461042f57600080fd5b8063395093511161014a578063395093511461028a5780633f4ba83a146102aa57806340c10f19146102bf5780634ee2cd7e146102df5780634f1ef286146102ff57806352d1902d146103125780635439ad8614610327578063562d190d1461033c57600080fd5b806306fdde031461019d578063095ea7b3146101c857806318160ddd146101f857806323b872dd14610217578063313ce567146102375780633644e515146102535780633659cfe614610268575b600080fd5b3480156101a957600080fd5b506101b2610539565b6040516101bf9190612423565b60405180910390f35b3480156101d457600080fd5b506101e86101e336600461244d565b6105cb565b60405190151581526020016101bf565b34801561020457600080fd5b506035545b6040519081526020016101bf565b34801561022357600080fd5b506101e8610232366004612477565b6105e5565b34801561024357600080fd5b50604051601281526020016101bf565b34801561025f57600080fd5b50610209610609565b34801561027457600080fd5b506102886102833660046124b3565b610618565b005b34801561029657600080fd5b506101e86102a536600461244d565b6106ea565b3480156102b657600080fd5b5061028861070c565b3480156102cb57600080fd5b506102886102da36600461244d565b61071e565b3480156102eb57600080fd5b506102096102fa36600461244d565b610798565b61028861030d36600461255a565b6107e1565b34801561031e57600080fd5b50610209610897565b34801561033357600080fd5b50610209610945565b34801561034857600080fd5b506102886103573660046125dc565b61094f565b34801561036857600080fd5b5060fe5460ff166101e8565b34801561038057600080fd5b5061020961038f3660046124b3565b610b11565b3480156103a057600080fd5b50610288610b2c565b3480156103b557600080fd5b506102096103c43660046124b3565b610b3e565b3480156103d557600080fd5b50610288610b5c565b3480156103ea57600080fd5b506103f3610b6c565b6040516101bf9796959493929190612636565b34801561041257600080fd5b50610130546040516001600160a01b0390911681526020016101bf565b34801561043b57600080fd5b506101b2610c0a565b34801561045057600080fd5b50610209610c19565b34801561046557600080fd5b506102096104743660046126cc565b610c2b565b34801561048557600080fd5b5061028861049436600461244d565b610c56565b3480156104a557600080fd5b506101e86104b436600461244d565b610c68565b3480156104c557600080fd5b506101e86104d436600461244d565b610ce3565b3480156104e557600080fd5b506102886104f43660046126e5565b610cf1565b34801561050557600080fd5b50610209610514366004612758565b610e55565b34801561052557600080fd5b506102886105343660046124b3565b610e80565b6060603680546105489061278b565b80601f01602080910402602001604051908101604052809291908181526020018280546105749061278b565b80156105c15780601f10610596576101008083540402835291602001916105c1565b820191906000526020600020905b8154815290600101906020018083116105a457829003601f168201915b5050505050905090565b6000336105d9818585610ef6565b60019150505b92915050565b6000336105f385828561101a565b6105fe858585611094565b506001949350505050565b6000610613611238565b905090565b306001600160a01b037f000000000000000000000000000000000000000000000000000000000000000016141561066a5760405162461bcd60e51b8152600401610661906127c0565b60405180910390fd5b7f00000000000000000000000000000000000000000000000000000000000000006001600160a01b031661069c611242565b6001600160a01b0316146106c25760405162461bcd60e51b81526004016106619061280c565b6106cb8161125e565b604080516000808252602082019092526106e791839190611266565b50565b6000336105d98185856106fd8383610e55565b610707919061286e565b610ef6565b6107146113d1565b61071c61142c565b565b6107266113d1565b6107336002600019612886565b8161073d60355490565b610747919061286e565b111561078a5760405162461bcd60e51b81526020600482015260126024820152711b1bdbdd0e8818d85c08195e18d95959195960721b6044820152606401610661565b610794828261147e565b5050565b6001600160a01b0382166000908152606560205260408120819081906107bf908590611539565b91509150816107d6576107d185610b11565b6107d8565b805b95945050505050565b306001600160a01b037f000000000000000000000000000000000000000000000000000000000000000016141561082a5760405162461bcd60e51b8152600401610661906127c0565b7f00000000000000000000000000000000000000000000000000000000000000006001600160a01b031661085c611242565b6001600160a01b0316146108825760405162461bcd60e51b81526004016106619061280c565b61088b8261125e565b61079482826001611266565b6000306001600160a01b037f000000000000000000000000000000000000000000000000000000000000000016146109325760405162461bcd60e51b815260206004820152603860248201527f555550535570677261646561626c653a206d757374206e6f742062652063616c6044820152771b1959081d1a1c9bdd59da0819195b1959d85d1958d85b1b60421b6064820152608401610661565b5060008051602061296c83398151915290565b6000610613611630565b600054610100900460ff161580801561096f5750600054600160ff909116105b806109895750303b158015610989575060005460ff166001145b6109ec5760405162461bcd60e51b815260206004820152602e60248201527f496e697469616c697a61626c653a20636f6e747261637420697320616c72656160448201526d191e481a5b9a5d1a585b1a5e995960921b6064820152608401610661565b6000805460ff191660011790558015610a0f576000805461ff0019166101001790555b8251610a505760405162461bcd60e51b815260206004820152601060248201526f6c6f6f743a206e616d6520656d70747960801b6044820152606401610661565b8151610a935760405162461bcd60e51b81526020600482015260126024820152716c6f6f743a2073796d626f6c20656d70747960701b6044820152606401610661565b610a9d838361163b565b610aa68361166c565b610aae6116b6565b610ab66116e5565b610abe61170c565b610ac66116e5565b8015610b0c576000805461ff0019169055604051600181527f7f26b83ff96e1f2b6a682f133852f6798a09c465da95921460cefb38474024989060200160405180910390a15b505050565b6001600160a01b031660009081526033602052604090205490565b610b346113d1565b61071c600061173b565b6001600160a01b038116600090815260cb60205260408120546105df565b610b646113d1565b61071c61178e565b6000606080600080600060606097546000801b148015610b8c5750609854155b610bd05760405162461bcd60e51b81526020600482015260156024820152741152540dcc4c8e88155b9a5b9a5d1a585b1a5e9959605a1b6044820152606401610661565b610bd86117cb565b610be06117da565b60408051600080825260208201909252600f60f81b9b939a50919850469750309650945092509050565b6060603780546105489061278b565b6000610c236113d1565b6106136117e9565b6000806000610c3b846066611539565b9150915081610c4c57603554610c4e565b805b949350505050565b610c5e6113d1565b6107948282611843565b60003381610c768286610e55565b905083811015610cd65760405162461bcd60e51b815260206004820152602560248201527f45524332303a2064656372656173656420616c6c6f77616e63652062656c6f77604482015264207a65726f60d81b6064820152608401610661565b6105fe8286868403610ef6565b6000336105d9818585611094565b83421115610d415760405162461bcd60e51b815260206004820152601d60248201527f45524332305065726d69743a206578706972656420646561646c696e650000006044820152606401610661565b60007f6e71edae12b1b97f4d1f60370fef10105fa2faae0126114a169c64845d6126c9888888610d708c611971565b6040805160208101969096526001600160a01b0394851690860152929091166060840152608083015260a082015260c0810186905260e0016040516020818303038152906040528051906020012090506000610dcb82611999565b90506000610ddb828787876119c6565b9050896001600160a01b0316816001600160a01b031614610e3e5760405162461bcd60e51b815260206004820152601e60248201527f45524332305065726d69743a20696e76616c6964207369676e617475726500006044820152606401610661565b610e498a8a8a610ef6565b50505050505050505050565b6001600160a01b03918216600090815260346020908152604080832093909416825291909152205490565b610e886113d1565b6001600160a01b038116610eed5760405162461bcd60e51b815260206004820152602660248201527f4f776e61626c653a206e6577206f776e657220697320746865207a65726f206160448201526564647265737360d01b6064820152608401610661565b6106e78161173b565b6001600160a01b038316610f585760405162461bcd60e51b8152602060048201526024808201527f45524332303a20617070726f76652066726f6d20746865207a65726f206164646044820152637265737360e01b6064820152608401610661565b6001600160a01b038216610fb95760405162461bcd60e51b815260206004820152602260248201527f45524332303a20617070726f766520746f20746865207a65726f206164647265604482015261737360f01b6064820152608401610661565b6001600160a01b0383811660008181526034602090815260408083209487168084529482529182902085905590518481527f8c5be1e5ebec7d5bd14f71427d1e84f3dd0314c0f7b2291e5b200ac8c7c3b925910160405180910390a3505050565b60006110268484610e55565b9050600019811461108e57818110156110815760405162461bcd60e51b815260206004820152601d60248201527f45524332303a20696e73756666696369656e7420616c6c6f77616e63650000006044820152606401610661565b61108e8484848403610ef6565b50505050565b6001600160a01b0383166110f85760405162461bcd60e51b815260206004820152602560248201527f45524332303a207472616e736665722066726f6d20746865207a65726f206164604482015264647265737360d81b6064820152608401610661565b6001600160a01b03821661115a5760405162461bcd60e51b815260206004820152602360248201527f45524332303a207472616e7366657220746f20746865207a65726f206164647260448201526265737360e81b6064820152608401610661565b6111658383836119ee565b6001600160a01b038316600090815260336020526040902054818110156111dd5760405162461bcd60e51b815260206004820152602660248201527f45524332303a207472616e7366657220616d6f756e7420657863656564732062604482015265616c616e636560d01b6064820152608401610661565b6001600160a01b0380851660008181526033602052604080822086860390559286168082529083902080548601905591516000805160206129b38339815191529061122b9086815260200190565b60405180910390a361108e565b6000610613611a7c565b60008051602061296c833981519152546001600160a01b031690565b6106e76113d1565b7f4910fdfa16fed3260ed0e7147f7cc6da11a60208b5b9406d12a635614ffd91435460ff161561129957610b0c83611af0565b826001600160a01b03166352d1902d6040518163ffffffff1660e01b8152600401602060405180830381865afa9250505080156112f3575060408051601f3d908101601f191682019092526112f0918101906128a8565b60015b6113565760405162461bcd60e51b815260206004820152602e60248201527f45524331393637557067726164653a206e657720696d706c656d656e7461746960448201526d6f6e206973206e6f74205555505360901b6064820152608401610661565b60008051602061296c83398151915281146113c55760405162461bcd60e51b815260206004820152602960248201527f45524331393637557067726164653a20756e737570706f727465642070726f786044820152681a58589b195555525160ba1b6064820152608401610661565b50610b0c838383611b8c565b610130546001600160a01b0316331461071c5760405162461bcd60e51b815260206004820181905260248201527f4f776e61626c653a2063616c6c6572206973206e6f7420746865206f776e65726044820152606401610661565b611434611bb1565b60fe805460ff191690557f5db9ee0a495bf2e6ff9c91a7834c1ba4fdd244a5e8aa4e537bd38aeae4b073aa335b6040516001600160a01b03909116815260200160405180910390a1565b6001600160a01b0382166114d45760405162461bcd60e51b815260206004820152601f60248201527f45524332303a206d696e7420746f20746865207a65726f2061646472657373006044820152606401610661565b6114e0600083836119ee565b80603560008282546114f2919061286e565b90915550506001600160a01b0382166000818152603360209081526040808320805486019055518481526000805160206129b3833981519152910160405180910390a35050565b600080600084116115855760405162461bcd60e51b815260206004820152601660248201527504552433230536e617073686f743a20696420697320360541b6044820152606401610661565b61158d611630565b8411156115dc5760405162461bcd60e51b815260206004820152601d60248201527f4552433230536e617073686f743a206e6f6e6578697374656e742069640000006044820152606401610661565b60006115e88486611bfa565b8454909150811415611601576000809250925050611629565b6001846001018281548110611618576116186128c1565b906000526020600020015492509250505b9250929050565b600061061360685490565b600054610100900460ff166116625760405162461bcd60e51b8152600401610661906128d7565b6107948282611ca5565b600054610100900460ff166116935760405162461bcd60e51b8152600401610661906128d7565b6106e781604051806040016040528060018152602001603160f81b815250611cf3565b600054610100900460ff166116dd5760405162461bcd60e51b8152600401610661906128d7565b61071c611d50565b600054610100900460ff1661071c5760405162461bcd60e51b8152600401610661906128d7565b600054610100900460ff166117335760405162461bcd60e51b8152600401610661906128d7565b61071c611d83565b61013080546001600160a01b038381166001600160a01b0319831681179093556040519116919082907f8be0079c531659141344cd1fd0a4f28419497f9722a3daafe3b4186f6b6457e090600090a35050565b611796611db3565b60fe805460ff191660011790557f62e78cea01bee320cd4e420270b5ea74000d11b0c9f74754ebdbfc544b05a2586114613390565b6060609980546105489061278b565b6060609a80546105489061278b565b60006117f9606880546001019055565b6000611803611630565b90507f8030e83b04d87bef53480e26263266d6ca66863aa8506aca6f2559d18aa1cb678160405161183691815260200190565b60405180910390a1919050565b6001600160a01b0382166118a35760405162461bcd60e51b815260206004820152602160248201527f45524332303a206275726e2066726f6d20746865207a65726f206164647265736044820152607360f81b6064820152608401610661565b6118af826000836119ee565b6001600160a01b038216600090815260336020526040902054818110156119235760405162461bcd60e51b815260206004820152602260248201527f45524332303a206275726e20616d6f756e7420657863656564732062616c616e604482015261636560f01b6064820152608401610661565b6001600160a01b03831660008181526033602090815260408083208686039055603580548790039055518581529192916000805160206129b3833981519152910160405180910390a3505050565b6001600160a01b038116600090815260cb602052604090208054600181018255905b50919050565b60006105df6119a6611238565b8360405161190160f01b8152600281019290925260228201526042902090565b60008060006119d787878787611df9565b915091506119e481611eb3565b5095945050505050565b6119f9838383611ffc565b6001600160a01b0383161580611a2c5750610130546001600160a01b031633148015611a2c57506001600160a01b038216155b80611a3a575060fe5460ff16155b610b0c5760405162461bcd60e51b81526020600482015260136024820152726c6f6f743a20217472616e7366657261626c6560681b6044820152606401610661565b60007f8b73c3c69bb8fe3d512ecc4cf759cc79239f7b179b0ffacaa9a75d522b39400f611aa7612044565b611aaf6120a1565b60408051602081019490945283019190915260608201524660808201523060a082015260c00160405160208183030381529060405280519060200120905090565b6001600160a01b0381163b611b5d5760405162461bcd60e51b815260206004820152602d60248201527f455243313936373a206e657720696d706c656d656e746174696f6e206973206e60448201526c1bdd08184818dbdb9d1c9858dd609a1b6064820152608401610661565b60008051602061296c83398151915280546001600160a01b0319166001600160a01b0392909216919091179055565b611b95836120d2565b600082511180611ba25750805b15610b0c5761108e8383612112565b60fe5460ff1661071c5760405162461bcd60e51b815260206004820152601460248201527314185d5cd8589b194e881b9bdd081c185d5cd95960621b6044820152606401610661565b8154600090611c0b575060006105df565b82546000905b80821015611c58576000611c25838361213e565b60008781526020902090915085908201541115611c4457809150611c52565b611c4f81600161286e565b92505b50611c11565b600082118015611c84575083611c8186611c73600186612922565b600091825260209091200190565b54145b15611c9d57611c94600183612922565b925050506105df565b5090506105df565b600054610100900460ff16611ccc5760405162461bcd60e51b8152600401610661906128d7565b8151611cdf90603690602085019061233b565b508051610b0c90603790602084019061233b565b600054610100900460ff16611d1a5760405162461bcd60e51b8152600401610661906128d7565b8151611d2d90609990602085019061233b565b508051611d4190609a90602084019061233b565b50506000609781905560985550565b600054610100900460ff16611d775760405162461bcd60e51b8152600401610661906128d7565b60fe805460ff19169055565b600054610100900460ff16611daa5760405162461bcd60e51b8152600401610661906128d7565b61071c3361173b565b60fe5460ff161561071c5760405162461bcd60e51b815260206004820152601060248201526f14185d5cd8589b194e881c185d5cd95960821b6044820152606401610661565b6000806fa2a8918ca85bafe22016d0b997e4df60600160ff1b03831115611e265750600090506003611eaa565b6040805160008082526020820180845289905260ff881692820192909252606081018690526080810185905260019060a0016020604051602081039080840390855afa158015611e7a573d6000803e3d6000fd5b5050604051601f1901519150506001600160a01b038116611ea357600060019250925050611eaa565b9150600090505b94509492505050565b6000816004811115611ec757611ec7612939565b1415611ed05750565b6001816004811115611ee457611ee4612939565b1415611f2d5760405162461bcd60e51b815260206004820152601860248201527745434453413a20696e76616c6964207369676e617475726560401b6044820152606401610661565b6002816004811115611f4157611f41612939565b1415611f8f5760405162461bcd60e51b815260206004820152601f60248201527f45434453413a20696e76616c6964207369676e6174757265206c656e677468006044820152606401610661565b6003816004811115611fa357611fa3612939565b14156106e75760405162461bcd60e51b815260206004820152602260248201527f45434453413a20696e76616c6964207369676e6174757265202773272076616c604482015261756560f01b6064820152608401610661565b6001600160a01b03831661201b5761201382612159565b610b0c612183565b6001600160a01b0382166120325761201383612159565b61203b83612159565b610b0c82612159565b60008061204f6117cb565b805190915015612066578051602090910120919050565b60975480156120755792915050565b7fc5d2460186f7233c927e7db2dcc703c0e500b653ca82273b7bfad8045d85a4709250505090565b5090565b6000806120ac6117da565b8051909150156120c3578051602090910120919050565b60985480156120755792915050565b6120db81611af0565b6040516001600160a01b038216907fbc7cd75a20ee27fd9adebab32041f755214dbc6bffa90cc0225b39da2e5c2d3b90600090a250565b6060612137838360405180606001604052806027815260200161298c60279139612191565b9392505050565b600061214d6002848418612886565b6121379084841661286e565b6001600160a01b03811660009081526065602052604090206106e79061217e83610b11565b612209565b61071c606661217e60355490565b6060600080856001600160a01b0316856040516121ae919061294f565b600060405180830381855af49150503d80600081146121e9576040519150601f19603f3d011682016040523d82523d6000602084013e6121ee565b606091505b50915091506121ff86838387612253565b9695505050505050565b6000612213611630565b90508061221f846122c9565b1015610b0c578254600180820185556000858152602080822090930193909355938401805494850181558252902090910155565b606083156122bf5782516122b8576001600160a01b0385163b6122b85760405162461bcd60e51b815260206004820152601d60248201527f416464726573733a2063616c6c20746f206e6f6e2d636f6e74726163740000006044820152606401610661565b5081610c4e565b610c4e8383612311565b80546000906122da57506000919050565b815482906122ea90600190612922565b815481106122fa576122fa6128c1565b90600052602060002001549050919050565b919050565b8151156123215781518083602001fd5b8060405162461bcd60e51b81526004016106619190612423565b8280546123479061278b565b90600052602060002090601f01602090048101928261236957600085556123af565b82601f1061238257805160ff19168380011785556123af565b828001600101855582156123af579182015b828111156123af578251825591602001919060010190612394565b5061209d9291505b8082111561209d57600081556001016123b7565b60005b838110156123e65781810151838201526020016123ce565b8381111561108e5750506000910152565b6000815180845261240f8160208601602086016123cb565b601f01601f19169290920160200192915050565b60208152600061213760208301846123f7565b80356001600160a01b038116811461230c57600080fd5b6000806040838503121561246057600080fd5b61246983612436565b946020939093013593505050565b60008060006060848603121561248c57600080fd5b61249584612436565b92506124a360208501612436565b9150604084013590509250925092565b6000602082840312156124c557600080fd5b61213782612436565b634e487b7160e01b600052604160045260246000fd5b600067ffffffffffffffff808411156124ff576124ff6124ce565b604051601f8501601f19908116603f01168101908282118183101715612527576125276124ce565b8160405280935085815286868601111561254057600080fd5b858560208301376000602087830101525050509392505050565b6000806040838503121561256d57600080fd5b61257683612436565b9150602083013567ffffffffffffffff81111561259257600080fd5b8301601f810185136125a357600080fd5b6125b2858235602084016124e4565b9150509250929050565b600082601f8301126125cd57600080fd5b612137838335602085016124e4565b600080604083850312156125ef57600080fd5b823567ffffffffffffffff8082111561260757600080fd5b612613868387016125bc565b9350602085013591508082111561262957600080fd5b506125b2858286016125bc565b60ff60f81b881681526000602060e08184015261265660e084018a6123f7565b8381036040850152612668818a6123f7565b606085018990526001600160a01b038816608086015260a0850187905284810360c0860152855180825283870192509083019060005b818110156126ba5783518352928401929184019160010161269e565b50909c9b505050505050505050505050565b6000602082840312156126de57600080fd5b5035919050565b600080600080600080600060e0888a03121561270057600080fd5b61270988612436565b965061271760208901612436565b95506040880135945060608801359350608088013560ff8116811461273b57600080fd5b9699959850939692959460a0840135945060c09093013592915050565b6000806040838503121561276b57600080fd5b61277483612436565b915061278260208401612436565b90509250929050565b600181811c9082168061279f57607f821691505b6020821081141561199357634e487b7160e01b600052602260045260246000fd5b6020808252602c908201527f46756e6374696f6e206d7573742062652063616c6c6564207468726f7567682060408201526b19195b1959d85d1958d85b1b60a21b606082015260800190565b6020808252602c908201527f46756e6374696f6e206d7573742062652063616c6c6564207468726f7567682060408201526b6163746976652070726f787960a01b606082015260800190565b634e487b7160e01b600052601160045260246000fd5b6000821982111561288157612881612858565b500190565b6000826128a357634e487b7160e01b600052601260045260246000fd5b500490565b6000602082840312156128ba57600080fd5b5051919050565b634e487b7160e01b600052603260045260246000fd5b6020808252602b908201527f496e697469616c697a61626c653a20636f6e7472616374206973206e6f74206960408201526a6e697469616c697a696e6760a81b606082015260800190565b60008282101561293457612934612858565b500390565b634e487b7160e01b600052602160045260246000fd5b600082516129618184602087016123cb565b919091019291505056fe360894a13ba1a3210667c828492db98dca3e2076cc3735a920a3ca505d382bbc416464726573733a206c6f772d6c6576656c2064656c65676174652063616c6c206661696c6564ddf252ad1be2c89b69c2b068fc378daa952ba7f163c4a11628f55a4df523b3efa26469706673582212201aac8ad9b1d3ae1bbef38a7f24c43862922afac195d536a86b28c8d160c6bc1864736f6c634300080c0033",
  "devdoc": {
    "kind": "dev",
    "methods": {
      "DOMAIN_SEPARATOR()": {
        "details": "See {IERC20Permit-DOMAIN_SEPARATOR}."
      },
      "allowance(address,address)": {
        "details": "See {IERC20-allowance}."
      },
      "approve(address,uint256)": {
        "details": "See {IERC20-approve}. NOTE: If `amount` is the maximum `uint256`, the allowance is not updated on `transferFrom`. This is semantically equivalent to an infinite approval. Requirements: - `spender` cannot be the zero address."
      },
      "balanceOf(address)": {
        "details": "See {IERC20-balanceOf}."
      },
      "balanceOfAt(address,uint256)": {
        "details": "Retrieves the balance of `account` at the time `snapshotId` was created."
      },
      "burn(address,uint256)": {
        "params": {
          "account": "Address to lose loot",
          "amount": "Amount to burn"
        }
      },
      "constructor": {
        "custom:oz-upgrades-unsafe-allow": "constructor"
      },
      "decimals()": {
        "details": "Returns the number of decimals used to get its user representation. For example, if `decimals` equals `2`, a balance of `505` tokens should be displayed to a user as `5.05` (`505 / 10 ** 2`). Tokens usually opt for a value of 18, imitating the relationship between Ether and Wei. This is the default value returned by this function, unless it's overridden. NOTE: This information is only used for _display_ purposes: it in no way affects any of the arithmetic of the contract, including {IERC20-balanceOf} and {IERC20-transfer}."
      },
      "decreaseAllowance(address,uint256)": {
        "details": "Atomically decreases the allowance granted to `spender` by the caller. This is an alternative to {approve} that can be used as a mitigation for problems described in {IERC20-approve}. Emits an {Approval} event indicating the updated allowance. Requirements: - `spender` cannot be the zero address. - `spender` must have allowance for the caller of at least `subtractedValue`."
      },
      "eip712Domain()": {
        "details": "See {EIP-5267}. _Available since v4.9._"
      },
      "increaseAllowance(address,uint256)": {
        "details": "Atomically increases the allowance granted to `spender` by the caller. This is an alternative to {approve} that can be used as a mitigation for problems described in {IERC20-approve}. Emits an {Approval} event indicating the updated allowance. Requirements: - `spender` cannot be the zero address."
      },
      "mint(address,uint256)": {
        "params": {
          "amount": "Amount to mint",
          "recipient": "Address to receive loot"
        }
      },
      "name()": {
        "details": "Returns the name of the token."
      },
      "nonces(address)": {
        "details": "See {IERC20Permit-nonces}."
      },
      "owner()": {
        "details": "Returns the address of the current owner."
      },
      "paused()": {
        "details": "Returns true if the contract is paused, and false otherwise."
      },
      "permit(address,address,uint256,uint256,uint8,bytes32,bytes32)": {
        "details": "See {IERC20Permit-permit}."
      },
      "proxiableUUID()": {
        "details": "Implementation of the ERC1822 {proxiableUUID} function. This returns the storage slot used by the implementation. It is used to validate the implementation's compatibility when performing an upgrade. IMPORTANT: A proxy pointing at a proxiable contract should not be considered proxiable itself, because this risks bricking a proxy that upgrades to it, by delegating to itself until out of gas. Thus it is critical that this function revert if invoked through a proxy. This is guaranteed by the `notDelegated` modifier."
      },
      "renounceOwnership()": {
        "details": "Leaves the contract without owner. It will not be possible to call `onlyOwner` functions. Can only be called by the current owner. NOTE: Renouncing ownership will leave the contract without an owner, thereby disabling any functionality that is only available to the owner."
      },
      "setUp(string,string)": {
        "details": "initializer should prevent this from being called again",
        "params": {
          "name_": "Name for ERC20 token trackers",
          "symbol_": "Symbol for ERC20 token trackers"
        }
      },
      "symbol()": {
        "details": "Returns the symbol of the token, usually a shorter version of the name."
      },
      "totalSupply()": {
        "details": "See {IERC20-totalSupply}."
      },
      "totalSupplyAt(uint256)": {
        "details": "Retrieves the total supply at the time `snapshotId` was created."
      },
      "transfer(address,uint256)": {
        "details": "See {IERC20-transfer}. Requirements: - `to` cannot be the zero address. - the caller must have a balance of at least `amount`."
      },
      "transferFrom(address,address,uint256)": {
        "details": "See {IERC20-transferFrom}. Emits an {Approval} event indicating the updated allowance. This is not required by the EIP. See the note at the beginning of {ERC20}. NOTE: Does not update the allowance if the current allowance is the maximum `uint256`. Requirements: - `from` and `to` cannot be the zero address. - `from` must have a balance of at least `amount`. - the caller must have allowance for ``from``'s tokens of at least `amount`."
      },
      "transferOwnership(address)": {
        "details": "Transfers ownership of the contract to a new account (`newOwner`). Can only be called by the current owner."
      },
      "upgradeTo(address)": {
        "custom:oz-upgrades-unsafe-allow-reachable": "delegatecall",
        "details": "Upgrade the implementation of the proxy to `newImplementation`. Calls {_authorizeUpgrade}. Emits an {Upgraded} event."
      },
      "upgradeToAndCall(address,bytes)": {
        "custom:oz-upgrades-unsafe-allow-reachable": "delegatecall",
        "details": "Upgrade the implementation of the proxy to `newImplementation`, and subsequently execute the function call encoded in `data`. Calls {_authorizeUpgrade}. Emits an {Upgraded} event."
      }
    },
    "version": 1
  },
  "userdoc": {
    "kind": "user",
    "methods": {
      "burn(address,uint256)": {
        "notice": "Baal-only function to burn loot."
      },
      "constructor": {
        "notice": "Contract constructor logic"
      },
      "getCurrentSnapshotId()": {
        "notice": "get current SnapshotId"
      },
      "mint(address,uint256)": {
        "notice": "Baal-only function to mint loot."
      },
      "pause()": {
        "notice": "Baal-only function to pause shares."
      },
      "setUp(string,string)": {
        "notice": "Configure loot - called by Baal on summon"
      },
      "snapshot()": {
        "notice": "Allows baal to create a snapshot"
      },
      "unpause()": {
        "notice": "Baal-only function to pause shares."
      }
    },
    "version": 1
  },
  "storageLayout": {
    "storage": [
      {
        "astId": 528,
        "contract": "contracts/fixtures/Baal/LootV1.sol:LootV1",
        "label": "_initialized",
        "offset": 0,
        "slot": "0",
        "type": "t_uint8"
      },
      {
        "astId": 531,
        "contract": "contracts/fixtures/Baal/LootV1.sol:LootV1",
        "label": "_initializing",
        "offset": 1,
        "slot": "0",
        "type": "t_bool"
      },
      {
        "astId": 2773,
        "contract": "contracts/fixtures/Baal/LootV1.sol:LootV1",
        "label": "__gap",
        "offset": 0,
        "slot": "1",
        "type": "t_array(t_uint256)50_storage"
      },
      {
        "astId": 972,
        "contract": "contracts/fixtures/Baal/LootV1.sol:LootV1",
        "label": "_balances",
        "offset": 0,
        "slot": "51",
        "type": "t_mapping(t_address,t_uint256)"
      },
      {
        "astId": 978,
        "contract": "contracts/fixtures/Baal/LootV1.sol:LootV1",
        "label": "_allowances",
        "offset": 0,
        "slot": "52",
        "type": "t_mapping(t_address,t_mapping(t_address,t_uint256))"
      },
      {
        "astId": 980,
        "contract": "contracts/fixtures/Baal/LootV1.sol:LootV1",
        "label": "_totalSupply",
        "offset": 0,
        "slot": "53",
        "type": "t_uint256"
      },
      {
        "astId": 982,
        "contract": "contracts/fixtures/Baal/LootV1.sol:LootV1",
        "label": "_name",
        "offset": 0,
        "slot": "54",
        "type": "t_string_storage"
      },
      {
        "astId": 984,
        "contract": "contracts/fixtures/Baal/LootV1.sol:LootV1",
        "label": "_symbol",
        "offset": 0,
        "slot": "55",
        "type": "t_string_storage"
      },
      {
        "astId": 1564,
        "contract": "contracts/fixtures/Baal/LootV1.sol:LootV1",
        "label": "__gap",
        "offset": 0,
        "slot": "56",
        "type": "t_array(t_uint256)45_storage"
      },
      {
        "astId": 1877,
        "contract": "contracts/fixtures/Baal/LootV1.sol:LootV1",
        "label": "_accountBalanceSnapshots",
        "offset": 0,
        "slot": "101",
        "type": "t_mapping(t_address,t_struct(Snapshots)1872_storage)"
      },
      {
        "astId": 1880,
        "contract": "contracts/fixtures/Baal/LootV1.sol:LootV1",
        "label": "_totalSupplySnapshots",
        "offset": 0,
        "slot": "102",
        "type": "t_struct(Snapshots)1872_storage"
      },
      {
        "astId": 1883,
        "contract": "contracts/fixtures/Baal/LootV1.sol:LootV1",
        "label": "_currentSnapshotId",
        "offset": 0,
        "slot": "104",
        "type": "t_struct(Counter)2780_storage"
      },
      {
        "astId": 2181,
        "contract": "contracts/fixtures/Baal/LootV1.sol:LootV1",
        "label": "__gap",
        "offset": 0,
        "slot": "105",
        "type": "t_array(t_uint256)46_storage"
      },
      {
        "astId": 3571,
        "contract": "contracts/fixtures/Baal/LootV1.sol:LootV1",
        "label": "_hashedName",
        "offset": 0,
        "slot": "151",
        "type": "t_bytes32"
      },
      {
        "astId": 3574,
        "contract": "contracts/fixtures/Baal/LootV1.sol:LootV1",
        "label": "_hashedVersion",
        "offset": 0,
        "slot": "152",
        "type": "t_bytes32"
      },
      {
        "astId": 3576,
        "contract": "contracts/fixtures/Baal/LootV1.sol:LootV1",
        "label": "_name",
        "offset": 0,
        "slot": "153",
        "type": "t_string_storage"
      },
      {
        "astId": 3578,
        "contract": "contracts/fixtures/Baal/LootV1.sol:LootV1",
        "label": "_version",
        "offset": 0,
        "slot": "154",
        "type": "t_string_storage"
      },
      {
        "astId": 3836,
        "contract": "contracts/fixtures/Baal/LootV1.sol:LootV1",
        "label": "__gap",
        "offset": 0,
        "slot": "155",
        "type": "t_array(t_uint256)48_storage"
      },
      {
        "astId": 1669,
        "contract": "contracts/fixtures/Baal/LootV1.sol:LootV1",
        "label": "_nonces",
        "offset": 0,
        "slot": "203",
        "type": "t_mapping(t_address,t_struct(Counter)2780_storage)"
      },
      {
        "astId": 1677,
        "contract": "contracts/fixtures/Baal/LootV1.sol:LootV1",
        "label": "_PERMIT_TYPEHASH_DEPRECATED_SLOT",
        "offset": 0,
        "slot": "204",
        "type": "t_bytes32"
      },
      {
        "astId": 1833,
        "contract": "contracts/fixtures/Baal/LootV1.sol:LootV1",
        "label": "__gap",
        "offset": 0,
        "slot": "205",
        "type": "t_array(t_uint256)49_storage"
      },
      {
        "astId": 847,
        "contract": "contracts/fixtures/Baal/LootV1.sol:LootV1",
        "label": "_paused",
        "offset": 0,
        "slot": "254",
        "type": "t_bool"
      },
      {
        "astId": 952,
        "contract": "contracts/fixtures/Baal/LootV1.sol:LootV1",
        "label": "__gap",
        "offset": 0,
        "slot": "255",
        "type": "t_array(t_uint256)49_storage"
      },
      {
        "astId": 10,
        "contract": "contracts/fixtures/Baal/LootV1.sol:LootV1",
        "label": "_owner",
        "offset": 0,
        "slot": "304",
        "type": "t_address"
      },
      {
        "astId": 130,
        "contract": "contracts/fixtures/Baal/LootV1.sol:LootV1",
        "label": "__gap",
        "offset": 0,
        "slot": "305",
        "type": "t_array(t_uint256)49_storage"
      },
      {
        "astId": 510,
        "contract": "contracts/fixtures/Baal/LootV1.sol:LootV1",
        "label": "__gap",
        "offset": 0,
        "slot": "354",
        "type": "t_array(t_uint256)50_storage"
      },
      {
        "astId": 825,
        "contract": "contracts/fixtures/Baal/LootV1.sol:LootV1",
        "label": "__gap",
        "offset": 0,
        "slot": "404",
        "type": "t_array(t_uint256)50_storage"
      }
    ],
    "types": {
      "t_address": {
        "encoding": "inplace",
        "label": "address",
        "numberOfBytes": "20"
      },
      "t_array(t_uint256)45_storage": {
        "base": "t_uint256",
        "encoding": "inplace",
        "label": "uint256[45]",
        "numberOfBytes": "1440"
      },
      "t_array(t_uint256)46_storage": {
        "base": "t_uint256",
        "encoding": "inplace",
        "label": "uint256[46]",
        "numberOfBytes": "1472"
      },
      "t_array(t_uint256)48_storage": {
        "base": "t_uint256",
        "encoding": "inplace",
        "label": "uint256[48]",
        "numberOfBytes": "1536"
      },
      "t_array(t_uint256)49_storage": {
        "base": "t_uint256",
        "encoding": "inplace",
        "label": "uint256[49]",
        "numberOfBytes": "1568"
      },
      "t_array(t_uint256)50_storage": {
        "base": "t_uint256",
        "encoding": "inplace",
        "label": "uint256[50]",
        "numberOfBytes": "1600"
      },
      "t_array(t_uint256)dyn_storage": {
        "base": "t_uint256",
        "encoding": "dynamic_array",
        "label": "uint256[]",
        "numberOfBytes": "32"
      },
      "t_bool": {
        "encoding": "inplace",
        "label": "bool",
        "numberOfBytes": "1"
      },
      "t_bytes32": {
        "encoding": "inplace",
        "label": "bytes32",
        "numberOfBytes": "32"
      },
      "t_mapping(t_address,t_mapping(t_address,t_uint256))": {
        "encoding": "mapping",
        "key": "t_address",
        "label": "mapping(address => mapping(address => uint256))",
        "numberOfBytes": "32",
        "value": "t_mapping(t_address,t_uint256)"
      },
      "t_mapping(t_address,t_struct(Counter)2780_storage)": {
        "encoding": "mapping",
        "key": "t_address",
        "label": "mapping(address => struct CountersUpgradeable.Counter)",
        "numberOfBytes": "32",
        "value": "t_struct(Counter)2780_storage"
      },
      "t_mapping(t_address,t_struct(Snapshots)1872_storage)": {
        "encoding": "mapping",
        "key": "t_address",
        "label": "mapping(address => struct ERC20SnapshotUpgradeable.Snapshots)",
        "numberOfBytes": "32",
        "value": "t_struct(Snapshots)1872_storage"
      },
      "t_mapping(t_address,t_uint256)": {
        "encoding": "mapping",
        "key": "t_address",
        "label": "mapping(address => uint256)",
        "numberOfBytes": "32",
        "value": "t_uint256"
      },
      "t_string_storage": {
        "encoding": "bytes",
        "label": "string",
        "numberOfBytes": "32"
      },
      "t_struct(Counter)2780_storage": {
        "encoding": "inplace",
        "label": "struct CountersUpgradeable.Counter",
        "members": [
          {
            "astId": 2779,
            "contract": "contracts/fixtures/Baal/LootV1.sol:LootV1",
            "label": "_value",
            "offset": 0,
            "slot": "0",
            "type": "t_uint256"
          }
        ],
        "numberOfBytes": "32"
      },
      "t_struct(Snapshots)1872_storage": {
        "encoding": "inplace",
        "label": "struct ERC20SnapshotUpgradeable.Snapshots",
        "members": [
          {
            "astId": 1868,
            "contract": "contracts/fixtures/Baal/LootV1.sol:LootV1",
            "label": "ids",
            "offset": 0,
            "slot": "0",
            "type": "t_array(t_uint256)dyn_storage"
          },
          {
            "astId": 1871,
            "contract": "contracts/fixtures/Baal/LootV1.sol:LootV1",
            "label": "values",
            "offset": 0,
            "slot": "1",
            "type": "t_array(t_uint256)dyn_storage"
          }
        ],
        "numberOfBytes": "64"
      },
      "t_uint256": {
        "encoding": "inplace",
        "label": "uint256",
        "numberOfBytes": "32"
      },
      "t_uint8": {
        "encoding": "inplace",
        "label": "uint8",
        "numberOfBytes": "1"
      }
    }
  }
}