{
  "address": "0x5FbDB2315678afecb367f032d93F642f64180aa3",
  "abi": [
    {
      "inputs": [],
      "stateMutability": "nonpayable",
      "type": "constructor"
    },
    {
      "anonymous": false,
      "inputs": [
        {
          "indexed": false,
          "internalType": "address",
          "name": "previousAdmin",
          "type": "address"
        },
        {
          "indexed": false,
          "internalType": "address",
          "name": "newAdmin",
          "type": "address"
        }
      ],
      "name": "AdminChanged",
      "type": "event"
    },
    {
      "anonymous": false,
      "inputs": [
        {
          "indexed": true,
          "internalType": "address",
          "name": "owner",
          "type": "address"
        },
        {
          "indexed": true,
          "internalType": "address",
          "name": "spender",
          "type": "address"
        },
        {
          "indexed": false,
          "internalType": "uint256",
          "name": "value",
          "type": "uint256"
        }
      ],
      "name": "Approval",
      "type": "event"
    },
    {
      "anonymous": false,
      "inputs": [
        {
          "indexed": true,
          "internalType": "address",
          "name": "beacon",
          "type": "address"
        }
      ],
      "name": "BeaconUpgraded",
      "type": "event"
    },
    {
      "anonymous": false,
      "inputs": [],
      "name": "EIP712DomainChanged",
      "type": "event"
    },
    {
      "anonymous": false,
      "inputs": [
        {
          "indexed": false,
          "internalType": "uint8",
          "name": "version",
          "type": "uint8"
        }
      ],
      "name": "Initialized",
      "type": "event"
    },
    {
      "anonymous": false,
      "inputs": [
        {
          "indexed": true,
          "internalType": "address",
          "name": "previousOwner",
          "type": "address"
        },
        {
          "indexed": true,
          "internalType": "address",
          "name": "newOwner",
          "type": "address"
        }
      ],
      "name": "OwnershipTransferred",
      "type": "event"
    },
    {
      "anonymous": false,
      "inputs": [
        {
          "indexed": false,
          "internalType": "address",
          "name": "account",
          "type": "address"
        }
      ],
      "name": "Paused",
      "type": "event"
    },
    {
      "anonymous": false,
      "inputs": [
        {
          "indexed": false,
          "internalType": "uint256",
          "name": "id",
          "type": "uint256"
        }
      ],
      "name": "Snapshot",
      "type": "event"
    },
    {
      "anonymous": false,
      "inputs": [
        {
          "indexed": true,
          "internalType": "address",
          "name": "from",
          "type": "address"
        },
        {
          "indexed": true,
          "internalType": "address",
          "name": "to",
          "type": "address"
        },
        {
          "indexed": false,
          "internalType": "uint256",
          "name": "value",
          "type": "uint256"
        }
      ],
      "name": "Transfer",
      "type": "event"
    },
    {
      "anonymous": false,
      "inputs": [
        {
          "indexed": false,
          "internalType": "address",
          "name": "account",
          "type": "address"
        }
      ],
      "name": "Unpaused",
      "type": "event"
    },
    {
      "anonymous": false,
      "inputs": [
        {
          "indexed": true,
          "internalType": "address",
          "name": "implementation",
          "type": "address"
        }
      ],
      "name": "Upgraded",
      "type": "event"
    },
    {
      "inputs": [],
      "name": "DOMAIN_SEPARATOR",
      "outputs": [
        {
          "internalType": "bytes32",
          "name": "",
          "type": "bytes32"
        }
      ],
      "stateMutability": "view",
      "type": "function"
    },
    {
      "inputs": [
        {
          "internalType": "address",
          "name": "owner",
          "type": "address"
        },
        {
          "internalType": "address",
          "name": "spender",
          "type": "address"
        }
      ],
      "name": "allowance",
      "outputs": [
        {
          "internalType": "uint256",
          "name": "",
          "type": "uint256"
        }
      ],
      "stateMutability": "view",
      "type": "function"
    },
    {
      "inputs": [
        {
          "internalType": "address",
          "name": "spender",
          "type": "address"
        },
        {
          "internalType": "uint256",
          "name": "amount",
          "type": "uint256"
        }
      ],
      "name": "approve",
      "outputs": [
        {
          "internalType": "bool",
          "name": "",
          "type": "bool"
        }
      ],
      "stateMutability": "nonpayable",
      "type": "function"
    },
    {
      "inputs": [
        {
          "internalType": "address",
          "name": "account",
          "type": "address"
        }
      ],
      "name": "balanceOf",
      "outputs": [
        {
          "internalType": "uint256",
          "name": "",
          "type": "uint256"
        }
      ],
      "stateMutability": "view",
      "type": "function"
    },
    {
      "inputs": [
        {
          "internalType": "address",
          "name": "account",
          "type": "address"
        },
        {
          "internalType": "uint256",
          "name": "snapshotId",
          "type": "uint256"
        }
      ],
      "name": "balanceOfAt",
      "outputs": [
        {
          "internalType": "uint256",
          "name": "",
          "type": "uint256"
        }
      ],
      "stateMutability": "view",
      "type": "function"
    },
    {
      "inputs": [
        {
          "internalType": "address",
          "name": "account",
          "type": "address"
        },
        {
          "internalType": "uint256",
          "name": "amount",
          "type": "uint256"
        }
      ],
      "name": "burn",
      "outputs": [],
      "stateMutability": "nonpayable",
      "type": "function"
    },
    {
      "inputs": [],
      "name": "decimals",
      "outputs": [
        {
          "internalType": "uint8",
          "name": "",
          "type": "uint8"
        }
      ],
      "stateMutability": "view",
      "type": "function"
    },
    {
      "inputs": [
        {
          "internalType": "address",
          "name": "spender",
          "type": "address"
        },
        {
          "internalType": "uint256",
          "name": "subtractedValue",
          "type": "uint256"
        }
      ],
      "name": "decreaseAllowance",
      "outputs": [
        {
          "internalType": "bool",
          "name": "",
          "type": "bool"
        }
      ],
      "stateMutability": "nonpayable",
      "type": "function"
    },
    {
      "inputs": [],
      "name": "eip712Domain",
      "outputs": [
        {
          "internalType": "bytes1",
          "name": "fields",
          "type": "bytes1"
        },
        {
          "internalType": "string",
          "name": "name",
          "type": "string"
        },
        {
          "internalType": "string",
          "name": "version",
          "type": "string"
        },
        {
          "internalType": "uint256",
          "name": "chainId",
          "type": "uint256"
        },
        {
          "internalType": "address",
          "name": "verifyingContract",
          "type": "address"
        },
        {
          "internalType": "bytes32",
          "name": "salt",
          "type": "bytes32"
        },
        {
          "internalType": "uint256[]",
          "name": "extensions",
          "type": "uint256[]"
        }
      ],
      "stateMutability": "view",
      "type": "function"
    },
    {
      "inputs": [
        {
          "internalType": "address",
          "name": "spender",
          "type": "address"
        },
        {
          "internalType": "uint256",
          "name": "addedValue",
          "type": "uint256"
        }
      ],
      "name": "increaseAllowance",
      "outputs": [
        {
          "internalType": "bool",
          "name": "",
          "type": "bool"
        }
      ],
      "stateMutability": "nonpayable",
      "type": "function"
    },
    {
      "inputs": [
        {
          "internalType": "address",
          "name": "recipient",
          "type": "address"
        },
        {
          "internalType": "uint256",
          "name": "amount",
          "type": "uint256"
        }
      ],
      "name": "mint",
      "outputs": [],
      "stateMutability": "nonpayable",
      "type": "function"
    },
    {
      "inputs": [],
      "name": "name",
      "outputs": [
        {
          "internalType": "string",
          "name": "",
          "type": "string"
        }
      ],
      "stateMutability": "view",
      "type": "function"
    },
    {
      "inputs": [
        {
          "internalType": "address",
          "name": "owner",
          "type": "address"
        }
      ],
      "name": "nonces",
      "outputs": [
        {
          "internalType": "uint256",
          "name": "",
          "type": "uint256"
        }
      ],
      "stateMutability": "view",
      "type": "function"
    },
    {
      "inputs": [],
      "name": "owner",
      "outputs": [
        {
          "internalType": "address",
          "name": "",
          "type": "address"
        }
      ],
      "stateMutability": "view",
      "type": "function"
    },
    {
      "inputs": [],
      "name": "pause",
      "outputs": [],
      "stateMutability": "nonpayable",
      "type": "function"
    },
    {
      "inputs": [],
      "name": "paused",
      "outputs": [
        {
          "internalType": "bool",
          "name": "",
          "type": "bool"
        }
      ],
      "stateMutability": "view",
      "type": "function"
    },
    {
      "inputs": [
        {
          "internalType": "address",
          "name": "owner",
          "type": "address"
        },
        {
          "internalType": "address",
          "name": "spender",
          "type": "address"
        },
        {
          "internalType": "uint256",
          "name": "value",
          "type": "uint256"
        },
        {
          "internalType": "uint256",
          "name": "deadline",
          "type": "uint256"
        },
        {
          "internalType": "uint8",
          "name": "v",
          "type": "uint8"
        },
        {
          "internalType": "bytes32",
          "name": "r",
          "type": "bytes32"
        },
        {
          "internalType": "bytes32",
          "name": "s",
          "type": "bytes32"
        }
      ],
      "name": "permit",
      "outputs": [],
      "stateMutability": "nonpayable",
      "type": "function"
    },
    {
      "inputs": [],
      "name": "proxiableUUID",
      "outputs": [
        {
          "internalType": "bytes32",
          "name": "",
          "type": "bytes32"
        }
      ],
      "stateMutability": "view",
      "type": "function"
    },
    {
      "inputs": [],
      "name": "renounceOwnership",
      "outputs": [],
      "stateMutability": "nonpayable",
      "type": "function"
    },
    {
      "inputs": [
        {
          "internalType": "string",
          "name": "name_",
          "type": "string"
        },
        {
          "internalType": "string",
          "name": "symbol_",
          "type": "string"
        }
      ],
      "name": "setUp",
      "outputs": [],
      "stateMutability": "nonpayable",
      "type": "function"
    },
    {
      "inputs": [],
      "name": "snapshot",
      "outputs": [],
      "stateMutability": "nonpayable",
      "type": "function"
    },
    {
      "inputs": [],
      "name": "symbol",
      "outputs": [
        {
          "internalType": "string",
          "name": "",
          "type": "string"
        }
      ],
      "stateMutability": "view",
      "type": "function"
    },
    {
      "inputs": [],
      "name": "totalSupply",
      "outputs": [
        {
          "internalType": "uint256",
          "name": "",
          "type": "uint256"
        }
      ],
      "stateMutability": "view",
      "type": "function"
    },
    {
      "inputs": [
        {
          "internalType": "uint256",
          "name": "snapshotId",
          "type": "uint256"
        }
      ],
      "name": "totalSupplyAt",
      "outputs": [
        {
          "internalType": "uint256",
          "name": "",
          "type": "uint256"
        }
      ],
      "stateMutability": "view",
      "type": "function"
    },
    {
      "inputs": [
        {
          "internalType": "address",
          "name": "to",
          "type": "address"
        },
        {
          "internalType": "uint256",
          "name": "amount",
          "type": "uint256"
        }
      ],
      "name": "transfer",
      "outputs": [
        {
          "internalType": "bool",
          "name": "",
          "type": "bool"
        }
      ],
      "stateMutability": "nonpayable",
      "type": "function"
    },
    {
      "inputs": [
        {
          "internalType": "address",
          "name": "from",
          "type": "address"
        },
        {
          "internalType": "address",
          "name": "to",
          "type": "address"
        },
        {
          "internalType": "uint256",
          "name": "amount",
          "type": "uint256"
        }
      ],
      "name": "transferFrom",
      "outputs": [
        {
          "internalType": "bool",
          "name": "",
          "type": "bool"
        }
      ],
      "stateMutability": "nonpayable",
      "type": "function"
    },
    {
      "inputs": [
        {
          "internalType": "address",
          "name": "newOwner",
          "type": "address"
        }
      ],
      "name": "transferOwnership",
      "outputs": [],
      "stateMutability": "nonpayable",
      "type": "function"
    },
    {
      "inputs": [],
      "name": "unpause",
      "outputs": [],
      "stateMutability": "nonpayable",
      "type": "function"
    },
    {
      "inputs": [
        {
          "internalType": "address",
          "name": "newImplementation",
          "type": "address"
        }
      ],
      "name": "upgradeTo",
      "outputs": [],
      "stateMutability": "nonpayable",
      "type": "function"
    },
    {
      "inputs": [
        {
          "internalType": "address",
          "name": "newImplementation",
          "type": "address"
        },
        {
          "internalType": "bytes",
          "name": "data",
          "type": "bytes"
        }
      ],
      "name": "upgradeToAndCall",
      "outputs": [],
      "stateMutability": "payable",
      "type": "function"
    }
  ],
  "transactionHash": "0x217a977670a0aee0cbba1df1b2fa8c786f4a1bcc3dbea7d4fde45fc4c00e43a7",
  "args": [],
  "numDeployments": 1,
  "solcInputHash": "a722f036a06895fe5bf5ae5ceae3865a",
  "bytecode": "0x60a0604052306080523480156200001557600080fd5b506200002062000026565b620000e7565b600054610100900460ff1615620000935760405162461bcd60e51b815260206004820152602760248201527f496e697469616c697a61626c653a20636f6e747261637420697320696e697469604482015266616c697a696e6760c81b606482015260840160405180910390fd5b60005460ff90811614620000e5576000805460ff191660ff9081179091556040519081527f7f26b83ff96e1f2b6a682f133852f6798a09c465da95921460cefb38474024989060200160405180910390a15b565b6080516129316200011f600039600081816106030152818161064c01528181610768015281816107a8015261082001526129316000f3fe60806040526004361061018d5760003560e01c806370a08231116100d75780639711715a116100855780639711715a14610424578063981b24d0146104395780639dc29fac14610459578063a457c2d714610479578063a9059cbb14610499578063d505accf146104b9578063dd62ed3e146104d9578063f2fde38b146104f957600080fd5b806370a0823114610354578063715018a6146103745780637ecebe00146103895780638456cb59146103a957806384b0196e146103be5780638da5cb5b146103e657806395d89b411461040f57600080fd5b8063395093511161013f578063395093511461027f5780633f4ba83a1461029f57806340c10f19146102b45780634ee2cd7e146102d45780634f1ef286146102f457806352d1902d14610307578063562d190d1461031c5780635c975abb1461033c57600080fd5b806306fdde0314610192578063095ea7b3146101bd57806318160ddd146101ed57806323b872dd1461020c578063313ce5671461022c5780633644e515146102485780633659cfe61461025d575b600080fd5b34801561019e57600080fd5b506101a7610519565b6040516101b4919061234c565b60405180910390f35b3480156101c957600080fd5b506101dd6101d8366004612376565b6105ab565b60405190151581526020016101b4565b3480156101f957600080fd5b506035545b6040519081526020016101b4565b34801561021857600080fd5b506101dd6102273660046123a0565b6105c5565b34801561023857600080fd5b50604051601281526020016101b4565b34801561025457600080fd5b506101fe6105e9565b34801561026957600080fd5b5061027d6102783660046123dc565b6105f8565b005b34801561028b57600080fd5b506101dd61029a366004612376565b6106ca565b3480156102ab57600080fd5b5061027d6106ec565b3480156102c057600080fd5b5061027d6102cf366004612376565b6106fe565b3480156102e057600080fd5b506101fe6102ef366004612376565b610714565b61027d610302366004612483565b61075d565b34801561031357600080fd5b506101fe610813565b34801561032857600080fd5b5061027d610337366004612505565b6108c1565b34801561034857600080fd5b5060fe5460ff166101dd565b34801561036057600080fd5b506101fe61036f3660046123dc565b610a69565b34801561038057600080fd5b5061027d610a84565b34801561039557600080fd5b506101fe6103a43660046123dc565b610a96565b3480156103b557600080fd5b5061027d610ab4565b3480156103ca57600080fd5b506103d3610ac4565b6040516101b4979695949392919061255f565b3480156103f257600080fd5b50610130546040516001600160a01b0390911681526020016101b4565b34801561041b57600080fd5b506101a7610b62565b34801561043057600080fd5b5061027d610b71565b34801561044557600080fd5b506101fe6104543660046125f5565b610b81565b34801561046557600080fd5b5061027d610474366004612376565b610bac565b34801561048557600080fd5b506101dd610494366004612376565b610bbe565b3480156104a557600080fd5b506101dd6104b4366004612376565b610c39565b3480156104c557600080fd5b5061027d6104d436600461260e565b610c47565b3480156104e557600080fd5b506101fe6104f4366004612681565b610dab565b34801561050557600080fd5b5061027d6105143660046123dc565b610dd6565b606060368054610528906126b4565b80601f0160208091040260200160405190810160405280929190818152602001828054610554906126b4565b80156105a15780601f10610576576101008083540402835291602001916105a1565b820191906000526020600020905b81548152906001019060200180831161058457829003601f168201915b5050505050905090565b6000336105b9818585610e4c565b60019150505b92915050565b6000336105d3858285610f70565b6105de858585610fea565b506001949350505050565b60006105f361118e565b905090565b306001600160a01b037f000000000000000000000000000000000000000000000000000000000000000016141561064a5760405162461bcd60e51b8152600401610641906126e9565b60405180910390fd5b7f00000000000000000000000000000000000000000000000000000000000000006001600160a01b031661067c611198565b6001600160a01b0316146106a25760405162461bcd60e51b815260040161064190612735565b6106ab816111b4565b604080516000808252602082019092526106c7918391906111bc565b50565b6000336105b98185856106dd8383610dab565b6106e79190612797565b610e4c565b6106f4611327565b6106fc611382565b565b610706611327565b61071082826113d4565b5050565b6001600160a01b03821660009081526065602052604081208190819061073b90859061148f565b91509150816107525761074d85610a69565b610754565b805b95945050505050565b306001600160a01b037f00000000000000000000000000000000000000000000000000000000000000001614156107a65760405162461bcd60e51b8152600401610641906126e9565b7f00000000000000000000000000000000000000000000000000000000000000006001600160a01b03166107d8611198565b6001600160a01b0316146107fe5760405162461bcd60e51b815260040161064190612735565b610807826111b4565b610710828260016111bc565b6000306001600160a01b037f000000000000000000000000000000000000000000000000000000000000000016146108ae5760405162461bcd60e51b815260206004820152603860248201527f555550535570677261646561626c653a206d757374206e6f742062652063616c6044820152771b1959081d1a1c9bdd59da0819195b1959d85d1958d85b1b60421b6064820152608401610641565b5060008051602061289583398151915290565b600054610100900460ff16158080156108e15750600054600160ff909116105b806108fb5750303b1580156108fb575060005460ff166001145b61095e5760405162461bcd60e51b815260206004820152602e60248201527f496e697469616c697a61626c653a20636f6e747261637420697320616c72656160448201526d191e481a5b9a5d1a585b1a5e995960921b6064820152608401610641565b6000805460ff191660011790558015610981576000805461ff0019166101001790555b82516109bd5760405162461bcd60e51b815260206004820152600b60248201526a4c6e616d6520656d70747960a81b6044820152606401610641565b81516109fb5760405162461bcd60e51b815260206004820152600d60248201526c4c73796d626f6c20656d70747960981b6044820152606401610641565b610a058383611586565b610a0e836115b7565b610a16611601565b610a1e611630565b8015610a64576000805461ff0019169055604051600181527f7f26b83ff96e1f2b6a682f133852f6798a09c465da95921460cefb38474024989060200160405180910390a15b505050565b6001600160a01b031660009081526033602052604090205490565b610a8c611327565b6106fc600061165f565b6001600160a01b038116600090815260cb60205260408120546105bf565b610abc611327565b6106fc6116b2565b6000606080600080600060606097546000801b148015610ae45750609854155b610b285760405162461bcd60e51b81526020600482015260156024820152741152540dcc4c8e88155b9a5b9a5d1a585b1a5e9959605a1b6044820152606401610641565b610b306116ef565b610b386116fe565b60408051600080825260208201909252600f60f81b9b939a50919850469750309650945092509050565b606060378054610528906126b4565b610b79611327565b6106c761170d565b6000806000610b9184606661148f565b9150915081610ba257603554610ba4565b805b949350505050565b610bb4611327565b6107108282611767565b60003381610bcc8286610dab565b905083811015610c2c5760405162461bcd60e51b815260206004820152602560248201527f45524332303a2064656372656173656420616c6c6f77616e63652062656c6f77604482015264207a65726f60d81b6064820152608401610641565b6105de8286868403610e4c565b6000336105b9818585610fea565b83421115610c975760405162461bcd60e51b815260206004820152601d60248201527f45524332305065726d69743a206578706972656420646561646c696e650000006044820152606401610641565b60007f6e71edae12b1b97f4d1f60370fef10105fa2faae0126114a169c64845d6126c9888888610cc68c611895565b6040805160208101969096526001600160a01b0394851690860152929091166060840152608083015260a082015260c0810186905260e0016040516020818303038152906040528051906020012090506000610d21826118bd565b90506000610d31828787876118ea565b9050896001600160a01b0316816001600160a01b031614610d945760405162461bcd60e51b815260206004820152601e60248201527f45524332305065726d69743a20696e76616c6964207369676e617475726500006044820152606401610641565b610d9f8a8a8a610e4c565b50505050505050505050565b6001600160a01b03918216600090815260346020908152604080832093909416825291909152205490565b610dde611327565b6001600160a01b038116610e435760405162461bcd60e51b815260206004820152602660248201527f4f776e61626c653a206e6577206f776e657220697320746865207a65726f206160448201526564647265737360d01b6064820152608401610641565b6106c78161165f565b6001600160a01b038316610eae5760405162461bcd60e51b8152602060048201526024808201527f45524332303a20617070726f76652066726f6d20746865207a65726f206164646044820152637265737360e01b6064820152608401610641565b6001600160a01b038216610f0f5760405162461bcd60e51b815260206004820152602260248201527f45524332303a20617070726f766520746f20746865207a65726f206164647265604482015261737360f01b6064820152608401610641565b6001600160a01b0383811660008181526034602090815260408083209487168084529482529182902085905590518481527f8c5be1e5ebec7d5bd14f71427d1e84f3dd0314c0f7b2291e5b200ac8c7c3b925910160405180910390a3505050565b6000610f7c8484610dab565b90506000198114610fe45781811015610fd75760405162461bcd60e51b815260206004820152601d60248201527f45524332303a20696e73756666696369656e7420616c6c6f77616e63650000006044820152606401610641565b610fe48484848403610e4c565b50505050565b6001600160a01b03831661104e5760405162461bcd60e51b815260206004820152602560248201527f45524332303a207472616e736665722066726f6d20746865207a65726f206164604482015264647265737360d81b6064820152608401610641565b6001600160a01b0382166110b05760405162461bcd60e51b815260206004820152602360248201527f45524332303a207472616e7366657220746f20746865207a65726f206164647260448201526265737360e81b6064820152608401610641565b6110bb838383611912565b6001600160a01b038316600090815260336020526040902054818110156111335760405162461bcd60e51b815260206004820152602660248201527f45524332303a207472616e7366657220616d6f756e7420657863656564732062604482015265616c616e636560d01b6064820152608401610641565b6001600160a01b0380851660008181526033602052604080822086860390559286168082529083902080548601905591516000805160206128dc833981519152906111819086815260200190565b60405180910390a3610fe4565b60006105f361199a565b600080516020612895833981519152546001600160a01b031690565b6106c7611327565b7f4910fdfa16fed3260ed0e7147f7cc6da11a60208b5b9406d12a635614ffd91435460ff16156111ef57610a6483611a0e565b826001600160a01b03166352d1902d6040518163ffffffff1660e01b8152600401602060405180830381865afa925050508015611249575060408051601f3d908101601f19168201909252611246918101906127af565b60015b6112ac5760405162461bcd60e51b815260206004820152602e60248201527f45524331393637557067726164653a206e657720696d706c656d656e7461746960448201526d6f6e206973206e6f74205555505360901b6064820152608401610641565b600080516020612895833981519152811461131b5760405162461bcd60e51b815260206004820152602960248201527f45524331393637557067726164653a20756e737570706f727465642070726f786044820152681a58589b195555525160ba1b6064820152608401610641565b50610a64838383611aaa565b610130546001600160a01b031633146106fc5760405162461bcd60e51b815260206004820181905260248201527f4f776e61626c653a2063616c6c6572206973206e6f7420746865206f776e65726044820152606401610641565b61138a611acf565b60fe805460ff191690557f5db9ee0a495bf2e6ff9c91a7834c1ba4fdd244a5e8aa4e537bd38aeae4b073aa335b6040516001600160a01b03909116815260200160405180910390a1565b6001600160a01b03821661142a5760405162461bcd60e51b815260206004820152601f60248201527f45524332303a206d696e7420746f20746865207a65726f2061646472657373006044820152606401610641565b61143660008383611912565b80603560008282546114489190612797565b90915550506001600160a01b0382166000818152603360209081526040808320805486019055518481526000805160206128dc833981519152910160405180910390a35050565b600080600084116114db5760405162461bcd60e51b815260206004820152601660248201527504552433230536e617073686f743a20696420697320360541b6044820152606401610641565b6114e3611b18565b8411156115325760405162461bcd60e51b815260206004820152601d60248201527f4552433230536e617073686f743a206e6f6e6578697374656e742069640000006044820152606401610641565b600061153e8486611b23565b845490915081141561155757600080925092505061157f565b600184600101828154811061156e5761156e6127c8565b906000526020600020015492509250505b9250929050565b600054610100900460ff166115ad5760405162461bcd60e51b8152600401610641906127de565b6107108282611bce565b600054610100900460ff166115de5760405162461bcd60e51b8152600401610641906127de565b6106c781604051806040016040528060018152602001603160f81b815250611c1c565b600054610100900460ff166116285760405162461bcd60e51b8152600401610641906127de565b6106fc611c79565b600054610100900460ff166116575760405162461bcd60e51b8152600401610641906127de565b6106fc611cac565b61013080546001600160a01b038381166001600160a01b0319831681179093556040519116919082907f8be0079c531659141344cd1fd0a4f28419497f9722a3daafe3b4186f6b6457e090600090a35050565b6116ba611cdc565b60fe805460ff191660011790557f62e78cea01bee320cd4e420270b5ea74000d11b0c9f74754ebdbfc544b05a2586113b73390565b606060998054610528906126b4565b6060609a8054610528906126b4565b600061171d606880546001019055565b6000611727611b18565b90507f8030e83b04d87bef53480e26263266d6ca66863aa8506aca6f2559d18aa1cb678160405161175a91815260200190565b60405180910390a1919050565b6001600160a01b0382166117c75760405162461bcd60e51b815260206004820152602160248201527f45524332303a206275726e2066726f6d20746865207a65726f206164647265736044820152607360f81b6064820152608401610641565b6117d382600083611912565b6001600160a01b038216600090815260336020526040902054818110156118475760405162461bcd60e51b815260206004820152602260248201527f45524332303a206275726e20616d6f756e7420657863656564732062616c616e604482015261636560f01b6064820152608401610641565b6001600160a01b03831660008181526033602090815260408083208686039055603580548790039055518581529192916000805160206128dc833981519152910160405180910390a3505050565b6001600160a01b038116600090815260cb602052604090208054600181018255905b50919050565b60006105bf6118ca61118e565b8360405161190160f01b8152600281019290925260228201526042902090565b60008060006118fb87878787611d22565b9150915061190881611ddc565b5095945050505050565b61191d838383611f25565b6001600160a01b03831615806119505750610130546001600160a01b03163314801561195057506001600160a01b038216155b8061195e575060fe5460ff16155b610a645760405162461bcd60e51b815260206004820152600d60248201526c217472616e7366657261626c6560981b6044820152606401610641565b60007f8b73c3c69bb8fe3d512ecc4cf759cc79239f7b179b0ffacaa9a75d522b39400f6119c5611f6d565b6119cd611fca565b60408051602081019490945283019190915260608201524660808201523060a082015260c00160405160208183030381529060405280519060200120905090565b6001600160a01b0381163b611a7b5760405162461bcd60e51b815260206004820152602d60248201527f455243313936373a206e657720696d706c656d656e746174696f6e206973206e60448201526c1bdd08184818dbdb9d1c9858dd609a1b6064820152608401610641565b60008051602061289583398151915280546001600160a01b0319166001600160a01b0392909216919091179055565b611ab383611ffb565b600082511180611ac05750805b15610a6457610fe4838361203b565b60fe5460ff166106fc5760405162461bcd60e51b815260206004820152601460248201527314185d5cd8589b194e881b9bdd081c185d5cd95960621b6044820152606401610641565b60006105f360685490565b8154600090611b34575060006105bf565b82546000905b80821015611b81576000611b4e8383612067565b60008781526020902090915085908201541115611b6d57809150611b7b565b611b78816001612797565b92505b50611b3a565b600082118015611bad575083611baa86611b9c600186612829565b600091825260209091200190565b54145b15611bc657611bbd600183612829565b925050506105bf565b5090506105bf565b600054610100900460ff16611bf55760405162461bcd60e51b8152600401610641906127de565b8151611c08906036906020850190612264565b508051610a64906037906020840190612264565b600054610100900460ff16611c435760405162461bcd60e51b8152600401610641906127de565b8151611c56906099906020850190612264565b508051611c6a90609a906020840190612264565b50506000609781905560985550565b600054610100900460ff16611ca05760405162461bcd60e51b8152600401610641906127de565b60fe805460ff19169055565b600054610100900460ff16611cd35760405162461bcd60e51b8152600401610641906127de565b6106fc3361165f565b60fe5460ff16156106fc5760405162461bcd60e51b815260206004820152601060248201526f14185d5cd8589b194e881c185d5cd95960821b6044820152606401610641565b6000806fa2a8918ca85bafe22016d0b997e4df60600160ff1b03831115611d4f5750600090506003611dd3565b6040805160008082526020820180845289905260ff881692820192909252606081018690526080810185905260019060a0016020604051602081039080840390855afa158015611da3573d6000803e3d6000fd5b5050604051601f1901519150506001600160a01b038116611dcc57600060019250925050611dd3565b9150600090505b94509492505050565b6000816004811115611df057611df0612840565b1415611df95750565b6001816004811115611e0d57611e0d612840565b1415611e565760405162461bcd60e51b815260206004820152601860248201527745434453413a20696e76616c6964207369676e617475726560401b6044820152606401610641565b6002816004811115611e6a57611e6a612840565b1415611eb85760405162461bcd60e51b815260206004820152601f60248201527f45434453413a20696e76616c6964207369676e6174757265206c656e677468006044820152606401610641565b6003816004811115611ecc57611ecc612840565b14156106c75760405162461bcd60e51b815260206004820152602260248201527f45434453413a20696e76616c6964207369676e6174757265202773272076616c604482015261756560f01b6064820152608401610641565b6001600160a01b038316611f4457611f3c82612082565b610a646120ac565b6001600160a01b038216611f5b57611f3c83612082565b611f6483612082565b610a6482612082565b600080611f786116ef565b805190915015611f8f578051602090910120919050565b6097548015611f9e5792915050565b7fc5d2460186f7233c927e7db2dcc703c0e500b653ca82273b7bfad8045d85a4709250505090565b5090565b600080611fd56116fe565b805190915015611fec578051602090910120919050565b6098548015611f9e5792915050565b61200481611a0e565b6040516001600160a01b038216907fbc7cd75a20ee27fd9adebab32041f755214dbc6bffa90cc0225b39da2e5c2d3b90600090a250565b606061206083836040518060600160405280602781526020016128b5602791396120ba565b9392505050565b60006120766002848418612856565b61206090848416612797565b6001600160a01b03811660009081526065602052604090206106c7906120a783610a69565b612132565b6106fc60666120a760355490565b6060600080856001600160a01b0316856040516120d79190612878565b600060405180830381855af49150503d8060008114612112576040519150601f19603f3d011682016040523d82523d6000602084013e612117565b606091505b50915091506121288683838761217c565b9695505050505050565b600061213c611b18565b905080612148846121f2565b1015610a64578254600180820185556000858152602080822090930193909355938401805494850181558252902090910155565b606083156121e85782516121e1576001600160a01b0385163b6121e15760405162461bcd60e51b815260206004820152601d60248201527f416464726573733a2063616c6c20746f206e6f6e2d636f6e74726163740000006044820152606401610641565b5081610ba4565b610ba4838361223a565b805460009061220357506000919050565b8154829061221390600190612829565b81548110612223576122236127c8565b90600052602060002001549050919050565b919050565b81511561224a5781518083602001fd5b8060405162461bcd60e51b8152600401610641919061234c565b828054612270906126b4565b90600052602060002090601f01602090048101928261229257600085556122d8565b82601f106122ab57805160ff19168380011785556122d8565b828001600101855582156122d8579182015b828111156122d85782518255916020019190600101906122bd565b50611fc69291505b80821115611fc657600081556001016122e0565b60005b8381101561230f5781810151838201526020016122f7565b83811115610fe45750506000910152565b600081518084526123388160208601602086016122f4565b601f01601f19169290920160200192915050565b6020815260006120606020830184612320565b80356001600160a01b038116811461223557600080fd5b6000806040838503121561238957600080fd5b6123928361235f565b946020939093013593505050565b6000806000606084860312156123b557600080fd5b6123be8461235f565b92506123cc6020850161235f565b9150604084013590509250925092565b6000602082840312156123ee57600080fd5b6120608261235f565b634e487b7160e01b600052604160045260246000fd5b600067ffffffffffffffff80841115612428576124286123f7565b604051601f8501601f19908116603f01168101908282118183101715612450576124506123f7565b8160405280935085815286868601111561246957600080fd5b858560208301376000602087830101525050509392505050565b6000806040838503121561249657600080fd5b61249f8361235f565b9150602083013567ffffffffffffffff8111156124bb57600080fd5b8301601f810185136124cc57600080fd5b6124db8582356020840161240d565b9150509250929050565b600082601f8301126124f657600080fd5b6120608383356020850161240d565b6000806040838503121561251857600080fd5b823567ffffffffffffffff8082111561253057600080fd5b61253c868387016124e5565b9350602085013591508082111561255257600080fd5b506124db858286016124e5565b60ff60f81b881681526000602060e08184015261257f60e084018a612320565b8381036040850152612591818a612320565b606085018990526001600160a01b038816608086015260a0850187905284810360c0860152855180825283870192509083019060005b818110156125e3578351835292840192918401916001016125c7565b50909c9b505050505050505050505050565b60006020828403121561260757600080fd5b5035919050565b600080600080600080600060e0888a03121561262957600080fd5b6126328861235f565b96506126406020890161235f565b95506040880135945060608801359350608088013560ff8116811461266457600080fd5b9699959850939692959460a0840135945060c09093013592915050565b6000806040838503121561269457600080fd5b61269d8361235f565b91506126ab6020840161235f565b90509250929050565b600181811c908216806126c857607f821691505b602082108114156118b757634e487b7160e01b600052602260045260246000fd5b6020808252602c908201527f46756e6374696f6e206d7573742062652063616c6c6564207468726f7567682060408201526b19195b1959d85d1958d85b1b60a21b606082015260800190565b6020808252602c908201527f46756e6374696f6e206d7573742062652063616c6c6564207468726f7567682060408201526b6163746976652070726f787960a01b606082015260800190565b634e487b7160e01b600052601160045260246000fd5b600082198211156127aa576127aa612781565b500190565b6000602082840312156127c157600080fd5b5051919050565b634e487b7160e01b600052603260045260246000fd5b6020808252602b908201527f496e697469616c697a61626c653a20636f6e7472616374206973206e6f74206960408201526a6e697469616c697a696e6760a81b606082015260800190565b60008282101561283b5761283b612781565b500390565b634e487b7160e01b600052602160045260246000fd5b60008261287357634e487b7160e01b600052601260045260246000fd5b500490565b6000825161288a8184602087016122f4565b919091019291505056fe360894a13ba1a3210667c828492db98dca3e2076cc3735a920a3ca505d382bbc416464726573733a206c6f772d6c6576656c2064656c65676174652063616c6c206661696c6564ddf252ad1be2c89b69c2b068fc378daa952ba7f163c4a11628f55a4df523b3efa264697066735822122028102b9e2263f64fb7663e87010c84c028f726251ca10ba41f1300878766061a64736f6c634300080c0033",
  "devdoc": {
    "kind": "dev",
    "methods": {
      "DOMAIN_SEPARATOR()": {
        "details": "See {IERC20Permit-DOMAIN_SEPARATOR}."
      },
      "allowance(address,address)": {
        "details": "See {IERC20-allowance}."
      },
      "approve(address,uint256)": {
        "details": "See {IERC20-approve}. NOTE: If `amount` is the maximum `uint256`, the allowance is not updated on `transferFrom`. This is semantically equivalent to an infinite approval. Requirements: - `spender` cannot be the zero address."
      },
      "balanceOf(address)": {
        "details": "See {IERC20-balanceOf}."
      },
      "balanceOfAt(address,uint256)": {
        "details": "Retrieves the balance of `account` at the time `snapshotId` was created."
      },
      "burn(address,uint256)": {
        "params": {
          "account": "Address to lose loot",
          "amount": "Amount to burn"
        }
      },
      "decimals()": {
        "details": "Returns the number of decimals used to get its user representation. For example, if `decimals` equals `2`, a balance of `505` tokens should be displayed to a user as `5.05` (`505 / 10 ** 2`). Tokens usually opt for a value of 18, imitating the relationship between Ether and Wei. This is the default value returned by this function, unless it's overridden. NOTE: This information is only used for _display_ purposes: it in no way affects any of the arithmetic of the contract, including {IERC20-balanceOf} and {IERC20-transfer}."
      },
      "decreaseAllowance(address,uint256)": {
        "details": "Atomically decreases the allowance granted to `spender` by the caller. This is an alternative to {approve} that can be used as a mitigation for problems described in {IERC20-approve}. Emits an {Approval} event indicating the updated allowance. Requirements: - `spender` cannot be the zero address. - `spender` must have allowance for the caller of at least `subtractedValue`."
      },
      "eip712Domain()": {
        "details": "See {EIP-5267}. _Available since v4.9._"
      },
      "increaseAllowance(address,uint256)": {
        "details": "Atomically increases the allowance granted to `spender` by the caller. This is an alternative to {approve} that can be used as a mitigation for problems described in {IERC20-approve}. Emits an {Approval} event indicating the updated allowance. Requirements: - `spender` cannot be the zero address."
      },
      "mint(address,uint256)": {
        "params": {
          "amount": "Amount to mint",
          "recipient": "Address to receive loot"
        }
      },
      "name()": {
        "details": "Returns the name of the token."
      },
      "nonces(address)": {
        "details": "See {IERC20Permit-nonces}."
      },
      "owner()": {
        "details": "Returns the address of the current owner."
      },
      "paused()": {
        "details": "Returns true if the contract is paused, and false otherwise."
      },
      "permit(address,address,uint256,uint256,uint8,bytes32,bytes32)": {
        "details": "See {IERC20Permit-permit}."
      },
      "proxiableUUID()": {
        "details": "Implementation of the ERC1822 {proxiableUUID} function. This returns the storage slot used by the implementation. It is used to validate the implementation's compatibility when performing an upgrade. IMPORTANT: A proxy pointing at a proxiable contract should not be considered proxiable itself, because this risks bricking a proxy that upgrades to it, by delegating to itself until out of gas. Thus it is critical that this function revert if invoked through a proxy. This is guaranteed by the `notDelegated` modifier."
      },
      "renounceOwnership()": {
        "details": "Leaves the contract without owner. It will not be possible to call `onlyOwner` functions. Can only be called by the current owner. NOTE: Renouncing ownership will leave the contract without an owner, thereby disabling any functionality that is only available to the owner."
      },
      "setUp(string,string)": {
        "details": "initializer should prevent this from being called again",
        "params": {
          "name_": "Name for ERC20 token trackers",
          "symbol_": "Symbol for ERC20 token trackers"
        }
      },
      "symbol()": {
        "details": "Returns the symbol of the token, usually a shorter version of the name."
      },
      "totalSupply()": {
        "details": "See {IERC20-totalSupply}."
      },
      "totalSupplyAt(uint256)": {
        "details": "Retrieves the total supply at the time `snapshotId` was created."
      },
      "transfer(address,uint256)": {
        "details": "See {IERC20-transfer}. Requirements: - `to` cannot be the zero address. - the caller must have a balance of at least `amount`."
      },
      "transferFrom(address,address,uint256)": {
        "details": "See {IERC20-transferFrom}. Emits an {Approval} event indicating the updated allowance. This is not required by the EIP. See the note at the beginning of {ERC20}. NOTE: Does not update the allowance if the current allowance is the maximum `uint256`. Requirements: - `from` and `to` cannot be the zero address. - `from` must have a balance of at least `amount`. - the caller must have allowance for ``from``'s tokens of at least `amount`."
      },
      "transferOwnership(address)": {
        "details": "Transfers ownership of the contract to a new account (`newOwner`). Can only be called by the current owner."
      },
      "upgradeTo(address)": {
        "custom:oz-upgrades-unsafe-allow-reachable": "delegatecall",
        "details": "Upgrade the implementation of the proxy to `newImplementation`. Calls {_authorizeUpgrade}. Emits an {Upgraded} event."
      },
      "upgradeToAndCall(address,bytes)": {
        "custom:oz-upgrades-unsafe-allow-reachable": "delegatecall",
        "details": "Upgrade the implementation of the proxy to `newImplementation`, and subsequently execute the function call encoded in `data`. Calls {_authorizeUpgrade}. Emits an {Upgraded} event."
      }
    },
    "version": 1
  },
  "userdoc": {
    "kind": "user",
    "methods": {
      "burn(address,uint256)": {
        "notice": "Baal-only function to burn loot."
      },
      "mint(address,uint256)": {
        "notice": "Baal-only function to mint loot."
      },
      "pause()": {
        "notice": "Baal-only function to pause shares."
      },
      "setUp(string,string)": {
        "notice": "Configure loot - called by Baal on summon"
      },
      "snapshot()": {
        "notice": "Allows baal to create a snapshot"
      },
      "unpause()": {
        "notice": "Baal-only function to pause shares."
      }
    },
    "version": 1
  },
  "storageLayout": {
    "storage": [
      {
        "astId": 4913,
        "contract": "contracts/fixtures/Baal/LootERC20.sol:Loot",
        "label": "_initialized",
        "offset": 0,
        "slot": "0",
        "type": "t_uint8"
      },
      {
        "astId": 4916,
        "contract": "contracts/fixtures/Baal/LootERC20.sol:Loot",
        "label": "_initializing",
        "offset": 1,
        "slot": "0",
        "type": "t_bool"
      },
      {
        "astId": 7242,
        "contract": "contracts/fixtures/Baal/LootERC20.sol:Loot",
        "label": "__gap",
        "offset": 0,
        "slot": "1",
        "type": "t_array(t_uint256)50_storage"
      },
      {
        "astId": 5441,
        "contract": "contracts/fixtures/Baal/LootERC20.sol:Loot",
        "label": "_balances",
        "offset": 0,
        "slot": "51",
        "type": "t_mapping(t_address,t_uint256)"
      },
      {
        "astId": 5447,
        "contract": "contracts/fixtures/Baal/LootERC20.sol:Loot",
        "label": "_allowances",
        "offset": 0,
        "slot": "52",
        "type": "t_mapping(t_address,t_mapping(t_address,t_uint256))"
      },
      {
        "astId": 5449,
        "contract": "contracts/fixtures/Baal/LootERC20.sol:Loot",
        "label": "_totalSupply",
        "offset": 0,
        "slot": "53",
        "type": "t_uint256"
      },
      {
        "astId": 5451,
        "contract": "contracts/fixtures/Baal/LootERC20.sol:Loot",
        "label": "_name",
        "offset": 0,
        "slot": "54",
        "type": "t_string_storage"
      },
      {
        "astId": 5453,
        "contract": "contracts/fixtures/Baal/LootERC20.sol:Loot",
        "label": "_symbol",
        "offset": 0,
        "slot": "55",
        "type": "t_string_storage"
      },
      {
        "astId": 6033,
        "contract": "contracts/fixtures/Baal/LootERC20.sol:Loot",
        "label": "__gap",
        "offset": 0,
        "slot": "56",
        "type": "t_array(t_uint256)45_storage"
      },
      {
        "astId": 6346,
        "contract": "contracts/fixtures/Baal/LootERC20.sol:Loot",
        "label": "_accountBalanceSnapshots",
        "offset": 0,
        "slot": "101",
        "type": "t_mapping(t_address,t_struct(Snapshots)6341_storage)"
      },
      {
        "astId": 6349,
        "contract": "contracts/fixtures/Baal/LootERC20.sol:Loot",
        "label": "_totalSupplySnapshots",
        "offset": 0,
        "slot": "102",
        "type": "t_struct(Snapshots)6341_storage"
      },
      {
        "astId": 6352,
        "contract": "contracts/fixtures/Baal/LootERC20.sol:Loot",
        "label": "_currentSnapshotId",
        "offset": 0,
        "slot": "104",
        "type": "t_struct(Counter)7249_storage"
      },
      {
        "astId": 6650,
        "contract": "contracts/fixtures/Baal/LootERC20.sol:Loot",
        "label": "__gap",
        "offset": 0,
        "slot": "105",
        "type": "t_array(t_uint256)46_storage"
      },
      {
        "astId": 8040,
        "contract": "contracts/fixtures/Baal/LootERC20.sol:Loot",
        "label": "_hashedName",
        "offset": 0,
        "slot": "151",
        "type": "t_bytes32"
      },
      {
        "astId": 8043,
        "contract": "contracts/fixtures/Baal/LootERC20.sol:Loot",
        "label": "_hashedVersion",
        "offset": 0,
        "slot": "152",
        "type": "t_bytes32"
      },
      {
        "astId": 8045,
        "contract": "contracts/fixtures/Baal/LootERC20.sol:Loot",
        "label": "_name",
        "offset": 0,
        "slot": "153",
        "type": "t_string_storage"
      },
      {
        "astId": 8047,
        "contract": "contracts/fixtures/Baal/LootERC20.sol:Loot",
        "label": "_version",
        "offset": 0,
        "slot": "154",
        "type": "t_string_storage"
      },
      {
        "astId": 8305,
        "contract": "contracts/fixtures/Baal/LootERC20.sol:Loot",
        "label": "__gap",
        "offset": 0,
        "slot": "155",
        "type": "t_array(t_uint256)48_storage"
      },
      {
        "astId": 6138,
        "contract": "contracts/fixtures/Baal/LootERC20.sol:Loot",
        "label": "_nonces",
        "offset": 0,
        "slot": "203",
        "type": "t_mapping(t_address,t_struct(Counter)7249_storage)"
      },
      {
        "astId": 6146,
        "contract": "contracts/fixtures/Baal/LootERC20.sol:Loot",
        "label": "_PERMIT_TYPEHASH_DEPRECATED_SLOT",
        "offset": 0,
        "slot": "204",
        "type": "t_bytes32"
      },
      {
        "astId": 6302,
        "contract": "contracts/fixtures/Baal/LootERC20.sol:Loot",
        "label": "__gap",
        "offset": 0,
        "slot": "205",
        "type": "t_array(t_uint256)49_storage"
      },
      {
        "astId": 5232,
        "contract": "contracts/fixtures/Baal/LootERC20.sol:Loot",
        "label": "_paused",
        "offset": 0,
        "slot": "254",
        "type": "t_bool"
      },
      {
        "astId": 5337,
        "contract": "contracts/fixtures/Baal/LootERC20.sol:Loot",
        "label": "__gap",
        "offset": 0,
        "slot": "255",
        "type": "t_array(t_uint256)49_storage"
      },
      {
        "astId": 4395,
        "contract": "contracts/fixtures/Baal/LootERC20.sol:Loot",
        "label": "_owner",
        "offset": 0,
        "slot": "304",
        "type": "t_address"
      },
      {
        "astId": 4515,
        "contract": "contracts/fixtures/Baal/LootERC20.sol:Loot",
        "label": "__gap",
        "offset": 0,
        "slot": "305",
        "type": "t_array(t_uint256)49_storage"
      }
    ],
    "types": {
      "t_address": {
        "encoding": "inplace",
        "label": "address",
        "numberOfBytes": "20"
      },
      "t_array(t_uint256)45_storage": {
        "base": "t_uint256",
        "encoding": "inplace",
        "label": "uint256[45]",
        "numberOfBytes": "1440"
      },
      "t_array(t_uint256)46_storage": {
        "base": "t_uint256",
        "encoding": "inplace",
        "label": "uint256[46]",
        "numberOfBytes": "1472"
      },
      "t_array(t_uint256)48_storage": {
        "base": "t_uint256",
        "encoding": "inplace",
        "label": "uint256[48]",
        "numberOfBytes": "1536"
      },
      "t_array(t_uint256)49_storage": {
        "base": "t_uint256",
        "encoding": "inplace",
        "label": "uint256[49]",
        "numberOfBytes": "1568"
      },
      "t_array(t_uint256)50_storage": {
        "base": "t_uint256",
        "encoding": "inplace",
        "label": "uint256[50]",
        "numberOfBytes": "1600"
      },
      "t_array(t_uint256)dyn_storage": {
        "base": "t_uint256",
        "encoding": "dynamic_array",
        "label": "uint256[]",
        "numberOfBytes": "32"
      },
      "t_bool": {
        "encoding": "inplace",
        "label": "bool",
        "numberOfBytes": "1"
      },
      "t_bytes32": {
        "encoding": "inplace",
        "label": "bytes32",
        "numberOfBytes": "32"
      },
      "t_mapping(t_address,t_mapping(t_address,t_uint256))": {
        "encoding": "mapping",
        "key": "t_address",
        "label": "mapping(address => mapping(address => uint256))",
        "numberOfBytes": "32",
        "value": "t_mapping(t_address,t_uint256)"
      },
      "t_mapping(t_address,t_struct(Counter)7249_storage)": {
        "encoding": "mapping",
        "key": "t_address",
        "label": "mapping(address => struct CountersUpgradeable.Counter)",
        "numberOfBytes": "32",
        "value": "t_struct(Counter)7249_storage"
      },
      "t_mapping(t_address,t_struct(Snapshots)6341_storage)": {
        "encoding": "mapping",
        "key": "t_address",
        "label": "mapping(address => struct ERC20SnapshotUpgradeable.Snapshots)",
        "numberOfBytes": "32",
        "value": "t_struct(Snapshots)6341_storage"
      },
      "t_mapping(t_address,t_uint256)": {
        "encoding": "mapping",
        "key": "t_address",
        "label": "mapping(address => uint256)",
        "numberOfBytes": "32",
        "value": "t_uint256"
      },
      "t_string_storage": {
        "encoding": "bytes",
        "label": "string",
        "numberOfBytes": "32"
      },
      "t_struct(Counter)7249_storage": {
        "encoding": "inplace",
        "label": "struct CountersUpgradeable.Counter",
        "members": [
          {
            "astId": 7248,
            "contract": "contracts/fixtures/Baal/LootERC20.sol:Loot",
            "label": "_value",
            "offset": 0,
            "slot": "0",
            "type": "t_uint256"
          }
        ],
        "numberOfBytes": "32"
      },
      "t_struct(Snapshots)6341_storage": {
        "encoding": "inplace",
        "label": "struct ERC20SnapshotUpgradeable.Snapshots",
        "members": [
          {
            "astId": 6337,
            "contract": "contracts/fixtures/Baal/LootERC20.sol:Loot",
            "label": "ids",
            "offset": 0,
            "slot": "0",
            "type": "t_array(t_uint256)dyn_storage"
          },
          {
            "astId": 6340,
            "contract": "contracts/fixtures/Baal/LootERC20.sol:Loot",
            "label": "values",
            "offset": 0,
            "slot": "1",
            "type": "t_array(t_uint256)dyn_storage"
          }
        ],
        "numberOfBytes": "64"
      },
      "t_uint256": {
        "encoding": "inplace",
        "label": "uint256",
        "numberOfBytes": "32"
      },
      "t_uint8": {
        "encoding": "inplace",
        "label": "uint8",
        "numberOfBytes": "1"
      }
    }
  }
}