{
  "address": "0xe7f1725E7734CE288F8367e1Bb143E90bb3F0512",
  "abi": [
    {
      "inputs": [],
      "stateMutability": "nonpayable",
      "type": "constructor"
    },
    {
      "anonymous": false,
      "inputs": [
        {
          "indexed": false,
          "internalType": "address",
          "name": "previousAdmin",
          "type": "address"
        },
        {
          "indexed": false,
          "internalType": "address",
          "name": "newAdmin",
          "type": "address"
        }
      ],
      "name": "AdminChanged",
      "type": "event"
    },
    {
      "anonymous": false,
      "inputs": [
        {
          "indexed": true,
          "internalType": "address",
          "name": "owner",
          "type": "address"
        },
        {
          "indexed": true,
          "internalType": "address",
          "name": "spender",
          "type": "address"
        },
        {
          "indexed": false,
          "internalType": "uint256",
          "name": "value",
          "type": "uint256"
        }
      ],
      "name": "Approval",
      "type": "event"
    },
    {
      "anonymous": false,
      "inputs": [
        {
          "indexed": true,
          "internalType": "address",
          "name": "beacon",
          "type": "address"
        }
      ],
      "name": "BeaconUpgraded",
      "type": "event"
    },
    {
      "anonymous": false,
      "inputs": [
        {
          "indexed": true,
          "internalType": "address",
          "name": "delegator",
          "type": "address"
        },
        {
          "indexed": true,
          "internalType": "address",
          "name": "fromDelegate",
          "type": "address"
        },
        {
          "indexed": true,
          "internalType": "address",
          "name": "toDelegate",
          "type": "address"
        }
      ],
      "name": "DelegateChanged",
      "type": "event"
    },
    {
      "anonymous": false,
      "inputs": [
        {
          "indexed": true,
          "internalType": "address",
          "name": "delegate",
          "type": "address"
        },
        {
          "indexed": false,
          "internalType": "uint256",
          "name": "previousBalance",
          "type": "uint256"
        },
        {
          "indexed": false,
          "internalType": "uint256",
          "name": "newBalance",
          "type": "uint256"
        }
      ],
      "name": "DelegateVotesChanged",
      "type": "event"
    },
    {
      "anonymous": false,
      "inputs": [
        {
          "indexed": false,
          "internalType": "uint8",
          "name": "version",
          "type": "uint8"
        }
      ],
      "name": "Initialized",
      "type": "event"
    },
    {
      "anonymous": false,
      "inputs": [
        {
          "indexed": true,
          "internalType": "address",
          "name": "previousOwner",
          "type": "address"
        },
        {
          "indexed": true,
          "internalType": "address",
          "name": "newOwner",
          "type": "address"
        }
      ],
      "name": "OwnershipTransferred",
      "type": "event"
    },
    {
      "anonymous": false,
      "inputs": [
        {
          "indexed": false,
          "internalType": "address",
          "name": "account",
          "type": "address"
        }
      ],
      "name": "Paused",
      "type": "event"
    },
    {
      "anonymous": false,
      "inputs": [
        {
          "indexed": false,
          "internalType": "uint256",
          "name": "id",
          "type": "uint256"
        }
      ],
      "name": "Snapshot",
      "type": "event"
    },
    {
      "anonymous": false,
      "inputs": [
        {
          "indexed": true,
          "internalType": "address",
          "name": "from",
          "type": "address"
        },
        {
          "indexed": true,
          "internalType": "address",
          "name": "to",
          "type": "address"
        },
        {
          "indexed": false,
          "internalType": "uint256",
          "name": "value",
          "type": "uint256"
        }
      ],
      "name": "Transfer",
      "type": "event"
    },
    {
      "anonymous": false,
      "inputs": [
        {
          "indexed": false,
          "internalType": "address",
          "name": "account",
          "type": "address"
        }
      ],
      "name": "Unpaused",
      "type": "event"
    },
    {
      "anonymous": false,
      "inputs": [
        {
          "indexed": true,
          "internalType": "address",
          "name": "implementation",
          "type": "address"
        }
      ],
      "name": "Upgraded",
      "type": "event"
    },
    {
      "inputs": [],
      "name": "DOMAIN_SEPARATOR",
      "outputs": [
        {
          "internalType": "bytes32",
          "name": "",
          "type": "bytes32"
        }
      ],
      "stateMutability": "view",
      "type": "function"
    },
    {
      "inputs": [
        {
          "internalType": "address",
          "name": "owner",
          "type": "address"
        },
        {
          "internalType": "address",
          "name": "spender",
          "type": "address"
        }
      ],
      "name": "allowance",
      "outputs": [
        {
          "internalType": "uint256",
          "name": "",
          "type": "uint256"
        }
      ],
      "stateMutability": "view",
      "type": "function"
    },
    {
      "inputs": [
        {
          "internalType": "address",
          "name": "spender",
          "type": "address"
        },
        {
          "internalType": "uint256",
          "name": "amount",
          "type": "uint256"
        }
      ],
      "name": "approve",
      "outputs": [
        {
          "internalType": "bool",
          "name": "",
          "type": "bool"
        }
      ],
      "stateMutability": "nonpayable",
      "type": "function"
    },
    {
      "inputs": [
        {
          "internalType": "address",
          "name": "account",
          "type": "address"
        }
      ],
      "name": "balanceOf",
      "outputs": [
        {
          "internalType": "uint256",
          "name": "",
          "type": "uint256"
        }
      ],
      "stateMutability": "view",
      "type": "function"
    },
    {
      "inputs": [
        {
          "internalType": "address",
          "name": "account",
          "type": "address"
        },
        {
          "internalType": "uint256",
          "name": "snapshotId",
          "type": "uint256"
        }
      ],
      "name": "balanceOfAt",
      "outputs": [
        {
          "internalType": "uint256",
          "name": "",
          "type": "uint256"
        }
      ],
      "stateMutability": "view",
      "type": "function"
    },
    {
      "inputs": [
        {
          "internalType": "address",
          "name": "account",
          "type": "address"
        },
        {
          "internalType": "uint256",
          "name": "amount",
          "type": "uint256"
        }
      ],
      "name": "burn",
      "outputs": [],
      "stateMutability": "nonpayable",
      "type": "function"
    },
    {
      "inputs": [
        {
          "internalType": "address",
          "name": "",
          "type": "address"
        },
        {
          "internalType": "uint256",
          "name": "",
          "type": "uint256"
        }
      ],
      "name": "checkpoints",
      "outputs": [
        {
          "internalType": "uint32",
          "name": "fromTimePoint",
          "type": "uint32"
        },
        {
          "internalType": "uint256",
          "name": "votes",
          "type": "uint256"
        }
      ],
      "stateMutability": "view",
      "type": "function"
    },
    {
      "inputs": [],
      "name": "decimals",
      "outputs": [
        {
          "internalType": "uint8",
          "name": "",
          "type": "uint8"
        }
      ],
      "stateMutability": "view",
      "type": "function"
    },
    {
      "inputs": [
        {
          "internalType": "address",
          "name": "spender",
          "type": "address"
        },
        {
          "internalType": "uint256",
          "name": "subtractedValue",
          "type": "uint256"
        }
      ],
      "name": "decreaseAllowance",
      "outputs": [
        {
          "internalType": "bool",
          "name": "",
          "type": "bool"
        }
      ],
      "stateMutability": "nonpayable",
      "type": "function"
    },
    {
      "inputs": [
        {
          "internalType": "address",
          "name": "delegatee",
          "type": "address"
        }
      ],
      "name": "delegate",
      "outputs": [],
      "stateMutability": "nonpayable",
      "type": "function"
    },
    {
      "inputs": [
        {
          "internalType": "address",
          "name": "delegatee",
          "type": "address"
        },
        {
          "internalType": "uint256",
          "name": "nonce",
          "type": "uint256"
        },
        {
          "internalType": "uint256",
          "name": "expiry",
          "type": "uint256"
        },
        {
          "internalType": "uint8",
          "name": "v",
          "type": "uint8"
        },
        {
          "internalType": "bytes32",
          "name": "r",
          "type": "bytes32"
        },
        {
          "internalType": "bytes32",
          "name": "s",
          "type": "bytes32"
        }
      ],
      "name": "delegateBySig",
      "outputs": [],
      "stateMutability": "nonpayable",
      "type": "function"
    },
    {
      "inputs": [
        {
          "internalType": "address",
          "name": "",
          "type": "address"
        }
      ],
      "name": "delegates",
      "outputs": [
        {
          "internalType": "address",
          "name": "",
          "type": "address"
        }
      ],
      "stateMutability": "view",
      "type": "function"
    },
    {
      "inputs": [
        {
          "internalType": "address",
          "name": "",
          "type": "address"
        }
      ],
      "name": "delegationNonces",
      "outputs": [
        {
          "internalType": "uint256",
          "name": "",
          "type": "uint256"
        }
      ],
      "stateMutability": "view",
      "type": "function"
    },
    {
      "inputs": [
        {
          "internalType": "address",
          "name": "delegatee",
          "type": "address"
        },
        {
          "internalType": "uint256",
          "name": "nCheckpoints",
          "type": "uint256"
        }
      ],
      "name": "getCheckpoint",
      "outputs": [
        {
          "components": [
            {
              "internalType": "uint32",
              "name": "fromTimePoint",
              "type": "uint32"
            },
            {
              "internalType": "uint256",
              "name": "votes",
              "type": "uint256"
            }
          ],
          "internalType": "struct BaalVotes.Checkpoint",
          "name": "",
          "type": "tuple"
        }
      ],
      "stateMutability": "view",
      "type": "function"
    },
    {
      "inputs": [],
      "name": "getCurrentSnapshotId",
      "outputs": [
        {
          "internalType": "uint256",
          "name": "",
          "type": "uint256"
        }
      ],
      "stateMutability": "view",
      "type": "function"
    },
    {
      "inputs": [
        {
          "internalType": "address",
          "name": "account",
          "type": "address"
        },
        {
          "internalType": "uint256",
          "name": "timePoint",
          "type": "uint256"
        }
      ],
      "name": "getPastVotes",
      "outputs": [
        {
          "internalType": "uint256",
          "name": "votes",
          "type": "uint256"
        }
      ],
      "stateMutability": "view",
      "type": "function"
    },
    {
      "inputs": [
        {
          "internalType": "address",
          "name": "account",
          "type": "address"
        }
      ],
      "name": "getVotes",
      "outputs": [
        {
          "internalType": "uint256",
          "name": "votes",
          "type": "uint256"
        }
      ],
      "stateMutability": "view",
      "type": "function"
    },
    {
      "inputs": [
        {
          "internalType": "address",
          "name": "spender",
          "type": "address"
        },
        {
          "internalType": "uint256",
          "name": "addedValue",
          "type": "uint256"
        }
      ],
      "name": "increaseAllowance",
      "outputs": [
        {
          "internalType": "bool",
          "name": "",
          "type": "bool"
        }
      ],
      "stateMutability": "nonpayable",
      "type": "function"
    },
    {
      "inputs": [
        {
          "internalType": "address",
          "name": "recipient",
          "type": "address"
        },
        {
          "internalType": "uint256",
          "name": "amount",
          "type": "uint256"
        }
      ],
      "name": "mint",
      "outputs": [],
      "stateMutability": "nonpayable",
      "type": "function"
    },
    {
      "inputs": [],
      "name": "name",
      "outputs": [
        {
          "internalType": "string",
          "name": "",
          "type": "string"
        }
      ],
      "stateMutability": "view",
      "type": "function"
    },
    {
      "inputs": [
        {
          "internalType": "address",
          "name": "owner",
          "type": "address"
        }
      ],
      "name": "nonces",
      "outputs": [
        {
          "internalType": "uint256",
          "name": "",
          "type": "uint256"
        }
      ],
      "stateMutability": "view",
      "type": "function"
    },
    {
      "inputs": [],
      "name": "now",
      "outputs": [
        {
          "internalType": "uint256",
          "name": "timePoint",
          "type": "uint256"
        }
      ],
      "stateMutability": "view",
      "type": "function"
    },
    {
      "inputs": [
        {
          "internalType": "address",
          "name": "",
          "type": "address"
        }
      ],
      "name": "numCheckpoints",
      "outputs": [
        {
          "internalType": "uint256",
          "name": "",
          "type": "uint256"
        }
      ],
      "stateMutability": "view",
      "type": "function"
    },
    {
      "inputs": [],
      "name": "owner",
      "outputs": [
        {
          "internalType": "address",
          "name": "",
          "type": "address"
        }
      ],
      "stateMutability": "view",
      "type": "function"
    },
    {
      "inputs": [],
      "name": "pause",
      "outputs": [],
      "stateMutability": "nonpayable",
      "type": "function"
    },
    {
      "inputs": [],
      "name": "paused",
      "outputs": [
        {
          "internalType": "bool",
          "name": "",
          "type": "bool"
        }
      ],
      "stateMutability": "view",
      "type": "function"
    },
    {
      "inputs": [
        {
          "internalType": "address",
          "name": "owner",
          "type": "address"
        },
        {
          "internalType": "address",
          "name": "spender",
          "type": "address"
        },
        {
          "internalType": "uint256",
          "name": "value",
          "type": "uint256"
        },
        {
          "internalType": "uint256",
          "name": "deadline",
          "type": "uint256"
        },
        {
          "internalType": "uint8",
          "name": "v",
          "type": "uint8"
        },
        {
          "internalType": "bytes32",
          "name": "r",
          "type": "bytes32"
        },
        {
          "internalType": "bytes32",
          "name": "s",
          "type": "bytes32"
        }
      ],
      "name": "permit",
      "outputs": [],
      "stateMutability": "nonpayable",
      "type": "function"
    },
    {
      "inputs": [],
      "name": "proxiableUUID",
      "outputs": [
        {
          "internalType": "bytes32",
          "name": "",
          "type": "bytes32"
        }
      ],
      "stateMutability": "view",
      "type": "function"
    },
    {
      "inputs": [],
      "name": "renounceOwnership",
      "outputs": [],
      "stateMutability": "nonpayable",
      "type": "function"
    },
    {
      "inputs": [
        {
          "internalType": "string",
          "name": "name_",
          "type": "string"
        },
        {
          "internalType": "string",
          "name": "symbol_",
          "type": "string"
        }
      ],
      "name": "setUp",
      "outputs": [],
      "stateMutability": "nonpayable",
      "type": "function"
    },
    {
      "inputs": [],
      "name": "snapshot",
      "outputs": [
        {
          "internalType": "uint256",
          "name": "",
          "type": "uint256"
        }
      ],
      "stateMutability": "nonpayable",
      "type": "function"
    },
    {
      "inputs": [],
      "name": "symbol",
      "outputs": [
        {
          "internalType": "string",
          "name": "",
          "type": "string"
        }
      ],
      "stateMutability": "view",
      "type": "function"
    },
    {
      "inputs": [],
      "name": "totalSupply",
      "outputs": [
        {
          "internalType": "uint256",
          "name": "",
          "type": "uint256"
        }
      ],
      "stateMutability": "view",
      "type": "function"
    },
    {
      "inputs": [
        {
          "internalType": "uint256",
          "name": "snapshotId",
          "type": "uint256"
        }
      ],
      "name": "totalSupplyAt",
      "outputs": [
        {
          "internalType": "uint256",
          "name": "",
          "type": "uint256"
        }
      ],
      "stateMutability": "view",
      "type": "function"
    },
    {
      "inputs": [
        {
          "internalType": "address",
          "name": "to",
          "type": "address"
        },
        {
          "internalType": "uint256",
          "name": "amount",
          "type": "uint256"
        }
      ],
      "name": "transfer",
      "outputs": [
        {
          "internalType": "bool",
          "name": "",
          "type": "bool"
        }
      ],
      "stateMutability": "nonpayable",
      "type": "function"
    },
    {
      "inputs": [
        {
          "internalType": "address",
          "name": "from",
          "type": "address"
        },
        {
          "internalType": "address",
          "name": "to",
          "type": "address"
        },
        {
          "internalType": "uint256",
          "name": "amount",
          "type": "uint256"
        }
      ],
      "name": "transferFrom",
      "outputs": [
        {
          "internalType": "bool",
          "name": "",
          "type": "bool"
        }
      ],
      "stateMutability": "nonpayable",
      "type": "function"
    },
    {
      "inputs": [
        {
          "internalType": "address",
          "name": "newOwner",
          "type": "address"
        }
      ],
      "name": "transferOwnership",
      "outputs": [],
      "stateMutability": "nonpayable",
      "type": "function"
    },
    {
      "inputs": [],
      "name": "unpause",
      "outputs": [],
      "stateMutability": "nonpayable",
      "type": "function"
    },
    {
      "inputs": [
        {
          "internalType": "address",
          "name": "newImplementation",
          "type": "address"
        }
      ],
      "name": "upgradeTo",
      "outputs": [],
      "stateMutability": "nonpayable",
      "type": "function"
    },
    {
      "inputs": [
        {
          "internalType": "address",
          "name": "newImplementation",
          "type": "address"
        },
        {
          "internalType": "bytes",
          "name": "data",
          "type": "bytes"
        }
      ],
      "name": "upgradeToAndCall",
      "outputs": [],
      "stateMutability": "payable",
      "type": "function"
    }
  ],
  "numDeployments": 2,
  "solcInputHash": "1d13235a91f824b1e88a57247a153e5c",
  "bytecode": "0x60a0604052306080523480156200001557600080fd5b506200002062000026565b620000e8565b600054610100900460ff1615620000935760405162461bcd60e51b815260206004820152602760248201527f496e697469616c697a61626c653a20636f6e747261637420697320696e697469604482015266616c697a696e6760c81b606482015260840160405180910390fd5b60005460ff9081161015620000e6576000805460ff191660ff9081179091556040519081527f7f26b83ff96e1f2b6a682f133852f6798a09c465da95921460cefb38474024989060200160405180910390a15b565b608051613358620001206000396000818161087b015281816108c401528181610bdb01528181610c1b0152610c9301526133586000f3fe60806040526004361061023b5760003560e01c80635c19a95c1161012e5780639711715a116100ab578063a9059cbb1161006f578063a9059cbb146106ef578063c3cda5201461070f578063d505accf1461072f578063dd62ed3e1461074f578063f2fde38b1461076f57600080fd5b80639711715a1461065a578063981b24d01461066f5780639ab24eb01461068f5780639dc29fac146106af578063a457c2d7146106cf57600080fd5b80637ecebe00116100f25780637ecebe00146105de5780638456cb59146105fe5780638abe09f2146106135780638da5cb5b1461062657806395d89b411461064557600080fd5b80635c19a95c146105425780635c975abb146105625780636fcfff451461057b57806370a08231146105a9578063715018a6146105c957600080fd5b80633a46b1a8116101bc5780634f1ef286116101805780634f1ef2861461049657806352d1902d146104a95780635439ad86146104be578063562d190d146104d3578063587cde1e146104f357600080fd5b80633a46b1a8146103e05780633f4ba83a1461040057806340c10f191461041557806347f761f5146104355780634ee2cd7e1461047657600080fd5b806323b872dd1161020357806323b872dd1461034d578063313ce5671461036d5780633644e515146103895780633659cfe61461039e57806339509351146103c057600080fd5b806303c8a3c61461024057806306fdde0314610281578063095ea7b3146102a35780630cdfebfa146102d357806318160ddd14610338575b600080fd5b34801561024c57600080fd5b5061026e61025b366004612d59565b6101036020526000908152604090205481565b6040519081526020015b60405180910390f35b34801561028d57600080fd5b5061029661078f565b6040516102789190612da0565b3480156102af57600080fd5b506102c36102be366004612dd3565b610821565b6040519015158152602001610278565b3480156102df57600080fd5b5061031c6102ee366004612dd3565b6101006020908152600092835260408084209091529082529020805460019091015463ffffffff9091169082565b6040805163ffffffff9093168352602083019190915201610278565b34801561034457600080fd5b5060355461026e565b34801561035957600080fd5b506102c3610368366004612dfd565b61083b565b34801561037957600080fd5b5060405160128152602001610278565b34801561039557600080fd5b5061026e610861565b3480156103aa57600080fd5b506103be6103b9366004612d59565b610870565b005b3480156103cc57600080fd5b506102c36103db366004612dd3565b610942565b3480156103ec57600080fd5b5061026e6103fb366004612dd3565b610964565b34801561040c57600080fd5b506103be610aa5565b34801561042157600080fd5b506103be610430366004612dd3565b610ab7565b34801561044157600080fd5b50610455610450366004612dd3565b610b33565b60408051825163ffffffff1681526020928301519281019290925201610278565b34801561048257600080fd5b5061026e610491366004612dd3565b610b86565b6103be6104a4366004612ec5565b610bd0565b3480156104b557600080fd5b5061026e610c86565b3480156104ca57600080fd5b5061026e610d34565b3480156104df57600080fd5b506103be6104ee366004612f47565b610d3e565b3480156104ff57600080fd5b5061052a61050e366004612d59565b610102602052600090815260409020546001600160a01b031681565b6040516001600160a01b039091168152602001610278565b34801561054e57600080fd5b506103be61055d366004612d59565b610f49565b34801561056e57600080fd5b506101685460ff166102c3565b34801561058757600080fd5b5061026e610596366004612d59565b6101016020526000908152604090205481565b3480156105b557600080fd5b5061026e6105c4366004612d59565b610f53565b3480156105d557600080fd5b506103be610f6e565b3480156105ea57600080fd5b5061026e6105f9366004612d59565b610f80565b34801561060a57600080fd5b506103be610f9e565b34801561061f57600080fd5b504261026e565b34801561063257600080fd5b50610136546001600160a01b031661052a565b34801561065157600080fd5b50610296610fae565b34801561066657600080fd5b5061026e610fbd565b34801561067b57600080fd5b5061026e61068a366004612fa1565b610fcf565b34801561069b57600080fd5b5061026e6106aa366004612d59565b610ffb565b3480156106bb57600080fd5b506103be6106ca366004612dd3565b611039565b3480156106db57600080fd5b506102c36106ea366004612dd3565b61104b565b3480156106fb57600080fd5b506102c361070a366004612dd3565b6110d1565b34801561071b57600080fd5b506103be61072a366004612fcb565b6110df565b34801561073b57600080fd5b506103be61074a366004613023565b6112d1565b34801561075b57600080fd5b5061026e61076a36600461308d565b611435565b34801561077b57600080fd5b506103be61078a366004612d59565b611460565b60606036805461079e906130c0565b80601f01602080910402602001604051908101604052809291908181526020018280546107ca906130c0565b80156108175780601f106107ec57610100808354040283529160200191610817565b820191906000526020600020905b8154815290600101906020018083116107fa57829003601f168201915b5050505050905090565b60003361082f8185856114d6565b60019150505b92915050565b6000336108498582856115fa565b610854858585611674565b60019150505b9392505050565b600061086b611818565b905090565b306001600160a01b037f00000000000000000000000000000000000000000000000000000000000000001614156108c25760405162461bcd60e51b81526004016108b9906130f5565b60405180910390fd5b7f00000000000000000000000000000000000000000000000000000000000000006001600160a01b03166108f461184f565b6001600160a01b03161461091a5760405162461bcd60e51b81526004016108b990613141565b6109238161186b565b6040805160008082526020820190925261093f91839190611873565b50565b60003361082f8185856109558383611435565b61095f91906131a3565b6114d6565b60004282106109a35760405162461bcd60e51b815260206004820152600b60248201526a0859195d195c9b5a5b995960aa1b60448201526064016108b9565b6001600160a01b03831660009081526101016020526040902054806109cc576000915050610835565b826109da8560018403610b33565b5163ffffffff16116109ff576109f38460018303610b33565b60200151915050610835565b82610a0b856000610b33565b5163ffffffff161115610a22576000915050610835565b600060001982015b81811115610a8d5760028282030481036000610a468883610b33565b805190915063ffffffff16871415610a68576020015194506108359350505050565b805163ffffffff16871115610a7f57819350610a86565b6001820392505b5050610a2a565b610a978683610b33565b602001519695505050505050565b610aad6119de565b610ab5611a39565b565b610abf6119de565b610acc60026000196131bb565b81610ad660355490565b610ae091906131a3565b1115610b255760405162461bcd60e51b81526020600482015260146024820152731cda185c995cce8818d85c08195e18d95959195960621b60448201526064016108b9565b610b2f8282611a8c565b5050565b604080518082018252600080825260209182018190526001600160a01b039490941684526101008152818420928452918252918290208251808401909352805463ffffffff168352600101549082015290565b6001600160a01b03821660009081526101046020526040812081908190610bae908590611b47565b9150915081610bc557610bc085610f53565b610bc7565b805b95945050505050565b306001600160a01b037f0000000000000000000000000000000000000000000000000000000000000000161415610c195760405162461bcd60e51b81526004016108b9906130f5565b7f00000000000000000000000000000000000000000000000000000000000000006001600160a01b0316610c4b61184f565b6001600160a01b031614610c715760405162461bcd60e51b81526004016108b990613141565b610c7a8261186b565b610b2f82826001611873565b6000306001600160a01b037f00000000000000000000000000000000000000000000000000000000000000001614610d215760405162461bcd60e51b815260206004820152603860248201527f555550535570677261646561626c653a206d757374206e6f742062652063616c6044820152771b1959081d1a1c9bdd59da0819195b1959d85d1958d85b1b60421b60648201526084016108b9565b506000805160206132bc83398151915290565b600061086b611c3e565b600054610100900460ff1615808015610d5e5750600054600160ff909116105b80610d785750303b158015610d78575060005460ff166001145b610ddb5760405162461bcd60e51b815260206004820152602e60248201527f496e697469616c697a61626c653a20636f6e747261637420697320616c72656160448201526d191e481a5b9a5d1a585b1a5e995960921b60648201526084016108b9565b6000805460ff191660011790558015610dfe576000805461ff0019166101001790555b8251610e415760405162461bcd60e51b81526020600482015260126024820152717368617265733a206e616d6520656d70747960701b60448201526064016108b9565b8151610e865760405162461bcd60e51b81526020600482015260146024820152737368617265733a2073796d626f6c20656d70747960601b60448201526064016108b9565b610e908383611c4a565b610e9983611c7b565b610ea1611cc5565b610ea9611cf4565b610eb1611d1b565b610eb9611cf4565b610efe6040518060400160405280600a8152602001693232b632b3b0ba34b7b760b11b815250604051806040016040528060018152602001600d60fa1b815250611d4a565b8015610f44576000805461ff0019169055604051600181527f7f26b83ff96e1f2b6a682f133852f6798a09c465da95921460cefb38474024989060200160405180910390a15b505050565b61093f3382611d7b565b6001600160a01b031660009081526033602052604090205490565b610f766119de565b610ab56000611e4e565b6001600160a01b038116600090815260996020526040812054610835565b610fa66119de565b610ab5611ea1565b60606037805461079e906130c0565b6000610fc76119de565b61086b611edf565b6000806000610fe084610105611b47565b9150915081610ff157603554610ff3565b805b949350505050565b6001600160a01b038116600090815261010160205260408120548061102157600061085a565b61102e8360018303610b33565b602001519392505050565b6110416119de565b610b2f8282611f3a565b600033816110598286611435565b9050838110156110b95760405162461bcd60e51b815260206004820152602560248201527f45524332303a2064656372656173656420616c6c6f77616e63652062656c6f77604482015264207a65726f60d81b60648201526084016108b9565b6110c682868684036114d6565b506001949350505050565b60003361082f818585611674565b8342111561112f5760405162461bcd60e51b815260206004820152601d60248201527f4552433230566f7465733a207369676e6174757265206578706972656400000060448201526064016108b9565b60006111d86111d07f0e3bc21ca2be03aeeee0e614bfe98f970c96a05a768f627c50ab81764cb5026861116061078f565b60405160200161117091906131dd565b60408051601f198184030181528282528051602091820120908301939093528101919091526001600160a01b038a1660608201526080810189905260a0810188905260c00160405160208183030381529060405280519060200120612068565b8585856120b6565b90506001600160a01b0381166112305760405162461bcd60e51b815260206004820181905260248201527f4552433230566f7465733a20696e76616c6964207369676e657220283078302960448201526064016108b9565b6001600160a01b0381166000908152610103602052604090205486146112945760405162461bcd60e51b81526020600482015260196024820152784552433230566f7465733a20696e76616c6964206e6f6e636560381b60448201526064016108b9565b6001600160a01b0381166000908152610103602052604081208054916112b9836131f9565b91905055506112c88188611d7b565b50505050505050565b834211156113215760405162461bcd60e51b815260206004820152601d60248201527f45524332305065726d69743a206578706972656420646561646c696e6500000060448201526064016108b9565b60007f6e71edae12b1b97f4d1f60370fef10105fa2faae0126114a169c64845d6126c98888886113508c6120de565b6040805160208101969096526001600160a01b0394851690860152929091166060840152608083015260a082015260c0810186905260e00160405160208183030381529060405280519060200120905060006113ab82612106565b905060006113bb828787876120b6565b9050896001600160a01b0316816001600160a01b03161461141e5760405162461bcd60e51b815260206004820152601e60248201527f45524332305065726d69743a20696e76616c6964207369676e6174757265000060448201526064016108b9565b6114298a8a8a6114d6565b50505050505050505050565b6001600160a01b03918216600090815260346020908152604080832093909416825291909152205490565b6114686119de565b6001600160a01b0381166114cd5760405162461bcd60e51b815260206004820152602660248201527f4f776e61626c653a206e6577206f776e657220697320746865207a65726f206160448201526564647265737360d01b60648201526084016108b9565b61093f81611e4e565b6001600160a01b0383166115385760405162461bcd60e51b8152602060048201526024808201527f45524332303a20617070726f76652066726f6d20746865207a65726f206164646044820152637265737360e01b60648201526084016108b9565b6001600160a01b0382166115995760405162461bcd60e51b815260206004820152602260248201527f45524332303a20617070726f766520746f20746865207a65726f206164647265604482015261737360f01b60648201526084016108b9565b6001600160a01b0383811660008181526034602090815260408083209487168084529482529182902085905590518481527f8c5be1e5ebec7d5bd14f71427d1e84f3dd0314c0f7b2291e5b200ac8c7c3b925910160405180910390a3505050565b60006116068484611435565b9050600019811461166e57818110156116615760405162461bcd60e51b815260206004820152601d60248201527f45524332303a20696e73756666696369656e7420616c6c6f77616e636500000060448201526064016108b9565b61166e84848484036114d6565b50505050565b6001600160a01b0383166116d85760405162461bcd60e51b815260206004820152602560248201527f45524332303a207472616e736665722066726f6d20746865207a65726f206164604482015264647265737360d81b60648201526084016108b9565b6001600160a01b03821661173a5760405162461bcd60e51b815260206004820152602360248201527f45524332303a207472616e7366657220746f20746865207a65726f206164647260448201526265737360e81b60648201526084016108b9565b611745838383612113565b6001600160a01b038316600090815260336020526040902054818110156117bd5760405162461bcd60e51b815260206004820152602660248201527f45524332303a207472616e7366657220616d6f756e7420657863656564732062604482015265616c616e636560d01b60648201526084016108b9565b6001600160a01b0380851660008181526033602052604080822086860390559286168082529083902080548601905591516000805160206133038339815191529061180b9086815260200190565b60405180910390a361166e565b600061086b7f8b73c3c69bb8fe3d512ecc4cf759cc79239f7b179b0ffacaa9a75d522b39400f61184760655490565b6066546121a4565b6000805160206132bc833981519152546001600160a01b031690565b61093f6119de565b7f4910fdfa16fed3260ed0e7147f7cc6da11a60208b5b9406d12a635614ffd91435460ff16156118a657610f44836121ed565b826001600160a01b03166352d1902d6040518163ffffffff1660e01b8152600401602060405180830381865afa925050508015611900575060408051601f3d908101601f191682019092526118fd91810190613214565b60015b6119635760405162461bcd60e51b815260206004820152602e60248201527f45524331393637557067726164653a206e657720696d706c656d656e7461746960448201526d6f6e206973206e6f74205555505360901b60648201526084016108b9565b6000805160206132bc83398151915281146119d25760405162461bcd60e51b815260206004820152602960248201527f45524331393637557067726164653a20756e737570706f727465642070726f786044820152681a58589b195555525160ba1b60648201526084016108b9565b50610f44838383612289565b610136546001600160a01b03163314610ab55760405162461bcd60e51b815260206004820181905260248201527f4f776e61626c653a2063616c6c6572206973206e6f7420746865206f776e657260448201526064016108b9565b611a416122ae565b610168805460ff191690557f5db9ee0a495bf2e6ff9c91a7834c1ba4fdd244a5e8aa4e537bd38aeae4b073aa335b6040516001600160a01b03909116815260200160405180910390a1565b6001600160a01b038216611ae25760405162461bcd60e51b815260206004820152601f60248201527f45524332303a206d696e7420746f20746865207a65726f20616464726573730060448201526064016108b9565b611aee60008383612113565b8060356000828254611b0091906131a3565b90915550506001600160a01b038216600081815260336020908152604080832080548601905551848152600080516020613303833981519152910160405180910390a35050565b60008060008411611b935760405162461bcd60e51b815260206004820152601660248201527504552433230536e617073686f743a20696420697320360541b60448201526064016108b9565b611b9b611c3e565b841115611bea5760405162461bcd60e51b815260206004820152601d60248201527f4552433230536e617073686f743a206e6f6e6578697374656e7420696400000060448201526064016108b9565b6000611bf684866122f8565b8454909150811415611c0f576000809250925050611c37565b6001846001018281548110611c2657611c2661322d565b906000526020600020015492509250505b9250929050565b600061086b6101075490565b600054610100900460ff16611c715760405162461bcd60e51b81526004016108b990613243565b610b2f82826123a3565b600054610100900460ff16611ca25760405162461bcd60e51b81526004016108b990613243565b61093f81604051806040016040528060018152602001603160f81b8152506123f1565b600054610100900460ff16611cec5760405162461bcd60e51b81526004016108b990613243565b610ab5612432565b600054610100900460ff16610ab55760405162461bcd60e51b81526004016108b990613243565b600054610100900460ff16611d425760405162461bcd60e51b81526004016108b990613243565b610ab5612466565b600054610100900460ff16611d715760405162461bcd60e51b81526004016108b990613243565b610b2f8282612496565b6000611d8683610f53565b11611dbd5760405162461bcd60e51b81526020600482015260076024820152662173686172657360c81b60448201526064016108b9565b6001600160a01b0380831660009081526101026020526040902080548383166001600160a01b031982161790915516611dff8183611dfa86610f53565b6124d7565b816001600160a01b0316816001600160a01b0316846001600160a01b03167f3134e8a2e6d97e929a7e54011ea5485d7d196dd5f0ba4d4ef95803e8e3fc257f60405160405180910390a4505050565b61013680546001600160a01b038381166001600160a01b0319831681179093556040519116919082907f8be0079c531659141344cd1fd0a4f28419497f9722a3daafe3b4186f6b6457e090600090a35050565b611ea96125bb565b610168805460ff191660011790557f62e78cea01bee320cd4e420270b5ea74000d11b0c9f74754ebdbfc544b05a258611a6f3390565b6000611ef061010780546001019055565b6000611efa611c3e565b90507f8030e83b04d87bef53480e26263266d6ca66863aa8506aca6f2559d18aa1cb6781604051611f2d91815260200190565b60405180910390a1919050565b6001600160a01b038216611f9a5760405162461bcd60e51b815260206004820152602160248201527f45524332303a206275726e2066726f6d20746865207a65726f206164647265736044820152607360f81b60648201526084016108b9565b611fa682600083612113565b6001600160a01b0382166000908152603360205260409020548181101561201a5760405162461bcd60e51b815260206004820152602260248201527f45524332303a206275726e20616d6f756e7420657863656564732062616c616e604482015261636560f01b60648201526084016108b9565b6001600160a01b0383166000818152603360209081526040808320868603905560358054879003905551858152919291600080516020613303833981519152910160405180910390a3505050565b6000610835612075612602565b8360405161190160f01b6020820152602281018390526042810182905260009060620160405160208183030381529060405280519060200120905092915050565b60008060006120c787878787612639565b915091506120d4816126f3565b5095945050505050565b6001600160a01b03811660009081526099602052604090208054600181018255905b50919050565b6000610835612075611818565b61211e83838361283c565b6001600160a01b03831615806121515750610136546001600160a01b03163314801561215157506001600160a01b038216155b8061216057506101685460ff16155b610f445760405162461bcd60e51b81526020600482015260156024820152747368617265733a20217472616e7366657261626c6560581b60448201526064016108b9565b6040805160208101859052908101839052606081018290524660808201523060a082015260009060c0016040516020818303038152906040528051906020012090509392505050565b6001600160a01b0381163b61225a5760405162461bcd60e51b815260206004820152602d60248201527f455243313936373a206e657720696d706c656d656e746174696f6e206973206e60448201526c1bdd08184818dbdb9d1c9858dd609a1b60648201526084016108b9565b6000805160206132bc83398151915280546001600160a01b0319166001600160a01b0392909216919091179055565b6122928361288f565b60008251118061229f5750805b15610f445761166e83836128cf565b6101685460ff16610ab55760405162461bcd60e51b815260206004820152601460248201527314185d5cd8589b194e881b9bdd081c185d5cd95960621b60448201526064016108b9565b815460009061230957506000610835565b82546000905b8082101561235657600061232383836129ba565b6000878152602090209091508590820154111561234257809150612350565b61234d8160016131a3565b92505b5061230f565b60008211801561238257508361237f8661237160018661328e565b600091825260209091200190565b54145b1561239b5761239260018361328e565b92505050610835565b509050610835565b600054610100900460ff166123ca5760405162461bcd60e51b81526004016108b990613243565b81516123dd906036906020850190612ca9565b508051610f44906037906020840190612ca9565b600054610100900460ff166124185760405162461bcd60e51b81526004016108b990613243565b815160209283012081519190920120606591909155606655565b600054610100900460ff166124595760405162461bcd60e51b81526004016108b990613243565b610168805460ff19169055565b600054610100900460ff1661248d5760405162461bcd60e51b81526004016108b990613243565b610ab533611e4e565b600054610100900460ff166124bd5760405162461bcd60e51b81526004016108b990613243565b81516020928301208151919092012060cc9190915560cd55565b816001600160a01b0316836001600160a01b0316141580156124f857508015155b15610f44576001600160a01b0383161561255a576001600160a01b038316600090815261010160205260408120549081612533576000612545565b6125408560018403610b33565b602001515b9050828103612556868484846129d5565b5050505b6001600160a01b03821615610f44576001600160a01b0382166000908152610101602052604081205490816125905760006125a2565b61259d8460018403610b33565b602001515b90508281016125b3858484846129d5565b505050505050565b6101685460ff1615610ab55760405162461bcd60e51b815260206004820152601060248201526f14185d5cd8589b194e881c185d5cd95960821b60448201526064016108b9565b600061086b7f8b73c3c69bb8fe3d512ecc4cf759cc79239f7b179b0ffacaa9a75d522b39400f61263160cc5490565b60cd546121a4565b6000806fa2a8918ca85bafe22016d0b997e4df60600160ff1b0383111561266657506000905060036126ea565b6040805160008082526020820180845289905260ff881692820192909252606081018690526080810185905260019060a0016020604051602081039080840390855afa1580156126ba573d6000803e3d6000fd5b5050604051601f1901519150506001600160a01b0381166126e3576000600192509250506126ea565b9150600090505b94509492505050565b6000816004811115612707576127076132a5565b14156127105750565b6001816004811115612724576127246132a5565b141561276d5760405162461bcd60e51b815260206004820152601860248201527745434453413a20696e76616c6964207369676e617475726560401b60448201526064016108b9565b6002816004811115612781576127816132a5565b14156127cf5760405162461bcd60e51b815260206004820152601f60248201527f45434453413a20696e76616c6964207369676e6174757265206c656e6774680060448201526064016108b9565b60038160048111156127e3576127e36132a5565b141561093f5760405162461bcd60e51b815260206004820152602260248201527f45434453413a20696e76616c6964207369676e6174757265202773272076616c604482015261756560f01b60648201526084016108b9565b612847838383612afe565b6001600160a01b0383166128665761285e82612b9a565b610f44612bc5565b6001600160a01b03821661287d5761285e83612b9a565b61288683612b9a565b610f4482612b9a565b612898816121ed565b6040516001600160a01b038216907fbc7cd75a20ee27fd9adebab32041f755214dbc6bffa90cc0225b39da2e5c2d3b90600090a250565b60606001600160a01b0383163b6129375760405162461bcd60e51b815260206004820152602660248201527f416464726573733a2064656c65676174652063616c6c20746f206e6f6e2d636f6044820152651b9d1c9858dd60d21b60648201526084016108b9565b600080846001600160a01b03168460405161295291906131dd565b600060405180830381855af49150503d806000811461298d576040519150601f19603f3d011682016040523d82523d6000602084013e612992565b606091505b5091509150610bc782826040518060600160405280602781526020016132dc60279139612bd4565b60006129c960028484186131bb565b61085a908484166131a3565b428315801590612a1557506001600160a01b0385166000908152610100602090815260408083206000198801845290915290205463ffffffff8281169116145b15612a4d576001600160a01b038516600090815261010060209081526040808320600019880184529091529020600101829055612ab3565b60408051808201825263ffffffff838116825260208083018681526001600160a01b038a16600081815261010084528681208b825284528681209551865463ffffffff191695169490941785559051600194850155825261010190529190912090850190555b60408051848152602081018490526001600160a01b038716917fdec2bacdd2f05b59de34da9b523dff8be42e5e38e818c82fdb0bae774387a724910160405180910390a25050505050565b612b0782610f53565b158015612b2b57506001600160a01b03821660009081526101016020526040902054155b8015612b375750600081115b15612b67576001600160a01b03821660008181526101026020526040902080546001600160a01b03191690911790555b6001600160a01b0380841660009081526101026020526040808220548584168352912054610f44929182169116836124d7565b6001600160a01b03811660009081526101046020526040902061093f90612bc083610f53565b612bed565b610ab5610105612bc060355490565b60608315612be357508161085a565b61085a8383612c37565b6000612bf7611c3e565b905080612c0384612c61565b1015610f44578254600180820185556000858152602080822090930193909355938401805494850181558252902090910155565b815115612c475781518083602001fd5b8060405162461bcd60e51b81526004016108b99190612da0565b8054600090612c7257506000919050565b81548290612c829060019061328e565b81548110612c9257612c9261322d565b90600052602060002001549050919050565b919050565b828054612cb5906130c0565b90600052602060002090601f016020900481019282612cd75760008555612d1d565b82601f10612cf057805160ff1916838001178555612d1d565b82800160010185558215612d1d579182015b82811115612d1d578251825591602001919060010190612d02565b50612d29929150612d2d565b5090565b5b80821115612d295760008155600101612d2e565b80356001600160a01b0381168114612ca457600080fd5b600060208284031215612d6b57600080fd5b61085a82612d42565b60005b83811015612d8f578181015183820152602001612d77565b8381111561166e5750506000910152565b6020815260008251806020840152612dbf816040850160208701612d74565b601f01601f19169190910160400192915050565b60008060408385031215612de657600080fd5b612def83612d42565b946020939093013593505050565b600080600060608486031215612e1257600080fd5b612e1b84612d42565b9250612e2960208501612d42565b9150604084013590509250925092565b634e487b7160e01b600052604160045260246000fd5b600067ffffffffffffffff80841115612e6a57612e6a612e39565b604051601f8501601f19908116603f01168101908282118183101715612e9257612e92612e39565b81604052809350858152868686011115612eab57600080fd5b858560208301376000602087830101525050509392505050565b60008060408385031215612ed857600080fd5b612ee183612d42565b9150602083013567ffffffffffffffff811115612efd57600080fd5b8301601f81018513612f0e57600080fd5b612f1d85823560208401612e4f565b9150509250929050565b600082601f830112612f3857600080fd5b61085a83833560208501612e4f565b60008060408385031215612f5a57600080fd5b823567ffffffffffffffff80821115612f7257600080fd5b612f7e86838701612f27565b93506020850135915080821115612f9457600080fd5b50612f1d85828601612f27565b600060208284031215612fb357600080fd5b5035919050565b803560ff81168114612ca457600080fd5b60008060008060008060c08789031215612fe457600080fd5b612fed87612d42565b9550602087013594506040870135935061300960608801612fba565b92506080870135915060a087013590509295509295509295565b600080600080600080600060e0888a03121561303e57600080fd5b61304788612d42565b965061305560208901612d42565b9550604088013594506060880135935061307160808901612fba565b925060a0880135915060c0880135905092959891949750929550565b600080604083850312156130a057600080fd5b6130a983612d42565b91506130b760208401612d42565b90509250929050565b600181811c908216806130d457607f821691505b6020821081141561210057634e487b7160e01b600052602260045260246000fd5b6020808252602c908201527f46756e6374696f6e206d7573742062652063616c6c6564207468726f7567682060408201526b19195b1959d85d1958d85b1b60a21b606082015260800190565b6020808252602c908201527f46756e6374696f6e206d7573742062652063616c6c6564207468726f7567682060408201526b6163746976652070726f787960a01b606082015260800190565b634e487b7160e01b600052601160045260246000fd5b600082198211156131b6576131b661318d565b500190565b6000826131d857634e487b7160e01b600052601260045260246000fd5b500490565b600082516131ef818460208701612d74565b9190910192915050565b600060001982141561320d5761320d61318d565b5060010190565b60006020828403121561322657600080fd5b5051919050565b634e487b7160e01b600052603260045260246000fd5b6020808252602b908201527f496e697469616c697a61626c653a20636f6e7472616374206973206e6f74206960408201526a6e697469616c697a696e6760a81b606082015260800190565b6000828210156132a0576132a061318d565b500390565b634e487b7160e01b600052602160045260246000fdfe360894a13ba1a3210667c828492db98dca3e2076cc3735a920a3ca505d382bbc416464726573733a206c6f772d6c6576656c2064656c65676174652063616c6c206661696c6564ddf252ad1be2c89b69c2b068fc378daa952ba7f163c4a11628f55a4df523b3efa264697066735822122039f9dd9d3702323ea3968368beb1e94ae7b72cc30776c5026aa847ab0c76d29364736f6c634300080c0033",
  "devdoc": {
    "kind": "dev",
    "methods": {
      "DOMAIN_SEPARATOR()": {
        "details": "See {IERC20Permit-DOMAIN_SEPARATOR}."
      },
      "allowance(address,address)": {
        "details": "See {IERC20-allowance}."
      },
      "approve(address,uint256)": {
        "details": "See {IERC20-approve}. NOTE: If `amount` is the maximum `uint256`, the allowance is not updated on `transferFrom`. This is semantically equivalent to an infinite approval. Requirements: - `spender` cannot be the zero address."
      },
      "balanceOf(address)": {
        "details": "See {IERC20-balanceOf}."
      },
      "balanceOfAt(address,uint256)": {
        "details": "Retrieves the balance of `account` at the time `snapshotId` was created."
      },
      "burn(address,uint256)": {
        "params": {
          "account": "Address to lose shares",
          "amount": "Amount to burn"
        }
      },
      "decimals()": {
        "details": "Returns the number of decimals used to get its user representation. For example, if `decimals` equals `2`, a balance of `505` tokens should be displayed to a user as `5.05` (`505 / 10 ** 2`). Tokens usually opt for a value of 18, imitating the relationship between Ether and Wei. This is the value {ERC20} uses, unless this function is overridden; NOTE: This information is only used for _display_ purposes: it in no way affects any of the arithmetic of the contract, including {IERC20-balanceOf} and {IERC20-transfer}."
      },
      "decreaseAllowance(address,uint256)": {
        "details": "Atomically decreases the allowance granted to `spender` by the caller. This is an alternative to {approve} that can be used as a mitigation for problems described in {IERC20-approve}. Emits an {Approval} event indicating the updated allowance. Requirements: - `spender` cannot be the zero address. - `spender` must have allowance for the caller of at least `subtractedValue`."
      },
      "delegate(address)": {
        "params": {
          "delegatee": "The address to delegate votes to."
        }
      },
      "delegateBySig(address,uint256,uint256,uint8,bytes32,bytes32)": {
        "params": {
          "delegatee": "The address to delegate 'votes' to.",
          "expiry": "The time at which to expire the signature.",
          "nonce": "The contract state required to match the signature.",
          "r": "The r signature",
          "s": "The s signature",
          "v": "The v signature"
        }
      },
      "getPastVotes(address,uint256)": {
        "params": {
          "account": "The user to check `votes` for.",
          "timePoint": "The unix time to check `votes` for."
        },
        "returns": {
          "votes": "Past `votes` delegated to `account`."
        }
      },
      "getVotes(address)": {
        "params": {
          "account": "The user to check delegated `votes` for."
        },
        "returns": {
          "votes": "Current `votes` delegated to `account`."
        }
      },
      "increaseAllowance(address,uint256)": {
        "details": "Atomically increases the allowance granted to `spender` by the caller. This is an alternative to {approve} that can be used as a mitigation for problems described in {IERC20-approve}. Emits an {Approval} event indicating the updated allowance. Requirements: - `spender` cannot be the zero address."
      },
      "mint(address,uint256)": {
        "params": {
          "amount": "Amount to mint",
          "recipient": "Address to receive shares"
        }
      },
      "name()": {
        "details": "Returns the name of the token."
      },
      "nonces(address)": {
        "details": "See {IERC20Permit-nonces}."
      },
      "now()": {
        "returns": {
          "timePoint": "returns unix epoch timestamp"
        }
      },
      "owner()": {
        "details": "Returns the address of the current owner."
      },
      "paused()": {
        "details": "Returns true if the contract is paused, and false otherwise."
      },
      "permit(address,address,uint256,uint256,uint8,bytes32,bytes32)": {
        "details": "See {IERC20Permit-permit}."
      },
      "proxiableUUID()": {
        "details": "Implementation of the ERC1822 {proxiableUUID} function. This returns the storage slot used by the implementation. It is used to validate the implementation's compatibility when performing an upgrade. IMPORTANT: A proxy pointing at a proxiable contract should not be considered proxiable itself, because this risks bricking a proxy that upgrades to it, by delegating to itself until out of gas. Thus it is critical that this function revert if invoked through a proxy. This is guaranteed by the `notDelegated` modifier."
      },
      "renounceOwnership()": {
        "details": "Leaves the contract without owner. It will not be possible to call `onlyOwner` functions anymore. Can only be called by the current owner. NOTE: Renouncing ownership will leave the contract without an owner, thereby removing any functionality that is only available to the owner."
      },
      "setUp(string,string)": {
        "details": "initializer should prevent this from being called again",
        "params": {
          "name_": "Name for ERC20 token trackers",
          "symbol_": "Symbol for ERC20 token trackers"
        }
      },
      "symbol()": {
        "details": "Returns the symbol of the token, usually a shorter version of the name."
      },
      "totalSupply()": {
        "details": "See {IERC20-totalSupply}."
      },
      "totalSupplyAt(uint256)": {
        "details": "Retrieves the total supply at the time `snapshotId` was created."
      },
      "transfer(address,uint256)": {
        "details": "See {IERC20-transfer}. Requirements: - `to` cannot be the zero address. - the caller must have a balance of at least `amount`."
      },
      "transferFrom(address,address,uint256)": {
        "details": "See {IERC20-transferFrom}. Emits an {Approval} event indicating the updated allowance. This is not required by the EIP. See the note at the beginning of {ERC20}. NOTE: Does not update the allowance if the current allowance is the maximum `uint256`. Requirements: - `from` and `to` cannot be the zero address. - `from` must have a balance of at least `amount`. - the caller must have allowance for ``from``'s tokens of at least `amount`."
      },
      "transferOwnership(address)": {
        "details": "Transfers ownership of the contract to a new account (`newOwner`). Can only be called by the current owner."
      },
      "upgradeTo(address)": {
        "details": "Upgrade the implementation of the proxy to `newImplementation`. Calls {_authorizeUpgrade}. Emits an {Upgraded} event."
      },
      "upgradeToAndCall(address,bytes)": {
        "details": "Upgrade the implementation of the proxy to `newImplementation`, and subsequently execute the function call encoded in `data`. Calls {_authorizeUpgrade}. Emits an {Upgraded} event."
      }
    },
    "title": "Shares",
    "version": 1
  },
  "userdoc": {
    "kind": "user",
    "methods": {
      "burn(address,uint256)": {
        "notice": "Baal-only function to burn shares."
      },
      "delegate(address)": {
        "notice": "Delegate votes from user to `delegatee`."
      },
      "delegateBySig(address,uint256,uint256,uint8,bytes32,bytes32)": {
        "notice": "Delegates votes from `signer` to `delegatee` with EIP-712 signature."
      },
      "getCurrentSnapshotId()": {
        "notice": "get current SnapshotId"
      },
      "getPastVotes(address,uint256)": {
        "notice": "Returns the prior number of `votes` for `account` as of `timePoint`."
      },
      "getVotes(address)": {
        "notice": "Returns the current delegated `vote` balance for `account`."
      },
      "mint(address,uint256)": {
        "notice": "Baal-only function to mint shares."
      },
      "now()": {
        "notice": "Returns the current timepoint."
      },
      "pause()": {
        "notice": "Baal-only function to pause shares."
      },
      "setUp(string,string)": {
        "notice": "Configure shares - called by Baal on summon"
      },
      "snapshot()": {
        "notice": "Allows baal to create a snapshot"
      },
      "unpause()": {
        "notice": "Baal-only function to unpause shares."
      }
    },
    "notice": "Accounting for Baal non voting shares",
    "version": 1
  },
  "storageLayout": {
    "storage": [
      {
        "astId": 4510,
        "contract": "contracts/fixtures/Baal/SharesV1.sol:SharesV1",
        "label": "_initialized",
        "offset": 0,
        "slot": "0",
        "type": "t_uint8"
      },
      {
        "astId": 4513,
        "contract": "contracts/fixtures/Baal/SharesV1.sol:SharesV1",
        "label": "_initializing",
        "offset": 1,
        "slot": "0",
        "type": "t_bool"
      },
      {
        "astId": 6779,
        "contract": "contracts/fixtures/Baal/SharesV1.sol:SharesV1",
        "label": "__gap",
        "offset": 0,
        "slot": "1",
        "type": "t_array(t_uint256)50_storage"
      },
      {
        "astId": 5027,
        "contract": "contracts/fixtures/Baal/SharesV1.sol:SharesV1",
        "label": "_balances",
        "offset": 0,
        "slot": "51",
        "type": "t_mapping(t_address,t_uint256)"
      },
      {
        "astId": 5033,
        "contract": "contracts/fixtures/Baal/SharesV1.sol:SharesV1",
        "label": "_allowances",
        "offset": 0,
        "slot": "52",
        "type": "t_mapping(t_address,t_mapping(t_address,t_uint256))"
      },
      {
        "astId": 5035,
        "contract": "contracts/fixtures/Baal/SharesV1.sol:SharesV1",
        "label": "_totalSupply",
        "offset": 0,
        "slot": "53",
        "type": "t_uint256"
      },
      {
        "astId": 5037,
        "contract": "contracts/fixtures/Baal/SharesV1.sol:SharesV1",
        "label": "_name",
        "offset": 0,
        "slot": "54",
        "type": "t_string_storage"
      },
      {
        "astId": 5039,
        "contract": "contracts/fixtures/Baal/SharesV1.sol:SharesV1",
        "label": "_symbol",
        "offset": 0,
        "slot": "55",
        "type": "t_string_storage"
      },
      {
        "astId": 5619,
        "contract": "contracts/fixtures/Baal/SharesV1.sol:SharesV1",
        "label": "__gap",
        "offset": 0,
        "slot": "56",
        "type": "t_array(t_uint256)45_storage"
      },
      {
        "astId": 7459,
        "contract": "contracts/fixtures/Baal/SharesV1.sol:SharesV1",
        "label": "_HASHED_NAME",
        "offset": 0,
        "slot": "101",
        "type": "t_bytes32"
      },
      {
        "astId": 7461,
        "contract": "contracts/fixtures/Baal/SharesV1.sol:SharesV1",
        "label": "_HASHED_VERSION",
        "offset": 0,
        "slot": "102",
        "type": "t_bytes32"
      },
      {
        "astId": 7599,
        "contract": "contracts/fixtures/Baal/SharesV1.sol:SharesV1",
        "label": "__gap",
        "offset": 0,
        "slot": "103",
        "type": "t_array(t_uint256)50_storage"
      },
      {
        "astId": 6097,
        "contract": "contracts/fixtures/Baal/SharesV1.sol:SharesV1",
        "label": "_nonces",
        "offset": 0,
        "slot": "153",
        "type": "t_mapping(t_address,t_struct(Counter)6786_storage)"
      },
      {
        "astId": 6105,
        "contract": "contracts/fixtures/Baal/SharesV1.sol:SharesV1",
        "label": "_PERMIT_TYPEHASH_DEPRECATED_SLOT",
        "offset": 0,
        "slot": "154",
        "type": "t_bytes32"
      },
      {
        "astId": 6261,
        "contract": "contracts/fixtures/Baal/SharesV1.sol:SharesV1",
        "label": "__gap",
        "offset": 0,
        "slot": "155",
        "type": "t_array(t_uint256)49_storage"
      },
      {
        "astId": 16639,
        "contract": "contracts/fixtures/Baal/SharesV1.sol:SharesV1",
        "label": "_HASHED_NAME_DELEGATION",
        "offset": 0,
        "slot": "204",
        "type": "t_bytes32"
      },
      {
        "astId": 16641,
        "contract": "contracts/fixtures/Baal/SharesV1.sol:SharesV1",
        "label": "_HASHED_VERSION_DELEGATION",
        "offset": 0,
        "slot": "205",
        "type": "t_bytes32"
      },
      {
        "astId": 16779,
        "contract": "contracts/fixtures/Baal/SharesV1.sol:SharesV1",
        "label": "__gap",
        "offset": 0,
        "slot": "206",
        "type": "t_array(t_uint256)50_storage"
      },
      {
        "astId": 16040,
        "contract": "contracts/fixtures/Baal/SharesV1.sol:SharesV1",
        "label": "checkpoints",
        "offset": 0,
        "slot": "256",
        "type": "t_mapping(t_address,t_mapping(t_uint256,t_struct(Checkpoint)16033_storage))"
      },
      {
        "astId": 16044,
        "contract": "contracts/fixtures/Baal/SharesV1.sol:SharesV1",
        "label": "numCheckpoints",
        "offset": 0,
        "slot": "257",
        "type": "t_mapping(t_address,t_uint256)"
      },
      {
        "astId": 16048,
        "contract": "contracts/fixtures/Baal/SharesV1.sol:SharesV1",
        "label": "delegates",
        "offset": 0,
        "slot": "258",
        "type": "t_mapping(t_address,t_address)"
      },
      {
        "astId": 16052,
        "contract": "contracts/fixtures/Baal/SharesV1.sol:SharesV1",
        "label": "delegationNonces",
        "offset": 0,
        "slot": "259",
        "type": "t_mapping(t_address,t_uint256)"
      },
      {
        "astId": 5741,
        "contract": "contracts/fixtures/Baal/SharesV1.sol:SharesV1",
        "label": "_accountBalanceSnapshots",
        "offset": 0,
        "slot": "260",
        "type": "t_mapping(t_address,t_struct(Snapshots)5736_storage)"
      },
      {
        "astId": 5744,
        "contract": "contracts/fixtures/Baal/SharesV1.sol:SharesV1",
        "label": "_totalSupplySnapshots",
        "offset": 0,
        "slot": "261",
        "type": "t_struct(Snapshots)5736_storage"
      },
      {
        "astId": 5747,
        "contract": "contracts/fixtures/Baal/SharesV1.sol:SharesV1",
        "label": "_currentSnapshotId",
        "offset": 0,
        "slot": "263",
        "type": "t_struct(Counter)6786_storage"
      },
      {
        "astId": 6045,
        "contract": "contracts/fixtures/Baal/SharesV1.sol:SharesV1",
        "label": "__gap",
        "offset": 0,
        "slot": "264",
        "type": "t_array(t_uint256)46_storage"
      },
      {
        "astId": 3986,
        "contract": "contracts/fixtures/Baal/SharesV1.sol:SharesV1",
        "label": "_owner",
        "offset": 0,
        "slot": "310",
        "type": "t_address"
      },
      {
        "astId": 4106,
        "contract": "contracts/fixtures/Baal/SharesV1.sol:SharesV1",
        "label": "__gap",
        "offset": 0,
        "slot": "311",
        "type": "t_array(t_uint256)49_storage"
      },
      {
        "astId": 4829,
        "contract": "contracts/fixtures/Baal/SharesV1.sol:SharesV1",
        "label": "_paused",
        "offset": 0,
        "slot": "360",
        "type": "t_bool"
      },
      {
        "astId": 4934,
        "contract": "contracts/fixtures/Baal/SharesV1.sol:SharesV1",
        "label": "__gap",
        "offset": 0,
        "slot": "361",
        "type": "t_array(t_uint256)49_storage"
      },
      {
        "astId": 4492,
        "contract": "contracts/fixtures/Baal/SharesV1.sol:SharesV1",
        "label": "__gap",
        "offset": 0,
        "slot": "410",
        "type": "t_array(t_uint256)50_storage"
      },
      {
        "astId": 4807,
        "contract": "contracts/fixtures/Baal/SharesV1.sol:SharesV1",
        "label": "__gap",
        "offset": 0,
        "slot": "460",
        "type": "t_array(t_uint256)50_storage"
      }
    ],
    "types": {
      "t_address": {
        "encoding": "inplace",
        "label": "address",
        "numberOfBytes": "20"
      },
      "t_array(t_uint256)45_storage": {
        "base": "t_uint256",
        "encoding": "inplace",
        "label": "uint256[45]",
        "numberOfBytes": "1440"
      },
      "t_array(t_uint256)46_storage": {
        "base": "t_uint256",
        "encoding": "inplace",
        "label": "uint256[46]",
        "numberOfBytes": "1472"
      },
      "t_array(t_uint256)49_storage": {
        "base": "t_uint256",
        "encoding": "inplace",
        "label": "uint256[49]",
        "numberOfBytes": "1568"
      },
      "t_array(t_uint256)50_storage": {
        "base": "t_uint256",
        "encoding": "inplace",
        "label": "uint256[50]",
        "numberOfBytes": "1600"
      },
      "t_array(t_uint256)dyn_storage": {
        "base": "t_uint256",
        "encoding": "dynamic_array",
        "label": "uint256[]",
        "numberOfBytes": "32"
      },
      "t_bool": {
        "encoding": "inplace",
        "label": "bool",
        "numberOfBytes": "1"
      },
      "t_bytes32": {
        "encoding": "inplace",
        "label": "bytes32",
        "numberOfBytes": "32"
      },
      "t_mapping(t_address,t_address)": {
        "encoding": "mapping",
        "key": "t_address",
        "label": "mapping(address => address)",
        "numberOfBytes": "32",
        "value": "t_address"
      },
      "t_mapping(t_address,t_mapping(t_address,t_uint256))": {
        "encoding": "mapping",
        "key": "t_address",
        "label": "mapping(address => mapping(address => uint256))",
        "numberOfBytes": "32",
        "value": "t_mapping(t_address,t_uint256)"
      },
      "t_mapping(t_address,t_mapping(t_uint256,t_struct(Checkpoint)16033_storage))": {
        "encoding": "mapping",
        "key": "t_address",
        "label": "mapping(address => mapping(uint256 => struct BaalVotes.Checkpoint))",
        "numberOfBytes": "32",
        "value": "t_mapping(t_uint256,t_struct(Checkpoint)16033_storage)"
      },
      "t_mapping(t_address,t_struct(Counter)6786_storage)": {
        "encoding": "mapping",
        "key": "t_address",
        "label": "mapping(address => struct CountersUpgradeable.Counter)",
        "numberOfBytes": "32",
        "value": "t_struct(Counter)6786_storage"
      },
      "t_mapping(t_address,t_struct(Snapshots)5736_storage)": {
        "encoding": "mapping",
        "key": "t_address",
        "label": "mapping(address => struct ERC20SnapshotUpgradeable.Snapshots)",
        "numberOfBytes": "32",
        "value": "t_struct(Snapshots)5736_storage"
      },
      "t_mapping(t_address,t_uint256)": {
        "encoding": "mapping",
        "key": "t_address",
        "label": "mapping(address => uint256)",
        "numberOfBytes": "32",
        "value": "t_uint256"
      },
      "t_mapping(t_uint256,t_struct(Checkpoint)16033_storage)": {
        "encoding": "mapping",
        "key": "t_uint256",
        "label": "mapping(uint256 => struct BaalVotes.Checkpoint)",
        "numberOfBytes": "32",
        "value": "t_struct(Checkpoint)16033_storage"
      },
      "t_string_storage": {
        "encoding": "bytes",
        "label": "string",
        "numberOfBytes": "32"
      },
      "t_struct(Checkpoint)16033_storage": {
        "encoding": "inplace",
        "label": "struct BaalVotes.Checkpoint",
        "members": [
          {
            "astId": 16030,
            "contract": "contracts/fixtures/Baal/SharesV1.sol:SharesV1",
            "label": "fromTimePoint",
            "offset": 0,
            "slot": "0",
            "type": "t_uint32"
          },
          {
            "astId": 16032,
            "contract": "contracts/fixtures/Baal/SharesV1.sol:SharesV1",
            "label": "votes",
            "offset": 0,
            "slot": "1",
            "type": "t_uint256"
          }
        ],
        "numberOfBytes": "64"
      },
      "t_struct(Counter)6786_storage": {
        "encoding": "inplace",
        "label": "struct CountersUpgradeable.Counter",
        "members": [
          {
            "astId": 6785,
            "contract": "contracts/fixtures/Baal/SharesV1.sol:SharesV1",
            "label": "_value",
            "offset": 0,
            "slot": "0",
            "type": "t_uint256"
          }
        ],
        "numberOfBytes": "32"
      },
      "t_struct(Snapshots)5736_storage": {
        "encoding": "inplace",
        "label": "struct ERC20SnapshotUpgradeable.Snapshots",
        "members": [
          {
            "astId": 5732,
            "contract": "contracts/fixtures/Baal/SharesV1.sol:SharesV1",
            "label": "ids",
            "offset": 0,
            "slot": "0",
            "type": "t_array(t_uint256)dyn_storage"
          },
          {
            "astId": 5735,
            "contract": "contracts/fixtures/Baal/SharesV1.sol:SharesV1",
            "label": "values",
            "offset": 0,
            "slot": "1",
            "type": "t_array(t_uint256)dyn_storage"
          }
        ],
        "numberOfBytes": "64"
      },
      "t_uint256": {
        "encoding": "inplace",
        "label": "uint256",
        "numberOfBytes": "32"
      },
      "t_uint32": {
        "encoding": "inplace",
        "label": "uint32",
        "numberOfBytes": "4"
      },
      "t_uint8": {
        "encoding": "inplace",
        "label": "uint8",
        "numberOfBytes": "1"
      }
    }
  }
}