{
  "address": "0x76cd2e38F01D8564117050E25c779Ad2AF853Fe2",
  "abi": [
    {
      "anonymous": false,
      "inputs": [
        {
          "indexed": false,
          "internalType": "address",
          "name": "previousAdmin",
          "type": "address"
        },
        {
          "indexed": false,
          "internalType": "address",
          "name": "newAdmin",
          "type": "address"
        }
      ],
      "name": "AdminChanged",
      "type": "event"
    },
    {
      "anonymous": false,
      "inputs": [
        {
          "indexed": true,
          "internalType": "address",
          "name": "beacon",
          "type": "address"
        }
      ],
      "name": "BeaconUpgraded",
      "type": "event"
    },
    {
      "anonymous": false,
      "inputs": [
        {
          "indexed": false,
          "internalType": "uint8",
          "name": "version",
          "type": "uint8"
        }
      ],
      "name": "Initialized",
      "type": "event"
    },
    {
      "anonymous": false,
      "inputs": [
        {
          "indexed": true,
          "internalType": "bytes32",
          "name": "role",
          "type": "bytes32"
        },
        {
          "indexed": true,
          "internalType": "bytes32",
          "name": "previousAdminRole",
          "type": "bytes32"
        },
        {
          "indexed": true,
          "internalType": "bytes32",
          "name": "newAdminRole",
          "type": "bytes32"
        }
      ],
      "name": "RoleAdminChanged",
      "type": "event"
    },
    {
      "anonymous": false,
      "inputs": [
        {
          "indexed": true,
          "internalType": "bytes32",
          "name": "role",
          "type": "bytes32"
        },
        {
          "indexed": true,
          "internalType": "address",
          "name": "account",
          "type": "address"
        },
        {
          "indexed": true,
          "internalType": "address",
          "name": "sender",
          "type": "address"
        }
      ],
      "name": "RoleGranted",
      "type": "event"
    },
    {
      "anonymous": false,
      "inputs": [
        {
          "indexed": true,
          "internalType": "bytes32",
          "name": "role",
          "type": "bytes32"
        },
        {
          "indexed": true,
          "internalType": "address",
          "name": "account",
          "type": "address"
        },
        {
          "indexed": true,
          "internalType": "address",
          "name": "sender",
          "type": "address"
        }
      ],
      "name": "RoleRevoked",
      "type": "event"
    },
    {
      "anonymous": false,
      "inputs": [
        {
          "indexed": true,
          "internalType": "address",
          "name": "implementation",
          "type": "address"
        }
      ],
      "name": "Upgraded",
      "type": "event"
    },
    {
      "inputs": [],
      "name": "DEFAULT_ADMIN_ROLE",
      "outputs": [
        {
          "internalType": "bytes32",
          "name": "",
          "type": "bytes32"
        }
      ],
      "stateMutability": "view",
      "type": "function"
    },
    {
      "inputs": [],
      "name": "UPGRADER_ROLE",
      "outputs": [
        {
          "internalType": "bytes32",
          "name": "",
          "type": "bytes32"
        }
      ],
      "stateMutability": "view",
      "type": "function"
    },
    {
      "inputs": [],
      "name": "_baalSummoner",
      "outputs": [
        {
          "internalType": "contract IBaalAdvTokenSummoner",
          "name": "",
          "type": "address"
        }
      ],
      "stateMutability": "view",
      "type": "function"
    },
    {
      "inputs": [],
      "name": "_shamanSummoner",
      "outputs": [
        {
          "internalType": "contract IShamanSummoner",
          "name": "",
          "type": "address"
        }
      ],
      "stateMutability": "view",
      "type": "function"
    },
    {
      "inputs": [
        {
          "internalType": "bytes32",
          "name": "role",
          "type": "bytes32"
        }
      ],
      "name": "getRoleAdmin",
      "outputs": [
        {
          "internalType": "bytes32",
          "name": "",
          "type": "bytes32"
        }
      ],
      "stateMutability": "view",
      "type": "function"
    },
    {
      "inputs": [
        {
          "internalType": "bytes32",
          "name": "role",
          "type": "bytes32"
        },
        {
          "internalType": "address",
          "name": "account",
          "type": "address"
        }
      ],
      "name": "grantRole",
      "outputs": [],
      "stateMutability": "nonpayable",
      "type": "function"
    },
    {
      "inputs": [
        {
          "internalType": "bytes32",
          "name": "role",
          "type": "bytes32"
        },
        {
          "internalType": "address",
          "name": "account",
          "type": "address"
        }
      ],
      "name": "hasRole",
      "outputs": [
        {
          "internalType": "bool",
          "name": "",
          "type": "bool"
        }
      ],
      "stateMutability": "view",
      "type": "function"
    },
    {
      "inputs": [
        {
          "internalType": "address",
          "name": "baalSummoner",
          "type": "address"
        },
        {
          "internalType": "address",
          "name": "shamanSummoner",
          "type": "address"
        }
      ],
      "name": "initialize",
      "outputs": [],
      "stateMutability": "nonpayable",
      "type": "function"
    },
    {
      "inputs": [],
      "name": "proxiableUUID",
      "outputs": [
        {
          "internalType": "bytes32",
          "name": "",
          "type": "bytes32"
        }
      ],
      "stateMutability": "view",
      "type": "function"
    },
    {
      "inputs": [
        {
          "internalType": "bytes32",
          "name": "role",
          "type": "bytes32"
        },
        {
          "internalType": "address",
          "name": "account",
          "type": "address"
        }
      ],
      "name": "renounceRole",
      "outputs": [],
      "stateMutability": "nonpayable",
      "type": "function"
    },
    {
      "inputs": [
        {
          "internalType": "bytes32",
          "name": "role",
          "type": "bytes32"
        },
        {
          "internalType": "address",
          "name": "account",
          "type": "address"
        }
      ],
      "name": "revokeRole",
      "outputs": [],
      "stateMutability": "nonpayable",
      "type": "function"
    },
    {
      "inputs": [
        {
          "internalType": "uint256",
          "name": "_saltNonce",
          "type": "uint256"
        },
        {
          "internalType": "bytes",
          "name": "_initializationMintParams",
          "type": "bytes"
        },
        {
          "internalType": "bytes",
          "name": "_initializationTokenParams",
          "type": "bytes"
        },
        {
          "internalType": "bytes[]",
          "name": "_baalInitializationActions",
          "type": "bytes[]"
        },
        {
          "internalType": "bytes",
          "name": "_shamanInitializationParams",
          "type": "bytes"
        }
      ],
      "name": "summonBaalAndShaman",
      "outputs": [
        {
          "internalType": "address",
          "name": "_baalAddress",
          "type": "address"
        },
        {
          "internalType": "address",
          "name": "_shamanAddress",
          "type": "address"
        }
      ],
      "stateMutability": "nonpayable",
      "type": "function"
    },
    {
      "inputs": [
        {
          "internalType": "bytes4",
          "name": "interfaceId",
          "type": "bytes4"
        }
      ],
      "name": "supportsInterface",
      "outputs": [
        {
          "internalType": "bool",
          "name": "",
          "type": "bool"
        }
      ],
      "stateMutability": "view",
      "type": "function"
    },
    {
      "inputs": [],
      "name": "updateVersion",
      "outputs": [],
      "stateMutability": "nonpayable",
      "type": "function"
    },
    {
      "inputs": [
        {
          "internalType": "address",
          "name": "newImplementation",
          "type": "address"
        }
      ],
      "name": "upgradeTo",
      "outputs": [],
      "stateMutability": "nonpayable",
      "type": "function"
    },
    {
      "inputs": [
        {
          "internalType": "address",
          "name": "newImplementation",
          "type": "address"
        },
        {
          "internalType": "bytes",
          "name": "data",
          "type": "bytes"
        }
      ],
      "name": "upgradeToAndCall",
      "outputs": [],
      "stateMutability": "payable",
      "type": "function"
    },
    {
      "inputs": [],
      "name": "version",
      "outputs": [
        {
          "internalType": "uint256",
          "name": "",
          "type": "uint256"
        }
      ],
      "stateMutability": "view",
      "type": "function"
    }
  ],
  "transactionHash": "0x4a3386875b2b222857e5a8cd3471392e41d988710b05a1cad1575ae3f3dc3e45",
  "args": [],
  "numDeployments": 1,
  "solcInputHash": "5850bcead0e74ea740863132247ccf2c",
  "bytecode": "0x60a06040523060805234801561001457600080fd5b50608051611c6d61004c6000396000818161042701528181610467015281816107460152818161078601526107fe0152611c6d6000f3fe6080604052600436106100de5760003560e01c80634f1ef286116100855780634f1ef2861461022057806352d1902d1461023357806354fd4d501461024857806391d1485414610261578063a217fddf14610281578063cf9e5fb214610296578063d547741f146102b6578063f19d99f4146102d6578063f72c0d8b1461031657600080fd5b806301ffc9a7146100e357806314b630f914610118578063248a9ca31461014b5780632f2ff15d1461018957806336568abe146101ab5780633659cfe6146101cb578063485cc955146101eb57806348c02dc11461020b575b600080fd5b3480156100ef57600080fd5b506101036100fe36600461147b565b610338565b60405190151581526020015b60405180910390f35b34801561012457600080fd5b5060fb5461013e906201000090046001600160a01b031681565b60405161010f91906114a5565b34801561015757600080fd5b5061017b6101663660046114b9565b60009081526065602052604090206001015490565b60405190815260200161010f565b34801561019557600080fd5b506101a96101a43660046114e7565b61036f565b005b3480156101b757600080fd5b506101a96101c63660046114e7565b610399565b3480156101d757600080fd5b506101a96101e6366004611517565b61041c565b3480156101f757600080fd5b506101a9610206366004611534565b6104e5565b34801561021757600080fd5b506101a96106ec565b6101a961022e366004611578565b61073b565b34801561023f57600080fd5b5061017b6107f1565b34801561025457600080fd5b5060fb5461ffff1661017b565b34801561026d57600080fd5b5061010361027c3660046114e7565b61089f565b34801561028d57600080fd5b5061017b600081565b3480156102a257600080fd5b5060fc5461013e906001600160a01b031681565b3480156102c257600080fd5b506101a96102d13660046114e7565b6108ca565b3480156102e257600080fd5b506102f66102f1366004611685565b6108ef565b604080516001600160a01b0393841681529290911660208301520161010f565b34801561032257600080fd5b5061017b600080516020611bd183398151915281565b60006001600160e01b03198216637965db0b60e01b148061036957506301ffc9a760e01b6001600160e01b03198316145b92915050565b60008281526065602052604090206001015461038a81610d23565b6103948383610d2d565b505050565b6001600160a01b038116331461040e5760405162461bcd60e51b815260206004820152602f60248201527f416363657373436f6e74726f6c3a2063616e206f6e6c792072656e6f756e636560448201526e103937b632b9903337b91039b2b63360891b60648201526084015b60405180910390fd5b6104188282610db3565b5050565b306001600160a01b037f00000000000000000000000000000000000000000000000000000000000000001614156104655760405162461bcd60e51b815260040161040590611786565b7f00000000000000000000000000000000000000000000000000000000000000006001600160a01b0316610497610e1a565b6001600160a01b0316146104bd5760405162461bcd60e51b8152600401610405906117d2565b6104c681610e36565b604080516000808252602082019092526104e291839190610e4e565b50565b600054610100900460ff16158080156105055750600054600160ff909116105b8061051f5750303b15801561051f575060005460ff166001145b6105825760405162461bcd60e51b815260206004820152602e60248201527f496e697469616c697a61626c653a20636f6e747261637420697320616c72656160448201526d191e481a5b9a5d1a585b1a5e995960921b6064820152608401610405565b6000805460ff1916600117905580156105a5576000805461ff0019166101001790555b6001600160a01b0383166105fb5760405162461bcd60e51b815260206004820152601a60248201527f6261616c53756d6d6f6e65723a207a65726f20616464726573730000000000006044820152606401610405565b6001600160a01b0382166106515760405162461bcd60e51b815260206004820152601c60248201527f7368616d616e53756d6d6f6e65723a207a65726f2061646472657373000000006044820152606401610405565b610659610fb9565b610661610fb9565b60fb805462010000600160b01b031916620100006001600160a01b03868116919091029190911790915560fc80546001600160a01b0319169184169190911790558015610394576000805461ff0019169055604051600181527f7f26b83ff96e1f2b6a682f133852f6798a09c465da95921460cefb38474024989060200160405180910390a1505050565b600080516020611bd183398151915261070481610d23565b60fb80546001919060009061071e90849061ffff16611834565b92506101000a81548161ffff021916908361ffff16021790555050565b306001600160a01b037f00000000000000000000000000000000000000000000000000000000000000001614156107845760405162461bcd60e51b815260040161040590611786565b7f00000000000000000000000000000000000000000000000000000000000000006001600160a01b03166107b6610e1a565b6001600160a01b0316146107dc5760405162461bcd60e51b8152600401610405906117d2565b6107e582610e36565b61041882826001610e4e565b6000306001600160a01b037f0000000000000000000000000000000000000000000000000000000000000000161461088c5760405162461bcd60e51b815260206004820152603860248201527f555550535570677261646561626c653a206d757374206e6f742062652063616c6044820152771b1959081d1a1c9bdd59da0819195b1959d85d1958d85b1b60421b6064820152608401610405565b50600080516020611bf183398151915290565b60009182526065602090815260408084206001600160a01b0393909316845291905290205460ff1690565b6000828152606560205260409020600101546108e581610d23565b6103948383610db3565b600080806108fe86600161185a565b67ffffffffffffffff81111561091657610916611562565b60405190808252806020026020018201604052801561094957816020015b60608152602001906001900390816109345790505b50905060005b868110156109e15787878281811061096957610969611872565b905060200281019061097b9190611888565b8080601f01602080910402602001604051908101604052809392919081815260200183838082843760009201919091525050845185925084915081106109c3576109c3611872565b602002602001018190525080806109d9906118cf565b91505061094f565b5060405163f2fde38b60e01b906109fc9030906024016114a5565b60408051601f198184030181529190526020810180516001600160e01b03166001600160e01b03199093169290921790915281518290610a3e906001906118ea565b81518110610a4e57610a4e611872565b602090810291909101015260fb5460405163eb7a86c360e01b8152620100009091046001600160a01b03169063eb7a86c390610a98908f908f908f908f908f908990600401611982565b6020604051808303816000875af1158015610ab7573d6000803e3d6000fd5b505050506040513d601f19601f82011682018060405250810190610adb9190611a14565b60fc54604051637e919b0960e01b81529194506001600160a01b031690637e919b0990610b1090869089908990600401611a31565b6020604051808303816000875af1158015610b2f573d6000803e3d6000fd5b505050506040513d601f19601f82011682018060405250810190610b539190611a14565b91506001600160a01b038216610bab5760405162461bcd60e51b815260206004820152601b60248201527f7368616d616e416464726573733a207a65726f206164647265737300000000006044820152606401610405565b60405163010d9f9560e31b81526001600160a01b0384169063086cfca890610bd79030906004016114a5565b600060405180830381600087803b158015610bf157600080fd5b505af1158015610c05573d6000803e3d6000fd5b506000925060019150610c159050565b604051908082528060200260200182016040528015610c3e578160200160208202803683370190505b5090508281600081518110610c5557610c55611872565b6001600160a01b039290921660209283029190910190910152604080516001808252818301909252600091816020016020820280368337019050509050600781600081518110610ca757610ca7611872565b6020908102919091010152604051630f656a2160e01b81526001600160a01b03861690630f656a2190610ce09085908590600401611a5f565b600060405180830381600087803b158015610cfa57600080fd5b505af1158015610d0e573d6000803e3d6000fd5b50505050505050995099975050505050505050565b6104e28133611026565b610d37828261089f565b6104185760008281526065602090815260408083206001600160a01b03851684529091529020805460ff19166001179055610d6f3390565b6001600160a01b0316816001600160a01b0316837f2f8788117e7eff1d82e926ec794901d17c78024a50270940304540a733656f0d60405160405180910390a45050565b610dbd828261089f565b156104185760008281526065602090815260408083206001600160a01b0385168085529252808320805460ff1916905551339285917ff6391f5c32d9c69d2a47ea670b442974b53935d1edc7fd64eb21e047a839171b9190a45050565b600080516020611bf1833981519152546001600160a01b031690565b600080516020611bd183398151915261041881610d23565b7f4910fdfa16fed3260ed0e7147f7cc6da11a60208b5b9406d12a635614ffd91435460ff1615610e81576103948361107f565b826001600160a01b03166352d1902d6040518163ffffffff1660e01b8152600401602060405180830381865afa925050508015610edb575060408051601f3d908101601f19168201909252610ed891810190611ae3565b60015b610f3e5760405162461bcd60e51b815260206004820152602e60248201527f45524331393637557067726164653a206e657720696d706c656d656e7461746960448201526d6f6e206973206e6f74205555505360901b6064820152608401610405565b600080516020611bf18339815191528114610fad5760405162461bcd60e51b815260206004820152602960248201527f45524331393637557067726164653a20756e737570706f727465642070726f786044820152681a58589b195555525160ba1b6064820152608401610405565b5061039483838361111b565b600054610100900460ff166110245760405162461bcd60e51b815260206004820152602b60248201527f496e697469616c697a61626c653a20636f6e7472616374206973206e6f74206960448201526a6e697469616c697a696e6760a81b6064820152608401610405565b565b611030828261089f565b6104185761103d81611146565b611048836020611158565b604051602001611059929190611afc565b60408051601f198184030181529082905262461bcd60e51b825261040591600401611b6b565b6001600160a01b0381163b6110ec5760405162461bcd60e51b815260206004820152602d60248201527f455243313936373a206e657720696d706c656d656e746174696f6e206973206e60448201526c1bdd08184818dbdb9d1c9858dd609a1b6064820152608401610405565b600080516020611bf183398151915280546001600160a01b0319166001600160a01b0392909216919091179055565b611124836112fb565b6000825111806111315750805b1561039457611140838361133b565b50505050565b60606103696001600160a01b03831660145b60606000611167836002611b7e565b61117290600261185a565b67ffffffffffffffff81111561118a5761118a611562565b6040519080825280601f01601f1916602001820160405280156111b4576020820181803683370190505b509050600360fc1b816000815181106111cf576111cf611872565b60200101906001600160f81b031916908160001a905350600f60fb1b816001815181106111fe576111fe611872565b60200101906001600160f81b031916908160001a9053506000611222846002611b7e565b61122d90600161185a565b90505b60018111156112a5576f181899199a1a9b1b9c1cb0b131b232b360811b85600f166010811061126157611261611872565b1a60f81b82828151811061127757611277611872565b60200101906001600160f81b031916908160001a90535060049490941c9361129e81611b9d565b9050611230565b5083156112f45760405162461bcd60e51b815260206004820181905260248201527f537472696e67733a20686578206c656e67746820696e73756666696369656e746044820152606401610405565b9392505050565b6113048161107f565b6040516001600160a01b038216907fbc7cd75a20ee27fd9adebab32041f755214dbc6bffa90cc0225b39da2e5c2d3b90600090a250565b60606112f48383604051806060016040528060278152602001611c11602791396060600080856001600160a01b0316856040516113789190611bb4565b600060405180830381855af49150503d80600081146113b3576040519150601f19603f3d011682016040523d82523d6000602084013e6113b8565b606091505b50915091506113c9868383876113d3565b9695505050505050565b6060831561143f578251611438576001600160a01b0385163b6114385760405162461bcd60e51b815260206004820152601d60248201527f416464726573733a2063616c6c20746f206e6f6e2d636f6e74726163740000006044820152606401610405565b5081611449565b6114498383611451565b949350505050565b8151156114615781518083602001fd5b8060405162461bcd60e51b81526004016104059190611b6b565b60006020828403121561148d57600080fd5b81356001600160e01b0319811681146112f457600080fd5b6001600160a01b0391909116815260200190565b6000602082840312156114cb57600080fd5b5035919050565b6001600160a01b03811681146104e257600080fd5b600080604083850312156114fa57600080fd5b82359150602083013561150c816114d2565b809150509250929050565b60006020828403121561152957600080fd5b81356112f4816114d2565b6000806040838503121561154757600080fd5b8235611552816114d2565b9150602083013561150c816114d2565b634e487b7160e01b600052604160045260246000fd5b6000806040838503121561158b57600080fd5b8235611596816114d2565b9150602083013567ffffffffffffffff808211156115b357600080fd5b818501915085601f8301126115c757600080fd5b8135818111156115d9576115d9611562565b604051601f8201601f19908116603f0116810190838211818310171561160157611601611562565b8160405282815288602084870101111561161a57600080fd5b8260208601602083013760006020848301015280955050505050509250929050565b60008083601f84011261164e57600080fd5b50813567ffffffffffffffff81111561166657600080fd5b60208301915083602082850101111561167e57600080fd5b9250929050565b600080600080600080600080600060a08a8c0312156116a357600080fd5b8935985060208a013567ffffffffffffffff808211156116c257600080fd5b6116ce8d838e0161163c565b909a50985060408c01359150808211156116e757600080fd5b6116f38d838e0161163c565b909850965060608c013591508082111561170c57600080fd5b818c0191508c601f83011261172057600080fd5b81358181111561172f57600080fd5b8d60208260051b850101111561174457600080fd5b6020830196508095505060808c013591508082111561176257600080fd5b5061176f8c828d0161163c565b915080935050809150509295985092959850929598565b6020808252602c908201527f46756e6374696f6e206d7573742062652063616c6c6564207468726f7567682060408201526b19195b1959d85d1958d85b1b60a21b606082015260800190565b6020808252602c908201527f46756e6374696f6e206d7573742062652063616c6c6564207468726f7567682060408201526b6163746976652070726f787960a01b606082015260800190565b634e487b7160e01b600052601160045260246000fd5b600061ffff8083168185168083038211156118515761185161181e565b01949350505050565b6000821982111561186d5761186d61181e565b500190565b634e487b7160e01b600052603260045260246000fd5b6000808335601e1984360301811261189f57600080fd5b83018035915067ffffffffffffffff8211156118ba57600080fd5b60200191503681900382131561167e57600080fd5b60006000198214156118e3576118e361181e565b5060010190565b6000828210156118fc576118fc61181e565b500390565b81835281816020850137506000828201602090810191909152601f909101601f19169091010190565b60005b8381101561194557818101518382015260200161192d565b838111156111405750506000910152565b6000815180845261196e81602086016020860161192a565b601f01601f19169290920160200192915050565b8681526000602060808184015261199d60808401888a611901565b83810360408501526119b0818789611901565b905083810360608501528085518083528383019150838160051b84010184880160005b83811015611a0157601f198684030185526119ef838351611956565b948701949250908601906001016119d3565b50909d9c50505050505050505050505050565b600060208284031215611a2657600080fd5b81516112f4816114d2565b6001600160a01b0384168152604060208201819052600090611a569083018486611901565b95945050505050565b604080825283519082018190526000906020906060840190828701845b82811015611aa15781516001600160a01b031684529284019290840190600101611a7c565b5050508381038285015284518082528583019183019060005b81811015611ad657835183529284019291840191600101611aba565b5090979650505050505050565b600060208284031215611af557600080fd5b5051919050565b76020b1b1b2b9b9a1b7b73a3937b61d1030b1b1b7bab73a1604d1b815260008351611b2e81601785016020880161192a565b7001034b99036b4b9b9b4b733903937b6329607d1b6017918401918201528351611b5f81602884016020880161192a565b01602801949350505050565b6020815260006112f46020830184611956565b6000816000190483118215151615611b9857611b9861181e565b500290565b600081611bac57611bac61181e565b506000190190565b60008251611bc681846020870161192a565b919091019291505056fe189ab7a9244df0848122154315af71fe140f3db0fe014031783b0946b8c9d2e3360894a13ba1a3210667c828492db98dca3e2076cc3735a920a3ca505d382bbc416464726573733a206c6f772d6c6576656c2064656c65676174652063616c6c206661696c6564a2646970667358221220d0a24b83485312d5d68fdd58d65c89cb82074bf00b052ef938d9d67983d2249564736f6c634300080c0033",
  "devdoc": {
    "kind": "dev",
    "methods": {
      "getRoleAdmin(bytes32)": {
        "details": "Returns the admin role that controls `role`. See {grantRole} and {revokeRole}. To change a role's admin, use {_setRoleAdmin}."
      },
      "grantRole(bytes32,address)": {
        "details": "Grants `role` to `account`. If `account` had not been already granted `role`, emits a {RoleGranted} event. Requirements: - the caller must have ``role``'s admin role. May emit a {RoleGranted} event."
      },
      "hasRole(bytes32,address)": {
        "details": "Returns `true` if `account` has been granted `role`."
      },
      "proxiableUUID()": {
        "details": "Implementation of the ERC1822 {proxiableUUID} function. This returns the storage slot used by the implementation. It is used to validate the implementation's compatibility when performing an upgrade. IMPORTANT: A proxy pointing at a proxiable contract should not be considered proxiable itself, because this risks bricking a proxy that upgrades to it, by delegating to itself until out of gas. Thus it is critical that this function revert if invoked through a proxy. This is guaranteed by the `notDelegated` modifier."
      },
      "renounceRole(bytes32,address)": {
        "details": "Revokes `role` from the calling account. Roles are often managed via {grantRole} and {revokeRole}: this function's purpose is to provide a mechanism for accounts to lose their privileges if they are compromised (such as when a trusted device is misplaced). If the calling account had been revoked `role`, emits a {RoleRevoked} event. Requirements: - the caller must be `account`. May emit a {RoleRevoked} event."
      },
      "revokeRole(bytes32,address)": {
        "details": "Revokes `role` from `account`. If `account` had been granted `role`, emits a {RoleRevoked} event. Requirements: - the caller must have ``role``'s admin role. May emit a {RoleRevoked} event."
      },
      "summonBaalAndShaman(uint256,bytes,bytes,bytes[],bytes)": {
        "params": {
          "_baalInitializationActions": "Baal initialization actions",
          "_initializationMintParams": "The parameters for minting the tokens",
          "_initializationTokenParams": "The parameters for deploying the tokens",
          "_saltNonce": "Salt nonce for baal summoning",
          "_shamanInitializationParams": "Shaman initialization params"
        },
        "returns": {
          "_baalAddress": "The address of the new Baal contract",
          "_shamanAddress": "The address of the new Shaman contract"
        }
      },
      "supportsInterface(bytes4)": {
        "details": "See {IERC165-supportsInterface}."
      },
      "updateVersion()": {
        "details": "onlyOwner"
      },
      "upgradeTo(address)": {
        "custom:oz-upgrades-unsafe-allow-reachable": "delegatecall",
        "details": "Upgrade the implementation of the proxy to `newImplementation`. Calls {_authorizeUpgrade}. Emits an {Upgraded} event."
      },
      "upgradeToAndCall(address,bytes)": {
        "custom:oz-upgrades-unsafe-allow-reachable": "delegatecall",
        "details": "Upgrade the implementation of the proxy to `newImplementation`, and subsequently execute the function call encoded in `data`. Calls {_authorizeUpgrade}. Emits an {Upgraded} event."
      }
    },
    "title": "Higher-order summoner contract for Baal and Shaman in a single transaction",
    "version": 1
  },
  "userdoc": {
    "kind": "user",
    "methods": {
      "UPGRADER_ROLE()": {
        "notice": "User role required in order to upgrade the contract"
      },
      "summonBaalAndShaman(uint256,bytes,bytes,bytes[],bytes)": {
        "notice": "Summon a new Baal and DeVoxShaman"
      },
      "updateVersion()": {
        "notice": "Update the contract version number"
      },
      "version()": {
        "notice": "gets the current version of the contract"
      }
    },
    "version": 1
  },
  "storageLayout": {
    "storage": [
      {
        "astId": 4913,
        "contract": "contracts/shaman/DeVoxBaalAndShamanSummonerV0.sol:DeVoxBaalAndShamanSummonerV0",
        "label": "_initialized",
        "offset": 0,
        "slot": "0",
        "type": "t_uint8"
      },
      {
        "astId": 4916,
        "contract": "contracts/shaman/DeVoxBaalAndShamanSummonerV0.sol:DeVoxBaalAndShamanSummonerV0",
        "label": "_initializing",
        "offset": 1,
        "slot": "0",
        "type": "t_bool"
      },
      {
        "astId": 7242,
        "contract": "contracts/shaman/DeVoxBaalAndShamanSummonerV0.sol:DeVoxBaalAndShamanSummonerV0",
        "label": "__gap",
        "offset": 0,
        "slot": "1",
        "type": "t_array(t_uint256)50_storage"
      },
      {
        "astId": 8352,
        "contract": "contracts/shaman/DeVoxBaalAndShamanSummonerV0.sol:DeVoxBaalAndShamanSummonerV0",
        "label": "__gap",
        "offset": 0,
        "slot": "51",
        "type": "t_array(t_uint256)50_storage"
      },
      {
        "astId": 4015,
        "contract": "contracts/shaman/DeVoxBaalAndShamanSummonerV0.sol:DeVoxBaalAndShamanSummonerV0",
        "label": "_roles",
        "offset": 0,
        "slot": "101",
        "type": "t_mapping(t_bytes32,t_struct(RoleData)4010_storage)"
      },
      {
        "astId": 4310,
        "contract": "contracts/shaman/DeVoxBaalAndShamanSummonerV0.sol:DeVoxBaalAndShamanSummonerV0",
        "label": "__gap",
        "offset": 0,
        "slot": "102",
        "type": "t_array(t_uint256)49_storage"
      },
      {
        "astId": 4895,
        "contract": "contracts/shaman/DeVoxBaalAndShamanSummonerV0.sol:DeVoxBaalAndShamanSummonerV0",
        "label": "__gap",
        "offset": 0,
        "slot": "151",
        "type": "t_array(t_uint256)50_storage"
      },
      {
        "astId": 5210,
        "contract": "contracts/shaman/DeVoxBaalAndShamanSummonerV0.sol:DeVoxBaalAndShamanSummonerV0",
        "label": "__gap",
        "offset": 0,
        "slot": "201",
        "type": "t_array(t_uint256)50_storage"
      },
      {
        "astId": 20102,
        "contract": "contracts/shaman/DeVoxBaalAndShamanSummonerV0.sol:DeVoxBaalAndShamanSummonerV0",
        "label": "_version",
        "offset": 0,
        "slot": "251",
        "type": "t_uint16"
      },
      {
        "astId": 20105,
        "contract": "contracts/shaman/DeVoxBaalAndShamanSummonerV0.sol:DeVoxBaalAndShamanSummonerV0",
        "label": "_baalSummoner",
        "offset": 2,
        "slot": "251",
        "type": "t_contract(IBaalAdvTokenSummoner)13330"
      },
      {
        "astId": 20108,
        "contract": "contracts/shaman/DeVoxBaalAndShamanSummonerV0.sol:DeVoxBaalAndShamanSummonerV0",
        "label": "_shamanSummoner",
        "offset": 0,
        "slot": "252",
        "type": "t_contract(IShamanSummoner)21510"
      }
    ],
    "types": {
      "t_address": {
        "encoding": "inplace",
        "label": "address",
        "numberOfBytes": "20"
      },
      "t_array(t_uint256)49_storage": {
        "base": "t_uint256",
        "encoding": "inplace",
        "label": "uint256[49]",
        "numberOfBytes": "1568"
      },
      "t_array(t_uint256)50_storage": {
        "base": "t_uint256",
        "encoding": "inplace",
        "label": "uint256[50]",
        "numberOfBytes": "1600"
      },
      "t_bool": {
        "encoding": "inplace",
        "label": "bool",
        "numberOfBytes": "1"
      },
      "t_bytes32": {
        "encoding": "inplace",
        "label": "bytes32",
        "numberOfBytes": "32"
      },
      "t_contract(IBaalAdvTokenSummoner)13330": {
        "encoding": "inplace",
        "label": "contract IBaalAdvTokenSummoner",
        "numberOfBytes": "20"
      },
      "t_contract(IShamanSummoner)21510": {
        "encoding": "inplace",
        "label": "contract IShamanSummoner",
        "numberOfBytes": "20"
      },
      "t_mapping(t_address,t_bool)": {
        "encoding": "mapping",
        "key": "t_address",
        "label": "mapping(address => bool)",
        "numberOfBytes": "32",
        "value": "t_bool"
      },
      "t_mapping(t_bytes32,t_struct(RoleData)4010_storage)": {
        "encoding": "mapping",
        "key": "t_bytes32",
        "label": "mapping(bytes32 => struct AccessControlUpgradeable.RoleData)",
        "numberOfBytes": "32",
        "value": "t_struct(RoleData)4010_storage"
      },
      "t_struct(RoleData)4010_storage": {
        "encoding": "inplace",
        "label": "struct AccessControlUpgradeable.RoleData",
        "members": [
          {
            "astId": 4007,
            "contract": "contracts/shaman/DeVoxBaalAndShamanSummonerV0.sol:DeVoxBaalAndShamanSummonerV0",
            "label": "members",
            "offset": 0,
            "slot": "0",
            "type": "t_mapping(t_address,t_bool)"
          },
          {
            "astId": 4009,
            "contract": "contracts/shaman/DeVoxBaalAndShamanSummonerV0.sol:DeVoxBaalAndShamanSummonerV0",
            "label": "adminRole",
            "offset": 0,
            "slot": "1",
            "type": "t_bytes32"
          }
        ],
        "numberOfBytes": "64"
      },
      "t_uint16": {
        "encoding": "inplace",
        "label": "uint16",
        "numberOfBytes": "2"
      },
      "t_uint256": {
        "encoding": "inplace",
        "label": "uint256",
        "numberOfBytes": "32"
      },
      "t_uint8": {
        "encoding": "inplace",
        "label": "uint8",
        "numberOfBytes": "1"
      }
    }
  }
}